:020000040800F2
:10000000009000208104000881F8000859EC0008E5
:1000100051F800080161000809050008000000000F
:10002000000000000000000000000000A92B0108F3
:10003000D96700080000000059140108994F010811
:10004000C9040008C9040008C9040008C90400085C
:10005000C9040008C9040008C9040008C90400084C
:10006000C9040008C9040008C9040008C90400083C
:10007000C9040008C9040008C9040008C90400082C
:10008000C9040008C9040008C9040008C90400081C
:10009000C9040008C9040008C904000881690008EF
:1000A000C904000809550108C9040008C90400086A
:1000B000C9040008C9040008C9040008C9040008EC
:1000C000C9040008C9040008C9040008C9040008DC
:1000D000C9040008C9040008C9040008C9040008CC
:1000E000C9040008C904000800000000C904000891
:1000F000C9040008C9040008C9040008C9040008AC
:10010000C9040008C9040008C9040008C90400089B
:10011000C9040008C9040008C9040008C90400088B
:10012000C9040008C9040008C9040008C90400087B
:10013000C9040008C9040008C9040008C90400086B
:10014000C9040008C9040008000000000000000005
:10015000C9040008C9040008C9040008C90400084B
:10016000C9040008C9040008C9040008C90400083B
:10017000C9040008C9040008C90400080000000000
:10018000C9040008C9040008C9040008C90400081B
:10019000C9040008C9040008C9040008C90400080B
:1001A00099F60008C9040008C9040008C904000839
:1001B000C9040008C9040008C9040008C9040008EB
:1001C000C9040008C9040008C9040008C9040008DB
:1001D000C9040008B9080108C9040008C9040008D6
:1001E000C9040008C9040008C9040008C9040008BB
:1001F000C9040008C9040008C9040008C9040008AB
:10020000C9040008C9040008C9040008C90400089A
:10021000C9040008C9040008C9040008C90400088A
:10022000C9040008C9040008C9040008C90400087A
:10023000C9040008C9040008C9040008C90400086A
:10024000C9040008C9040008C9040008C90400085A
:10025000C9040008C9040008C9040008C90400084A
:10026000C9040008C9040008C9040008C90400083A
:10027000C9040008C9040008C9040008C90400082A
:10028000C9040008C9040008C904000800000000EF
:10029000C9040008C904000800F002F800F0E1F801
:1002A00014A696E8000CB244B344DA4501D100F03C
:1002B000D8F8BAE80F000FA696E83000A5EB0405C1
:1002C00004EB0607AAEB0704A7F101074FEA15158F
:1002D0004FEA3414A4F10104AC4201D300F0C1F898
:1002E00013F0010F18BFFB1A43F0010300F001F8EF
:1002F000DBE71847B4380A0024390A000A444FF0F3
:10030000000C10F8013B13F0070408BF10F8014B74
:100310001D1108BF10F8015B641E05D010F8016BB9
:10032000641E01F8016BF9D113F0080F1EBF10F81D
:10033000014BAD1C0C1B09D16D1E58BF01F801CB40
:10034000FAD505E014F8016B01F8016B6D1EF9D5C3
:100350009142D6D370470000103A24BF78C878C1C4
:10036000FAD8520724BF30C830C144BF04680C60BB
:10037000704700007047000000230024002500267D
:10038000103A28BF78C1FBD8520728BF30C148BFF8
:100390000B6070476E2900F0EB86702900F04782F1
:1003A00066293FF0108065293FF00D8067293FF0F6
:1003B0000A8061293FF0098003681B0A28BF41F0C9
:1003C0008001692900F0B881642900F0B5817529A0
:1003D00000F0B2816F2901F0E181782900F01382E9
:1003E000E92901F07B81E42901F07881F52901F008
:1003F0007581EF2901F0DE81F82900F0128203688F
:10040000DB0928BF41F08001632901F0FD807329D9
:1004100001F00281E32901F0CB84F32901F0D084BB
:10042000002070471FB53EF08EFF9DE8030001F0ED
:100430007DFA01F05BFA0400002000213EF002FF8B
:10044000401C6060002000213EF012FFE06001F0DF
:10045000FBFD00F09FFD1FBD10B5002001F0C2FDA7
:1004600010BD01F0FEFD1146FFF7DCFF2EF05CFC35
:1004700001F05FFE03B4FFF7EFFF03BC2EF0B4FB07
:1004800015491648086016494FF0FF0008601548E6
:100490008047154880471548016821F00801016030
:1004A0001348016841F470010160BFF34F8FBFF33F
:1004B0006F8F10480047FEE7FEE7FEE7FEE7FEE726
:1004C000FEE7FEE7FEE7FEE7FEE700000A480B490D
:1004D0000B4A0C4B7047000004F80324FF0000C7D0
:1004E00008F80324A96900081951010814ED00E077
:1004F00088ED00E099020008000000200090002034
:1005000000100020001000201EF0040F0CBFEFF3BD
:100510000880EFF309802DE9F00F694601F1200012
:100520001CF0B2F9BDE8F00F704753EA020C00F07E
:1005300069802DE9F04B4FF00006002B1FBFB3FA86
:1005400083F503FA05F424FA05F65E4012BF16435C
:10055000B2FA82F502FA05F4C5F120051EBF22FAAF
:1005600005FC44EA0C04203556EA044C4FEA1444D6
:1005700018BF641C4FF000084FF00009904271EB67
:10058000030C39D3002919BFB1FA81F701FA07F634
:10059000B0FA80F700FA07F6C7F120071EBF20FA6D
:1005A00007FC46EA0C062037B6FBF4FCA7EB050770
:1005B000103F07F01F0BCBF120062CFA06F60CFAC1
:1005C0000BFB44BFB3460026202FA4BF5E464FF06E
:1005D000000B5BEA060C08BF4FF0010B19EB0B098F
:1005E00048EB0608ABFB027C06FB02CC0BFB03CC02
:1005F000C01B71EB0C01C1E70B4602464146484661
:10060000BDE8F08B13B5084318BF4FF0FF3001462B
:10061000AFF30080BDE81C40704700007CB51D466C
:1006200016460C00009007D04142A14202D320445C
:10063000401E01E04FF0FF30064B7B442A466946DE
:100640000190304600F0BBFF002C02D0009A002140
:1006500011707CBDA70F00000FB41CB50C0007AAD9
:10066000009007D04142A14202D32044401E01E045
:100670004FF0FF30074B7B4469460190069800F02D
:100680009EFF0021002C01D0009A11701CBC5DF867
:1006900014FB00006B0F000070B50446856900680C
:1006A000C10601D5302600E02026C00707D070BD66
:1006B000D4E9012130469047206A401C20626D1E1B
:1006C000F6D570BD70B5044685690078C00707D1BE
:1006D00070BDD4E9012120209047206A401C20628F
:1006E0006D1EF6D570BD70B50C460546012A05D0C5
:1006F0002878800600D5EA69002302E0012305E09E
:100700005B1C934202D2E05C0028F9D1A869E6188C
:10071000C01AA861286A184428622846FFF7BCFF5F
:1007200004E0D5E9012114F8010B9047B442F8D355
:100730002846FFF7C7FF70BD2DE9F04106460024AB
:1007400010687529314616A510D000F0A6FC0028C7
:1007500002DA404213A507E031688A0701D512A5E5
:1007600002E0490704D511A5012401E000F09EFC38
:1007700000210A2206F1240709E0B0FBF2FCB0FBDD
:10078000F2F302FB1C00303078541846491C002854
:10079000F3D123462A463046BDE8F04100F08FBC35
:1007A000000000002D0000002B00000020000000D1
:1007B000F0B40D460188090502D5214C7C4402E0C5
:1007C0001F4C7C440E34002100F1240608E002F0A6
:1007D0000F071209E75D42EA03721B097754491CAF
:1007E00052EA0307F3D102780023120704D5702DD3
:1007F00006D009B1022311342246F0BC00F05FBCE0
:1008000001231034F8E770B504460D462146106800
:1008100000F04CFC024629462046BDE8704000230B
:10082000C6E7D21D22F00703D3E90023C0E703681F
:10083000126843F0200303600823C3610023B7E775
:100840000AED03002DE9F05F894604464FF0000AE7
:10085000DFF874B1FB44C0F820A02046E168884767
:10086000002874D0252806D0D4E901219047206AB9
:10087000401C2062F1E700265F462046E168884779
:100880002028054607DB312D05D2781910F8200CF9
:1008900008B10643F1E7B00701D526F00406C4F815
:1008A0001CA00027C4F818A02A2D09D028463EF025
:1008B0007AFC38B304EB8708303DC8F8185019E0CB
:1008C00059F8041B204604EB87029161E1688847D0
:1008D000012F054618D1E069002820DA26F020060D
:1008E0001DE0D8F8180000EB800005EB4000303820
:1008F000C8F818002046E168884705463EF053FCDA
:100900000028EED1012F0AD02E2D08D12046E16813
:1009100088477F1C0546022F46F02006C4DBA069ED
:10092000002803DA404246F00106A061F00701D03A
:1009300026F010066C2D0BD0682D09D04C2D39D027
:100940006A2D35D0742D35D07A2D33D016E038E0AD
:10095000E1682F4620468847B842054609D16C2FEA
:1009600026D04FF48060E16806432046884705465C
:1009700004E06C2F1AD04FF4807006430DB3A5F13C
:100980004100192802D8203546F400664A46294617
:10099000204626604E46FFF7FDFC80B101280BD0B3
:1009A000F61D26F0070000F1080956E74020E4E7AD
:1009B0008020D8E70020D6E706F104094DE7284655
:1009C00052E7206ABDE8F09F9AEC03002DE9F0475A
:1009D00091460F4680460446002614F8015B2DB16F
:1009E00000F0EEFA0068405DC007F6D12B2D02D072
:1009F0002D2D18D0641E4A463946204600F0E4FEEC
:100A000027B13968A14201D1C7F800804FF0020434
:100A100071050BD54042002803DD00F0D9FA0460CF
:100A2000A007BDE8F08746F48066E4E70028F8DA1E
:100A300000F0CEFA04606FF00040F2E70B4601468A
:100A4000184600F01FBF00000EB5054614460E46BE
:100A500013A000F03BFF284600F038FF16A000F07E
:100A600035FF304600F032FF15A000F02FFF0021C7
:100A70008DF80B100A210DF10A008DF80A1008E01C
:100A800094FBF1F201FB124294FBF1F4303200F8D6
:100A9000012D002CF4DC00F019FF00F0E8FE00004E
:100AA0002A2A2A20617373657274696F6E206661E9
:100AB000696C65643A2000002C2066696C65200032
:100AC0002C206C696E652000401ECAB210F8011F10
:100AD0008A4202D00029F9D10020704710B5431E88
:100AE00013F8014F002CFBD105E011F8014B002C4D
:100AF00003F8014B03D0521EF7D20021197010BD2C
:100B000040EA010310B59B070FD1042A0DD310C88A
:100B100008C9121F9C42F8D020BA19BA884201D9DC
:100B2000012010BD4FF0FF3010BD1AB1D30703D024
:100B3000521C07E0002010BD10F8013B11F8014BDA
:100B40001B1B07D110F8013B11F8014B1B1B01D1F6
:100B5000921EF1D1184610BD10B5431C02E010F8EA
:100B6000011B71B18107FAD14FF0013202C88C1A12
:100B70008C4314EAC211F9D0C01A0A0603D0C01E71
:100B800010BDC01A10BD0A0401D0801E10BD09029C
:100B9000FCD0401E10BD40EA010370B59B072ED16A
:100BA0004FF00136042A2AD308C810C99D1B9D4363
:100BB000121F15EAC61517D0D8B2E1B2401A50EA92
:100BC000056110D198B2A1B2401A50EA05410AD18C
:100BD00023F07F4024F07F41401A50EA052102D1E2
:100BE000180EA0EB146070BDA342DBD018BA21BA76
:100BF000884201D9012070BD4FF0FF3070BD0AB9A5
:100C0000002070BD10F8013B11F8014B63B1A34205
:100C10000AD1521E08D010F8013B11F8014B1BB14C
:100C2000A34201D1521EEDD1181B70BD032A40F220
:100C3000308010F0030C00F0158011F8013BBCF17E
:100C4000020F624498BF11F801CB00F8013B38BF96
:100C500011F8013BA2F1040298BF00F801CB38BFA4
:100C600000F8013B11F0030300F06780083AC0F080
:100C7000088051F8043B083A51F804CBA0E808106A
:100C8000F5E7121D5CBF51F8043B40F8043BAFF39D
:100C90000080D20724BF11F8013B11F801CB48BFF7
:100CA00011F8012B24BF00F8013B00F801CB48BF2D
:100CB00000F8012B7047431A28BF9A427FF6B6AF5F
:100CC00010441144032A40F2268010F0030F1EBF87
:100CD00011F8013D521E00F8013D10F0030F7FF4A2
:100CE000F6AF11F0030300F06D80083AC0F00B80FE
:100CF00051F8043D083A51F804CD40F8043D40F85D
:100D000004CDFFF7F3BF121D5CBF51F8043D40F85E
:100D1000043DAFF30080D20724BF11F8013D11F864
:100D200001CD48BF11F8012C24BF00F8013D00F8A7
:100D300001CD48BF00F8012C704710B5203AC0F033
:100D40000B80B1E81850A0E81850B1E81850A0E89E
:100D50001850203ABFF4F5AF5FEA027C24BFB1E837
:100D60001850A0E8185044BF18C918C0BDE810407A
:100D70005FEA827C24BF51F8043B40F8043B08BF83
:100D80007047D20728BF31F8023B48BF11F8012B4A
:100D900028BF20F8023B48BF00F8012B7047431AD8
:100DA00028BF9A427FF6C9AF1044114410F0030FD8
:100DB0001EBF11F8013D521E00F8013D10F0030F57
:100DC0007FF4F6AF103AC0F00A8010B531E9185040
:100DD00020E91850103ABFF4F9AFBDE810405307AE
:100DE00024BF31E9081020E9081044BF51F8043D40
:100DF00040F8043D12F0030F08BF7047D20728BF28
:100E000031F8023D48BF11F8012C28BF20F8023DFF
:100E100048BF00F8012C704702F0FF0343EA0322A9
:100E200042EA024200F024B84FF000020429C0F068
:100E3000128010F0030C00F01B80CCF1040CBCF10C
:100E4000020F18BF00F8012BA8BF20F8022BA1EB5E
:100E50000C0100F00DB85FEAC17C24BF00F8012B43
:100E600000F8012B48BF00F8012B70474FF000023B
:100E700000B5134694469646203922BFA0E80C5090
:100E8000A0E80C50B1F12001BFF4F7AF090728BF6B
:100E9000A0E80C5048BF0CC05DF804EB890028BFE7
:100EA00040F8042B08BF704748BF20F8022B11F010
:100EB000804F18BF00F8012B704710B5044610F0A2
:100EC000030F08BF11F0030F40F015804FF0013EF3
:100ED000121FC0F20E8051F8043BA3EB0E0C2CEA5B
:100EE000030C1CEACE1C08BF40F8043BF0D0A1F173
:100EF000040102F10402521E08DB11F8013B00F864
:100F0000013B002BF7D11146FFF78EFF204610BDA5
:100F100030B44FF0013C50F8042BCCFA52F451F8A5
:100F2000043BD51A20D1FCB950F8042BCCFA52F46A
:100F300051F8043BD51A17D1B4B950F8042BCCFAA8
:100F400052F451F8043BD51A0ED16CB950F8042B69
:100F5000CCFA52F451F8043BD51A05D1002CDAD062
:100F600030BC4FF00000704729BAB1FA81F111F09E
:100F70001801D1F120008440F2D1CA40CB4012F0D8
:100F8000FF0213F0FF0330BCD01A70477047704760
:100F90007047000008487CB57844009007487844C2
:100FA000009C0546019004E0204601680844804703
:100FB000241DAC42F8D17CBDF42D0A00F62D0A00A8
:100FC00010B500F093FC001D10BD00BF79E20300D6
:100FD000004870472002002470B5064600F082FCED
:100FE000056806F10B0020F00704B4429CBF002006
:100FF00070BD2B466A68BAB11068A04210D304F1E4
:10100000080188423CBF5068586007D351681019E6
:1010100041601168091B016058601460101D70BDAB
:1010200013465268002AE7D12146284600F06AFCA0
:101030000028DED170BD70B50446051F00F052FCDB
:101040000068002C14BF446870BD002C18BFAC426F
:101050003CBF20466468F8D301680A18AA4218BF4A
:10106000456003D12A68054611440160286841198A
:10107000A1421CBF6C6070BD616869602168084452
:10108000286070BD10B5FFF7A3FF006810BD10B554
:101090000446FFF79DFF046010BD09684A0501D5AD
:1010A00040B27047C905FCD500B2704709684A05CF
:1010B00001D5C0B27047C905FCD580B270472DE993
:1010C000F0470D4699469246044600F1240801680F
:1010D000880604D5E06921F01001216000E00120BC
:1010E000A84201DD471B00E00027A1697A1902EB45
:1010F0000900081AA0612078C00602D42046FFF734
:10110000CBFA002608E0D4E901211AF8060090473E
:10111000206A401C761C20624E45F4DB2078C00615
:101120000AD52046FFF7B8FA06E0D4E901213020BD
:101130009047206A401C2062381EA7F10107F4DCAA
:1011400007E0D4E9012118F805009047206A401C07
:101150002062281EA5F10105F3DC2046FFF7B2FA54
:101160002078000602D50220BDE8F0870120FBE7C9
:1011700011680268006A530501D508700AE0D305BA
:1011800001D5088006E0130603D5C217C1E90002A5
:1011900000E00860012070472DE9FF4F0C461E4615
:1011A0004FF0FF378BB0D2E90001DDF860800A9084
:1011B0008A46C1F30A5505B93D46002108464FF05D
:1011C0000000BAF1000F00F4400005DA00EB8000E7
:1011D0004FF4400101EA50004FEA9059B9F1010F74
:1011E00000DDB9460A9850EA4A000ED044F6105085
:1011F000A5F2FF3545432F14B8F1000F1ED07542FC
:10120000291E1EDDC9F100021CE0B8F1010F4FF0EC
:10121000000001D0302103E0F24305E02154401CDE
:10122000B042FBDB30460022002121540B99C1F86B
:101230000880C1E900200FB0BDE8F08FBD1B6D1C18
:10124000DEE74A4600DA694206A800F023FE06AB54
:1012500093E8070003AB83E8070050460A993CF087
:10126000CDFE8DE80700A0F500501F3800900398D0
:10127000002D0ADD42F21F014A460844002303A95B
:10128000039068463DF078F909E0A0F500504A4621
:101290001F38002303A9039068463DF097F98DE8B5
:1012A00007000004000C03D04FF0FF30410800E0BD
:1012B0001046B8F1000F03D00022009215461EE040
:1012C000751E05D400F067FB303262556D1EF9D5EE
:1012D000B3460122084302D000227F1C04E020789C
:1012E000302801D100227F1E002A099784D01DE0FA
:1012F000112D07DA00F04FFB303262556D1C50EAB9
:101300000102F5D1084302D00098C8B10EE00021D7
:10131000681E05E0235C625C63542254401E491C35
:101320008142F7DBAB46A81B401E0990002004F861
:101330000B000B98099AC0F80880C0E9002B7AE7E7
:1013400011264FF0000857E72DE9F04F8846044674
:10135000D21D22F0070191B0D1E90001CDE90A01C7
:101360003DF080FA02460B98C00F01D02D2007E017
:101370002068810701D52B2002E0202101EAC0006E
:10138000032A099001D0072A05DB0346414620467F
:1013900000F0C4FC0BE12078800601D5E06900E094
:1013A0000620B8F1650F814606D0B8F1660F18D057
:1013B000B8F1670F70D131E00020B9F1110F009042
:1013C00001DB112301E009F101030AAA01A90CA81C
:1013D000FFF7E2FEDDE90C70002609F10105834606
:1013E00047E001204B4600904FF000470AAA01A9B0
:1013F0000CA8FFF7D1FEDDE90DB00C995D46002683
:1014000010B909F101000D18B9EB050003D4C0F1C2
:10141000FF3609F10105A5EB09002BE0B9F1010F39
:1014200001DA4FF001090020B9F1110F0090484690
:1014300001DD112300E003460AAA01A90CA8FFF769
:10144000ABFEDDE90C704D46002683462078000790
:101450000AD4AB4500DA5D4601A8012D04DD41192F
:1014600011F8011C302907D04F4502DA17F1040F9B
:1014700004DA012082460FE06D1EEEE7002F02DC49
:10148000ED1B3E4403E0781CA84200DD7D1CB81B28
:1014900000F1010A4FF000472078000703D4AA4565
:1014A00001DB4FF0FF3A0021B7F1004F0DF1430887
:1014B0008DF8431024D002202B23002F01DA7F4225
:1014C0002D230A21021EA0F1010000DC5FB197FB71
:1014D000F1FC97FBF1F201FB1C7C17460CF1300C80
:1014E00008F801CDEEE7A8F1010003702188090595
:1014F00001D5452100E06521A0F1010800F8011C9B
:1015000009980FA9A1EB0807FF1D00B1012041199F
:1015100001EBEA70A1693844081A401EA0612078E6
:10152000C00602D42046FFF7B7F8099828B1D4E9DD
:1015300001219047206A401C20622078C00622D5F5
:101540002046FFF7A9F81EE0002E04DBB34502DDBC
:1015500001A8805D00E03020D4E901219047206A95
:10156000401C2062761CAAF101005FEA000A0AD141
:1015700000F0BCF9C0680168405CD4E901219047E3
:10158000206A401C2062281EA5F10105DCDC07E072
:10159000D4E9012118F8010B9047206A401C206211
:1015A000381EA7F10107F3DC2046FFF78BF8032074
:1015B00011B041E601694A1C02610878704700B524
:1015C0008FB0CDE901310021059105497944CDE97C
:1015D000031011466846FFF735F90FB000BD000053
:1015E000E5FFFFFFD1E900239A4202D2531C0B60B2
:1015F0001070704710B5436913B1AFF3008001E07C
:10160000FFF771F8012010BD127800F124010A7073
:1016100000224A700122EDE711684FF0FF32E9E73E
:101620002DE9FF5F15468A460446DFF8AC80F84492
:101630000027D8E900103E46CDE9001010E03AF846
:1016400016106A4602A800F0A8FC411C07D02178B9
:10165000890603D5E269391891420DD80744761CF2
:101660002078800602D5E069B84205DDAE42E6DBAF
:101670003AF816000028E2D1A069C01BA0612046FC
:10168000FFF70AF8D8E90010CDE90010002017E0B4
:101690003AF818106A4602A800F07FFCB0F1FF3F4C
:1016A00081460BD000250DF1080B05E0D4E901219E
:1016B0001BF8050090476D1C4D45F7D308F101005C
:1016C000B0428046E4DB206A384420622046FEF7C0
:1016D000F9FFBDE8FF9F000002DF03002DE9F041A4
:1016E0008046D21D22F007020025D2E90002F5292A
:1016F00015A614D0011E72F1000106DA0023D0EB0A
:10170000030063EB020211A608E0D8F800108B0773
:1017100001D50FA602E0490701D50EA60125114605
:10172000002408F1240704E000F035F930323A557E
:10173000641C50EA0102F7D12B463246214640464E
:10174000BDE8F041FFF7BBBC000000002D00000029
:101750002B0000002000000030B4002100F1240420
:1017600008E002F00705D208303542EA4372DB0890
:101770006554491C52EA0305F3D10468002310A202
:10178000250708D504F020040C4304D0C4690123C4
:101790000CA2641EC46130BCFFF791BC10B50446B6
:1017A00021461068FFF782FC02462046BDE8104043
:1017B0000023D1E7D21D22F00701D1E90023CBE7B6
:1017C00000000000300000002DE9F05F8246154661
:1017D0008B4600270AF10104B9460078302801D071
:1017E0009DB113E014F8010B0127782803D0582885
:1017F00001D045B10AE00DB1102D07D1002714F832
:10180000010B102502E0082500E00A250026B0465D
:101810000EE005FB080005FB06F101271FFA80F822
:1018200001EB1046B6F5803F00D3B94614F8010B22
:10183000294600F0C9FA0028EBDABBF1000F05D009
:101840000FB1641E00E05446CBF80040B9F1000F20
:1018500006D0FFF7BDFB02210160C81EBDE8F09F66
:1018600048EA0640FAE70023036000F0DDBA10B54D
:10187000002000F0EFFBFEF7EFFDBDE81040012077
:101880002DF0B2B92DE9F041074615460E4610205D
:10189000FFF7A2FB040013D06760C4E902650948A2
:1018A000AFF3008000F026F801682160064904606B
:1018B000002008600348AFF300800020BDE8F081FD
:1018C0000120FBE70000002400000424014900F08F
:1018D00053BB0000BC3D0024004870472002002498
:1018E00000207047004870472802002400487047D5
:1018F0004002002400487047580200247047704797
:101900007047704738B504460A4600206946AFF371
:101910000080002808BF38BD02460099204600F02C
:10192000C5FB012038BD012000F02ABCF8B5AFF39B
:101930000080054600200C460C2000BF0646A81972
:10194000A0420DD9324669460020AFF3008007005F
:1019500008BF00F015FC0098A04218BF0546C41946
:10196000FFF7C0FF05600746F01D20F0070046198D
:10197000284600F00AF8B44208BFF8BDA21B314661
:101980003868BDE8F84000F091BB0021016041607B
:1019900070470C20704730B5B0F10A0271F10003B6
:1019A0004FEA900E4EEA817EB0EB0E0061EB9101A2
:1019B0004FEA101E4EEA017E10EB0E0041EB1111B2
:1019C0004FEA102E4EEA016E10EB0E0041EB112192
:1019D0004FEA104E4EEA014E10EB0E0041EB114162
:1019E000401841F100014FEAD00040EA41704FEA4F
:1019F000D1014FEA810444EA907410EB800544EB76
:101A000001046D1944EB0404521BA3414FF0000381
:101A100048BF0A3200D530BD401C41F1000130BD45
:101A20002DE9F04F04460D46D21D22F0070089B083
:101A3000D0E90097484639463CF014FF0246F80FBB
:101A400001D02D2307E02068810701D52B2302E078
:101A5000202101EAC0038DF820300BB1012000E005
:101A60000020032A824601D0072A04DB29462046AB
:101A700000F054F93FE12078800601D40D2500E004
:101A8000E569C7F30A560D2D49DA00214FEA175BC5
:101A900008464FF00000002F00F4400007DA00EB8A
:101AA00080004FF4400100EBD07001EA6000811526
:101AB000012901DD4FF0FF3100224FEA850CBCF116
:101AC000180F06D31346ACF118004FF08052C240F5
:101AD00003E04FF4801323FA0CF30CF10C0CBCF16F
:101AE000200F04D3ACF1200C09FA0CF001E007FA46
:101AF0000CF000294FF0004801DD18B90FE00ED1BD
:101B000040450CD319EB02095F4121B9404502D190
:101B10009F4329EA0209BBEB175F00D0761C20889F
:101B2000000502D57B48784402E07A4878441938A9
:101B300008AA302302F80A30037C0AF10101002EC2
:101B40000AF1020A53546A4602DC4FF0300101E008
:101B50004FF031014FF001088DF8001002D0A6F2CD
:101B6000FF3603E059EA470100D06B4E002D02DC3E
:101B70002178090704D54FF002082E218DF80110B5
:101B8000C44600210BE0C7F303433F01C35C491C7B
:101B90006D1E02F80830052908F1010801DA002D50
:101BA000F1DC00210CE000EB1973491C1B786D1E61
:101BB000082902F808304FEA091908F1010801DA8A
:101BC000002DF0DC21688B0602D516E0A8F1010893
:101BD000E04505DD02EB080313F8013C302BF5D09E
:101BE000B8F1000F09DD02EB080313F8013C2E2BBE
:101BF00003D1090701D4A8F10108002D05DD3E211C
:101C000002F808106D1E08F10108407C002E02F851
:101C1000080008F1010804DA2D20764202F80800D5
:101C200002E02B2002F808000A214FF47A70864265
:101C300008F101080BDB96FBF0F3303302F80830B3
:101C400096FBF0F308F1010800FB136601E0642E37
:101C50000CDB642096FBF0F3303302F8083096FB7F
:101C6000F0F308F1010800FB136601E00A2E06DB21
:101C700096FBF1F0303002F8080008F1010896FBFD
:101C8000F1F001FB1060303002F80800A16908F1A2
:101C9000010808EB050202EB0A00081AA06120788F
:101CA000C00602D42046FEF7F7FC216A08AE01EB1D
:101CB0000A00206204E0D4E9012116F8010B9047E4
:101CC000BAF1010AF7D22078C00602D52046FEF705
:101CD000E3FC6E4609E016F8010B3E280FD0D4E96C
:101CE00001219047206A401C2062B8F10108F2D21D
:101CF0002046FEF7E7FC09B00320BDE8F08F206A1C
:101D00002844206203E0D4E90121302090476D1E71
:101D1000EBD3F8E745DA030002FCFFFF2DE9F041C1
:101D20001F46044603260168072A01F4006004DB0D
:101D300008B116A505E016A503E008B115A500E059
:101D400015A521F010002060A069C01EA0610FB190
:101D5000401EA0612046FEF79FFC4FB1D4E901214F
:101D600038469047206A401C2062C01C206206E072
:101D7000206AFAE7D4E9012115F8010B9047761E95
:101D8000F8D22046FEF79EFCBDE8F0814E414E00A1
:101D90006E616E00494E4600696E660010B543697B
:101DA00013B1AFF3008001E0FFF73AFC012010BD52
:101DB000128800F1240182840022C2840122EDE70E
:101DC00011684FF0FF32E9E73A2800D2303820F0AE
:101DD0002002412A01D3A2F13700884201D34FF0FB
:101DE000FF3070470FB40B0010B54FF000048AB0FD
:101DF0000FA900910E99CC60234C7C44234A7A446D
:101E0000CDE9064200D004236FF00042CDE9013253
:101E10001F4A7A446B460892024600203DF037FB89
:101E20000AB010BC5DF814FBF0B507464FF0FF3068
:101E30001E4615460C463B4685B06A460091CDE9E4
:101E4000010131460020049004A8FFF7CBFF04995C
:101E50000346601825B109B1024600E022462A6017
:101E600000290ED0002B02DD0099814209D03B46AB
:101E70006A463146001B0094CDE9010404A8FFF72F
:101E8000B1FF05B0F0BD0000F50200000F03000037
:101E9000CB0200002DE9F047814616468AB035484E
:101EA00078440DC88DE80D0032487844801C03AC9E
:101EB0000DC884E80D0041F69B300844372190FBA3
:101EC000F1F290FBF1F5A5F1800501FB12041B3C3A
:101ED00002D56442012000E00020DFF898A080468F
:101EE0000027FA44AAF1BE0A0EE0E0070AD0324603
:101EF000684607EB470101230AEB81013CF066FBD2
:101F00008DE8070064107F1C002CEED1194F7F4430
:101F1000AE3F19E0E80715D007EB04100DF1180AE1
:101F200090E80E008AE80E00C068F04201D19819CE
:101F300008903246012306A903A83CF047FB03ABF7
:101F400083E807006D10641C002DE3D14FF00103FE
:101F500032466946B8F1000F03A802D03CF00CFBF2
:101F600001E03CF033FBC9E90001C9F808200AB0E0
:101F7000BDE8F0875CD7030070B50D46044604E069
:101F800029462CF0CDFE401C04D014F8010B00288B
:101F9000F6D170BD4FF0FF3070BD2DE9F04116460F
:101FA0000C460546FFF70CF8036893F80101012879
:101FB00007D0FF2C12D8185D80B101202C70BDE82D
:101FC000F081D3F807013246214603F20713C71800
:101FD0002846BC46BDE8F041002360474FF0FF3083
:101FE000EDE700002DE9F84306461548AFF3008001
:101FF000FFF780FC134F8146E8464D4616E026B1B8
:10200000E068B04201D0254610E0206828600C4806
:10201000C7F80080AFF30080D4E901018847084881
:10202000AFF300803968414500D04D462C68002C44
:10203000E5D1002038600248AFF30080BDE8F883A6
:1020400000000024000004240148FFF749BC000000
:102050000000002410B500F07BF8BDE8104000F04F
:1020600071B87546FFF738FCAE4605006946534621
:1020700020F00700854618B020B5FEF727FABDE826
:1020800020404FF000064FF000074FF000084FF0DF
:10209000000BAC46ACE8C009ACE8C009ACE8C0092C
:1020A000ACE8C00921F007018D467047034640683F
:1020B0008C46002818BF88423CBF03464068F8D3CE
:1020C00018681844884207D00CF1030020F007007C
:1020D000001D411A521A0146081D0A60FEF7ABBFE7
:1020E00010B50446FEF76CFF0068005D00F00100CB
:1020F00010BD426842B1016811F8013B23B1521E84
:10210000C0E90012184670470121C160881E70475F
:1021100042685AB1C368016843B983688B4205D0ED
:10212000491E521CC0E90012002070474FF0FF30DA
:10213000704710B50446AFF300802046BDE810405C
:10214000FEF798B9002801D02CF04EBD7047000072
:1021500010B5002102A000F097FA012010BD000088
:10216000534947414252543A2041626E6F726D6149
:102170006C207465726D696E6174696F6E00000029
:1021800010B500F09BFABDE81040FFF7DBBF000080
:102190002DE9FF4F06468BB00878FF2806D0491C72
:1021A0002D2805D000244FF0000908E000200CE0A5
:1021B0000124F8E709EB8903491C00EB430908787F
:1021C000FF28F7D114B1C9F100008146107800252D
:1021D0002C46AA4629462D2801D02B2804D1521C72
:1021E0002D2813D0002082468B461078FF280FD070
:1021F0004FF0000C0A21521CA5FB017804FB018161
:1022000005FB0C11C5194BEB0104EEE70120EAE7D1
:10221000002108464FF00000BAF1000F02D000EB99
:1022200080004008C0F38157012F01DD4FF0FF37D8
:102230000E9955EA040009EB01080BD04FF0020992
:1022400018F5FA7F16DA4FEACA70002F706008DDC1
:10225000012007E04FEACA70C6E900B00FB0BDE840
:10226000F08F00203060FEF7B3FEC0F80090182118
:10227000084616E0B8F5FA7F18DD002F02DAF748B5
:10228000784401E0F6487844D0E90010C6E900102F
:1022900040EACA707060FEF79BFEC0F800901421FF
:1022A00008460FB0BDE8F04F3DF08AB8002108465F
:1022B0004FF00000B8F10001099002DAC7F1000206
:1022C00000E03A4601DAC8F1000106A8FFF7E2FD96
:1022D00006AB93E8070003AB83E8070044F23E0037
:1022E0005BEA04010090584604D144F21E012C46DA
:1022F0005D460091210C0904014306D10099240494
:1023000044EA15442D041039009104F07F41014343
:1023100006D10099240244EA15642D02083900917F
:1023200004F07041014306D10099240144EA157478
:102330002D01091F009104F04041014306D100998D
:10234000A40044EA9574AD00891E009104F0004198
:10235000084304D100986D196441401E00904FF06D
:1023600001033A466846B8F1000FCDE9014503A9DB
:1023700002DD3CF040F901E03CF013F9BAF1000F46
:1023800004460D4601D084F00044002108464FF079
:102390000000099940F2FF77484010F00C0F07D178
:1023A00024F00040284303D0C4F30A50B84212D1AD
:1023B000FEF70EFEC0F80090C4F30A50B8420AD1EE
:1023C000A8487844D0E90010C6E9001004F00041A4
:1023D0000843706042E7C6E900543FE72DE9FF4F2C
:1023E0001F464FF0000A4FF0FF38454691B0D7E93D
:1023F0000146CDF83CA0FFF779FAC0680168405C5F
:102400001090B96912986D1C8847396A81468847CF
:102410000028F6D1B9F1FF3F0AD0002E24F4D06491
:1024200011DDB9F12B0F08D0B9F12D0F0BD102E05E
:10243000404615B013E744F48064B96912986D1CE6
:102440008847761E8146600504A901D52D2000E04D
:102450002B20002E01F1010B0DF130088DF810003A
:102460003FDDB9F1690F08D0B9F1490F05D0B9F1D5
:102470006E0F02D0B9F14E0F1CD13B4601A800955A
:1024800080E85002DDE912126FF002003DF003F81F
:10249000C11CCED10EE0B96912986D1C88478146E7
:1024A0001398761E44F4007405600F98401C002EAB
:1024B0000F9016DDB9F1300FEDD0B9F1780F02D0E1
:1024C000B9F1580F0DD10F9801280AD13B46CDE93B
:1024D0000054DDE91212001F02963CF0DAFFC11C25
:1024E000A7D1109989453ED144F0800406E01399A4
:1024F000681CAAF1010A44F400740860B9696D1CF3
:102500001298761E884730288146F0D02BE010992B
:10251000894505D1200603D4761E44F0800418E0D6
:1025200048463CF040FE08B3761E0DF12302934569
:10253000A9F1300044F4007406D20BF8010B200618
:1025400007D5AAF1010003E0200602D40AF1010038
:102550008246A00502D51399681C0860B9691298D3
:102560006D1C88478146002ED1DC53E0002E51DDE2
:10257000B9F1650F02D0B9F1450F4BD1A00549D58E
:10258000B9696D1C1298761E24F440748847002E99
:1025900081460CDD2B2804D0B9F12D0F07D144F46E
:1025A0008074B96912986D1C8847761E8146E005D3
:1025B00001D52D2100E02B2108F8011BCDF800806A
:1025C00021E0761E0DF13901884544F400740CD2E7
:1025D000A9F1300010F0FF0088F8000002D1009946
:1025E000884509D908F1010806E0E00501D51E4833
:1025F00001E042F20F708246B96912986D1C88475B
:10260000814613980560002E04DD48463CF0CBFD62
:102610000028D6D1F96912988847FF2053468BF8D5
:10262000000088F8000000200A900B9004AA0CA972
:102630000AA8FFF7ADFDA00502D46FF00100F8E68F
:1026400014F0240F12D0E0071CD13868DDE90A121B
:10265000031D3B600068C0E9001213E0D8190A00AE
:10266000CA190A008E180A00F1D8FFFF0AA96846A5
:102670003CF092FCE00705D13868009A011D3960F2
:10268000006802602846D4E670B505460C460A206C
:1026900000E06D1C2CF0ACFA35B128780028F8D198
:1026A00002E0641C2CF0A4FA14B120780028F8D1C0
:1026B000BDE870400A202CF09BBA000010B501283C
:1026C00005D0002103A0FFF7DFFF012010BD09A105
:1026D000F8E7000053494752544D454D3A204F7595
:1026E00074206F662068656170206D656D6F72790A
:1026F000000000003A2048656170206D656D6F72C2
:102700007920636F7272757074656400B2F1200392
:102710000AD5C2F1200301FA02F120FA03F341EADB
:10272000030100FA02F0704700FA03F14FF00000D5
:10273000704700002DE9FF4F1F464FF03C0987B05E
:102740004FF00042DDE9141001F10108DDF858A056
:1027500002EA405003900020059083460546044657
:102760000490B969461E08988847AAF1010A0290A8
:10277000BAF1000F3BDD02982E2815D01021FFF78B
:1027800023FB00282EDB4FF0010B0599014317D0E6
:10279000B9F1000F0BDB4A46C117FFF7B7FF05433E
:1027A0000C43A9F1040905E0012004900BE008B1F5
:1027B00045F0010501200590049820B9361D02E07E
:1027C000049800B1361FB969089808F101088847D4
:1027D000BBF1000FAAF1010A0290C9D00999C1F812
:1027E0000080C5E70298702808D0502806D0F96903
:1027F00008988847BBF1000F14D04FE000200290EA
:102800000120BBF1000F049009D0B969089808F1C4
:1028100001088847AAF10109B9F1000F07DCF9693D
:10282000089888476FF001000BB0BDE8F08F2B28A7
:1028300004D02D280CD14FF0FF300490B9690898CE
:1028400008F101088847A9F10109B9F1000FE6DD97
:10285000411CE4D00A21FFF7B7FA0028DFDB029918
:1028600008F1010801EB810100EB41000290B96918
:10287000089888470A21FFF7A7FA099AA9F10109E0
:10288000B9F1000FC2F8008001DD0028E7DAF9692C
:10289000089888470499029800FB016655EA0400ED
:1028A00004D004F04041090002D006E0039898E00B
:1028B000A40044EA9574AD00B61E04F0004108007F
:1028C00002D16D196441761E159810F0240F03D0C3
:1028D0004FF00B095C4803E04FF028096FF07D00D2
:1028E0008246564507DAAAEB06018944B9F1410F41
:1028F00001DD4FF0410901200021A9F10102FFF79C
:1029000005FF024628400B462140084301D0012123
:1029100000E00021501E029143F1FF312840214088
:10292000084301D0012000E000200299834651EACB
:102930000B014FD0002108464FF00000039900F42E
:10294000400039B100EB80004FF4400100EBD07043
:1029500001EA60008015012802DD4FF0FF3000E041
:1029600013D0401C36D0029860B3BBF1000F0CD1DD
:102970004A4601200021FFF7C9FE284021400843B4
:1029800001D0012000E00020E0B101204A460021F2
:10299000FFF7BCFE034640190A4661412D1A8C41DF
:1029A00011D3B9F1400F09DD159810F0240F02D0B2
:1029B000AAF1340603E0AAF1170600E0761C002510
:1029C0004FF0004406E05B1E42F1FF3220EA0305AF
:1029D00021EA0204CAF10100B04206DA1B49039859
:1029E00008430190002000900EE0039AC4F3D32125
:1029F000E80A0A43164940EA44500A433146CDE901
:102A0000000268463CF07CFB159810F0240F0BD0B8
:102A10001598C00715D13868DDE90012031D3B6029
:102A20000068C0E900120CE002A869463CF0B4FA64
:102A30001598C00705D13868029A011D39600068F1
:102A400002604046F0E6000002FCFFFF0000F07F5D
:102A50000000F03F2DE9FF4F92461D4685B04FF034
:102A60000041DDE9124BDDE914727F1E01EA4B5093
:102A7000414940F0FF4940EA0108002122F02000CE
:102A80004928049102D04E2828D04CE03BA00126D2
:102A900007C88DE80700A9690698641C88477F1E4F
:102AA000014606D41DF8060018B121F0200181422C
:102AB0000BD0E96906988847032E34D0082E32D00F
:102AC0006FF0010009B0BDE8F08F761C032E01D035
:102AD000082EE0D1601CCAF80000DCE7A96906985E
:102AE000641C88477F1E2AD420F02000412826D16C
:102AF000A9690698641C88477F1E20D420F0200016
:102B00004E281CD1A9690698641C88477F1E48F48A
:102B1000002849F48009CAF8004001D4282806D0CA
:102B2000E969069888475FEACB7012D022E0A9696C
:102B30000698641C88477F1E01D4002803DAE969DF
:102B400006988847BCE72928F1D1641CCAF80040E0
:102B5000E9E71BF0240F07D028680499031D2B60B8
:102B60000068C0E9001805E02868021D2A600068B6
:102B7000C0F800902046A5E70000F07F494E464986
:102B80004E49545900000000B0B50446006842F2B6
:102B9000001140F48070C4F20201884218D142F260
:102BA0000830C4F20200006810F4403F18D008F06A
:102BB000A7FD61680546B1F5803F05D0B1F5403FFE
:102BC0002CD0B1F5003F2AD1080CB5FBF0F526E07A
:102BD00046F20830C5F60200006810F4403FE6D126
:102BE0004FF40020002107F0B3FC61680546A1F511
:102BF00080224FEAB2420A2A11D8DFE802F0070722
:102C00000707070755535951570000BF6FF00100E0
:102C100000EA5140B5FBF0F501E000BFAD0804F05B
:102C20009BFE41F2030188420ED8206842F6015112
:102C3000C0F231118D4281682CBF41F4807121F4C2
:102C400080718160B0BD00BF4BF62140C0F2BE0074
:102C5000854205D82068816821F440718160B0BD4B
:102C600047F64100C0F27D10854207D82068012256
:102C7000816862F309218160B0BD00BF20684FF216
:102C80008101C0F2FA218D42816805D8022262F3E7
:102C900009218160B0BD00BF41F440718160B0BDC9
:102CA000ED09BCE76D09BAE72D09B8E72D0AB6E7CB
:102CB000AD09B4E700000000B0B5016804468A68B9
:102CC0008868C0074FF0000031D012F0020218BF30
:102CD000B0BD886800F00D0001281FD14FF6C0720A
:102CE0008868C7F6FF7210400230886003200860D1
:102CF00004F03AFE21688968C90701D10020B0BDFF
:102D0000054602E08068C007F8D004F02DFE401BA5
:102D100003282068F6D38168C907F3D0606D40F0BE
:102D200010006065A06D40F00100A0650120B0BDFD
:102D300000281CBF002181647047000000000000D3
:102D4000B0B5A8B10189436801220546184604F0D0
:102D5000FBFD052000242C7785F83440C5E90E449E
:102D60002C6485F8444004F033FC2046B0BD00BF1D
:102D70000120B0BD000000002DE9F04184B0044600
:102D800000284FF0010000F085800D46002900F07A
:102D900081809046E2B32189AD20029060680022D4
:102DA00000268DF80660ADF8046004F0CDFD2068C3
:102DB00002A901AA0323642700970AF0B5FD40F693
:102DC000E0110746C2F20441087003960398C72831
:102DD00059D800BF0398013003900398C72852D8F0
:102DE00000BF0398013003900398C7289FBF00BF1E
:102DF0000398013003909CBF0398C72843D800BFB5
:102E00000398013003900398C828E2D33BE000BF49
:102E10002189AA2002906068002200268DF80660B1
:102E2000ADF8046004F090FD206802A901AA032314
:102E3000642700970AF078FD40F6E0110746C2F2D9
:102E40000441087003960398C7281CD800BF039854
:102E5000013003900398C72815D800BF03980130AC
:102E600003900398C7289FBF00BF039801300390C9
:102E70009CBF0398C72806D800BF03980130039071
:102E80000398C828E2D321896068012204F05CFD20
:102E900038461FB104B0BDE8F08100BFA07C88B106
:102EA00004F062FD064600BF218AE06804F044FD9C
:102EB00078B904F059FD801B3228F5D9032004B0FD
:102EC000BDE8F0810F20B8F1000F08BF062004F024
:102ED0007FFB2046294600F003F804B0BDE8F081EE
:102EE000F0B585B0054600284FF001007CD00C46B7
:102EF000002979D0284621462BF07EFE20B1296C8E
:102F00000131296405B0F0BD217811F0250F1DD1E4
:102F100046F266666068CFF6E6764CF6CD47C0F2BC
:102F2000CC073044B84211D2694628462BF064FEE3
:102F300010B3297F286C013028640029A96B4FF059
:102F4000010001F1010185F834002DE02A7F012004
:102F5000AB6B85F83400002A03F10102AA6343D069
:102F600005F120072E6B8DCF84E88D00266121703E
:102F7000002005B0F0BD00BF9DF8000010F0250F47
:102F80000AD101988119B94206D26168421A38BF44
:102F90000A1AB2F5806F17D9297FAA6B012085F82C
:102FA0003400002902F10101A9631DD02078296AAB
:102FB0006A6AAB6AEF6A2E6B84E88E002661207025
:102FC000002005B0F0BD00BF05F1200C94E88F0093
:102FD0008CE88F0001212977002085F84410E96BE7
:102FE00085F834000131E96305B0F0BD0000000050
:102FF00070B584B0044600264FF0AA0002908DF808
:103000000660ADF80460DCB321896068002204F03A
:103010009BFC206802A901AA0323642500950AF0FD
:1030200083FC40F6E0110546C2F2044108700396A5
:103030000398C7281CD800BF039801300390039859
:10304000C72815D800BF0398013003900398C728FC
:103050009FBF00BF0398013003909CBF0398C7280F
:1030600006D800BF0398013003900398C828E2D324
:1030700021896068012204F067FC284604B070BD15
:103080000125284604B070BD002808BF704790EDA8
:10309000121A30EE010A80ED120A7047000000009B
:1030A00010B540F6042112A2C0F60401032003F07B
:1030B0004BF940F2000445F25271C3F60004C4F229
:1030C0004C212068884201D000F08EF90420206154
:1030D0000020606120830021BFF35F8F60680130B2
:1030E0006060BFF35F8F012004F056FC012010BD2B
:1030F00061636B206661756C740000000000000065
:1031000018B340F20001C3F60001BFF35F8F8A8B52
:103110000280CA8B42800A8C82804A6A82608A6AF4
:10312000C2608A8D0282CA8D428291F83020002AC4
:1031300018BF0122027591F83120002A18BF012220
:103140004275CA688968C0E90621002818BF0120B5
:10315000704700000000000080B582B000F040F928
:1031600044F2E040C5F60200016841F000710160E0
:10317000006800F000700190019802B0BDE8804046
:1031800000F032B90000000070B540F2000544F6CE
:103190002066C3F6000545F25272B142C4F24C22D9
:1031A00038BF0E460029296848BF002691420446D0
:1031B00001D000F019F9052C20D8DFE804F0031144
:1031C000090D0513AE870FE0A5F844600CE000BFC1
:1031D000A5F8406008E000BFA5F8426004E000BF29
:1031E000EE8701E0A5F84660BFF35F8F686B0130A2
:1031F0006863BFF35F8F012070BD00BF002070BD0A
:1032000070B582B048F6AC4C48F6AC450346604514
:10321000B8BF054647F254300C46CFF6FF7040F673
:1032200004218542C0F60401D8BF05469D4203D162
:103230001DA20320009403E012A20220CDE9005C4D
:1032400003F082F840F2000645F25271C3F6000620
:10325000C4F24C213068884201D000F0C5F8032048
:103260003061756100213483BFF35F8F7068013076
:103270007060BFF35F8F012004F08EFB012002B06D
:1032800070BD00BF737065656420256C6420636C3D
:10329000616D70656420746F20256C6420286D61F9
:1032A000783D25642900000073657420737065659E
:1032B0006420256C642072706D2C2072616D703DED
:1032C0002575206D73000000B0B540F2000545F291
:1032D0005272C3F60005C4F24C220446296891429A
:1032E00001D000F081F848F6AC4047F254318442F6
:1032F000CFF6FF71B8BF20468842D8BF08460321E9
:1033000029616861002028830021BFF35F8F68680E
:1033100001306860BFF35F8F012004F03DFB0120A6
:10332000B0BD00000000000010B540F6042111A25D
:10333000C0F60401032003F007F840F2000445F250
:103340005271C3F60004C4F24C212068884201D0B7
:1033500000F04AF801202061BFF35F8F6068002110
:1033600001306060BFF35F8F012004F015FB012086
:1033700010BD00BF636D64205354415254000000DF
:1033800010B540F6042112A2C0F60401032002F099
:10339000DBFF40F2000445F25271C3F60004C4F2B0
:1033A0004C212068884201D000F01EF802202061E4
:1033B0000020606120830021BFF35F8F60680130CF
:1033C0006060BFF35F8F012004F0E6FA012010BDBA
:1033D000636D642053544F50000000000000000053
:1033E000704700000000000040F2000045F25271FA
:1033F000C3F60000C4F24C2102688A4208BF70473D
:103400000160002141608160C1600161416101830F
:1034100041838183C1830184416281628185C18549
:1034200080F8301080F831104186416381638187D4
:10343000C187A0F84010A0F84210A0F84410A0F8EE
:103440004610A0F84810704781B04FF60401C2F250
:103450000341086044F2F441C5F602010A6842F4EF
:1034600080320A600A6802F480320092009AD1F831
:103470000C2342F48072C1F80C2344F29801C5F683
:103480000001086001B0704794B000F01DFD2CF001
:10349000D3FD0646441D40F22C500025C2F20040E8
:1034A0009FED178A00F12C090DF1040805E000BF1B
:1034B000A8071DD0013505343E4620462CF074FD8A
:1034C0002CF0BAFD0746801B142828BF1420B742F1
:1034D00008BF052000EE100AB8EE400A20EE080AE8
:1034E00002F05EF8E807E3D14846FFF709FEDFE7A0
:1034F000404600F0B5FC404615F0F2FADAE700BFAE
:103500006F12833A0000000080B538F091FC40F261
:1035100080300021C2F20040C171C0E91511BDE840
:10352000804038F0ADBC000003A205A1012808BF0F
:1035300011460846704700BF466C6F7700000000D8
:103540004F70656E52504D0010B52DED0C8BB7EEDF
:10355000008A9FEDD01A44F6F030C2F20040B0EE7F
:10356000489A90F82000A0EE019A032800F02882E3
:10357000022800F09581B5EE400A012840F0328221
:10358000B6EE000A00209FEDC4AA9FEDC41AF1EE2A
:1035900010FA40F3D38000BF02EE100A411C04EE83
:1035A000101A811CB8EE422AB8EE444A32EE002AC4
:1035B00022EE012A38EE423AB4EE420AF1EE10FA57
:1035C00032FE032A34EE003A04EE101AC11C32EE29
:1035D000022AB8EE444A23EE013A82EE092A34EE7A
:1035E000004A38EE435AB4EE430A24EE014AF1EEA3
:1035F00010FA82FE482A33FE053A38EE445AB4EEF9
:10360000440AF1EE10FA33EE033A34FE054A05EEB1
:10361000101A3AEE022A011D83EE093AB8EE455A15
:1036200034EE044A83FE483A35EE005A32EE032A5D
:1036300084EE093A25EE014A05EE101A411D83FE7B
:10364000483AB8EE455A38EE446AB4EE440A35EECC
:10365000005AF1EE10FA32EE032A25EE015A34FE3A
:10366000063A38EE454AB4EE450AF1EE10FA33EE6A
:10367000033A35FE044A05EE101A811D83EE093A1D
:10368000B8EE455A34EE044A83FE483A35EE005A05
:1036900084EE094A32EE032A25EE015A84FE483AA6
:1036A00004EE101AC11D083038EE456AB4EE450A22
:1036B000F1EE10FAB8EE444A32EE032A35FE063A2D
:1036C00005EE101A34EE004AB8EE455A24EE014ACF
:1036D00033EE033A35EE005A38EE446AB4EE440A4B
:1036E00025EE015AF1EE10FA83EE093A34FE064A4D
:1036F00038EE456AB4EE450AF1EE10FA34EE044AAB
:1037000035FE065A402883FE483A84EE094A35EED3
:10371000055A32EE032A84FE483A85EE094A32EE13
:10372000032A84FE483A32EE03AA7FF435AF9FEDB8
:103730005B0A2AEE000ABDEC0C8B10BD02EE100AEB
:10374000411C03EE101A811C05EE101AC11CB8EEC4
:10375000422A06EE101AB8EE433A011DB8EE455A59
:1037600032EE002A33EE003A35EE005A22EE012AFC
:1037700023EE013AB8EE466A38EE424AB4EE420A07
:10378000F1EE10FAB4EE430A32FE042A38EE434A50
:10379000F1EE10FA32EE022A33FE043A25EE014A27
:1037A0003AEE022A33EE033A38EE445A36EE006A15
:1037B000B4EE440AF1EE10FA32EE032A34FE053A72
:1037C00005EE101A26EE014A411DB8EE455A33EEB9
:1037D000033A38EE446AB4EE440AF1EE10FA35EEDC
:1037E000005A32EE032A34FE063A06EE101A25EE8F
:1037F000015A811DB8EE466A38EE454AB4EE450AD4
:1038000036EE006AF1EE10FA33EE033A35FE044A62
:1038100026EE015A06EE101A32EE032AC11D34EECE
:10382000043A083038EE454AB4EE450AF1EE10FA93
:10383000B8EE466A32EE032A35FE043A05EE101A57
:1038400036EE006AB8EE455A26EE014A33EE033AE8
:1038500035EE005A38EE446AB4EE440A25EE015AB9
:10386000F1EE10FA32EE032A34FE063A38EE454AFB
:10387000B4EE450AF1EE10FA33EE033A35FE044A8F
:10388000402832EE032A34EE043A32EE03AA7FF4E3
:1038900055AF4CE79A9959BF000000000000803CEA
:1038A00088EE091AB5EE400AF1EE10FA81FE481AC8
:1038B00031FE080A30EE001A31EE001A31EE001A1D
:1038C00031EE001A31EE001A31EE001A31EE001A14
:1038D00031EE001A31EE001A31EE001A31EE001A04
:1038E00031EE001A31EE001A31EE001A31EE001AF4
:1038F00031EE001A31EE001A31EE001A31EE001AE4
:1039000031EE001A31EE001A31EE001A31EE001AD3
:1039100031EE001A31EE001A31EE001A31EE001AC3
:1039200031EE001A31EE001A31EE001A31EE001AB3
:1039300031EE001A31EE001A31EE001A31EE001AA3
:1039400031EE001A31EE001A31EE001A31EE001A93
:1039500031EE001A31EE001A31EE001A31EE001A83
:1039600031EE001A31EE001A31EE001A31EE001A73
:1039700031EE001A31EE001A31EE001A31EE001A63
:1039800031EE001A31EE001A31EE001A31EE001A53
:1039900031EE001A31EE001A31EE001A31EE001A43
:1039A00031EE001A31EE001A31EE001A31EE00AAA3
:1039B0001FED460A2AEE000ABDEC0C8B10BD00BFBD
:1039C00040F28030C2F200408178022980F0B48059
:1039D0001FED4FAA1FED4F0A2AEE000ABDEC0C8B1B
:1039E00010BD00BFF1EE10FA40F3F280B6EE00BA5F
:1039F00000249FEDFAAA9FEDFACA9FEDFADA00BF04
:103A000000EE104AB8EE400A30EE0B0A20EE0C0A27
:103A100020EE0D0A3BF0B4F9601C80EE090A01EEBD
:103A2000100A80FE480AB8EE411A3AEE00AA31EEBA
:103A30000B1A21EE0C1A21EE0D0A3BF0A1F9A01C85
:103A400080EE090A01EE100A80FE480AB8EE411A1B
:103A50003AEE00AA31EE0B1A21EE0C1A21EE0D0AF5
:103A60003BF08EF9E01C80EE090A01EE100A80FEA0
:103A7000480AB8EE411A3AEE00AA31EE0B1A21EECE
:103A80000C1A21EE0D0A3BF07BF9201D80EE090A8D
:103A900001EE100A80FE480AB8EE411A3AEE00AA7A
:103AA00031EE0B1A21EE0C1A21EE0D0A3BF068F9EB
:103AB000601D80EE090A01EE100A80FE480AB8EE89
:103AC000411A3AEE00AA31EE0B1A21EE0C1A21EE41
:103AD0000D0A3BF055F9A01D80EE090A01EE100A0F
:103AE00080FE480AB8EE411A3AEE00AA31EE0B1AEF
:103AF00021EE0C1A21EE0D0A3BF042F9E01D80EE9A
:103B0000090A01EE100A80FE480AB8EE411A3AEEA0
:103B100000AA31EE0B1A21EE0C1A21EE0D0A3BF031
:103B20002FF980EE090A0834402C80FE480A3AEE4C
:103B300000AA7FF465AFFAE5013944F6884002EE49
:103B4000101AC2F20040B6EE003A00EB810290ED8E
:103B5000001A0023B8EE422A9FEDA0AA9FEDA04ACA
:103B60001FE000BFB8EE475A00EB840494ED017AE1
:103B700036EE456A94ED005A37EE457AA7EE065ABE
:103B800085EE096AB5EE400AF1EE10FA03F1010381
:103B900086FE486A36FE055A402B3AEE05AA3FF4E7
:103BA000C6AD05EE103AB8EE455A35EE035A25EE8D
:103BB000045A25EE026AB0EE415ABDEEC67A17EEFF
:103BC000104A002CDCD4A142CCD892ED005AD7E7A1
:103BD000B6EE008A00249FED81AA9FED819A9FEDA9
:103BE00081BA00BF00EE104AB8EE400A30EE080A73
:103BF00020EE090A20EE0B0A3BF0C2F8601C3AEEF8
:103C000000AA01EE100AB8EE411A31EE081A21EEB0
:103C1000091A21EE0B0A3BF0B3F8A01C3AEE00AAF9
:103C200001EE100AB8EE411A31EE081A21EE091A17
:103C300021EE0B0A3BF0A4F8E01C3AEE00AA01EEDC
:103C4000100AB8EE411A31EE081A21EE091A21EED7
:103C50000B0A3BF095F8201D3AEE00AA01EE100A7F
:103C6000B8EE411A31EE081A21EE091A21EE0B0ABC
:103C70003BF086F8601D3AEE00AA01EE100AB8EE9D
:103C8000411A31EE081A21EE091A21EE0B0A3BF017
:103C900077F8A01D3AEE00AA01EE100AB8EE411A1C
:103CA00031EE081A21EE091A21EE0B0A3BF068F8F2
:103CB000E01D3AEE00AA01EE100AB8EE411A31EE0C
:103CC000081A21EE091A21EE0B0A3BF059F804F10B
:103CD00008003AEE00AA01EE100AB8EE411A31EEE1
:103CE000081A21EE091A21EE0B0A3BF049F804F1FB
:103CF00009003AEE00AA01EE100AB8EE411A31EEC0
:103D0000081A21EE091A21EE0B0A3BF039F804F1EA
:103D10000A003AEE00AA01EE100AB8EE411A31EE9E
:103D2000081A21EE091A21EE0B0A3BF029F804F1DA
:103D30000B003AEE00AA01EE100AB8EE411A31EE7D
:103D4000081A21EE091A21EE0B0A3BF019F804F1CA
:103D50000C003AEE00AA01EE100AB8EE411A31EE5C
:103D6000081A21EE091A21EE0B0A3BF009F804F1BA
:103D70000D003AEE00AA01EE100AB8EE411A31EE3B
:103D8000081A21EE091A21EE0B0A3AF0F9FF04F1A4
:103D90000E003AEE00AA01EE100AB8EE411A31EE1A
:103DA000081A21EE091A21EE0B0A3AF0E9FF04F194
:103DB0000F003AEE00AA01EE100AB8EE411A31EEF9
:103DC000081A21EE091A21EE0B0A3AF0D9FF3AEE51
:103DD00000AA1034402C7FF405AFA8E400000000D6
:103DE0000000803CDB0F49400138C0B2032807D8EF
:103DF0004FF25861C0F6030151F82000704700BF30
:103E000041F28620C0F60400704700000000000068
:103E1000B0B540F280350024C2F20045287830B1B8
:103E200003F0A2FDA969401A332838BF01242046B7
:103E3000B0BD000000000000002808BF704710B5AA
:103E4000044637F0F5FF44F63C414C22C2F20041F3
:103E50002046FCF772FFBDE8104038F011B80000B2
:103E6000002808BF704710B5044637F0E1FF40F660
:103E7000A4214C22C2F204412046FCF75EFFBDE8BB
:103E8000104037F0FDBF000040F28030C2F2004029
:103E90008078704700000000002808BF704710B508
:103EA000044637F0C5FF40F2CC40C2F2044000F1B6
:103EB000380EC06C9EE80E5084E80E506061BDE87C
:103EC000104037F0DDBF00002DE9F04144F6F03836
:103ED0003821C2F200484046FCF7C8FF00204AF6ED
:103EE000CD31C4F24010C8F804004FF07F50C8F83C
:103EF00008004FF08040C8F80C0043F6A400C8F852
:103F000018004FF47A60C8F81C004CF6CD4040F21F
:103F10008037C3F6CC60C8F82400002040F2CC46BD
:103F20000025C1F23421C8E90B51C4F2FA30002156
:103F3000C8F838000020C2F20047C2F20446C4F2BA
:103F4000A021C4F2C830C8E90F1006F12001404694
:103F5000C8F81450C8E91155BD7000F049FA44F68C
:103F60003C404C22C2F200404146FCF7E6FE06F11E
:103F7000200C06F1380E9CE81F10FD708EE81F1013
:103F800006F1500EFD603D828EE81F104FF4407028
:103F9000B8804FF07E50321DC7E913054FF47F40C3
:103FA000B860D8F8300040F6A424C7E9190546F6F1
:103FB000283046F62831C4F66E60C2F20444CCF6CE
:103FC0006E61BD7123C24C212046C7E90D55C7E97A
:103FD0000F55C7E91155FD713D80C7E90555C7E982
:103FE0000755C7E90955C7E90B55C7E91555C7E98D
:103FF0001755C7E91B55C7E91D553560C6E9045576
:10400000C6E90655FCF732FFFF20E070BDE8F081FD
:1040100040F28030C2F200400079411E00200229A7
:1040200038BF01207047000070B52DED028B40F2C3
:10403000803444F6F035C2F20044C2F200454FF03D
:104040007E51E07995ED0A0AE164013884ED140AA5
:10405000032857D89FED8D1ADFE800F052020A2C92
:10406000B7EE000A94ED151A30EE411A48E000BF91
:1040700094ED151AB4EE401AF1EE10FA03DDB0EE2D
:10408000410A84ED141AFFF75FFAB0EE408A9FED03
:104090007F0AFFF759FA9FED821AB4EE418AF1EEDA
:1040A00010FA2FDD80EE080A94ED131A20EE011AA3
:1040B00026E000BF94ED170A9FED751A80EE010A05
:1040C0009FED741A20EE010A3AF05AFCB7EE001A7E
:1040D000B6EE002A94ED153A9FED6F4A31EE400A94
:1040E000A3EE041A20EE020A20EE010A9FED6B1ADD
:1040F000B4EE401A9FED651AF1EE10FA31FE001A87
:1041000084ED131A95ED0B0A40F2CC46B5EE400A49
:10411000C2F20446F1EE10FA40F38480606E9FED27
:10412000612A9FED614ABFEE005A80EA403020EEDE
:10413000022AB7EE000A80EA504080EA4010B0EE52
:10414000406AB0EE407A80EA4031000A81EA51418B
:1041500001EE100A81EA4110010AB8EE411A03EE9D
:10416000101A80EA403081EE041A80EA5040B8EE1E
:10417000433A80EA4010606631EE051A010A83EE88
:10418000043AA2EE016A01EE101A33EE053AF8EE97
:10419000410A96ED081AA2EE037A96ED093A21EE4D
:1041A000061A80EE844A86ED141A23EE073A34EE9E
:1041B000055A96ED0A4A86ED153A31EE436A86EDC8
:1041C000164AA2EE050A96ED0B5A86ED175A36EE00
:1041D000446A36EE452AB5EE402AF1EE10FA0DDAC1
:1041E00035EE021A9FED292A34EE033A81FE021AB7
:1041F00086ED171A33EE011A86ED141A94ED133A70
:1042000086ED182A20EE030A9FED213A9FED1F2A22
:1042100083EE011A86ED191A80FE020A84ED130A54
:104220000CE000BF306A3065706A7065B06AB065D6
:10423000F06AF065306B3066706B706600F0B8FC49
:1042400096ED152A9FED173A9FED101AB4EE432A0A
:10425000B0EE413AF1EE10FA0DDD95ED0E3A9FED1C
:10426000104A23EE043A20EE020A9FED092A83EE5B
:10427000000A20EE023A9FED0D0A83FE400A80FEFE
:10428000010A84ED1B0ABDEC028B70BD000000002A
:1042900000007042DB0FC940CDCC4CBE9A99193E4C
:1042A0006F12833A0AD7233CFFFFFF4A00004843BE
:1042B0002DE9F04F81B02DED068B8EB040F2803AA3
:1042C00040F2CC46C2F2004AC2F204464FF0000966
:1042D0009AF804109AF800000D919AF805100C91C4
:1042E0009AF807100B91BAF810100A91DAF82C100E
:1042F00009919AF80A70DAE90F12CDE90421BAF8A7
:104300000C109AF809400891BAF80E10079144F67B
:10431000F031C2F2004196ED149A9AED08AA91F894
:1043200034109AED0C8A069140B103F01DFBDAF8C7
:104330001810401A332838BF4FF001098AEE090AD5
:10434000B5EE409AF1EE10FA9FED281A30FE019A70
:10435000002F08BF4FF0FF34DAF814000290DAF8AB
:104360001C000390DAE91A7BDAF870000190DAE9B0
:104370001D8570690090D6E906A637F059FD40F614
:10438000A420C2F20440DDE90421C0E90512C0E91D
:1043900011A60D9901700C9941700B998170C47030
:1043A0000A99818009998160089981830799C1835D
:1043B000069980F82010029980F821904762C0E9A0
:1043C0000A1BC0F830800199C0E90D150399C1633B
:1043D0000099016480ED039A80ED048A0EB0BDEC73
:1043E000068B01B0BDE8F04F37F04ABD0000000079
:1043F000D0ED012A9FEDE20AB0EE002A82FEC01A3B
:10440000B1EE006A90ED093A9FEDE04AB3EE095A29
:1044100083FE423AD0ED0E1AC1FE060AB7EE001A2C
:10442000DFEDDB5AD0ED034A83FE043A90ED0A4AF1
:1044300084FE417A90ED0B4A84FE455A9FEDD24AA4
:10444000C1FEE51A80ED093A87FE043A9FEDD17A64
:1044500085FE045A80ED0A3A81FE873A90ED0F7A84
:10446000DFEDCD1A80ED0B5A87FE615A90ED107A80
:10447000DFEDCA1A80ED0E3A87FE617AD0ED121A8E
:1044800085FE043AD0ED023A80ED0F3AD0ED056A90
:1044900087FE043A90ED117A80ED103A87FE653A76
:1044A000DFEDBF5A83FEC65AC1FEE51AD0ED045AAD
:1044B00083FE043A9FEDB37A80ED113A84FEC63A4A
:1044C000C1FE841A90F83420C0ED121AC5FEC17ADC
:1044D000C3FE011A022A86FEC23AC0ED010A85FE19
:1044E000075AC0ED031A87FE842A80ED025A83FE24
:1044F000043A80ED042A80ED053A02D3002380F8C7
:10450000343070B5022A4FF00006D0E9062344F695
:10451000206448F6A14C38BF0126A24248F6A045C7
:10452000B8BF144646F2A812B4F5FA6FD8BF4FF4DC
:10453000FA649342B8BF1A4690F820E0846122EAF8
:10454000E2731A1962454FF0000238BF012228BFFA
:104550002B1BBEF1040F4FF0000CC36108D34FF0CA
:10456000000E80F820C00378022B06D209E000BFBD
:1045700002EA060C0378022B03D300234FF0000C51
:104580000370BEF1030F0AD140F28032C2F2004242
:104590009278012A9CBF4FF0000C80F820C00022C6
:1045A0000026F4EE602A0025F1EE10FAF4EE453A0A
:1045B0004FF0000408BF0122F1EE10FA08BF0126F7
:1045C000F4EE614AF1EE10FA08BF012532400026F0
:1045D000F4EE425A2A40F1EE10FA08BF0126F4EE3A
:1045E000436AF1EE10FA08BF0124324002EA0402E5
:1045F0000CEA020CA3B125EE216A9FED6A7A35EE32
:10460000024A36EE044A33EE044AB4EE474AF1EE6B
:1046100010FA77DA31EE444A33EE043A87E000BF0D
:1046200080EE201AB7EE005A71EE420A31EE855A3A
:1046300070EEC30A65EE072AF4EE620AF1EE10FA94
:1046400011DA72EEE00A4FF0000CC3FE602A70EE41
:10465000E20A33EE623AC2FE600A32EE602A71EE7E
:10466000420A70EEC30A80EE855ADFED500A61EE11
:10467000200A4FF0000E00220023B4EE605AF1EE43
:1046800010FAD8BF4FF0010EF4EE450AF1EE10FA21
:1046900025FE205AB4EE465AF1EE10FAD8BF012298
:1046A000B4EE456AF1EE10FA25FE065AB4EE475A0A
:1046B000F1EE10FAA8BF012325FE075A31EE457A24
:1046C00021EE856ADFED3A1A77EE420A30EEC67ABD
:1046D00037EE437AB4EE617AF1EE10FA2ADA36EE6A
:1046E000076A4FF0000C86FE046A30EEC67A37EE99
:1046F000437AC7FE440A87FE047A33EE203A83FEEB
:10470000043A1CE09FED281AB4EE414AF1EE10FA8B
:104710001EDDB2EE0E1A81EE044A26EE046A22EE87
:10472000042A23EE043A25EE045A80ED025A4FF093
:10473000000C0FE002EA0E021A400CEA020C87FE9F
:10474000044A80ED025A80EE010A33EE043A05E095
:10475000B0EE441A80EE010A80ED010A80ED042AD1
:1047600080ED053A604681ED001A81ED015A81ED38
:10477000022A81ED036A81ED043A81ED050A70BDDC
:10478000000070429A99993E00000000CDCCCC3DCB
:104790000000FA44000048420000FA4300409C45F3
:1047A0000000A04272F97F3F690070419A99193F59
:1047B00017B7D1B800000000014600284FF00000F4
:1047C00037D0B0B540F28034C2F20044227A0F2ACA
:1047D0002DD80879042829D891ED000AB5EE400AB1
:1047E000F1EE10FA22DD0D4637F022FB207AB7EE0B
:1047F000000A95ED021A40F6E41CC2F2044C296846
:1048000000EB400281FE400A9FED0A1A01300CEBDA
:1048100082034CF82210297980FE010A197183ED78
:10482000020A207237F02CFB012000E00020BDE8D6
:10483000B04070470000000080B537F0F9FA40F250
:1048400080304FF47F41C2F200400181002181722B
:10485000BDE8804037F014BB40F28030C2F2004027
:10486000007A70470000000070B582B040F28036D8
:10487000C2F20046347ACCB3054637F0D9FA40F696
:10488000E410B7EE000AC2F204409FED1B2A4FF479
:104890008071A6F8091090ED021AF57281FE400AA7
:1048A00090ED001A007986ED181A81FE021AF07157
:1048B00080FE020A042886ED150A86ED161A01D13B
:1048C0000020F06537F0DCFA337A41F222360BA093
:1048D000C0F60406002D41F22D2118BF0646C0F691
:1048E000040108A20320009601F02EFD002C18BF41
:1048F0000124204602B070BD0000000020286C6F2B
:104900006F702900736372697074207374617274BC
:104910003A202575207374657073257300000000BC
:1049200080B537F085FA40F28030FF21C2F20040B6
:10493000A0F80910BDE8804037F0A2BA00000000DE
:10494000022803D805A151F82000704700A0704745
:10495000457870506175736500000000D31204083B
:1049600092120408D81204082DE9F0419AB0A8B3B5
:1049700007AD01464C222846FCF7DFF901A928467D
:10498000FFF736FD044637F053FA44F63C404C221C
:10499000C2F200402946FCF7D0F940F2CC4540F283
:1049A0008038C2F20445C2F20048DDE90101A86383
:1049B0000398E96304992864059869640699C5E930
:1049C0001201012088F8030037F05AFA98F8040021
:1049D00050B120461AB0BDE8F08100BF0024204647
:1049E0001AB0BDE8F08100BF37F022FA44F6F0308B
:1049F00044F63C41C2F20040C2F200414C22FCF7B6
:104A00009CF905F1500CA86B2862E96B69622A6C6D
:104A1000AA626B6CEB62AE6C2E63EF6C6F638CE81A
:104A2000CF00002088F8030037F02AFA20461AB099
:104A3000BDE8F0810000000070B52DED048B0C4640
:104A4000B0EE608A0546B0EE409A37F0F1F940F2D8
:104A50008036C2F2004625B186ED059A02F084FF49
:104A6000B061002C357018BF86ED078A7470BDECFC
:104A7000048BBDE8704037F003BA0000000000006E
:104A8000F0B581B00C46023900220646002818BF56
:104A900001203F2938BF012200EA0205012D40F024
:104AA000808037F0C5F9601E44F6884C032804F076
:104AB000030EC2F2004C05D20022BEF1000F39D124
:104AC00068E000BFB7EE000A04F07C02A6F1100116
:104AD000ACF11000534200229FED331A91ED042AED
:104AE00000F1100782FE402A043A934282FE012A16
:104AF00080ED042A91ED052A82FE402A82FE012AD9
:104B000080ED052A91ED062A82FE402A82FE012AC6
:104B100080ED062A91ED072A01F1100182FE402A5C
:104B200082FE012A80ED072A3846D7D15242BEF1D3
:104B3000000F2FD006EB8200B7EE000ABEF1010F86
:104B400090ED001A0CEB820081FE402A9FED161AB0
:104B500082FE012A80ED002A1CD0501CBEF1020FFB
:104B600006EB80010CEB800091ED002A82FE402ACA
:104B700082FE012A80ED002A0CD0901C06EB8001F9
:104B80000CEB800091ED002A82FE400A80FE010AB3
:104B900080ED000A40F28030C2F20040847037F0AD
:104BA0006FF9284601B0F0BD0000000000000000D1
:104BB00010B52DED0C8BB7EE008A40F28030C2F2BA
:104BC00000409FEDF71A44F6F031B0EE489A90EDB0
:104BD000140AC2F20041A0EE019A91F820100329B4
:104BE00000F0D681022900F08981B5EE400A012942
:104BF00040F0DC81B6EE000A00209FEDEAAA9FEDAE
:104C0000EA1AF1EE10FA40F3CD8000BF02EE100A6E
:104C1000411C04EE101A811CB8EE422AB8EE444A38
:104C200032EE002A22EE012A38EE423AB4EE420A6F
:104C3000F1EE10FA32FE032A34EE003A04EE101AB6
:104C4000C11C32EE022AB8EE444A23EE013A82EE4B
:104C5000092A34EE004A38EE435AB4EE430A24EEF1
:104C6000014AF1EE10FA82FE482A33FE053A38EE88
:104C7000445AB4EE440AF1EE10FA33EE033A34FE2D
:104C8000054A05EE101A3AEE022A011D83EE093A92
:104C9000B8EE455A34EE044A83FE483A35EE005ADF
:104CA00032EE032A84EE093A25EE014A05EE101A87
:104CB000411D83FE483AB8EE455A38EE446AB4EED8
:104CC000440A35EE005AF1EE10FA32EE032A25EED0
:104CD000015A34FE063A38EE454AB4EE450AF1EE82
:104CE00010FA33EE033A35FE044A05EE101A811D20
:104CF00083EE093AB8EE455A34EE044A83FE483A48
:104D000035EE005A84EE094A32EE032A25EE015AA6
:104D100084FE483A04EE101AC11D083038EE456A88
:104D2000B4EE450AF1EE10FAB8EE444A32EE032A28
:104D300035FE063A05EE101A34EE004AB8EE455A32
:104D400024EE014A33EE033A35EE005A38EE446A57
:104D5000B4EE440A25EE015AF1EE10FA83EE093A58
:104D600034FE064A38EE456AB4EE450AF1EE10FA12
:104D700034EE044A35FE065A202883FE483A84EE73
:104D8000094A35EE055A32EE032A84FE483A85EE8A
:104D9000094A32EE032A84FE483A32EE03AA7FF42F
:104DA00035AFFBE102EE100A411C03EE101A811C24
:104DB00005EE101AC11CB8EE422A06EE101AB8EE23
:104DC000433A011DB8EE455A32EE002A33EE003A5E
:104DD00035EE005A22EE012A23EE013AB8EE466A79
:104DE00038EE424AB4EE420AF1EE10FAB4EE430A4B
:104DF00032FE042A38EE434AF1EE10FA32EE022A6D
:104E000033FE043A25EE014A3AEE022A33EE033A23
:104E100038EE445A36EE006AB4EE440AF1EE10FA67
:104E200032EE032A34FE053A05EE101A26EE014A48
:104E3000411DB8EE455A33EE033A38EE446AB4EEFB
:104E4000440AF1EE10FA35EE005A32EE032A34FE2F
:104E5000063A06EE101A25EE015A811DB8EE466A92
:104E600038EE454AB4EE450A36EE006AF1EE10FA25
:104E700033EE033A35FE044A26EE015A06EE101AC6
:104E800032EE032AC11D34EE043A083038EE454AAA
:104E9000B4EE450AF1EE10FAB8EE466A32EE032A95
:104EA00035FE043A05EE101A36EE006AB8EE455AA1
:104EB00026EE014A33EE033A35EE005A38EE446AE4
:104EC000B4EE440A25EE015AF1EE10FA32EE032A4E
:104ED00034FE063A38EE454AB4EE450AF1EE10FAD1
:104EE00033EE033A35FE044A202832EE032A34EE2C
:104EF000043A32EE03AA7FF455AF4FE188EE091A67
:104F0000B5EE400AF1EE10FA81FE481A31FE080AA9
:104F100030EE001A31EE001A31EE001A31EE001AAE
:104F200031EE001A31EE001A31EE001A31EE001A9D
:104F300031EE001A31EE001A31EE001A31EE001A8D
:104F400031EE001A31EE001A31EE001A31EE001A7D
:104F500031EE001A31EE001A31EE001A31EE001A6D
:104F600031EE001A31EE001A31EE001A31EE001A5D
:104F700031EE001A31EE001A31EE001A31EE001A4D
:104F800031EE001A31EE001A31EE00AA06E100BF40
:104F90008178022980F0B4809FED86AAFEE000BFF0
:104FA0009A9959BF000000000000003DF1EE10FA90
:104FB00040F3F280B6EE00BA00249FED7EAA9FED8A
:104FC0007ECA9FED7FDA00BF00EE104AB8EE400ABD
:104FD00030EE0B0A20EE0C0A20EE0D0A39F0D0FE5E
:104FE000601C80EE090A01EE100A80FE480AB8EE45
:104FF000411A3AEE00AA31EE0B1A21EE0C1A21EEFC
:105000000D0A39F0BDFEA01C80EE090A01EE100A5F
:1050100080FE480AB8EE411A3AEE00AA31EE0B1AA9
:1050200021EE0C1A21EE0D0A39F0AAFEE01C80EEEA
:10503000090A01EE100A80FE480AB8EE411A3AEE5B
:1050400000AA31EE0B1A21EE0C1A21EE0D0A39F0EE
:1050500097FE201D80EE090A01EE100A80FE480A24
:10506000B8EE411A3AEE00AA31EE0B1A21EE0C1AF4
:1050700021EE0D0A39F084FE601D80EE090A01EE72
:10508000100A80FE480AB8EE411A3AEE00AA31EE44
:105090000B1A21EE0C1A21EE0D0A39F071FEA01D3B
:1050A00080EE090A01EE100A80FE480AB8EE411AA5
:1050B0003AEE00AA31EE0B1A21EE0C1A21EE0D0A7F
:1050C00039F05EFEE01D80EE090A01EE100A80FE56
:1050D000480AB8EE411A3AEE00AA31EE0B1A21EE58
:1050E0000C1A21EE0D0A39F04BFE80EE090A083445
:1050F000202C80FE480A3AEE00AA7FF465AF4DE00E
:10510000013944F6884002EE101AC2F20040B6EEB1
:10511000003A00EB810290ED001A0023B8EE422A1B
:105120009FED24AA9FED244A1EE000BFB8EE475A27
:1051300000EB840494ED017A36EE456A94ED005A52
:1051400037EE457AA7EE065A85EE096AB5EE400AB3
:10515000F1EE10FA03F1010386FE486A36FE055AA5
:10516000202B3AEE05AA19D005EE103AB8EE455AB2
:1051700035EE035A25EE045A25EE026AB0EE415A86
:10518000BDEEC67A17EE104A002CDDD4A142CDD870
:1051900092ED005AD8E700BF9FED08AA9FED060ADE
:1051A0002AEE000A9FED071A80FE010ABDEC0C8B67
:1051B00010BD00BF000000000000003D460AA341F2
:1051C000DB0F4940CDCC4C3D2DE9F0412DED068B58
:1051D0008EB036F02DFE44F6F03444F63C41C2F277
:1051E0000044C2F200414C222046FBF7A6FD40F2EB
:1051F000CC4640F28035C2F20446C2F20045002798
:10520000D6E90E013062306C7162716CB062B06CC4
:10521000F162F16CC6E90C01EF7036F031FE216BE2
:10522000306A3065706A7065B06AB065F06AF065C2
:10523000306B3066706B70664FF0010885F8048043
:105240000320A5F805004FF07E502F820029AF649F
:1052500006F10403E864A06A2865A069EF6546F6D4
:105260002832C5E90877C5E90A77C5E90C77AF6345
:10527000CCF66E62E8632F6704BF4AF6CD31C1F207
:105280003421C5E91D77C5E9191746F62831306084
:10529000C4F66E61376186C3FEF716F8E86B686482
:1052A00006A885F80680FDF72BFF40B1BDF8180071
:1052B0000B2804D1BDF81A0008B9FDF7F1FEFEF77E
:1052C00033F894F8340001282AD194ED0E0A9FEDAA
:1052D000332ABDEEC01A96ED098A20EE029A9FEDA0
:1052E0002E0A28EE00AA11EE105AFFF761FC28EEF4
:1052F000000A9FED2B1A41F22D212AA2C0F60401CB
:10530000032089EE000A2B4620EE010ABDEECA1AE0
:105310008DED001ABDEEC00A8DED010A01F014F802
:1053200094F8200096ED091A96ED0D2A94ED030AE3
:105330000138C2B2022AD4E9061007D84FF26863D6
:10534000C0F6030353F8222004E000BF41F281229B
:10535000C0F60402BDEEC22A9FED0F3A21EE031AF9
:105360000492CDE9021012EE103A41F22D21BDEE69
:10537000C00AC0F60401BDEEC11A17A203208DEDCC
:10538000000A8DED011A00F0DFFFFEF791FF0EB06D
:10539000BDEC068BBDE8F08100007A446F12833AC1
:1053A00000007042666C6F7720636F6E74726F6C72
:1053B0003A2056743D2564206D4C206F766572202E
:1053C0002564206D73202D3E207065616B207E2545
:1053D00064204C2F6D696E0073746172743A2025DD
:1053E000642062706D20493A4520313A2564206975
:1053F0006E73703D25646D7320626173653D256C2D
:105400006420616D703D256C6420257300000000F0
:105410000138C0B2022803D804A151F82000704717
:1054200000A0704749646C65000000009C120408ED
:10543000A4120408E612040870B582B040F2803469
:105440004FF44070C2F2004400252679A08044F653
:10545000F030C2F20040C4E90C558069E06336F0D8
:10546000E7FCFF20A4F8090036F00AFDE571656548
:10547000A5657EB1E06BFDF727FFFDF781FF41F2E7
:105480002D21268AE36AC0F6040105A203200096B6
:1054900000F05AFFA57102B0BDE87040FEF708BFEA
:1054A00073746F703A20256C752062726561746840
:1054B000732C20666C6167733D307825303458005A
:1054C00010B10178042901D90020704770B582B06D
:1054D00040F28034C2F20044A17A19B1002002B037
:1054E00070BD00BF064636F0A3FCB7EE000A96ED8D
:1054F000021A307896ED012A3546E07181FE400AA5
:105500009FED1E1A042880FE010A82FE011A84ED16
:10551000150A84ED161A01D10020E06536F0B0FCC2
:10552000297828460139C9B2032907D84FF25862B1
:10553000C0F6030252F8213004E000BF41F2862396
:10554000C0F6040390ED020A9FED0D1A20EE010A49
:1055500090ED011A41F22D21BDEEC11AC0F60401F1
:1055600008A2BDEEC00A03208DED000A8DED011AE0
:1055700000F0EAFE012002B070BD00BF0000000094
:105580000000C8426576656E7420257320736576C9
:105590003D2564252520666F722025642073000058
:1055A0002DE9F0412DED088B8CB040F28035C2F230
:1055B00000452879002800F0F484B5EE400A9FEDFC
:1055C000E01AF1EE10FA04A830FE019AFDF798FDFA
:1055D00000287CD02979BDF81000BDF82060E88152
:1055E000069F01292F64AE8108D1B7EE001A95ED10
:1055F000090AB4EE410AF1EE10FA70DB20F0010264
:105600000A2A49D0BDF81220002A45D102295ED1CC
:10561000EB6B43F2A420834203DC288A40F00400B1
:10562000288200EE103A9FEDD31AD81B40F2DC56C8
:1056300048BF4042B8EEC00A20EE010ABDEEC00AE3
:1056400010EE101AB142C8BF0E46B04240F25E8161
:1056500095ED120AB6EE001A39EE000A85ED120A2F
:10566000B4EE410AF1EE10FA31DB288A81070BD43F
:1056700041F22D210FF6C812C0F604010220CDE937
:10568000007600F061FE288A40F002002882287926
:10569000032820D100F083BC298A41F2EF12C0F622
:1056A00004020FF6CC1341F008012982032129716D
:1056B000E96B03968DE8830041F22D210120C0F6AD
:1056C000040100F041FEFDF75BFE0020A87128797F
:1056D000032800F06484012866D195ED090A44F698
:1056E000F031A879C2F2004139EE000A012885EDB7
:1056F000090A8C69EC6307D1686C844204D1E8899B
:1057000006280AD022E000BF2046FDF7DDFD6C64CC
:105710000120A871E889062818D1D5E90F1000EEFC
:10572000101A9FED941A401A40F2DC5148BF4042D3
:10573000B8EEC00A20EE010ABDEEC00A10EE102A33
:105740008A42C8BF1146884240F27E800020A8628B
:105750002879012840F02384B2EE080A95ED091A51
:10576000B4EE401AF1EE10FAC0F21984E889298AE1
:10577000062840F0958041F002002882022028711E
:1057800000202862FEF750FC41F22D2141F2EC226C
:10579000D5E90F73C0F60401C0F604020220009799
:1057A00000F0D2FD00F0FBBBA87A012840F0908009
:1057B00095ED180A30EE490A85ED180AB5EE400A53
:1057C000F1EE10FA00F30081687A297A01306872EC
:1057D000C2B28A4205D3E87A002800F0B3800020E4
:1057E0006872C3B2B7EE000A59009FED633A51FAEE
:1057F00080F040F6E411C2F2044101EB800090ED2C
:10580000021A81FE402A90ED000A007985ED180AFF
:10581000E871411E82FE032A80FE033A032985EDCA
:10582000152A85ED163A00F2B58041F24D20C0F6FA
:105830000400DFE801F0B30399A700BF41F2532051
:10584000C0F60400AAE000BF95ED0A0A9FED4B1ACE
:1058500039EE000A85ED0A0AB4EE410AF1EE10FABB
:10586000FFF676AF0220287100202862C5E90D00FE
:10587000FEF7DAFB95ED090A9FED411A20EE010AC9
:1058800041F22D2141F2AC22C0F60401C0F604021F
:105890000320BDEEC00A10EE103A00F055FD57E7A8
:1058A00041F00801298203212971AF8941F2312396
:1058B000D5E90F128DE8070041F22D2141F2EF12D8
:1058C000C0F60401C0F60402C0F6040351E100BFB3
:1058D000E879002878D095ED160AB5EE400AF1EE89
:1058E00010FA71DD30EE490A85ED160AB5EE400A70
:1058F000F1EE10FA68DC042810D801384FF2586134
:10590000C0B2C0F6030151F820300BE00020A864BB
:10591000287903287FF4DFAE41E300BF41F28623FC
:10592000C0F6040341F22D210FF25072C0F60401BB
:10593000032000F009FD0020E871C5E9150043E0EF
:105940000AD7A33B41F22D21FF20A5F80900002032
:10595000E871C0F60401C5E915000FF230720320AA
:1059600000F0F2FC30E000BF41F2DC20C0F60400A1
:1059700014E000BF9A99193E00000000CDCC4C3EC7
:1059800000007A440020E86541F24920C0F6040096
:1059900004E000BF41F28620C0F604009FEDBE2A5D
:1059A00041F22D2121EE021A0090BDEEC00AC0F690
:1059B00004010FF2E8620320BDEEC11A8DED020A68
:1059C0008DED011A00F0C0FC95ED170A95ED083A2F
:1059D00039EE001A9FEDB10A40F2CC4444F6F0389B
:1059E000C2F20444C2F2004831EE002A9FEDAC0A34
:1059F000B4EE410AF1EE10FA39EE030A31FE022A42
:105A000094ED141A85ED172AB4EE410A85ED080AC3
:105A1000F1EE10FA69DB30EE410A1FED291AE86A4F
:105A20000130E86280FE010A206985ED080A95EDE3
:105A30001D0A85ED1E0A68B101EE100A94ED032AD5
:105A4000D4E90112C4E90512B8EE411A82EE011A36
:105A500084ED071A98F83400012819D1B6EE001A1F
:105A600095ED132AB4EE412AF1EE10FA10DD98ED0F
:105A70000E1A1FED3E2A31EE400A21EE021AB4EE54
:105A8000410AF1EE10FA03DD288A40F40070288202
:105A900046F62830221DC4F66E6046F628310026F0
:105AA0006E67CCF66E61266143C2E878D8B136F0F5
:105AB000BFF944F6F03044F63C41C2F20040C2F275
:105AC00000414C22FBF739F9A06B2062E06B606269
:105AD000206CA062606CE062A06C2063E06C60638C
