:020000040800F2
:10000000009000208104000889F2000879E00008CF
:1000100059F20008395500080905000800000000E1
:10002000000000000000000000000000911F010817
:10003000595C000800000000610E010861420108DF
:10004000C9040008C9040008C9040008C90400085C
:10005000C9040008C9040008C9040008C90400084C
:10006000C9040008C9040008C9040008C90400083C
:10007000C9040008C9040008C9040008C90400082C
:10008000C9040008C9040008C9040008C90400081C
:10009000C9040008C9040008C9040008A15D0008DB
:1000A000C9040008D1470108C9040008C9040008B0
:1000B000C9040008C9040008C9040008C9040008EC
:1000C000C9040008C9040008C9040008C9040008DC
:1000D000C9040008C9040008C9040008C9040008CC
:1000E000C9040008C904000800000000C904000891
:1000F000C9040008C9040008C9040008C9040008AC
:10010000C9040008C9040008C9040008C90400089B
:10011000C9040008C9040008C9040008C90400088B
:10012000C9040008C9040008C9040008C90400087B
:10013000C9040008C9040008C9040008C90400086B
:10014000C9040008C9040008000000000000000005
:10015000C9040008C9040008C9040008C90400084B
:10016000C9040008C9040008C9040008C90400083B
:10017000C9040008C9040008C90400080000000000
:10018000C9040008C9040008C9040008C90400081B
:10019000C9040008C9040008C9040008C90400080B
:1001A000A1F00008C9040008C9040008C904000837
:1001B000C9040008C9040008C9040008C9040008EB
:1001C000C9040008C9040008C9040008C9040008DB
:1001D000C9040008C1020108C9040008C9040008D4
:1001E000C9040008C9040008C9040008C9040008BB
:1001F000C9040008C9040008C9040008C9040008AB
:10020000C9040008C9040008C9040008C90400089A
:10021000C9040008C9040008C9040008C90400088A
:10022000C9040008C9040008C9040008C90400087A
:10023000C9040008C9040008C9040008C90400086A
:10024000C9040008C9040008C9040008C90400085A
:10025000C9040008C9040008C9040008C90400084A
:10026000C9040008C9040008C9040008C90400083A
:10027000C9040008C9040008C9040008C90400082A
:10028000C9040008C9040008C904000800000000EF
:10029000C9040008C904000800F002F800F0E1F801
:1002A00014A696E8000CB244B344DA4501D100F03C
:1002B000D8F8BAE80F000FA696E83000A5EB0405C1
:1002C00004EB0607AAEB0704A7F101074FEA15158F
:1002D0004FEA3414A4F10104AC4201D300F0C1F898
:1002E00013F0010F18BFFB1A43F0010300F001F8EF
:1002F000DBE718475C0B0A00CC0B0A000A444FF0FE
:10030000000C10F8013B13F0070408BF10F8014B74
:100310001D1108BF10F8015B641E05D010F8016BB9
:10032000641E01F8016BF9D113F0080F1EBF10F81D
:10033000014BAD1C0C1B09D16D1E58BF01F801CB40
:10034000FAD505E014F8016B01F8016B6D1EF9D5C3
:100350009142D6D370470000103A24BF78C878C1C4
:10036000FAD8520724BF30C830C144BF04680C60BB
:10037000704700007047000000230024002500267D
:10038000103A28BF78C1FBD8520728BF30C148BFF8
:100390000B6070476E2900F0DB86702900F0478201
:1003A00066293CF0D88365293CF0D58367293CF069
:1003B000D28361293CF0D18303681B0A28BF41F036
:1003C0008001692900F0B881642900F0B5817529A0
:1003D00000F0B2816F2901F0D181782900F01382F9
:1003E000E92901F06B81E42901F06881F52901F028
:1003F0006581EF2901F0CE81F82900F012820368AF
:10040000DB0928BF41F08001632901F0ED807329E9
:1004100001F0F280E32901F0BB84F32901F0C084EC
:10042000002070471FB53CF056FB9DE8030001F02B
:100430006DFA01F04BFA0400002000213CF0CAFAEA
:10044000401C6060002000213CF0DAFAE06001F01E
:10045000EBFD00F08FFD1FBD10B5002001F0B2FDD7
:1004600010BD01F0EEFD1146FFF7DCFF2CF0F8F9AE
:1004700001F04FFE03B4FFF7EFFF03BC2CF0E4F9EB
:1004800015491648086016494FF0FF0008601548E6
:100490008047154880471548016821F00801016030
:1004A0001348016841F470010160BFF34F8FBFF33F
:1004B0006F8F10480047FEE7FEE7FEE7FEE7FEE726
:1004C000FEE7FEE7FEE7FEE7FEE700000A480B490D
:1004D0000B4A0C4B7047000004F80324FF0000C7D0
:1004E00008F80324C95D0008E143010814ED00E0A9
:1004F00088ED00E099020008000000200090002034
:1005000000100020001000201EF0040F0CBFEFF3BD
:100510000880EFF309802DE9F00F694601F1200012
:100520001AF02EFABDE8F00F704753EA020C00F003
:1005300069802DE9F04B4FF00006002B1FBFB3FA86
:1005400083F503FA05F424FA05F65E4012BF16435C
:10055000B2FA82F502FA05F4C5F120051EBF22FAAF
:1005600005FC44EA0C04203556EA044C4FEA1444D6
:1005700018BF641C4FF000084FF00009904271EB67
:10058000030C39D3002919BFB1FA81F701FA07F634
:10059000B0FA80F700FA07F6C7F120071EBF20FA6D
:1005A00007FC46EA0C062037B6FBF4FCA7EB050770
:1005B000103F07F01F0BCBF120062CFA06F60CFAC1
:1005C0000BFB44BFB3460026202FA4BF5E464FF06E
:1005D000000B5BEA060C08BF4FF0010B19EB0B098F
:1005E00048EB0608ABFB027C06FB02CC0BFB03CC02
:1005F000C01B71EB0C01C1E70B4602464146484661
:10060000BDE8F08B13B5084318BF4FF0FF3001462B
:10061000AFF30080BDE81C40704700007CB51D466C
:1006200016460C00009007D04142A14202D320445C
:10063000401E01E04FF0FF30064B7B442A466946DE
:100640000190304600F0ABFF002C02D0009A002150
:1006500011707CBD870F00000FB41CB50C0007AAF9
:10066000009007D04142A14202D32044401E01E045
:100670004FF0FF30074B7B4469460190069800F02D
:100680008EFF0021002C01D0009A11701CBC5DF877
:1006900014FB00004B0F000070B50446856900682C
:1006A000C10601D5302600E02026C00707D070BD66
:1006B000D4E9012130469047206A401C20626D1E1B
:1006C000F6D570BD70B5044685690078C00707D1BE
:1006D00070BDD4E9012120209047206A401C20628F
:1006E0006D1EF6D570BD70B50C460546012A05D0C5
:1006F0002878800600D5EA69002302E0012305E09E
:100700005B1C934202D2E05C0028F9D1A869E6188C
:10071000C01AA861286A184428622846FFF7BCFF5F
:1007200004E0D5E9012114F8010B9047B442F8D355
:100730002846FFF7C7FF70BD2DE9F04106460024AB
:1007400010687529314616A510D000F096FC0028D7
:1007500002DA404213A507E031688A0701D512A5E5
:1007600002E0490704D511A5012401E000F08EFC48
:1007700000210A2206F1240709E0B0FBF2FCB0FBDD
:10078000F2F302FB1C00303078541846491C002854
:10079000F3D123462A463046BDE8F04100F07FBC45
:1007A000000000002D0000002B00000020000000D1
:1007B000F0B40D460188090502D5214C7C4402E0C5
:1007C0001F4C7C440E34002100F1240608E002F0A6
:1007D0000F071209E75D42EA03721B097754491CAF
:1007E00052EA0307F3D102780023120704D5702DD3
:1007F00006D009B1022311342246F0BC00F04FBCF0
:1008000001231034F8E770B504460D462146106800
:1008100000F03CFC024629462046BDE8704000231B
:10082000C6E7D21D22F00703D3E90023C0E703681F
:10083000126843F0200303600823C3610023B7E775
:100840009AC403002DE9F05F894604464FF0000A80
:10085000DFF874B1FB44C0F820A02046E168884767
:10086000002874D0252806D0D4E901219047206AB9
:10087000401C2062F1E700265F462046E168884779
:100880002028054607DB312D05D2781910F8200CF9
:1008900008B10643F1E7B00701D526F00406C4F815
:1008A0001CA00027C4F818A02A2D09D028463CF027
:1008B00042F838B304EB8708303DC8F8185019E007
:1008C00059F8041B204604EB87029161E1688847D0
:1008D000012F054618D1E069002820DA26F020060D
:1008E0001DE0D8F8180000EB800005EB4000303820
:1008F000C8F818002046E168884705463CF01BF818
:100900000028EED1012F0AD02E2D08D12046E16813
:1009100088477F1C0546022F46F02006C4DBA069ED
:10092000002803DA404246F00106A061F00701D03A
:1009300026F010066C2D0BD0682D09D04C2D39D027
:100940006A2D35D0742D35D07A2D33D016E038E0AD
:10095000E1682F4620468847B842054609D16C2FEA
:1009600026D04FF48060E16806432046884705465C
:1009700004E06C2F1AD04FF4807006430DB3A5F13C
:100980004100192802D8203546F400664A46294617
:10099000204626604E46FFF7FDFC80B101280BD0B3
:1009A000F61D26F0070000F1080956E74020E4E7AD
:1009B0008020D8E70020D6E706F104094DE7284655
:1009C00052E7206ABDE8F09F2AC403002DE9F047F2
:1009D00091460F4680460446002614F8015B2DB16F
:1009E00000F0DEFA0068405DC007F6D12B2D02D082
:1009F0002D2D18D0641E4A463946204600F0D4FEFC
:100A000027B13968A14201D1C7F800804FF0020434
:100A100071050BD54042002803DD00F0C9FA0460DF
:100A2000A007BDE8F08746F48066E4E70028F8DA1E
:100A300000F0BEFA04606FF00040F2E70B4601469A
:100A4000184600F00FBF00000EB5054614460E46CE
:100A500013A000F02BFF284600F028FF16A000F09E
:100A600025FF304600F022FF15A000F01FFF0021F7
:100A70008DF80B100A210DF10A008DF80A1008E01C
:100A800094FBF1F201FB124294FBF1F4303200F8D6
:100A9000012D002CF4DC00F009FF00F0D8FE00006E
:100AA0002A2A2A20617373657274696F6E206661E9
:100AB000696C65643A2000002C2066696C65200032
:100AC0002C206C696E652000401ECAB210F8011F10
:100AD0008A4202D00029F9D10020704740EA010380
:100AE00010B59B070FD1042A0DD310C808C9121FD7
:100AF0009C42F8D020BA19BA884201D9012010BD11
:100B00004FF0FF3010BD1AB1D30703D0521C07E0DD
:100B1000002010BD10F8013B11F8014B1B1B07D141
:100B200010F8013B11F8014B1B1B01D1921EF1D1B2
:100B3000184610BD10B5431C02E010F8011B71B13E
:100B40008107FAD14FF0013202C88C1A8C4314EAA3
:100B5000C211F9D0C01A0A0603D0C01E10BDC01AB7
:100B600010BD0A0401D0801E10BD0902FCD0401E39
:100B700010BD40EA010370B59B072ED14FF001363E
:100B8000042A2AD308C810C99D1B9D43121F15EAC9
:100B9000C61517D0D8B2E1B2401A50EA056110D19B
:100BA00098B2A1B2401A50EA05410AD123F07F4021
:100BB00024F07F41401A50EA052102D1180EA0EB23
:100BC000146070BDA342DBD018BA21BA884201D9A3
:100BD000012070BD4FF0FF3070BD0AB9002070BD1C
:100BE00010F8013B11F8014B63B1A3420AD1521E28
:100BF00008D010F8013B11F8014B1BB1A34201D101
:100C0000521EEDD1181B70BD032A40F2308010F047
:100C1000030C00F0158011F8013BBCF1020F624497
:100C200098BF11F801CB00F8013B38BF11F8013B28
:100C3000A2F1040298BF00F801CB38BF00F8013BD5
:100C400011F0030300F06780083AC0F0088051F803
:100C5000043B083A51F804CBA0E80810F5E7121D50
:100C60005CBF51F8043B40F8043BAFF30080D2076F
:100C700024BF11F8013B11F801CB48BF11F8012B3B
:100C800024BF00F8013B00F801CB48BF00F8012B5E
:100C90007047431A28BF9A427FF6B6AF10441144FA
:100CA000032A40F2268010F0030F1EBF11F8013D09
:100CB000521E00F8013D10F0030F7FF4F6AF11F063
:100CC000030300F06D80083AC0F00B8051F8043D3A
:100CD000083A51F804CD40F8043D40F804CDFFF740
:100CE000F3BF121D5CBF51F8043D40F8043DAFF363
:100CF0000080D20724BF11F8013D11F801CD48BF93
:100D000011F8012C24BF00F8013D00F801CD48BFC7
:100D100000F8012C704710B5203AC0F00B80B1E804
:100D20001850A0E81850B1E81850A0E81850203A20
:100D3000BFF4F5AF5FEA027C24BFB1E81850A0E829
:100D4000185044BF18C918C0BDE810405FEA827C43
:100D500024BF51F8043B40F8043B08BF7047D2075A
:100D600028BF31F8023B48BF11F8012B28BF20F8FB
:100D7000023B48BF00F8012B7047431A28BF9A4234
:100D80007FF6C9AF1044114410F0030F1EBF11F8D5
:100D9000013D521E00F8013D10F0030F7FF4F6AF45
:100DA000103AC0F00A8010B531E9185020E9185007
:100DB000103ABFF4F9AFBDE81040530724BF31E942
:100DC000081020E9081044BF51F8043D40F8043DE4
:100DD00012F0030F08BF7047D20728BF31F8023D59
:100DE00048BF11F8012C28BF20F8023D48BF00F889
:100DF000012C704702F0FF0343EA032242EA024259
:100E000000F024B84FF000020429C0F0128010F066
:100E1000030C00F01B80CCF1040CBCF1020F18BFD6
:100E200000F8012BA8BF20F8022BA1EB0C0100F069
:100E30000DB85FEAC17C24BF00F8012B00F8012B3C
:100E400048BF00F8012B70474FF0000200B5134671
:100E500094469646203922BFA0E80C50A0E80C50DA
:100E6000B1F12001BFF4F7AF090728BFA0E80C508B
:100E700048BF0CC05DF804EB890028BF40F8042B84
:100E800008BF704748BF20F8022B11F0804F18BFF1
:100E900000F8012B704710B5044610F0030F08BF8F
:100EA00011F0030F40F015804FF0013E121FC0F209
:100EB0000E8051F8043BA3EB0E0C2CEA030C1CEA49
:100EC000CE1C08BF40F8043BF0D0A1F1040102F1B0
:100ED0000402521E08DB11F8013B00F8013B002B15
:100EE000F7D11146FFF78EFF204610BD000000002D
:100EF00030B44FF0013C50F8042BCCFA52F451F8C6
:100F0000043BD51A20D1FCB950F8042BCCFA52F48A
:100F100051F8043BD51A17D1B4B950F8042BCCFAC8
:100F200052F451F8043BD51A0ED16CB950F8042B89
:100F3000CCFA52F451F8043BD51A05D1002CDAD082
:100F400030BC4FF00000704729BAB1FA81F111F0BE
:100F50001801D1F120008440F2D1CA40CB4012F0F8
:100F6000FF0213F0FF0330BCD01A70477047704780
:100F70007047000008487CB57844009007487844E2
:100F8000009C0546019004E0204601680844804723
:100F9000241DAC42F8D17CBDBC000A00BE000A0092
:100FA00010B500F093FC001D10BD00BF29BA03006E
:100FB000004870476002002470B5064600F082FCCD
:100FC000056806F10B0020F00704B4429CBF002026
:100FD00070BD2B466A68BAB11068A04210D304F104
:100FE000080188423CBF5068586007D35168101907
:100FF00041601168091B016058601460101D70BDCC
:1010000013465268002AE7D12146284600F06AFCC0
:101010000028DED170BD70B50446051F00F052FCFB
:101020000068002C14BF446870BD002C18BFAC428F
:101030003CBF20466468F8D301680A18AA4218BF6A
:10104000456003D12A6805461144016028684119AA
:10105000A1421CBF6C6070BD616869602168084472
:10106000286070BD10B5FFF7A3FF006810BD10B574
:101070000446FFF79DFF046010BD09684A0501D5CD
:1010800040B27047C905FCD500B2704709684A05EF
:1010900001D5C0B27047C905FCD580B270472DE9B3
:1010A000F0470D4699469246044600F1240801682F
:1010B000880604D5E06921F01001216000E00120DC
:1010C000A84201DD471B00E00027A1697A1902EB65
:1010D0000900081AA0612078C00602D42046FFF754
:1010E000DBFA002608E0D4E901211AF8060090474F
:1010F000206A401C761C20624E45F4DB2078C00636
:101100000AD52046FFF7C8FA06E0D4E901213020CD
:101110009047206A401C2062381EA7F10107F4DCCA
:1011200007E0D4E9012118F805009047206A401C27
:101130002062281EA5F10105F3DC2046FFF7C2FA64
:101140002078000602D50220BDE8F0870120FBE7E9
:1011500011680268006A530501D508700AE0D305DA
:1011600001D5088006E0130603D5C217C1E90002C5
:1011700000E00860012070472DE9FF4F0C461E4635
:101180004FF0FF378BB0D2E90001DDF860800A90A4
:101190008A46C1F30A5505B93D46002108464FF07D
:1011A0000000BAF1000F00F4400005DA00EB800007
:1011B0004FF4400101EA50004FEA9059B9F1010F94
:1011C00000DDB9460A9850EA4A000ED044F61050A5
:1011D000A5F2FF3545432F14B8F1000F1ED075421C
:1011E000291E1EDDC9F100021CE0B8F1010F4FF00D
:1011F000000001D0302103E0F24305E02154401CFF
:10120000B042FBDB30460022002121540B99C1F88B
:101210000880C1E900200FB0BDE8F08FBD1B6D1C38
:10122000DEE74A4600DA694206A800F023FE06AB74
:1012300093E8070003AB83E8070050460A993AF0A9
:10124000A5FA8DE80700A0F500501F38009003981C
:10125000002D0ADD42F21F014A460844002303A97B
:10126000039068463AF050FD09E0A0F500504A4668
:101270001F38002303A9039068463AF06FFD8DE8FC
:1012800007000004000C03D04FF0FF30410800E0DD
:101290001046B8F1000F03D00022009215461EE060
:1012A000751E05D400F067FB303262556D1EF9D50E
:1012B000B3460122084302D000227F1C04E02078BC
:1012C000302801D100227F1E002A099784D01DE01A
:1012D000112D07DA00F04FFB303262556D1C50EAD9
:1012E0000102F5D1084302D00098C8B10EE00021F8
:1012F000681E05E0235C625C63542254401E491C56
:101300008142F7DBAB46A81B401E0990002004F881
:101310000B000B98099AC0F80880C0E9002B7AE707
:1013200011264FF0000857E72DE9F04F8846044694
:10133000D21D22F0070191B0D1E90001CDE90A01E7
:101340003AF058FE02460B98C00F01D02D2007E05E
:101350002068810701D52B2002E0202101EAC0008E
:10136000032A099001D0072A05DB0346414620469F
:1013700000F0C4FC0BE12078800601D5E06900E0B4
:101380000620B8F1650F814606D0B8F1660F18D077
:10139000B8F1670F70D131E00020B9F1110F009062
:1013A00001DB112301E009F101030AAA01A90CA83C
:1013B000FFF7E2FEDDE90C70002609F10105834626
:1013C00047E001204B4600904FF000470AAA01A9D0
:1013D0000CA8FFF7D1FEDDE90DB00C995D460026A3
:1013E00010B909F101000D18B9EB050003D4C0F1E3
:1013F000FF3609F10105A5EB09002BE0B9F1010F5A
:1014000001DA4FF001090020B9F1110F00904846B0
:1014100001DD112300E003460AAA01A90CA8FFF789
:10142000ABFEDDE90C704D460026834620780007B0
:101430000AD4AB4500DA5D4601A8012D04DD41194F
:1014400011F8011C302907D04F4502DA17F1040FBB
:1014500004DA012082460FE06D1EEEE7002F02DC69
:10146000ED1B3E4403E0781CA84200DD7D1CB81B48
:1014700000F1010A4FF000472078000703D4AA4585
:1014800001DB4FF0FF3A0021B7F1004F0DF14308A7
:101490008DF8431024D002202B23002F01DA7F4245
:1014A0002D230A21021EA0F1010000DC5FB197FB91
:1014B000F1FC97FBF1F201FB1C7C17460CF1300CA0
:1014C00008F801CDEEE7A8F10100037021880905B5
:1014D00001D5452100E06521A0F1010800F8011CBB
:1014E00009980FA9A1EB0807FF1D00B101204119C0
:1014F00001EBEA70A1693844081A401EA061207807
:10150000C00602D42046FFF7C7F8099828B1D4E9ED
:1015100001219047206A401C20622078C00622D515
:101520002046FFF7B9F81EE0002E04DBB34502DDCC
:1015300001A8805D00E03020D4E901219047206AB5
:10154000401C2062761CAAF101005FEA000A0AD161
:1015500000F0BCF9C0680168405CD4E90121904703
:10156000206A401C2062281EA5F10105DCDC07E092
:10157000D4E9012118F8010B9047206A401C206231
:10158000381EA7F10107F3DC2046FFF79BF8032084
:1015900011B041E601694A1C02610878704700B544
:1015A0008FB0CDE901310021059105497944CDE99C
:1015B000031011466846FFF745F90FB000BD000063
:1015C000E5FFFFFFD1E900239A4202D2531C0B60D2
:1015D0001070704710B5436913B1AFF3008001E09C
:1015E000FFF781F8012010BD127800F124010A7084
:1015F00000224A700122EDE711684FF0FF32E9E75F
:101600002DE9FF5F15468A460446DFF8AC80F844B2
:101610000027D8E900103E46CDE9001010E03AF866
:1016200016106A4602A800F0A8FC411C07D02178D9
:10163000890603D5E269391891420DD80744761C12
:101640002078800602D5E069B84205DDAE42E6DBCF
:101650003AF816000028E2D1A069C01BA06120461C
:10166000FFF71AF8D8E90010CDE90010002017E0C4
:101670003AF818106A4602A800F07FFCB0F1FF3F6C
:1016800081460BD000250DF1080B05E0D4E90121BE
:101690001BF8050090476D1C4D45F7D308F101007C
:1016A000B0428046E4DB206A384420622046FFF7DF
:1016B00009F8BDE8FF9F0000B2B603002DE9F04134
:1016C0008046D21D22F007020025D2E90002F5294A
:1016D00015A614D0011E72F1000106DA0023D0EB2A
:1016E000030063EB020211A608E0D8F800108B0794
:1016F00001D50FA602E0490701D50EA60125114626
:10170000002408F1240704E000F035F930323A559E
:10171000641C50EA0102F7D12B463246214640466E
:10172000BDE8F041FFF7BBBC000000002D00000049
:101730002B0000002000000030B4002100F1240440
:1017400008E002F00705D208303542EA4372DB08B0
:101750006554491C52EA0305F3D10468002310A222
:10176000250708D504F020040C4304D0C4690123E4
:101770000CA2641EC46130BCFFF791BC10B50446D6
:1017800021461068FFF782FC02462046BDE8104063
:101790000023D1E7D21D22F00701D1E90023CBE7D6
:1017A00000000000300000002DE9F05F8246154681
:1017B0008B4600270AF10104B9460078302801D091
:1017C0009DB113E014F8010B0127782803D05828A5
:1017D00001D045B10AE00DB1102D07D1002714F852
:1017E000010B102502E0082500E00A250026B0467E
:1017F0000EE005FB080005FB06F101271FFA80F843
:1018000001EB1046B6F5803F00D3B94614F8010B42
:10181000294600F0C9FA0028EBDABBF1000F05D029
:101820000FB1641E00E05446CBF80040B9F1000F40
:1018300006D0FFF7BDFB02210160C81EBDE8F09F86
:1018400048EA0640FAE70023036000F0DDBA10B56D
:10185000002000F0EFFBFEF7FFFDBDE81040012087
:101860002AF0F2BF2DE9F041074615460E4610203A
:10187000FFF7A2FB040013D06760C4E902650948C2
:10188000AFF3008000F026F801682160064904608B
:10189000002008600348AFF300800020BDE8F0811D
:1018A0000120FBE70000002400000424014900F0AF
:1018B00053BB0000F4050424004870476002002474
:1018C00000207047004870476802002400487047B5
:1018D0008002002400487047980200247047704737
:1018E0007047704738B504460A4600206946AFF392
:1018F0000080002808BF38BD02460099204600F04D
:10190000C5FB012038BD012000F02ABCF8B5AFF3BB
:101910000080054600200C460C2000BF0646A81992
:10192000A0420DD9324669460020AFF3008007007F
:1019300008BF00F015FC0098A04218BF0546C41966
:10194000FFF7C0FF05600746F01D20F007004619AD
:10195000284600F00AF8B44208BFF8BDA21B314681
:101960003868BDE8F84000F091BB0021016041609B
:1019700070470C20704730B5B0F10A0271F10003D6
:101980004FEA900E4EEA817EB0EB0E0061EB9101C2
:101990004FEA101E4EEA017E10EB0E0041EB1111D2
:1019A0004FEA102E4EEA016E10EB0E0041EB1121B2
:1019B0004FEA104E4EEA014E10EB0E0041EB114182
:1019C000401841F100014FEAD00040EA41704FEA6F
:1019D000D1014FEA810444EA907410EB800544EB96
:1019E00001046D1944EB0404521BA3414FF00003A2
:1019F00048BF0A3200D530BD401C41F1000130BD66
:101A00002DE9F04F04460D46D21D22F0070089B0A3
:101A1000D0E90097484639463AF0ECFA0246F80F0A
:101A200001D02D2307E02068810701D52B2302E098
:101A3000202101EAC0038DF820300BB1012000E025
:101A40000020032A824601D0072A04DB29462046CB
:101A500000F054F93FE12078800601D40D2500E024
:101A6000E569C7F30A560D2D49DA00214FEA175BE5
:101A700008464FF00000002F00F4400007DA00EBAA
:101A800080004FF4400100EBD07001EA6000811546
:101A9000012901DD4FF0FF3100224FEA850CBCF136
:101AA000180F06D31346ACF118004FF08052C24015
:101AB00003E04FF4801323FA0CF30CF10C0CBCF18F
:101AC000200F04D3ACF1200C09FA0CF001E007FA66
:101AD0000CF000294FF0004801DD18B90FE00ED1DD
:101AE00040450CD319EB02095F4121B9404502D1B1
:101AF0009F4329EA0209BBEB175F00D0761C2088C0
:101B0000000502D57B48784402E07A4878441938C9
:101B100008AA302302F80A30037C0AF10101002EE2
:101B20000AF1020A53546A4602DC4FF0300101E028
:101B30004FF031014FF001088DF8001002D0A6F2ED
:101B4000FF3603E059EA470100D06B4E002D02DC5E
:101B50002178090704D54FF002082E218DF80110D5
:101B6000C44600210BE0C7F303433F01C35C491C9B
:101B70006D1E02F80830052908F1010801DA002D70
:101B8000F1DC00210CE000EB1973491C1B786D1E81
:101B9000082902F808304FEA091908F1010801DAAA
:101BA000002DF0DC21688B0602D516E0A8F10108B3
:101BB000E04505DD02EB080313F8013C302BF5D0BE
:101BC000B8F1000F09DD02EB080313F8013C2E2BDE
:101BD00003D1090701D4A8F10108002D05DD3E213C
:101BE00002F808106D1E08F10108407C002E02F872
:101BF000080008F1010804DA2D20764202F80800F6
:101C000002E02B2002F808000A214FF47A70864285
:101C100008F101080BDB96FBF0F3303302F80830D3
:101C200096FBF0F308F1010800FB136601E0642E57
:101C30000CDB642096FBF0F3303302F8083096FB9F
:101C4000F0F308F1010800FB136601E00A2E06DB41
:101C500096FBF1F0303002F8080008F1010896FB1D
:101C6000F1F001FB1060303002F80800A16908F1C2
:101C7000010808EB050202EB0A00081AA0612078AF
:101C8000C00602D42046FEF707FD216A08AE01EB2C
:101C90000A00206204E0D4E9012116F8010B904704
:101CA000BAF1010AF7D22078C00602D52046FEF725
:101CB000F3FC6E4609E016F8010B3E280FD0D4E97C
:101CC00001219047206A401C2062B8F10108F2D23D
:101CD0002046FEF7F7FC09B00320BDE8F08F206A2C
:101CE0002844206203E0D4E90121302090476D1E92
:101CF000EBD3F8E7F5B1030002FCFFFF2DE9F0415B
:101D00001F46044603260168072A01F4006004DB2D
:101D100008B116A505E016A503E008B115A500E079
:101D200015A521F010002060A069C01EA0610FB1B0
:101D3000401EA0612046FEF7AFFC4FB1D4E901215F
:101D400038469047206A401C2062C01C206206E092
:101D5000206AFAE7D4E9012115F8010B9047761EB5
:101D6000F8D22046FEF7AEFCBDE8F0814E414E00B1
:101D70006E616E00494E4600696E660010B543699B
:101D800013B1AFF3008001E0FFF73AFC012010BD72
:101D9000128800F1240182840022C2840122EDE72E
:101DA00011684FF0FF32E9E73A2800D2303820F0CE
:101DB0002002412A01D3A2F13700884201D34FF01B
:101DC000FF3070470FB40B0010B54FF000048AB01D
:101DD0000FA900910E99CC60234C7C44234A7A448D
:101DE000CDE9064200D004236FF00042CDE9013274
:101DF0001F4A7A446B460892024600203AF00FFFD1
:101E00000AB010BC5DF814FBF0B507464FF0FF3088
:101E10001E4615460C463B4685B06A460091CDE904
:101E2000010131460020049004A8FFF7CBFF04997C
:101E30000346601825B109B1024600E022462A6037
:101E400000290ED0002B02DD0099814209D03B46CB
:101E50006A463146001B0094CDE9010404A8FFF74F
:101E6000B1FF05B0F0BD0000F50200000F03000057
:101E7000CB0200002DE9F047814616468AB035486E
:101E800078440DC88DE80D0032487844801C03ACBE
:101E90000DC884E80D0041F69B300844372190FBC3
:101EA000F1F290FBF1F5A5F1800501FB12041B3C5A
:101EB00002D56442012000E00020DFF898A08046AF
:101EC0000027FA44AAF1BE0A0EE0E0070AD0324623
:101ED000684607EB470101230AEB810139F03EFF19
:101EE0008DE8070064107F1C002CEED1194F7F4451
:101EF000AE3F19E0E80715D007EB04100DF1180A02
:101F000090E80E008AE80E00C068F04201D19819EE
:101F100008903246012306A903A839F01FFF03AB3E
:101F200083E807006D10641C002DE3D14FF001031E
:101F300032466946B8F1000F03A802D039F0E4FE3A
:101F400001E039F00BFFC9E90001C9F808200AB027
:101F5000BDE8F0870CAF030070B50D46044604E001
:101F600029462AF079FC401C04D014F8010B002803
:101F7000F6D170BD4FF0FF3070BD2DE9F04116462F
:101F80000C460546FFF70CF8036893F80101012899
:101F900007D0FF2C12D8185D80B101202C70BDE84D
:101FA000F081D3F807013246214603F20713C71820
:101FB0002846BC46BDE8F041002360474FF0FF30A3
:101FC000EDE700002DE9F84306461548AFF3008021
:101FD000FFF780FC134F8146E8464D4616E026B1D8
:101FE000E068B04201D0254610E0206828600C4827
:101FF000C7F80080AFF30080D4E9010188470848A2
:10200000AFF300803968414500D04D462C68002C64
:10201000E5D1002038600248AFF30080BDE8F883C6
:1020200000000024000004240148FFF749BC000020
:102030000000002410B500F07BF8BDE8104000F06F
:1020400071B87546FFF738FCAE4605006946534641
:1020500020F00700854618B020B5FEF737FABDE836
:1020600020404FF000064FF000074FF000084FF0FF
:10207000000BAC46ACE8C009ACE8C009ACE8C0094C
:10208000ACE8C00921F007018D467047034640685F
:102090008C46002818BF88423CBF03464068F8D3EE
:1020A00018681844884207D00CF1030020F007009C
:1020B000001D411A521A0146081D0A60FEF7ABBF07
:1020C00010B50446FEF76CFF0068005D00F00100EB
:1020D00010BD426842B1016811F8013B23B1521EA4
:1020E000C0E90012184670470121C160881E704780
:1020F00042685AB1C368016843B983688B4205D00E
:10210000491E521CC0E90012002070474FF0FF30FA
:10211000704710B50446AFF300802046BDE810407C
:10212000FEF7A8B9002801D02AF08EBB7047000046
:1021300010B5002102A000F097FA012010BD0000A8
:10214000534947414252543A2041626E6F726D6169
:102150006C207465726D696E6174696F6E00000049
:1021600010B500F09BFABDE81040FFF7DBBF0000A0
:102170002DE9FF4F06468BB00878FF2806D0491C92
:102180002D2805D000244FF0000908E000200CE0C5
:102190000124F8E709EB8903491C00EB430908789F
:1021A000FF28F7D114B1C9F100008146107800254D
:1021B0002C46AA4629462D2801D02B2804D1521C92
:1021C0002D2813D0002082468B461078FF280FD090
:1021D0004FF0000C0A21521CA5FB017804FB018181
:1021E00005FB0C11C5194BEB0104EEE70120EAE7F2
:1021F000002108464FF00000BAF1000F02D000EBBA
:1022000080004008C0F38157012F01DD4FF0FF37F8
:102210000E9955EA040009EB01080BD04FF00209B2
:1022200018F5FA7F16DA4FEACA70002F706008DDE1
:10223000012007E04FEACA70C6E900B00FB0BDE860
:10224000F08F00203060FEF7B3FEC0F80090182138
:10225000084616E0B8F5FA7F18DD002F02DAF748D5
:10226000784401E0F6487844D0E90010C6E900104F
:1022700040EACA707060FEF79BFEC0F8009014211F
:1022800008460FB0BDE8F04F3AF062BC00210846A6
:102290004FF00000B8F10001099002DAC7F1000226
:1022A00000E03A4601DAC8F1000106A8FFF7E2FDB6
:1022B00006AB93E8070003AB83E8070044F23E0057
:1022C0005BEA04010090584604D144F21E012C46FA
:1022D0005D460091210C0904014306D100992404B4
:1022E00044EA15442D041039009104F07F41014364
:1022F00006D10099240244EA15642D0208390091A0
:1023000004F07041014306D10099240144EA157498
:102310002D01091F009104F04041014306D10099AD
:10232000A40044EA9574AD00891E009104F00041B8
:10233000084304D100986D196441401E00904FF08D
:1023400001033A466846B8F1000FCDE9014503A9FB
:1023500002DD39F018FD01E039F0EBFCBAF1000FB5
:1023600004460D4601D084F00044002108464FF099
:102370000000099940F2FF77484010F00C0F07D198
:1023800024F00040284303D0C4F30A50B84212D1CD
:10239000FEF70EFEC0F80090C4F30A50B8420AD10E
:1023A000A8487844D0E90010C6E9001004F00041C4
:1023B0000843706042E7C6E900543FE72DE9FF4F4C
:1023C0001F464FF0000A4FF0FF38454691B0D7E95D
:1023D0000146CDF83CA0FFF779FAC0680168405C7F
:1023E0001090B96912986D1C8847396A81468847F0
:1023F0000028F6D1B9F1FF3F0AD0002E24F4D064B2
:1024000011DDB9F12B0F08D0B9F12D0F0BD102E07E
:10241000404615B013E744F48064B96912986D1C06
:102420008847761E8146600504A901D52D2000E06D
:102430002B20002E01F1010B0DF130088DF810005A
:102440003FDDB9F1690F08D0B9F1490F05D0B9F1F5
:102450006E0F02D0B9F14E0F1CD13B4601A800957A
:1024600080E85002DDE912126FF002003AF0DBFB67
:10247000C11CCED10EE0B96912986D1C8847814607
:102480001398761E44F4007405600F98401C002ECB
:102490000F9016DDB9F1300FEDD0B9F1780F02D001
:1024A000B9F1580F0DD10F9801280AD13B46CDE95B
:1024B0000054DDE91212001F02963AF0B2FBC11C73
:1024C000A7D1109989453ED144F0800406E01399C4
:1024D000681CAAF1010A44F400740860B9696D1C13
:1024E0001298761E884730288146F0D02BE010994C
:1024F000894505D1200603D4761E44F0800418E0F7
:1025000048463AF018FA08B3761E0DF123029345B7
:10251000A9F1300044F4007406D20BF8010B200638
:1025200007D5AAF1010003E0200602D40AF1010058
:102530008246A00502D51399681C0860B9691298F3
:102540006D1C88478146002ED1DC53E0002E51DD02
:10255000B9F1650F02D0B9F1450F4BD1A00549D5AE
:10256000B9696D1C1298761E24F440748847002EB9
:1025700081460CDD2B2804D0B9F12D0F07D144F48E
:102580008074B96912986D1C8847761E8146E005F3
:1025900001D52D2100E02B2108F8011BCDF800808A
:1025A00021E0761E0DF13901884544F400740CD207
:1025B000A9F1300010F0FF0088F8000002D1009966
:1025C000884509D908F1010806E0E00501D51E4853
:1025D00001E042F20F708246B96912986D1C88477B
:1025E000814613980560002E04DD48463AF0A3F9B1
:1025F0000028D6D1F96912988847FF2053468BF8F6
:10260000000088F8000000200A900B9004AA0CA992
:102610000AA8FFF7ADFDA00502D46FF00100F8E6AF
:1026200014F0240F12D0E0071CD13868DDE90A123B
:10263000031D3B600068C0E9001213E0A0EC090034
:1026400092EC090056EB0900F1D8FFFF0AA9684691
:102650003AF06AF8E00705D13868009A011D396040
:10266000006802602846D4E670B505460C460A208C
:1026700000E06D1C2AF0ECF835B128780028F8D17C
:1026800002E0641C2AF0E4F814B120780028F8D1A4
:10269000BDE870400A202AF0DBB8000010B5012820
:1026A00005D0002103A0FFF7DFFF012010BD09A125
:1026B000F8E7000053494752544D454D3A204F75B5
:1026C00074206F662068656170206D656D6F72792A
:1026D000000000003A2048656170206D656D6F72E2
:1026E0007920636F7272757074656400B2F12003B3
:1026F0000AD5C2F1200301FA02F120FA03F341EAFC
:10270000030100FA02F0704700FA03F14FF00000F5
:10271000704700002DE9FF4F1F464FF03C0987B07E
:102720004FF00042DDE9141001F10108DDF858A076
:1027300002EA405003900020059083460546044677
:102740000490B969461E08988847AAF1010A0290C8
:10275000BAF1000F3BDD02982E2815D01021FFF7AB
:1027600023FB00282EDB4FF0010B0599014317D006
:10277000B9F1000F0BDB4A46C117FFF7B7FF05435E
:102780000C43A9F1040905E0012004900BE008B115
:1027900045F0010501200590049820B9361D02E09E
:1027A000049800B1361FB969089808F101088847F4
:1027B000BBF1000FAAF1010A0290C9D00999C1F832
:1027C0000080C5E70298702808D0502806D0F96923
:1027D00008988847BBF1000F14D04FE0002002900A
:1027E0000120BBF1000F049009D0B969089808F1E5
:1027F00001088847AAF10109B9F1000F07DCF9695E
:10280000089888476FF001000BB0BDE8F08F2B28C7
:1028100004D02D280CD14FF0FF300490B9690898EE
:1028200008F101088847A9F10109B9F1000FE6DDB7
:10283000411CE4D00A21FFF7B7FA0028DFDB029938
:1028400008F1010801EB810100EB41000290B96938
:10285000089888470A21FFF7A7FA099AA9F1010900
:10286000B9F1000FC2F8008001DD0028E7DAF9694C
:10287000089888470499029800FB016655EA04000D
:1028800004D004F04041090002D006E0039898E02B
:10289000A40044EA9574AD00B61E04F0004108009F
:1028A00002D16D196441761E159810F0240F03D0E3
:1028B0004FF00B095C4803E04FF028096FF07D00F2
:1028C0008246564507DAAAEB06018944B9F1410F61
:1028D00001DD4FF0410901200021A9F10102FFF7BC
:1028E00005FF024628400B462140084301D0012144
:1028F00000E00021501E029143F1FF3128402140A9
:10290000084301D0012000E000200299834651EAEB
:102910000B014FD0002108464FF00000039900F44E
:10292000400039B100EB80004FF4400100EBD07063
:1029300001EA60008015012802DD4FF0FF3000E061
:1029400013D0401C36D0029860B3BBF1000F0CD1FD
:102950004A4601200021FFF7C9FE284021400843D4
:1029600001D0012000E00020E0B101204A46002112
:10297000FFF7BCFE034640190A4661412D1A8C41FF
:1029800011D3B9F1400F09DD159810F0240F02D0D2
:10299000AAF1340603E0AAF1170600E0761C002530
:1029A0004FF0004406E05B1E42F1FF3220EA0305CF
:1029B00021EA0204CAF10100B04206DA1B49039879
:1029C00008430190002000900EE0039AC4F3D32145
:1029D000E80A0A43164940EA44500A433146CDE921
:1029E0000002684639F054FF159810F0240F0BD000
:1029F0001598C00715D13868DDE90012031D3B604A
:102A00000068C0E900120CE002A8694639F08CFEAB
:102A10001598C00705D13868029A011D3960006811
:102A200002604046F0E6000002FCFFFF0000F07F7D
:102A30000000F03F2DE9FF4F92461D4685B04FF054
:102A40000041DDE9124BDDE914727F1E01EA4B50B3
:102A5000414940F0FF4940EA0108002122F02000EE
:102A60004928049102D04E2828D04CE03BA00126F2
:102A700007C88DE80700A9690698641C88477F1E6F
:102A8000014606D41DF8060018B121F0200181424C
:102A90000BD0E96906988847032E34D0082E32D02F
:102AA0006FF0010009B0BDE8F08F761C032E01D055
:102AB000082EE0D1601CCAF80000DCE7A96906987E
:102AC000641C88477F1E2AD420F02000412826D18C
:102AD000A9690698641C88477F1E20D420F0200036
:102AE0004E281CD1A9690698641C88477F1E48F4AB
:102AF000002849F48009CAF8004001D4282806D0EB
:102B0000E969069888475FEACB7012D022E0A9698C
:102B10000698641C88477F1E01D4002803DAE969FF
:102B200006988847BCE72928F1D1641CCAF8004000
:102B3000E9E71BF0240F07D028680499031D2B60D8
:102B40000068C0E9001805E02868021D2A600068D6
:102B5000C0F800902046A5E70000F07F494E4649A6
:102B60004E49545900000000B0B50446006842F2D6
:102B7000001140F48070C4F20201884218D142F280
:102B80000830C4F20200006810F4403F18D007F08B
:102B9000C7FF61680546B1F5803F05D0B1F5403FFC
:102BA0002CD0B1F5003F2AD1080CB5FBF0F526E09A
:102BB00046F20830C5F60200006810F4403FE6D146
:102BC0004FF40020002106F0D3FE61680546A1F510
:102BD00080224FEAB2420A2A11D8DFE802F0070742
:102BE0000707070755535951570000BF6FF0010001
:102BF00000EA5140B5FBF0F501E000BFAD0804F07C
:102C0000BBF841F2030188420ED8206842F6015118
:102C1000C0F231118D4281682CBF41F4807121F4E2
:102C200080718160B0BD00BF4BF62140C0F2BE0094
:102C3000854205D82068816821F440718160B0BD6B
:102C400047F64100C0F27D10854207D82068012276
:102C5000816862F309218160B0BD00BF20684FF236
:102C60008101C0F2FA218D42816805D8022262F307
:102C700009218160B0BD00BF41F440718160B0BDE9
:102C8000ED09BCE76D09BAE72D09B8E72D0AB6E7EB
:102C9000AD09B4E700000000B0B5016804468A68D9
:102CA0008868C0074FF0000031D012F0020218BF50
:102CB000B0BD886800F00D0001281FD14FF6C0722A
:102CC0008868C7F6FF7210400230886003200860F1
:102CD00004F05AF821688968C90701D10020B0BD05
:102CE000054602E08068C007F8D004F04DF8401BAC
:102CF00003282068F6D38168C907F3D0606D40F0DF
:102D000010006065A06D40F00100A0650120B0BD1D
:102D100010B54EF2E40112A2C0F60301032002F046
:102D200053FD40F2000445F25271C3F60004C4F2B0
:102D30004C212068884201D000F08EF904202061E7
:102D40000020606120830021BFF35F8F6068013045
:102D50006060BFF35F8F012004F02EF8012010BDEA
:102D600061636B206661756C7400000000000000F8
:102D700018B340F20001C3F60001BFF35F8F8A8BE6
:102D80000280CA8B42800A8C82804A6A82608A6A88
:102D9000C2608A8D0282CA8D428291F83020002A58
:102DA00018BF0122027591F83120002A18BF0122B4
:102DB0004275CA688968C0E90621002818BF012049
:102DC000704700000000000080B582B000F040F9BC
:102DD00044F2E040C5F60200016841F00071016074
:102DE000006800F000700190019802B0BDE88040DA
:102DF00000F032B90000000070B540F2000544F662
:102E00002066C3F6000545F25272B142C4F24C226C
:102E100038BF0E460029296848BF00269142044663
:102E200001D000F019F9052C20D8DFE804F00311D7
:102E3000090D0513AE870FE0A5F844600CE000BF54
:102E4000A5F8406008E000BFA5F8426004E000BFBC
:102E5000EE8701E0A5F84660BFF35F8F686B013035
:102E60006863BFF35F8F012070BD00BF002070BD9D
:102E700070B582B048F6AC4C48F6AC4503466045A8
:102E8000B8BF054647F254300C46CFF6FF704EF2FD
:102E9000E4018542C0F60301D8BF05469D4203D137
:102EA0001DA20320009403E012A20220CDE9005CE1
:102EB00002F08AFC40F2000645F25271C3F60006A9
:102EC000C4F24C213068884201D000F0C5F80320DC
:102ED0003061756100213483BFF35F8F706801300A
:102EE0007060BFF35F8F012003F066FF012002B026
:102EF00070BD00BF737065656420256C6420636CD1
:102F0000616D70656420746F20256C6420286D618C
:102F1000783D256429000000736574207370656531
:102F20006420256C642072706D2C2072616D703D80
:102F30002575206D73000000B0B540F2000545F224
:102F40005272C3F60005C4F24C220446296891422D
:102F500001D000F081F848F6AC4047F25431844289
:102F6000CFF6FF71B8BF20468842D8BF084603217C
:102F700029616861002028830021BFF35F8F6868A2
:102F800001306860BFF35F8F012003F015FF01205F
:102F9000B0BD00000000000010B54EF2E40111A227
:102FA000C0F60301032002F00FFC40F2000445F2DA
:102FB0005271C3F60004C4F24C212068884201D04B
:102FC00000F04AF801202061BFF35F8F60680021A4
:102FD00001306060BFF35F8F012003F0EDFE012040
:102FE00010BD00BF636D6420535441525400000073
:102FF00010B54EF2E40112A2C0F60301032002F064
:10300000E3FB40F2000445F25271C3F60004C4F23F
:103010004C212068884201D000F01EF80220206177
:103020000020606120830021BFF35F8F6068013062
:103030006060BFF35F8F012003F0BEFE012010BD72
:10304000636D642053544F500000000000000000E6
:10305000704700000000000040F2000045F252718D
:10306000C3F60000C4F24C2102688A4208BF7047D0
:103070000160002141608160C160016141610183A3
:1030800041838183C1830184416281628185C185DD
:1030900080F8301080F83110418641638163818768
:1030A000C187A0F84010A0F84210A0F84410A0F882
:1030B0004610A0F84810704781B04FF60401C2F2E4
:1030C0000341086044F2F441C5F602010A6842F483
:1030D00080320A600A6802F480320092009AD1F8C5
:1030E0000C2342F48072C1F80C2344F29801C5F617
:1030F0000001086001B0704788B000F019FD2AF0A7
:1031000003FD40F294580546441D00269FED168AA3
:10311000C2F20048E94604E0B0071DD0013605348C
:103120003D4620462AF0A8FC2AF0EEFC0746401B4C
:10313000142828BF1420AF4208BF052000EE100A53
:10314000B8EE400A20EE080A01F086FCF007E3D151
:103150004046FFF70DFEDFE7484600F0A9FC484671
:1031600014F08EF8DAE700BF6F12833A0000000017
:1031700080B536F001FB40F2DC100021C2F20440C1
:103180004171C0E91111BDE8804036F01DBB00005F
:1031900010B52DED0C8BB7EE008A9FEDD01A40F2E2
:1031A0009040C2F20440B0EE489A90F82000A0EEA1
:1031B000019A032800F02882022800F09581B5EEDC
:1031C000400A012840F03282B6EE000A00209FED4E
:1031D000C4AA9FEDC41AF1EE10FA40F3D38000BFE9
:1031E00002EE100A411C04EE101A811CB8EE422AAD
:1031F000B8EE444A32EE002A22EE012A38EE423A74
:10320000B4EE420AF1EE10FA32FE032A34EE003A2E
:1032100004EE101AC11C32EE022AB8EE444A23EE24
:10322000013A82EE092A34EE004A38EE435AB4EEEF
:10323000430A24EE014AF1EE10FA82FE482A33FED8
:10324000053A38EE445AB4EE440AF1EE10FA33EE81
:10325000033A34FE054A05EE101A3AEE022A011D21
:1032600083EE093AB8EE455A34EE044A83FE483AF2
:1032700035EE005A32EE032A84EE093A25EE014A71
:1032800005EE101A411D83FE483AB8EE455A38EE55
:10329000446AB4EE440A35EE005AF1EE10FA32EE0A
:1032A000032A25EE015A34FE063A38EE454AB4EEBA
:1032B000450AF1EE10FA33EE033A35FE044A05EE04
:1032C000101A811D83EE093AB8EE455A34EE044ACD
:1032D00083FE483A35EE005A84EE094A32EE032A5C
:1032E00025EE015A84FE483A04EE101AC11D08303A
:1032F00038EE456AB4EE450AF1EE10FAB8EE444AEB
:1033000032EE032A35FE063A05EE101A34EE004A74
:10331000B8EE455A24EE014A33EE033A35EE005A30
:1033200038EE446AB4EE440A25EE015AF1EE10FA82
:1033300083EE093A34FE064A38EE456AB4EE450A91
:10334000F1EE10FA34EE044A35FE065A402883FEA8
:10335000483A84EE094A35EE055A32EE032A84FED5
:10336000483A85EE094A32EE032A84FE483A32EEA4
:1033700003AA7FF435AF9FED5B0A2AEE000ABDEC8D
:103380000C8B10BD02EE100A411C03EE101A811CBA
:1033900005EE101AC11CB8EE422A06EE101AB8EE5D
:1033A000433A011DB8EE455A32EE002A33EE003A98
:1033B00035EE005A22EE012A23EE013AB8EE466AB3
:1033C00038EE424AB4EE420AF1EE10FAB4EE430A85
:1033D00032FE042A38EE434AF1EE10FA32EE022AA7
:1033E00033FE043A25EE014A3AEE022A33EE033A5E
:1033F00038EE445A36EE006AB4EE440AF1EE10FAA2
:1034000032EE032A34FE053A05EE101A26EE014A82
:10341000411DB8EE455A33EE033A38EE446AB4EE35
:10342000440AF1EE10FA35EE005A32EE032A34FE69
:10343000063A06EE101A25EE015A811DB8EE466ACC
:1034400038EE454AB4EE450A36EE006AF1EE10FA5F
:1034500033EE033A35FE044A26EE015A06EE101A00
:1034600032EE032AC11D34EE043A083038EE454AE4
:10347000B4EE450AF1EE10FAB8EE466A32EE032ACF
:1034800035FE043A05EE101A36EE006AB8EE455ADB
:1034900026EE014A33EE033A35EE005A38EE446A1E
:1034A000B4EE440A25EE015AF1EE10FA32EE032A88
:1034B00034FE063A38EE454AB4EE450AF1EE10FA0B
:1034C00033EE033A35FE044A402832EE032A34EE46
:1034D000043A32EE03AA7FF455AF4CE79A9959BFEC
:1034E000000000000000803C88EE091AB5EE400A9A
:1034F000F1EE10FA81FE481A31FE080A30EE001A89
:1035000031EE001A31EE001A31EE001A31EE001AD7
:1035100031EE001A31EE001A31EE001A31EE001AC7
:1035200031EE001A31EE001A31EE001A31EE001AB7
:1035300031EE001A31EE001A31EE001A31EE001AA7
:1035400031EE001A31EE001A31EE001A31EE001A97
:1035500031EE001A31EE001A31EE001A31EE001A87
:1035600031EE001A31EE001A31EE001A31EE001A77
:1035700031EE001A31EE001A31EE001A31EE001A67
:1035800031EE001A31EE001A31EE001A31EE001A57
:1035900031EE001A31EE001A31EE001A31EE001A47
:1035A00031EE001A31EE001A31EE001A31EE001A37
:1035B00031EE001A31EE001A31EE001A31EE001A27
:1035C00031EE001A31EE001A31EE001A31EE001A17
:1035D00031EE001A31EE001A31EE001A31EE001A07
:1035E00031EE001A31EE001A31EE001A31EE001AF7
:1035F00031EE001A31EE00AA1FED460A2AEE000A4B
:10360000BDEC0C8B10BD00BF40F2DC10C2F20440D8
:103610000178022980F0B4801FED4FAA1FED4F0AF8
:103620002AEE000ABDEC0C8B10BD00BFF1EE10FAC3
:1036300040F3F280B6EE00BA00249FEDFAAA9FEDA7
:10364000FACA9FEDFADA00BF00EE104AB8EE400A5F
:1036500030EE0B0A20EE0C0A20EE0D0A38F058FF6F
:10366000601C80EE090A01EE100A80FE480AB8EEDE
:10367000411A3AEE00AA31EE0B1A21EE0C1A21EE95
:103680000D0A38F045FFA01C80EE090A01EE100A71
:1036900080FE480AB8EE411A3AEE00AA31EE0B1A43
:1036A00021EE0C1A21EE0D0A38F032FFE01C80EEFC
:1036B000090A01EE100A80FE480AB8EE411A3AEEF5
:1036C00000AA31EE0B1A21EE0C1A21EE0D0A38F089
:1036D0001FFF201D80EE090A01EE100A80FE480A35
:1036E000B8EE411A3AEE00AA31EE0B1A21EE0C1A8E
:1036F00021EE0D0A38F00CFF601D80EE090A01EE84
:10370000100A80FE480AB8EE411A3AEE00AA31EEDD
:103710000B1A21EE0C1A21EE0D0A38F0F9FEA01D4D
:1037200080EE090A01EE100A80FE480AB8EE411A3E
:103730003AEE00AA31EE0B1A21EE0C1A21EE0D0A18
:1037400038F0E6FEE01D80EE090A01EE100A80FE68
:10375000480AB8EE411A3AEE00AA31EE0B1A21EEF1
:103760000C1A21EE0D0A38F0D3FE80EE090A083457
:10377000402C80FE480A3AEE00AA7FF465AFFAE5D5
:10378000013940F6CC0002EE101AC2F20440B6EE47
:10379000003A00EB810290ED001A0023B8EE422AB5
:1037A0009FEDA0AA9FEDA04A1FE000BFB8EE475AC8
:1037B00000EB840494ED017A36EE456A94ED005AEC
:1037C00037EE457AA7EE065A85EE096AB5EE400A4D
:1037D000F1EE10FA03F1010386FE486A36FE055A3F
:1037E000402B3AEE05AA3FF4C6AD05EE103AB8EE0E
:1037F000455A35EE035A25EE045A25EE026AB0EE1C
:10380000415ABDEEC67A17EE104A002CDCD4A14214
:10381000CCD892ED005AD7E7B6EE008A00249FED8F
:1038200081AA9FED819A9FED81BA00BF00EE104AF8
:10383000B8EE400A30EE080A20EE090A20EE0B0A24
:1038400038F066FE601C3AEE00AA01EE100AB8EEEF
:10385000411A31EE081A21EE091A21EE0B0A38F04E
:1038600057FEA01C3AEE00AA01EE100AB8EE411A6B
:1038700031EE081A21EE091A21EE0B0A38F048FE43
:10388000E01C3AEE00AA01EE100AB8EE411A31EE41
:10389000081A21EE091A21EE0B0A38F039FE201D14
:1038A0003AEE00AA01EE100AB8EE411A31EE081AFB
:1038B00021EE091A21EE0B0A38F02AFE601D3AEEBD
:1038C00000AA01EE100AB8EE411A31EE081A21EEF4
:1038D000091A21EE0B0A38F01BFEA01D3AEE00AAD1
:1038E00001EE100AB8EE411A31EE081A21EE091A5B
:1038F00021EE0B0A38F00CFEE01D3AEE00AA01EEB4
:10390000100AB8EE411A31EE081A21EE091A21EE1A
:103910000B0A38F0FDFD04F108003AEE00AA01EEB2
:10392000100AB8EE411A31EE081A21EE091A21EEFA
:103930000B0A38F0EDFD04F109003AEE00AA01EEA1
:10394000100AB8EE411A31EE081A21EE091A21EEDA
:103950000B0A38F0DDFD04F10A003AEE00AA01EE90
:10396000100AB8EE411A31EE081A21EE091A21EEBA
:103970000B0A38F0CDFD04F10B003AEE00AA01EE7F
:10398000100AB8EE411A31EE081A21EE091A21EE9A
:103990000B0A38F0BDFD04F10C003AEE00AA01EE6E
:1039A000100AB8EE411A31EE081A21EE091A21EE7A
:1039B0000B0A38F0ADFD04F10D003AEE00AA01EE5D
:1039C000100AB8EE411A31EE081A21EE091A21EE5A
:1039D0000B0A38F09DFD04F10E003AEE00AA01EE4C
:1039E000100AB8EE411A31EE081A21EE091A21EE3A
:1039F0000B0A38F08DFD04F10F003AEE00AA01EE3B
:103A0000100AB8EE411A31EE081A21EE091A21EE19
:103A10000B0A38F07DFD3AEE00AA1034402C7FF4FA
:103A200005AFA8E4000000000000803CDB0F494027
:103A30000138C0B2032807D84CF6E851C0F603019C
:103A400051F82000704700BF4EF24D60C0F60300F1
:103A50007047000000000000002808BF7047B0B5A4
:103A6000044635F089FE40F29040C2F20440D0E9AD
:103A70000DCED0E90F31D0E91125C4E90425C4E900
:103A80000231C4E900CED0E913CED0E91535D0E932
:103A90001712C4E90A12C4E90835C4E906CE406E1B
:103AA0002063BDE8B04035F08FBE0000000000008C
:103AB000002808BF7047B0B5044635F05DFE40F2FF
:103AC0004450C2F20040D0E90CCED0E90E31D0E92A
:103AD0001025C4E90425C4E90231C4E900CED0E9C7
:103AE0001210C4E90610BDE8B04035F06DBE00000C
:103AF00040F2DC10C2F20440007870470000000081
:103B0000002808BF704710B5044635F035FE40F276
:103B10004450C2F2004090E80E504069606184E871
:103B20000E50BDE8104035F04FBE00000000000010
:103B300070B540F290442421C2F204442046FDF7BF
:103B400083F900204FF07F51C4F2401060604FF0C5
:103B5000804040F2DC16C4E9021043F6A4004FF4A2
:103B60007A61C4E906014CF6CD400025C3F6CC606D
:103B7000C2F20446C4E909054AF6CD3006F15801FF
:103B8000C1F234206561C4E90B502046357000F065
:103B900097F9D4E900016063A068A163E168E0637C
:103BA0002069216461696064A069A164E169E064DD
:103BB000206A2165616A6065A06AA165E16AE065C5
:103BC000206BC4E9181040F24450B16DC2F20040BD
:103BD0000160F16D4160316E8160716EC160B16EE6
:103BE0000161F16E41617570F16EC162B16E816209
:103BF000716E4162316E0162F16DC161B16D8161C1
:103C00000321F1704FF07E51F1634FF47F41C6F80C
:103C10000610216BB570C6E91451C6E90455C6E912
:103C20000655C6E90855C6E90A55C6F80A50FF21E7
:103C3000F58135717571C6E90C55B563C6E9105546
:103C4000C6E91255C0E90E55C0E91055C0E9125534
:103C5000C0E90C5580F8331070BD00000000000072
:103C600040F2DC10C2F204408078411E002002299C
:103C700038BF012070470000B0B52DED028B40F237
:103C8000DC1440F29045C2F20444C2F204454FF005
:103C90007E51607995ED0A0AE163013884ED100ADE
:103CA000032857D89FED7E1ADFE800F052020A2C55
:103CB000B7EE000A94ED111A30EE411A48E000BF49
:103CC00094ED111AB4EE401AF1EE10FA03DDB0EEE5
:103CD000410A84ED101AFFF75BFAB0EE408A9FEDBF
:103CE000700AFFF755FA9FED731AB4EE418AF1EEB0
:103CF00010FA2FDD80EE080A94ED0F1A20EE011A5B
:103D000026E000BF94ED130A9FED661A80EE010ACB
:103D10009FED651A20EE010A38F0FAF9B7EE001AA5
:103D2000B6EE002A94ED113A9FED604A31EE400A5A
:103D3000A3EE041A20EE020A20EE010A9FED5C1A9F
:103D4000B4EE401A9FED561AF1EE10FA31FE001A49
:103D500084ED0F1A95ED0B0AB5EE400AF1EE10FA5C
:103D600040F38A80606D9FED542A9FED544ABFEE68
:103D7000005A80EA403020EE022AB7EE000A80EABC
:103D8000504080EA4010B0EE406AB0EE407A80EADF
:103D90004031000A81EA514101EE100A81EA4110E6
:103DA000010AB8EE411A03EE101A80EA403081EEA3
:103DB000041A80EA5040B8EE433A80EA4010606549
:103DC00031EE051A010A83EE043A40F24450C2F281
:103DD0000040A2EE016A01EE101A33EE053AF8EE49
:103DE000410A94ED161AA2EE037A94ED173A21EEE9
:103DF000061A80EE844A80ED061A23EE073A34EE66
:103E0000055A94ED184A80ED073A31EE436A80ED89
:103E1000084AA2EE050A94ED195A80ED095A36EEC9
:103E2000446A36EE452AB5EE402AF1EE10FA0DDA74
:103E300035EE021A9FED1A2A34EE033A81FE021A79
:103E400080ED091A33EE011A80ED061A94ED0F3A4F
:103E500080ED0A2A20EE030A9FED123A9FED102A08
:103E600083EE011A80ED0B1A80FE020A84ED0F0A20
:103E7000BDEC028BB0BD00BF40F24450A16DC2F258
:103E800000408161E16DC161216E0162616E41623C
:103E9000A16E8162E16EC162BDEC028BB0BD00BF5C
:103EA0000000000000007042DB0FC940CDCC4CBECA
:103EB0009A99193E6F12833A0AD7233CFFFFFF4AB3
:103EC00070B5D0ED012A9FEDC50A82FEC01AB1EE91
:103ED000006AB0EE002A90ED093A90ED0A5A9FED83
:103EE000C27AC1FE061AB7EE001A83FE423AD0ED3E
:103EF000023A83FEC64A8269C5FE410A9FEDB95A5D
:103F000083FE073AB3EE097A80ED093A44F620635E
:103F100080FE853AD0ED0B0AC0FEC70A80ED0A3A52
:103F2000D0ED034AD0ED046A9FEDAD7AD0ED055A8D
:103F300080FE853AC0ED011A80ED0B3A9A42B8BF77
:103F4000134684FE074AD0F81CC046F2A81280ED42
:103F5000024AB3F5FA6F84FEC63AD8BF4FF4FA634B
:103F60009445C5FEC27AB8BF624686FEC12A48F6AD
:103F7000A14EC3FE010A48F6A04422EAE27287FE7F
:103F8000853A02EB030C82FE052AF4454FF0000C43
:103F900090F820E0C0ED030A80ED042A80ED053A98
:103FA000836138BF4FF0010C28BFE21ABEF1040F45
:103FB0004FF00003C2614FD20678022E55D2BEF1F7
:103FC000030F0AD140F2DC12C2F204421278012A35
:103FD0009CBF4FF0000C80F820C000220024F4EEBB
:103FE000612A0025F1EE10FAF4EE443A08BF0122EE
:103FF000F1EE10FA08BF0124F4EE604AF1EE10FA77
:1040000008BF012322400024F4EE426A1A40F1EE78
:1040100010FA08BF0124F4EE435AF1EE10FA08BF7B
:104020000125224002EA05020CEA020C36B324EE16
:10403000206A9FED6E7A34EE025A36EE055A33EE60
:10404000055AB4EE475AF1EE10FA80F2898031EE4B
:10405000455A33EE053A98E04FF0000E4FF0000C51
:1040600080F820300678022EA9D300264FF0000CED
:104070000670BEF1030FA5D0AFE700BF80EE211A96
:10408000B7EE004A71EE421A30EE844A71EEC31A5E
:1040900064EE072AF4EE621AF1EE10FA11DA72EE0B
:1040A000E11A4FF0000CC3FE612A71EEE21A33EE02
:1040B000623AC2FE611A32EE612A71EE421A71EE64
:1040C000C31A81EE844ADFED4B1A61EE211A4FF0DC
:1040D000000E00220023B4EE614AF1EE10FAD8BFC0
:1040E0004FF0010EF4EE441AF1EE10FA24FE214ACC
:1040F000DFED411AB4EE464AF1EE10FAD8BF0122C4
:10410000B4EE446AF1EE10FA24FE064AB4EE474AD1
:10411000F1EE10FAA8BF012324FE074A31EE447ADB
:1041200020EE846A77EE420A30EEC67A37EE437AA2
:10413000B4EE617AF1EE10FA2ADA36EE076A4FF041
:10414000000C86FE056A30EEC67A37EE437AC7FE6B
:10415000450A87FE057A33EE203A83FE053A1CE0D5
:104160009FED231AB4EE415AF1EE10FA1EDDB2EEC5
:104170000E1A81EE055A26EE056A22EE052A23EE76
:10418000053A24EE054A80ED024A4FF0000C0FE09C
:1041900002EA0E021A400CEA020C87FE055A80ED74
:1041A000024A80EE010A33EE053A05E0B0EE451A08
:1041B00080EE010A80ED010A80ED042A80ED053AC7
:1041C000604681ED001A81ED014A81ED022A81ED00
:1041D000036A81ED043A81ED050A70BD000070426A
:1041E0009A99993E00000000CDCCCC3D72F97F3FFA
:1041F000690070419A99193F17B7D1B800000000C3
:10420000014600284FF0000037D0B0B540F2DC1472
:10421000C2F20444A2790F2A2DD80879042829D89B
:1042200091ED000AB5EE400AF1EE10FA22DD0D46DE
:1042300035F0A2FAA079B7EE000A95ED021A44F61D
:10424000584CC2F2004C296800EB400281FE400A43
:104250009FED0A1A01300CEB82034CF822102979E9
:1042600080FE010A197183ED020AA07135F0ACFAE3
:10427000012000E00020BDE8B040704700000000D1
:1042800080B535F079FA40F2DC104FF47F41C2F28C
:104290000440C18000210172BDE8804035F094BA2D
:1042A00040F2DC10C2F20440807970470000000048
:1042B00070B582B040F2DC16C2F20446B479CCB3D9
:1042C000054635F059FA44F65840B7EE000AC2F2F6
:1042D00000409FED1B2A4FF48071A6F8071090ED67
:1042E000021A757281FE400A90ED001A007986ED7F
:1042F000141A81FE021A707180FE020A042886EDEB
:10430000110A86ED121A01D10020F06435F05CFA32
:10431000B3794EF2E9660BA0C0F60306002D4EF20B
:10432000136118BF0646C0F6030108A203200096D9
:1043300001F04AFA002C18BF0124204602B070BDDB
:104340000000000020286C6F6F7029007363726991
:1043500070742073746172743A20257520737465CB
:10436000707325730000000080B535F005FA40F247
:10437000DC10FF21C2F20440A0F80710BDE8804025
:1043800035F022BA00000000022803D805A151F838
:104390002000704700A070474578705061757365C4
:1043A000000000009AE6030859E603089FE60308A8
:1043B000F0B593B000285BD0016806914168079181
:1043C00081680891C168099101690A9141690B915D
:1043D000C16A1191816A1091416A0F91016A0E912F
:1043E000C1690D9181690C91006B129006A8694614
:1043F000FFF766FD044635F0BFF940F2904540F204
:10440000445640F2DC17C2F20445C2F20046C2F242
:104410000447069868630798A8630898E8630998B2
:1044200028640A9868640B98A8640C98E8640D984E
:1044300028650E9868650F98A8651098E86511982A
:10444000286612986866DDE90001306002987160A4
:104450000399B0600498F1600599C6E90401012050
:10446000787035F0B1F9B87830B1204613B0F0BDAE
:104470000024204613B0F0BD35F07EF9686B28604B
:10448000A86B6860E86BA860286CE860686C2861BD
:10449000A86C6861E86CA861286DE861686D2862A5
:1044A000A86D6862E86DA862286EE862686E28638D
:1044B0003068B8657068F865B0683866F068786626
:1044C0003069B8663068B0617068F061B0683062B9
:1044D000F06870623069B0627069F0627069F866A5
:1044E0000020787035F070F9204613B0F0BD000060
:1044F000F0B581B00C46023900220646002818BFEC
:1045000001203F2938BF012200EA0205012D40F0B9
:10451000808035F031F9601E40F6CC0C032804F0A1
:10452000030EC2F2044C05D20022BEF1000F39D1B5
:1045300068E000BFB7EE000A04F07C02A6F11001AB
:10454000ACF11000534200229FED331A91ED042A82
:1045500000F1100782FE402A043A934282FE012AAB
:1045600080ED042A91ED052A82FE402A82FE012A6E
:1045700080ED052A91ED062A82FE402A82FE012A5C
:1045800080ED062A91ED072A01F1100182FE402AF2
:1045900082FE012A80ED072A3846D7D15242BEF169
:1045A000000F2FD006EB8200B7EE000ABEF1010F1C
:1045B00090ED001A0CEB820081FE402A9FED161A46
:1045C00082FE012A80ED002A1CD0501CBEF1020F91
:1045D00006EB80010CEB800091ED002A82FE402A60
:1045E00082FE012A80ED002A0CD0901C06EB80018F
:1045F0000CEB800091ED002A82FE400A80FE010A49
:1046000080ED000A40F2DC10C2F20440047035F084
:10461000DBF8284601B0F0BD0000000000000000FB
:104620002DE9F04F81B02DED028B90B035F0A4F85C
:1046300040F2904640F2445440F2DC15C2F2044687
:10464000C2F20044C2F20445706B3060B06B70601F
:10465000F06BB060306CF060706C3061B06C7061A9
:10466000F06CB061306DF061706D3062B06D706291
:10467000F06DB062306EF062706E30632068A865D5
:104680006068E865A0682866E06868662069A866D2
:104690006069E86600276F7035F096F8326BA86D98
:1046A000A061E86DE061286E2062686E6062A86EAD
:1046B000A062E86EE0624FF0010885F802800320F6
:1046C000A5F803004FF07E50EF81B16AC5E90E7086
:1046D000002A296404BF4AF6CD32C1F23422B069FF
:1046E000EF646A65C5E90477C5E90677C5E9087727
:1046F000AF62E862FEF720FCE86A686308A885F804
:104700000480FEF735FB40B1BDF820000B2804D132
:10471000BDF8220008B9FEF7FBFAFEF73DFC96F85B
:10472000200095ED171A95ED1B2A96ED030A013826
:10473000C2B2022AD6E9061006D84CF6F853C0F6E3
:10474000030353F8222003E04EF24862C0F603024E
:10475000BDEEC22A9FED293A21EE031A0492CDE95B
:10476000021012EE103A4EF21361BDEEC00AC0F60E
:104770000301BDEEC11A22A203208DED000A8DEDCA
:10478000011A01F021F8287AEE79698895F80590E8
:104790000791002808BF4FF0FF3694ED060A95ED0B
:1047A000041A81EE001AB5EE400AF1EE10FAEF8914
:1047B0009FED210AD5E907B031FE008A0690D5E9C0
:1047C0000B8AD5F80A5034F0D7FF04F1400107985E
:1047D0002086069884F8329084F83360A786C4F85F
:1047E00038B084ED0F8A81E80105E56434F0ECFF10
:1047F00010B0BDEC028B01B0BDE8F08F00007A4430
:1048000073746172743A2025642062706D20493A95
:104810004520313A256420696E73703D25646D73BF
:1048200020626173653D256C6420616D703D256C6F
:10483000642025730000000000000000000000005C
:104840000138C0B2022803D804A151F820007047F3
:1048500000A0704749646C650000000063E603082F
:104860006BE60308ADE603082DE9F04F81B02DEDAE
:10487000028B84B040F2DC144FF44070C2F2044466
:104880000025A678608040F29040C2F20440C4E95E
:1048900008558069E06234F06FFFFF20A4F807003C
:1048A00034F092FF65716564A5648EB1E06AFEF72D
:1048B00043FBFEF79DFB4EF21361E689E369C0F608
:1048C000030124A20320009600F07EFF607900E03F
:1048D00000200390207A257140F24455C2F2004531
:1048E000E77900286088029008BF4FF0FF3795ED08
:1048F000060A94ED041A81EE001AB5EE400AF1EEB4
:1049000010FAB4F80EA09FED1B0A31FE008AD4F80D
:104910001CB0D4E90B68D4F82090D4F80A4034F0E5
:104920002BFF02982886039885F8320085F83370AB
:10493000A5F834A0C5F838B085ED0F8AC5E9109602
:10494000C5E9128404B0BDEC028B01B0BDE8F04FA4
:1049500034F03ABF73746F703A20256C7520627220
:1049600065617468732C20666C6167733D307825CF
:10497000303458000000000010B10178042901D93A
:104980000020704770B582B040F2DC14C2F20444DB
:10499000217A19B1002002B070BD00BF064634F084
:1049A000EBFEB7EE000A96ED021A307896ED012A7A
:1049B0003546607181FE400A9FED1E1A042880FE74
:1049C000010A82FE011A84ED110A84ED121A01D146
:1049D0000020E06434F0F8FE297828460139C9B295
:1049E000032907D84CF6E852C0F6030252F82130EA
:1049F00004E000BF4EF24D63C0F6030390ED020ADF
:104A00009FED0D1A20EE010A90ED011A4EF213618E
:104A1000BDEEC11AC0F6030108A2BDEEC00A032014
:104A20008DED000A8DED011A00F0CEFE012002B0DE
:104A300070BD00BF000000000000C8426576656ED2
:104A400074202573207365763D2564252520666FC7
:104A500072202564207300002DE9F04F81B02DED08
:104A6000068B90B040F2DC1BC2F2044B9BF80200B4
:104A7000002800F0AF84B5EE400A9FEDCA1AF1EEAF
:104A800010FA08A830FE018AFEF772F940F2445885
:104A90000028C2F2004800F08D809BF80210BDF89B
:104AA0002000BDF83060ABF80C000A9F0129CBF85C
:104AB0003070ABF80A6008D1B7EE001A9BED050A1A
:104AC000B4EE410AF1EE10FA7EDB20F001020A2A70
:104AD00050D0BDF82220002A4CD102296AD1DBF83F
:104AE0002C3043F2A420834205DCBBF80E0040F0DA
:104AF0000400ABF80E0000EE103A9FEDD81AD81B58
:104B000040F2DC5648BF4042B8EEC00A20EE010A2F
:104B1000BDEEC00A10EE101AB142C8BF0E46B04238
:104B200040F2E8819BED0E0AB6EE001A38EE000A5C
:104B30008BED0E0AB4EE410AF1EE10FA3ADBBBF847
:104B40000E0081070CD44EF213610FF62012C0F64E
:104B500003010220CDE9007600F036FEBBF80E001E
:104B600040F00200ABF80E009BF80200032826D1AB
:104B7000C8E100BFBBF80E104EF2D552C0F60302DA
:104B80000FF6181341F00801ABF80E1003218BF853
:104B90000210DBF82C1003968DE883004EF21361AF
:104BA0000120C0F6030100F00FFEFEF721FA0020FD
:104BB0008BF804009BF80200032800F0A381012871
:104BC00040F098809BED050A40F290419BF804006C
:104BD000C2F2044138EE000A01288BED050A8C6907
:104BE000CBF82C4008D1DBF83400844204D1BBF868
:104BF0000C30062B0CD024E02046FEF79DF9CBF8B4
:104C0000344001208BF80400BBF80C30062B18D17F
:104C1000DBE90B1000EE101A9FED901A401A40F2DB
:104C2000DC5148BF4042B8EEC00A20EE010ABDEE9A
:104C3000C00A10EE102A8A42C8BF1146884240F2CC
:104C4000B3800020CBF818009BF80200012840F048
:104C5000E680B2EE080A9BED051AB4EE401AF1EEBA
:104C600010FAC0F2DC80062B00F0B980BBF80E0011
:104C70004EF2D552BBF80A60C0F6030240F00800BD
:104C8000ABF80E0003208BF80200DBE90B01CDE945
:104C9000003002914EF213614EF21763C0F6030129
:104CA000C0F603030120039600F08EFDFEF7A0F985
:104CB0009BF808009BF8075000284FF0000008BF41
:104CC0004FF0FF3598ED060A9BED041A81EE001AAD
:104CD000B5EE400AF1EE10FA8BF804009BF80200E2
:104CE0009FEDAC0A079031FE008ABBF80C000690DD
:104CF000ADE000BF9BF80800012840F0B1809BEDBB
:104D0000140A30EE480A8BED140AB5EE400AF1EEB3
:104D100010FA00F369819BF807009BF80610013038
:104D20008BF80700C2B28A4207D39BF8090000281B
:104D300000F01E8100208BF80700C3B2B7EE000A16
:104D400059009FED943A51FA80F044F65841C2F26E
:104D5000004101EB800090ED021A81FE402A90EDA7
:104D6000000A00798BED140A8BF80500411E82FEC3
:104D7000032A80FE033A03298BED112A8BED123AA8
:104D800000F218814EF23360C0F60300DFE811F044
:104D90001601040004010A014EF23960C0F6030056
:104DA0000CE100BF0AD7A33B9BED060A9FEDE71A73
:104DB00038EE000A8BED060AB4EE410AF1EE10FA65
:104DC00070DA9BF802000623012828D1B2EE080A07
:104DD0009BED051AB4EE401AF1EE10FA1FDBBBF89A
:104DE0000E0040F00200ABF80E0002208BF802002B
:104DF0000020CBF81000FEF73FFF4EF213614EF299
:104E0000B362DBE90B73C0F60301C0F603020220B4
:104E1000009700F0D9FC9BF80200BBF80C30CDE9FC
:104E200006309BF808009BF80750002808BF4FF099
:104E3000FF3598ED060A9BED041A81EE001AB5EED7
:104E4000400AF1EE10FA9FED530A31FE008A9BED05
:104E5000089ADBF82C00059093E200BF9A99193E5E
:104E60009BF80500002800F0BF809BED120AB5EE0C
:104E7000400AF1EE10FA40F3B78030EE480A8BEDAD
:104E8000120AB5EE400AF1EE10FA00F3AD800428E4
:104E90005AD801384CF6E851C0B2C0F6030151F8B7
:104EA000203055E002208BF802000020CBF81000E3
:104EB000CBE90900FEF7E0FE9BED050A9FEDB71A6E
:104EC00020EE010A4EF213614EF27362C0F6030146
:104ED000C0F603020320BDEEC00A10EE103A00F047
:104EE00073FCBBF80C309BF8020001283FF4B1AE14
:104EF00095E700BF0020CBF838009BF8020003289C
:104F00007FF45DAE9BF808009BF80750002808BFAF
:104F10004FF0FF3598ED060A9BED041A81EE001A5A
:104F2000B5EE400AF1EE10FA9FED1A0ABBF80C003C
:104F300031FE008A9BED089A0690DBF82C00059064
:104F4000032007901DE200BF4EF24D63C0F603033D
:104F50004EF213610FF25452C0F60301032000F029
:104F600033FC00208BF80500CBE911003CE000BFCA
:104F70004EF21361FF20ABF8070000208BF805000C
:104F8000C0F60301CBE911000FF23052032000F00C
:104F90001BFC29E0000000004EF2A360C0F60300F5
:104FA0000CE000BF0020CBF84C004EF22F60C0F6A2
:104FB000030003E04EF24D60C0F603009FEDCA2AE5
:104FC0004EF2136121EE021A0090BDEEC00AC0F647
:104FD00003010FF2F8420320BDEEC11A8DED020A63
:104FE0008DED011A00F0F0FB9BED130A9BED043AE6
:104FF00038EE001A9FEDBD0A40F29044C2F204441C
:1050000031EE002A9FEDBA0AB4EE410AF1EE10FA31
:1050100038EE030A31FE022A98ED061A8BED132AA8
:10502000B4EE410A8BED040AF1EE10FA4CDB30EEDF
:10503000410A1FED281ADBF81C000130CBF81C00D8
:1050400080FE010A8BED040A9BF80100C0B334F026
:1050500093FB606B2060A06B6060E06BA060206CD5
:10506000E060606C2061A06C6061E06CA061206D0C
:10507000E061606D2062A06D6062E06DA062206EF4
:10508000E062606E2063D8F80000CBF85800D8F8D2
:105090000400CBF85C00D8F80800CBF86000D8F822
:1050A0000C00CBF86400D8F81000CBF86800D8F8F2
:1050B0001400CBF86C0000208BF8010034F084FB66
:1050C000FEF7DAFD9BED040A98ED071AB4EE410AEB
:1050D000F1EE10FA22DA80EE010AB7EE009AB5EE90
:1050E000401A94F82000F1EE10FA30FE091A032855
:1050F00048D0B0EE490A022858D0012850D1B7EE66
:10510000000AB6EE002A30EE410AB4EE412AF1EE72
:1051100010FA31FE000A30EE000A47E098ED082A46
:1051200031EE021AB4EE410AF1EE10FA10DA94F8F8
:105130002000B7EE000A03284ED0B0EE401A022835
:1051400051D001284DD09FEDEB1A4CE0CDCC4C3E18
:1051500098ED092A31EE022AB4EE420AF1EE10FA75
:1051600018DA31EE400A94ED091A9BF803509BEDD2
:105170000A9A80EE010A37F073F8022D48D129EE21
:10518000001A49E09BF80000022880F087809FED1C
:10519000C60A0BE09FEDC41A03203EE000007A44EB
:1051A0009FEDD60A21EE000A37F0B2F9B0EE493A87
:1051B0009BED101A9FEDD02AB5EE401AF1EE10FAD1
:1051C000A1EE023A4FF0000080EE032A82FE492A47
:1051D00032FE001A21E000BF9BF80000022880F098
:1051E000FF809FEDB11AB0EE404A9BED102A9FED73
:1051F000C23AB5EE402AF1EE10FAA2EE034A4FF0A1
:10520000010081EE043A83FE400A30FE011A04E0F8
:105210009BED091A8BED0A1A02209BED0F0A9FEDF8
:10522000A2AA21EE000AB7EE002A8BF803008BED4C
:10523000091A80FE0A0A80FE429A94ED070AB8EE27
:10524000C00A8BED089AA46929EE000A37F0FEF82F
:10525000204448F6A0418842B8BF01469BF80400AC
:10526000012821EAE1745BD1DBF82C50AC420DDD62
:105270009FEDA50A28EE000A37F0E8F8611B81428D
:105280004EDDBBF80E10441946E000BF48D2BBF813
:105290000A0018282ED29FED9A0A33E0013800EE5A
:1052A000100AB8EE400A21EE000ABDEEC01A11EE57
:1052B000101AB1F1FF3F40F3B580884240F2BA8046
:1052C00040F6CC00B8EE411AC2F2044000EB810077
:1052D00030EE411A90ED000A90ED012A32EE402A9C
:1052E000A2EE010A62E700BF0000C842000070C2DF
:1052F00000007042BBF80E009FED820A40F02000D3
:10530000ABF80E0028EE000A37F0A0F8291B814206
:1053100006DDBBF80E102C1A41F00101ABF80E109F
:105320009BF80400CBF82C40012803D1DBF83400B3
:1053300084420BD02046FDF7FFFDCBF834409BEDB7
:10534000089ADBF82C4001208BF804009BF8080039
:105350009BF807500594002808BF4FF0FF3598EDE3
:10536000060A9BED041A81EE001AB5EE400AF1EE32
:1053700010FA9BF8020031FE0A8A0790BBF80C0075
:105380000690BBF80A70BBF80E409BF803609BF8D0
:105390000590DBF830A0DBF81CB034F0EDF907988D
:1053A00088F8300088F83160059888F8329088F8DD
:1053B0003350A8F83440C8F838B088ED0F8A88ED2B
:1053C000109AC8E9110AA8F84C700698A8F84E007F
:1053D00034F0FAF910B0BDEC068B01B0BDE8F08FE7
:1053E000013801EE100AB8EE411ABDEEC12A12EEE4
:1053F000101AB1F1FF3F27DD88422DD940F6CC00CD
:10540000B8EE422AC2F2044000EB810031EE422A9B
:1054100090ED001A90ED013A33EE413AA3EE021AF4
:10542000E1E600BF40F6CC00C2F2044090ED000A75
:10543000BCE600BF40F6CC01C2F2044101EB8000A3
:1054400090ED000AB2E600BF40F6CC00C2F2044084
:1054500090ED001AC7E600BF40F6CC01C2F204414D
:1054600001EB800090ED001ABDE600BF626C6F7723
:105470006572206E6F7420747261636B696E673A37
:1054800020636D643D256C64206163743D256C640C
:105490002028746F6C3D256C642900006D6F746F5B
:1054A00072206661756C7400000000006576656EA0
:1054B0007420257320656E646564000073637269EF
:1054C000707420636F6D706C6574650073637269CE
:1054D000707420737465702025753A2025732073CD
:1054E00065763D2564252520666F7220256420732E
:1054F000000000002EBDBBB39A9959BFDB0F494095
:105500000050C34600409C45007C1248000000004B
:105510000138C0B2022807D84CF6F851C0F6030192
:1055200051F82000704700BF4EF24860C0F60300FB
:105530007047000000000000FEE7000000000000CF
:1055400000207047000000000020704700000000AD
:1055500010B544F6185441F29431C2F20044C2F23C
:1055600000410022204612F0F3FE40F6943120461E
:10557000C2F2004112F0DCFE002010BD000000006D
:10558000B0B50968044610F07BF844F6185521467A
:10559000C2F20045284612F0CBFE284612F0A4FEC7
:1055A0000020B0BD00000000002070470000000097
:1055B00044F61852C2F20042D2F8BC22D2F81422A9
:1055C000002A1CBF0120704710B544F618540A4643
:1055D000C2F200440146204612F0BAFE2046BDE861
:1055E000104012F039BF00004EF61450CEF2000009
:1055F000416F41F470014167016821F008010160C9
:10560000BFF34F8FBFF36F8F70470000B0B5304AC4
:105610004CF24025136823F0010313602D4A4FF626
:10562000F07314681C40AC4205D0146823404CF25F
:105630007024A3422BD12B4A126832B12B4A01238A
:1056400093609368002BFCD11AE0274A13686FF32C
:105650001F33B3F58A6F0DD0136840F283446FF3A4
:105660001F33A34206D0126840F285436FF31F3206
:105670009A42E3D11E4A012393609368002BFCD128
:1056800010601068401AB0FA80F04009B0BD14688C
:105690004FF6F0734DF220251C40AC4205D0126845
:1056A0001A404DF230239A42C8D10B4A0B4CD2F823
:1056B000F833A3420AD1D2F8FC33094CA34205D1F6
:1056C000012393609368002BFCD1D9E70020B0BD83
:1056D000002000E000ED00E0004C02460100170051
:1056E00001DDC5A3002004E00010005C0030024092
:1056F000004C02580000000040F2945544F6F4714A
:10570000C2F20045C2F2004105F1200488220123C3
:1057100020460EF0BDFA40F204064035C2F20046C3
:1057200040F63021C2F204418822F070002328465E
:105730000EF0AEFA307145F22476C2F20046002136
:10574000304608F0B1FA0421304608F0ADFA40F6D0
:1057500038004FF6E851C4F20000016008F0D8FEAE
:1057600020460EF0D1FA28460EF0CEFA08F028FFB7
:10577000FA2028F061F9F3E740F210300021C2F27C
:1057800000400AA20161416141608160C160012164
:105790000170417040F27400C2F2044002A103782B
:1057A000032000F011B800BF5359530064656275BF
:1057B00067206C6F67206F6E6C696E6520286C7651
:1057C0006C3D25752900000081B080B581B0039340
:1057D00003AB009300F080F801B0BDE8804001B059
:1057E00070470000000000002DE9F04F9DB040F22E
:1057F00010370028C2F200477F7818BF002F03D16E
:105800001DB0BDE8F08F00BF40F27407C2F204473C
:105810003F78B842F4D8002BF2D0269D002DEFD06F
:105820000DF1100B99461B780391924602902C467D
:1058300020A264215846202D0BF1640628BF2024A5
:10584000FAF70AFF012817DB012D1DD00BEB00072B
:10585000A4F1010809F1010918A400BF19F8013BDE
:10586000F11B38462246FAF7F7FE012805DBB8F1AE
:1058700001080744F2D100E05F46212D04D3F11B5B
:1058800010A23846FAF7E8FE4EF2E9605346C0F639
:1058900003000DA1BAF1000F0CA204BF034601469C
:1058A000CDE9001BDDE90201FFF78EFF1DB0BDE869
:1058B000F08F00BF25303258000000002025303224
:1058C000580000002E2E00002000000025732573D4
:1058D00025730000000000002DE9F047AAB040F257
:1058E00010360028C2F20046777818BF002F03D187
:1058F0002AB0BDE8F08700BF40F27407C2F2044747
:105900003F78B842F4D80F4690469946044601F0D5
:105910003BFA44F6D351C1F26201A0FB0112611EB1
:10592000C9B293094FF47A7203FB1200032903D81A
:1059300075A252F8215000E03F250DF1080A76A229
:10594000A021CDE900055046FAF786FE9F28CFD862
:1059500005468FB138784B46424678B10AEB0500D0
:10596000C5F1A00170A23B46FAF776FE05449F2DD3
:10597000A8BF9F250028BBD44B4642465AB10AEB2C
:105980000500C5F1A001FAF749FE05449E2DA8BF08
:105990009E250028ACD4691C40F60D202AF805008D
:1059A000A81C032945F67271EFF3108C72B600F053
:1059B000030EC2F200414FD20023BEF1000F40D0CF
:1059C0003069776901306FF31F30B84207D17769CA
:1059D00001376FF31F377761B7680137B7601AF87F
:1059E00003703569BEF1010F4F55306129D0306920
:1059F000776901306FF31F30B84207D177690137FB
:105A00006FF31F377761B7680137B7605344BEF152
:105A1000020F5F7835694F55306112D03069726975
:105A200001306FF31F30904207D1726901326FF37A
:105A30001F327261B2680132B2609A783369CA5417
:105A40003061BCF1000F00D162B670680130706047
:105A50002AB0BDE8F08700BF20F00305002306E070
:105A6000FA78346904339D420A553061A5D0306913
:105A7000776901306FF31F30B84207D1776901377A
:105A80006FF31F377761B7680137B7601AF8037093
:105A900032698F5430613069726901306FF31F30A1
:105AA000904207D1726901326FF31F327261B2689E
:105AB0000132B2600AEB03077A7834690A55306123
:105AC0003069726901306FF31F30904207D17269FB
:105AD00001326FF31F327261B2680132B260BA787C
