:020000040800F2
:10000000009000208104000859D2000849C000086F
:1000100029D2000819350008090500080000000071
:1000200000000000000000000000000061FF000868
:10003000393C00080000000031EE000831220108C0
:10004000C9040008C9040008C9040008C90400085C
:10005000C9040008C9040008C9040008C90400084C
:10006000C9040008C9040008C9040008C90400083C
:10007000C9040008C9040008C9040008C90400082C
:10008000C9040008C9040008C9040008C90400081C
:10009000C9040008C9040008C9040008713D00082B
:1000A000C9040008B1270108C9040008C9040008F0
:1000B000C9040008C9040008C9040008C9040008EC
:1000C000C9040008C9040008C9040008C9040008DC
:1000D000C9040008C9040008C9040008C9040008CC
:1000E000C9040008C904000800000000C904000891
:1000F000C9040008C9040008C9040008C9040008AC
:10010000C9040008C9040008C9040008C90400089B
:10011000C9040008C9040008C9040008C90400088B
:10012000C9040008C9040008C9040008C90400087B
:10013000C9040008C9040008C9040008C90400086B
:10014000C9040008C9040008000000000000000005
:10015000C9040008C9040008C9040008C90400084B
:10016000C9040008C9040008C9040008C90400083B
:10017000C9040008C9040008C90400080000000000
:10018000C9040008C9040008C9040008C90400081B
:10019000C9040008C9040008C9040008C90400080B
:1001A00071D00008C9040008C9040008C904000887
:1001B000C9040008C9040008C9040008C9040008EB
:1001C000C9040008C9040008C9040008C9040008DB
:1001D000C904000891E20008C9040008C904000825
:1001E000C9040008C9040008C9040008C9040008BB
:1001F000C9040008C9040008C9040008C9040008AB
:10020000C9040008C9040008C9040008C90400089A
:10021000C9040008C9040008C9040008C90400088A
:10022000C9040008C9040008C9040008C90400087A
:10023000C9040008C9040008C9040008C90400086A
:10024000C9040008C9040008C9040008C90400085A
:10025000C9040008C9040008C9040008C90400084A
:10026000C9040008C9040008C9040008C90400083A
:10027000C9040008C9040008C9040008C90400082A
:10028000C9040008C9040008C904000800000000EF
:10029000C9040008C904000800F002F800F0E1F801
:1002A00014A696E8000CB244B344DA4501D100F03C
:1002B000D8F8BAE80F000FA696E83000A5EB0405C1
:1002C00004EB0607AAEB0704A7F101074FEA15158F
:1002D0004FEA3414A4F10104AC4201D300F0C1F898
:1002E00013F0010F18BFFB1A43F0010300F001F8EF
:1002F000DBE718473CBE0900ACBE09000A444FF0DA
:10030000000C10F8013B13F0070408BF10F8014B74
:100310001D1108BF10F8015B641E05D010F8016BB9
:10032000641E01F8016BF9D113F0080F1EBF10F81D
:10033000014BAD1C0C1B09D16D1E58BF01F801CB40
:10034000FAD505E014F8016B01F8016B6D1EF9D5C3
:100350009142D6D370470000103A24BF78C878C1C4
:10036000FAD8520724BF30C830C144BF04680C60BB
:10037000704700007047000000230024002500267D
:10038000103A28BF78C1FBD8520728BF30C148BFF8
:100390000B6070476E2900F03186702900F04782AB
:1003A000662938F09881652938F09581672938F0F9
:1003B0009281612938F0918103681B0A28BF41F0BE
:1003C0008001692900F0B881642900F0B5817529A0
:1003D00000F0B2816F2901F02781782900F01382A3
:1003E000E92901F0C180E42901F0BE80F52901F07E
:1003F000BB80EF2901F02481F82900F01282036804
:10040000DB0928BF41F08001632901F04380732993
:1004100001F04880E32901F01184F32901F01684EA
:10042000002070471FB538F016F99DE8030001F071
:10043000C3F901F0A1F904000020002138F08AF886
:10044000401C60600020002138F09AF8E06001F064
:1004500041FD00F0E5FC1FBD10B5002001F008FDD6
:1004600010BD01F044FD1146FFF7DCFF28F0B4F8A1
:1004700001F0A5FD03B4FFF7EFFF03BC28F0A0F8DF
:1004800015491648086016494FF0FF0008601548E6
:100490008047154880471548016821F00801016030
:1004A0001348016841F470010160BFF34F8FBFF33F
:1004B0006F8F10480047FEE7FEE7FEE7FEE7FEE726
:1004C000FEE7FEE7FEE7FEE7FEE700000A480B490D
:1004D0000B4A0C4B7047000004F80324FF0000C7D0
:1004E00008F80324993D0008B123010814ED00E049
:1004F00088ED00E099020008000000200090002034
:1005000000100020001000201EF0040F0CBFEFF3BD
:100510000880EFF309802DE9F00F694601F1200012
:1005200016F02EFCBDE8F00F704753EA020C00F005
:1005300069802DE9F04B4FF00006002B1FBFB3FA86
:1005400083F503FA05F424FA05F65E4012BF16435C
:10055000B2FA82F502FA05F4C5F120051EBF22FAAF
:1005600005FC44EA0C04203556EA044C4FEA1444D6
:1005700018BF641C4FF000084FF00009904271EB67
:10058000030C39D3002919BFB1FA81F701FA07F634
:10059000B0FA80F700FA07F6C7F120071EBF20FA6D
:1005A00007FC46EA0C062037B6FBF4FCA7EB050770
:1005B000103F07F01F0BCBF120062CFA06F60CFAC1
:1005C0000BFB44BFB3460026202FA4BF5E464FF06E
:1005D000000B5BEA060C08BF4FF0010B19EB0B098F
:1005E00048EB0608ABFB027C06FB02CC0BFB03CC02
:1005F000C01B71EB0C01C1E70B4602464146484661
:10060000BDE8F08B13B5084318BF4FF0FF3001462B
:10061000AFF30080BDE81C40704700007CB51D466C
:1006200016460C00009007D04142A14202D320445C
:10063000401E01E04FF0FF30064B7B442A466946DE
:100640000190304600F001FF002C02D0009A0021FA
:1006500011707CBD330E00000FB41CB50C0007AA4E
:10066000009007D04142A14202D32044401E01E045
:100670004FF0FF30074B7B4469460190069800F02D
:10068000E4FE0021002C01D0009A11701CBC5DF822
:1006900014FB0000F70D000070B504468569006882
:1006A000C10601D5302600E02026C00707D070BD66
:1006B000D4E9012130469047206A401C20626D1E1B
:1006C000F6D570BD70B5044685690078C00707D1BE
:1006D00070BDD4E9012120209047206A401C20628F
:1006E0006D1EF6D570BD70B50C460546012A05D0C5
:1006F0002878800600D5EA69002302E0012305E09E
:100700005B1C934202D2E05C0028F9D1A869E6188C
:10071000C01AA861286A184428622846FFF7BCFF5F
:1007200004E0D5E9012114F8010B9047B442F8D355
:100730002846FFF7C7FF70BD2DE9F04106460024AB
:1007400010687529314616A510D000F0ECFB002882
:1007500002DA404213A507E031688A0701D512A5E5
:1007600002E0490704D511A5012401E000F0E4FBF3
:1007700000210A2206F1240709E0B0FBF2FCB0FBDD
:10078000F2F302FB1C00303078541846491C002854
:10079000F3D123462A463046BDE8F04100F0D5BBF0
:1007A000000000002D0000002B00000020000000D1
:1007B000F0B40D460188090502D5214C7C4402E0C5
:1007C0001F4C7C440E34002100F1240608E002F0A6
:1007D0000F071209E75D42EA03721B097754491CAF
:1007E00052EA0307F3D102780023120704D5702DD3
:1007F00006D009B1022311342246F0BC00F0A5BB9B
:1008000001231034F8E770B504460D462146106800
:1008100000F092FB024629462046BDE870400023C6
:10082000C6E7D21D22F00703D3E90023C0E703681F
:10083000126843F0200303600823C3610023B7E775
:100840001A8003002DE9F05F894604464FF0000A44
:10085000DFF874B1FB44C0F820A02046E168884767
:10086000002874D0252806D0D4E901219047206AB9
:10087000401C2062F1E700265F462046E168884779
:100880002028054607DB312D05D2781910F8200CF9
:1008900008B10643F1E7B00701D526F00406C4F815
:1008A0001CA00027C4F818A02A2D09D0284637F02C
:1008B00002FE38B304EB8708303DC8F8185019E041
:1008C00059F8041B204604EB87029161E1688847D0
:1008D000012F054618D1E069002820DA26F020060D
:1008E0001DE0D8F8180000EB800005EB4000303820
:1008F000C8F818002046E1688847054637F0DBFD58
:100900000028EED1012F0AD02E2D08D12046E16813
:1009100088477F1C0546022F46F02006C4DBA069ED
:10092000002803DA404246F00106A061F00701D03A
:1009300026F010066C2D0BD0682D09D04C2D39D027
:100940006A2D35D0742D35D07A2D33D016E038E0AD
:10095000E1682F4620468847B842054609D16C2FEA
:1009600026D04FF48060E16806432046884705465C
:1009700004E06C2F1AD04FF4807006430DB3A5F13C
:100980004100192802D8203546F400664A46294617
:10099000204626604E46FFF7FDFC80B101280BD0B3
:1009A000F61D26F0070000F1080956E74020E4E7AD
:1009B0008020D8E70020D6E706F104094DE7284655
:1009C00052E7206ABDE8F09FAA7F03002DE9F047B7
:1009D00091460F4680460446002614F8015B2DB16F
:1009E00000F034FA0068405DC007F6D12B2D02D02C
:1009F0002D2D18D0641E4A463946204600F02AFEA6
:100A000027B13968A14201D1C7F800804FF0020434
:100A100071050BD54042002803DD00F01FFA046089
:100A2000A007BDE8F08746F48066E4E70028F8DA1E
:100A300000F014FA04606FF00040F2E70B46014644
:100A4000184600F065BE00000EB5054614460E4679
:100A500013A000F081FE284600F07EFE16A000F0F4
:100A60007BFE304600F078FE15A000F075FE0021F8
:100A70008DF80B100A210DF10A008DF80A1008E01C
:100A800094FBF1F201FB124294FBF1F4303200F8D6
:100A9000012D002CF4DC00F05FFE00F02EFE0000C3
:100AA0002A2A2A20617373657274696F6E206661E9
:100AB000696C65643A2000002C2066696C65200032
:100AC0002C206C696E652000401ECAB210F8011F10
:100AD0008A4202D00029F9D10020704740EA010380
:100AE00010B59B070FD1042A0DD310C808C9121FD7
:100AF0009C42F8D020BA19BA884201D9012010BD11
:100B00004FF0FF3010BD1AB1D30703D0521C07E0DD
:100B1000002010BD10F8013B11F8014B1B1B07D141
:100B200010F8013B11F8014B1B1B01D1921EF1D1B2
:100B3000184610BD032A40F2308010F0030C00F07C
:100B4000158011F8013BBCF1020F624498BF11F807
:100B500001CB00F8013B38BF11F8013BA2F10402C0
:100B600098BF00F801CB38BF00F8013B11F0030338
:100B700000F06780083AC0F0088051F8043B083A5A
:100B800051F804CBA0E80810F5E7121D5CBF51F83E
:100B9000043B40F8043BAFF30080D20724BF11F8B8
:100BA000013B11F801CB48BF11F8012B24BF00F81D
:100BB000013B00F801CB48BF00F8012B7047431AF6
:100BC00028BF9A427FF6B6AF10441144032A40F280
:100BD000268010F0030F1EBF11F8013D521E00F8D1
:100BE000013D10F0030F7FF4F6AF11F0030300F0A6
:100BF0006D80083AC0F00B8051F8043D083A51F876
:100C000004CD40F8043D40F804CDFFF7F3BF121DBA
:100C10005CBF51F8043D40F8043DAFF30080D207BB
:100C200024BF11F8013D11F801CD48BF11F8012C86
:100C300024BF00F8013D00F801CD48BF00F8012CA9
:100C4000704710B5203AC0F00B80B1E81850A0E80A
:100C50001850B1E81850A0E81850203ABFF4F5AF8A
:100C60005FEA027C24BFB1E81850A0E8185044BFE6
:100C700018C918C0BDE810405FEA827C24BF51F853
:100C8000043B40F8043B08BF7047D20728BF31F847
:100C9000023B48BF11F8012B28BF20F8023B48BF98
:100CA00000F8012B7047431A28BF9A427FF6C9AF5C
:100CB0001044114410F0030F1EBF11F8013D521EE5
:100CC00000F8013D10F0030F7FF4F6AF103AC0F0CA
:100CD0000A8010B531E9185020E91850103ABFF4D5
:100CE000F9AFBDE81040530724BF31E9081020E9EF
:100CF000081044BF51F8043D40F8043D12F0030FC2
:100D000008BF7047D20728BF31F8023D48BF11F82D
:100D1000012C28BF20F8023D48BF00F8012C704785
:100D200002F0FF0343EA032242EA024200F024B841
:100D30004FF000020429C0F0128010F0030C00F004
:100D40001B80CCF1040CBCF1020F18BF00F8012B82
:100D5000A8BF20F8022BA1EB0C0100F00DB85FEA50
:100D6000C17C24BF00F8012B00F8012B48BF00F81C
:100D7000012B70474FF0000200B51346944696468B
:100D8000203922BFA0E80C50A0E80C50B1F120019E
:100D9000BFF4F7AF090728BFA0E80C5048BF0CC04C
:100DA0005DF804EB890028BF40F8042B08BF7047AA
:100DB00048BF20F8022B11F0804F18BF00F8012B1C
:100DC000704710B5044610F0030F08BF11F0030F71
:100DD00040F015804FF0013E121FC0F20E8051F816
:100DE000043BA3EB0E0C2CEA030C1CEACE1C08BF40
:100DF00040F8043BF0D0A1F1040102F10402521EBC
:100E000008DB11F8013B00F8013B002BF7D111463C
:100E1000FFF78EFF204610BD7047704770470000F7
:100E200008487CB57844009007487844009C054603
:100E3000019004E02046016808448047241DAC422C
:100E4000F8D17CBDF0B40900F2B4090010B500F08F
:100E500093FC001D10BD00BFFD76030000487047E5
:100E6000A001042470B5064600F082FC056806F176
:100E70000B0020F00704B4429CBF002070BD2B463D
:100E80006A68BAB11068A04210D304F10801884220
:100E90003CBF5068586007D3516810194160116811
:100EA000091B016058601460101D70BD1346526824
:100EB000002AE7D12146284600F06AFC0028DED14E
:100EC00070BD70B50446051F00F052FC0068002C90
:100ED00014BF446870BD002C18BFAC423CBF204614
:100EE0006468F8D301680A18AA4218BF456003D1A4
:100EF0002A6805461144016028684119A1421CBFB7
:100F00006C6070BD6168696021680844286070BDCC
:100F100010B5FFF7A3FF006810BD10B50446FFF73A
:100F20009DFF046010BD09684A0501D540B27047B5
:100F3000C905FCD500B2704709684A0501D5C0B2A1
:100F40007047C905FCD580B270472DE9F0470D46C2
:100F500099469246044600F124080168880604D5A3
:100F6000E06921F01001216000E00120A84201DDCC
:100F7000471B00E00027A1697A1902EB0900081A53
:100F8000A0612078C00602D42046FFF785FB00262A
:100F900008E0D4E901211AF806009047206A401CB5
:100FA000761C20624E45F4DB2078C0060AD5204628
:100FB000FFF772FB06E0D4E9012130209047206A58
:100FC000401C2062381EA7F10107F4DC07E0D4E9D9
:100FD000012118F805009047206A401C2062281E55
:100FE000A5F10105F3DC2046FFF76CFB2078000635
:100FF00002D50220BDE8F0870120FBE711680268F6
:10100000006A530501D508700AE0D30501D50880B0
:1010100006E0130603D5C217C1E9000200E008602C
:10102000012070472DE9FF4F0C461E464FF0FF3759
:101030008BB0D2E90001DDF860800A908A46C1F3E6
:101040000A5505B93D46002108464FF00000BAF1A7
:10105000000F00F4400005DA00EB80004FF440017F
:1010600001EA50004FEA9059B9F1010F00DDB9468D
:101070000A9850EA4A000ED044F61050A5F2FF3507
:1010800045432F14B8F1000F1ED07542291E1EDDF6
:10109000C9F100021CE0B8F1010F4FF0000001D0CF
:1010A000302103E0F24305E02154401CB042FBDB59
:1010B00030460022002121540B99C1F80880C1E973
:1010C00000200FB0BDE8F08FBD1B6D1CDEE74A4667
:1010D00000DA694206A800F023FE06AB93E8070099
:1010E00003AB83E8070050460A9936F00BFA8DE807
:1010F0000700A0F500501F3800900398002D0ADD6E
:1011000042F21F014A460844002303A9039068469F
:1011100036F0B6FC09E0A0F500504A461F3800231F
:1011200003A90390684636F0D5FC8DE8070000045B
:10113000000C03D04FF0FF30410800E01046B8F13A
:10114000000F03D00022009215461EE0751E05D444
:1011500000F067FB303262556D1EF9D5B3460122AF
:10116000084302D000227F1C04E02078302801D1FF
:1011700000227F1E002A099784D01DE0112D07DA76
:1011800000F04FFB303262556D1C50EA0102F5D180
:10119000084302D00098C8B10EE00021681E05E0A7
:1011A000235C625C63542254401E491C8142F7DB7D
:1011B000AB46A81B401E0990002004F80B000B98BA
:1011C000099AC0F80880C0E9002B7AE711264FF091
:1011D000000857E72DE9F04F88460446D21D22F05B
:1011E000070191B0D1E90001CDE90A0136F0BEFD59
:1011F00002460B98C00F01D02D2007E02068810720
:1012000001D52B2002E0202101EAC000032A099029
:1012100001D0072A05DB03464146204600F0C4FC06
:101220000BE12078800601D5E06900E00620B8F1E6
:10123000650F814606D0B8F1660F18D0B8F1670F78
:1012400070D131E00020B9F1110F009001DB1123C2
:1012500001E009F101030AAA01A90CA8FFF7E2FEC7
:10126000DDE90C70002609F10105834647E0012005
:101270004B4600904FF000470AAA01A90CA8FFF7BF
:10128000D1FEDDE90DB00C995D46002610B909F1DB
:1012900001000D18B9EB050003D4C0F1FF3609F1C8
:1012A0000105A5EB09002BE0B9F1010F01DA4FF0C0
:1012B00001090020B9F1110F0090484601DD11230A
:1012C00000E003460AAA01A90CA8FFF7ABFEDDE97E
:1012D0000C704D4600268346207800070AD4AB45A3
:1012E00000DA5D4601A8012D04DD411911F8011C49
:1012F000302907D04F4502DA17F1040F04DA012034
:1013000082460FE06D1EEEE7002F02DCED1B3E442F
:1013100003E0781CA84200DD7D1CB81B00F1010A27
:101320004FF000472078000703D4AA4501DB4FF0B7
:10133000FF3A0021B7F1004F0DF143088DF843103B
:1013400024D002202B23002F01DA7F422D230A21F3
:10135000021EA0F1010000DC5FB197FBF1FC97FBDE
:10136000F1F201FB1C7C17460CF1300C08F801CDA2
:10137000EEE7A8F1010003702188090501D5452198
:1013800000E06521A0F1010800F8011C09980FA9EF
:10139000A1EB0807FF1D00B10120411901EBEA7024
:1013A000A1693844081A401EA0612078C00602D402
:1013B0002046FFF771F9099828B1D4E90121904737
:1013C000206A401C20622078C00622D52046FFF704
:1013D00063F91EE0002E04DBB34502DD01A8805D49
:1013E00000E03020D4E901219047206A401C2062AF
:1013F000761CAAF101005FEA000A0AD100F0BCF9EC
:10140000C0680168405CD4E901219047206A401C13
:101410002062281EA5F10105DCDC07E0D4E90121EA
:1014200018F8010B9047206A401C2062381EA7F173
:101430000107F3DC2046FFF745F9032011B041E630
:1014400001694A1C02610878704700B58FB0CDE988
:1014500001310021059105497944CDE90310114678
:101460006846FFF7EFF90FB000BD0000E5FFFFFF92
:10147000D1E900239A4202D2531C0B6010707047CE
:1014800010B5436913B1AFF3008001E0FFF72BF90A
:10149000012010BD127800F124010A7000224A7068
:1014A0000122EDE711684FF0FF32E9E72DE9FF5F18
:1014B00015468A460446DFF8AC80F8440027D8E990
:1014C00000103E46CDE9001010E03AF816106A46CA
:1014D00002A800F0A8FC411C07D02178890603D59A
:1014E000E269391891420DD80744761C20788006AD
:1014F00002D5E069B84205DDAE42E6DB3AF81600F7
:101500000028E2D1A069C01BA0612046FFF7C4F803
:10151000D8E90010CDE90010002017E03AF81810C3
:101520006A4602A800F07FFCB0F1FF3F81460BD075
:1015300000250DF1080B05E0D4E901211BF8050099
:1015400090476D1C4D45F7D308F10100B04280462D
:10155000E4DB206A384420622046FFF7B3F8BDE898
:10156000FF9F0000567303002DE9F0418046D21D15
:1015700022F007020025D2E90002F52915A614D0B1
:10158000011E72F1000106DA0023D0EB030063EBC9
:10159000020211A608E0D8F800108B0701D50FA6AB
:1015A00002E0490701D50EA601251146002408F1E5
:1015B000240704E000F035F930323A55641C50EA53
:1015C0000102F7D12B46324621464046BDE8F041A4
:1015D000FFF7BBBC000000002D0000002B00000046
:1015E0002000000030B4002100F1240408E002F0E3
:1015F0000705D208303542EA4372DB086554491CBE
:1016000052EA0305F3D10468002310A2250708D588
:1016100004F020040C4304D0C46901230CA2641E0E
:10162000C46130BCFFF791BC10B504462146106878
:10163000FFF782FC02462046BDE810400023D1E7B8
:10164000D21D22F00701D1E90023CBE70000000002
:10165000300000002DE9F05F824615468B460027DA
:101660000AF10104B9460078302801D09DB113E099
:1016700014F8010B0127782803D0582801D045B170
:101680000AE00DB1102D07D1002714F8010B102529
:1016900002E0082500E00A250026B0460EE005FB22
:1016A000080005FB06F101271FFA80F801EB104640
:1016B000B6F5803F00D3B94614F8010B294600F077
:1016C000C9FA0028EBDABBF1000F05D00FB1641E98
:1016D00000E05446CBF80040B9F1000F06D0FFF708
:1016E000BDFB02210160C81EBDE8F09F48EA06402C
:1016F000FAE70023036000F0DDBA10B5002000F027
:10170000EFFBFEF7A9FEBDE81040012026F058BF10
:101710002DE9F041074615460E461020FFF7A2FBC3
:10172000040013D06760C4E902650948AFF3008084
:1017300000F026F801682160064904600020086076
:101740000348AFF300800020BDE8F0810120FBE7F3
:101750000000002400000424014900F053BB0000F5
:10176000C43B002400487047A001042400207047B7
:1017700000487047A801042400487047C0010424B1
:1017800000487047D801042470477047704770477D
:1017900038B504460A4600206946AFF300800028A9
:1017A00008BF38BD02460099204600F0C5FB012065
:1017B00038BD012000F02ABCF8B5AFF30080054623
:1017C00000200C460C2000BF0646A819A0420DD9E7
:1017D000324669460020AFF30080070008BF00F0E2
:1017E00015FC0098A04218BF0546C419FFF7C0FFBA
:1017F00005600746F01D20F007004619284600F056
:101800000AF8B44208BFF8BDA21B31463868BDE8EB
:10181000F84000F091BB00210160416070470C204E
:10182000704730B5B0F10A0271F100034FEA900E33
:101830004EEA817EB0EB0E0061EB91014FEA101E83
:101840004EEA017E10EB0E0041EB11114FEA102E13
:101850004EEA016E10EB0E0041EB11214FEA104EE3
:101860004EEA014E10EB0E0041EB1141401841F1E0
:1018700000014FEAD00040EA41704FEAD1014FEA3F
:10188000810444EA907410EB800544EB01046D1967
:1018900044EB0404521BA3414FF0000348BF0A323B
:1018A00000D530BD401C41F1000130BD2DE9F04FA5
:1018B00004460D46D21D22F0070089B0D0E90097FA
:1018C0004846394636F052FA0246F80F01D02D2329
:1018D00007E02068810701D52B2302E0202101EADF
:1018E000C0038DF820300BB1012000E00020032A56
:1018F000824601D0072A04DB2946204600F054F92D
:101900003FE12078800601D40D2500E0E569C7F3AA
:101910000A560D2D49DA00214FEA175B08464FF0B1
:101920000000002F00F4400007DA00EB80004FF4C5
:10193000400100EBD07001EA60008115012901DD52
:101940004FF0FF3100224FEA850CBCF1180F06D38F
:101950001346ACF118004FF08052C24003E04FF440
:10196000801323FA0CF30CF10C0CBCF1200F04D300
:10197000ACF1200C09FA0CF001E007FA0CF0002998
:101980004FF0004801DD18B90FE00ED140450CD3EF
:1019900019EB02095F4121B9404502D19F4329EA71
:1019A0000209BBEB175F00D0761C2088000502D52A
:1019B0007B48784402E07A487844193808AA3023F2
:1019C00002F80A30037C0AF10101002E0AF1020A32
:1019D00053546A4602DC4FF0300101E04FF0310110
:1019E0004FF001088DF8001002D0A6F2FF3603E098
:1019F00059EA470100D06B4E002D02DC217809071F
:101A000004D54FF002082E218DF80110C4460021A4
:101A10000BE0C7F303433F01C35C491C6D1E02F892
:101A20000830052908F1010801DA002DF1DC002158
:101A30000CE000EB1973491C1B786D1E082902F895
:101A400008304FEA091908F1010801DA002DF0DC2D
:101A500021688B0602D516E0A8F10108E04505DDF6
:101A600002EB080313F8013C302BF5D0B8F1000F5E
:101A700009DD02EB080313F8013C2E2B03D1090703
:101A800001D4A8F10108002D05DD3E2102F808105F
:101A90006D1E08F10108407C002E02F8080008F1D4
:101AA000010804DA2D20764202F8080002E02B201B
:101AB00002F808000A214FF47A70864208F1010802
:101AC0000BDB96FBF0F3303302F8083096FBF0F3B3
:101AD00008F1010800FB136601E0642E0CDB6420B2
:101AE00096FBF0F3303302F8083096FBF0F308F180
:101AF000010800FB136601E00A2E06DB96FBF1F0FD
:101B0000303002F8080008F1010896FBF1F001FB03
:101B10001060303002F80800A16908F1010808EBF4
:101B2000050202EB0A00081AA0612078C00602D460
:101B30002046FEF7B1FD216A08AE01EB0A002062E3
:101B400004E0D4E9012116F8010B9047BAF1010A2B
:101B5000F7D22078C00602D52046FEF79DFD6E46DE
:101B600009E016F8010B3E280FD0D4E90121904777
:101B7000206A401C2062B8F10108F2D22046FEF72C
:101B8000A1FD09B00320BDE8F08F206A284420623F
:101B900003E0D4E90121302090476D1EEBD3F8E734
:101BA000996E030002FCFFFF2DE9F0411F46044639
:101BB00003260168072A01F4006004DB08B116A5BA
:101BC00005E016A503E008B115A500E015A521F074
:101BD00010002060A069C01EA0610FB1401EA0616E
:101BE0002046FEF759FD4FB1D4E901213846904710
:101BF000206A401C2062C01C206206E0206AFAE7CE
:101C0000D4E9012115F8010B9047761EF8D2204641
:101C1000FEF758FDBDE8F0814E414E006E616E004A
:101C2000494E4600696E660010B5436913B1AFF3C3
:101C3000008001E0FFF73AFC012010BD128800F19E
:101C4000240182840022C2840122EDE711684FF052
:101C5000FF32E9E73A2800D2303820F02002412A4A
:101C600001D3A2F13700884201D34FF0FF30704713
:101C70000FB40B0010B54FF000048AB00FA900910B
:101C80000E99CC60234C7C44234A7A44CDE9064229
:101C900000D004236FF00042CDE901321F4A7A449C
:101CA0006B4608920246002036F079FD0AB010BC5F
:101CB0005DF814FBF0B507464FF0FF301E461546A1
:101CC0000C463B4685B06A460091CDE9010131469C
:101CD0000020049004A8FFF7CBFF04990346601886
:101CE00025B109B1024600E022462A6000290ED043
:101CF000002B02DD0099814209D03B466A463146FD
:101D0000001B0094CDE9010404A8FFF7B1FF05B062
:101D1000F0BD0000F50200000F030000CB02000040
:101D20002DE9F047814616468AB0354878440DC8FB
:101D30008DE80D0032487844801C03AC0DC884E85F
:101D40000D0041F69B300844372190FBF1F290FBE7
:101D5000F1F5A5F1800501FB12041B3C02D564429C
:101D6000012000E00020DFF898A080460027FA4418
:101D7000AAF1BE0A0EE0E0070AD03246684607EB39
:101D8000470101230AEB810135F0A4FE8DE807002D
:101D900064107F1C002CEED1194F7F44AE3F19E038
:101DA000E80715D007EB04100DF1180A90E80E00B3
:101DB0008AE80E00C068F04201D1981908903246B6
:101DC000012306A903A835F085FE03AB83E80700CD
:101DD0006D10641C002DE3D14FF0010332466946BB
:101DE000B8F1000F03A802D035F04AFE01E035F04B
:101DF00071FEC9E90001C9F808200AB0BDE8F08702
:101E0000B06B030070B50D46044604E0294626F089
:101E1000DFFB401C04D014F8010B0028F6D170BD84
:101E20004FF0FF3070BD2DE9F04116460C460546D7
:101E3000FFF70CF8036893F80101012807D0FF2C85
:101E400012D8185D80B101202C70BDE8F081D3F864
:101E500007013246214603F20713C7182846BC463D
:101E6000BDE8F041002360474FF0FF30EDE7000090
:101E70002DE9F84306461548AFF30080FFF780FCD4
:101E8000134F8146E8464D4616E026B1E068B04261
:101E900001D0254610E0206828600C48C7F8008073
:101EA000AFF30080D4E9010188470848AFF3008010
:101EB0003968414500D04D462C68002CE5D1002002
:101EC00038600248AFF30080BDE8F88300000024CA
:101ED000000004240148FFF749BC00000000002472
:101EE00010B500F07BF8BDE8104000F071B8754601
:101EF000FFF738FCAE4605006946534620F0070060
:101F0000854618B020B5FEF7E1FABDE820404FF055
:101F100000064FF000074FF000084FF0000BAC46F2
:101F2000ACE8C009ACE8C009ACE8C009ACE8C0093D
:101F300021F007018D467047034640688C46002813
:101F400018BF88423CBF03464068F8D3186818445D
:101F5000884207D00CF1030020F00700001D411A51
:101F6000521A0146081D0A60FEF7ABBF10B50446C1
:101F7000FEF76CFF0068005D00F0010010BD4268D4
:101F800042B1016811F8013B23B1521EC0E90012B1
:101F9000184670470121C160881E704742685AB1D7
:101FA000C368016843B983688B4205D0491E521C3F
:101FB000C0E90012002070474FF0FF30704710B5A5
:101FC0000446AFF300802046BDE81040FEF752BA49
:101FD000002801D026F0F4BA7047000010B50021A7
:101FE00002A000F0D7FA012010BD0000534947417C
:101FF0004252543A2041626E6F726D616C2074657A
:10200000726D696E6174696F6E00000010B500F04A
:10201000DBFABDE81040FFF7DBBF00000000000066
:1020200030B44FF0013C50F8042BCCFA52F451F884
:10203000043BD51A20D1FCB950F8042BCCFA52F449
:1020400051F8043BD51A17D1B4B950F8042BCCFA87
:1020500052F451F8043BD51A0ED16CB950F8042B48
:10206000CCFA52F451F8043BD51A05D1002CDAD041
:1020700030BC4FF00000704729BAB1FA81F111F07D
:102080001801D1F120008440F2D1CA40CB4012F0B7
:10209000FF0213F0FF0330BCD01A70472DE9FF4F49
:1020A00006468BB00878FF2806D0491C2D2805D09D
:1020B00000244FF0000908E000200CE00124F8E7BC
:1020C00009EB8903491C00EB43090878FF28F7D185
:1020D00014B1C9F100008146107800252C46AA46AB
:1020E00029462D2801D02B2804D1521C2D2813D08D
:1020F000002082468B461078FF280FD04FF0000C4E
:102100000A21521CA5FB017804FB018105FB0C117F
:10211000C5194BEB0104EEE70120EAE70021084670
:102120004FF00000BAF1000F02D000EB8000400831
:10213000C0F38157012F01DD4FF0FF370E9955EAAB
:10214000040009EB01080BD04FF0020918F5FA7FE3
:1021500016DA4FEACA70002F706008DD012007E030
:102160004FEACA70C6E900B00FB0BDE8F08F00209A
:102170003060FEF773FEC0F800901821084616E0A4
:10218000B8F5FA7F18DD002F02DAF748784401E04D
:10219000F6487844D0E90010C6E9001040EACA7059
:1021A0007060FEF75BFEC0F80090142108460FB087
:1021B000BDE8F04F36F08CBA002108464FF0000021
:1021C000B8F10001099002DAC7F1000200E03A46D6
:1021D00001DAC8F1000106A8FFF7A2FD06AB93E8FB
:1021E000070003AB83E8070044F23E005BEA04010A
:1021F0000090584604D144F21E012C465D460091E1
:10220000210C0904014306D10099240444EA154431
:102210002D041039009104F07F41014306D100994B
:10222000240244EA15642D020839009104F070413B
:10223000014306D10099240144EA15742D01091FB8
:10224000009104F04041014306D10099A40044EA02
:102250009574AD00891E009104F00041084304D13B
:1022600000986D196441401E00904FF001033A46FA
:102270006846B8F1000FCDE9014503A902DD35F04C
:102280003EFC01E035F011FCBAF1000F04460D46AA
:1022900001D084F00044002108464FF00000099965
:1022A00040F2FF77484010F00C0F07D124F00040B7
:1022B000284303D0C4F30A50B84212D1FEF7CEFD32
:1022C000C0F80090C4F30A50B8420AD1A848784434
:1022D000D0E90010C6E9001004F000410843706026
:1022E00042E7C6E900543FE72DE9FF4F1F464FF094
:1022F000000A4FF0FF38454691B0D7E90146CDF8C6
:102300003CA0FFF739FAC0680168405C1090B969D9
:1023100012986D1C8847396A814688470028F6D193
:10232000B9F1FF3F0AD0002E24F4D06411DDB9F1D9
:102330002B0F08D0B9F12D0F0BD102E0404615B09C
:1023400013E744F48064B96912986D1C8847761EBF
:102350008146600504A901D52D2000E02B20002E28
:1023600001F1010B0DF130088DF810003FDDB9F1DE
:10237000690F08D0B9F1490F05D0B9F16E0F02D03D
:10238000B9F14E0F1CD13B4601A8009580E85002E0
:10239000DDE912126FF0020036F005FAC11CCED151
:1023A0000EE0B96912986D1C884781461398761E15
:1023B00044F4007405600F98401C002E0F9016DD49
:1023C000B9F1300FEDD0B9F1780F02D0B9F1580F53
:1023D0000DD10F9801280AD13B46CDE90054DDE923
:1023E0001212001F029636F0DCF9C11CA7D1109919
:1023F00089453ED144F0800406E01399681CAAF197
:10240000010A44F400740860B9696D1C1298761EC4
:10241000884730288146F0D02BE01099894505D1B6
:10242000200603D4761E44F0800418E0484636F0B7
:1024300042F808B3761E0DF123029345A9F130004E
:1024400044F4007406D20BF8010B200607D5AAF15C
:10245000010003E0200602D40AF101008246A00533
:1024600002D51399681C0860B96912986D1C8847D9
:102470008146002ED1DC53E0002E51DDB9F1650F0D
:1024800002D0B9F1450F4BD1A00549D5B9696D1CF2
:102490001298761E24F440748847002E81460CDD85
:1024A0002B2804D0B9F12D0F07D144F48074B969F9
:1024B00012986D1C8847761E8146E00501D52D21B6
:1024C00000E02B2108F8011BCDF8008021E0761EEA
:1024D0000DF13901884544F400740CD2A9F13000A3
:1024E00010F0FF0088F8000002D10099884509D952
:1024F00008F1010806E0E00501D51E4801E042F2BE
:102500000F708246B96912986D1C884781461398EE
:102510000560002E04DD484635F0CDFF0028D6D1F9
:10252000F96912988847FF2053468BF8000088F815
:10253000000000200A900B9004AA0CA90AA8FFF73B
:10254000ADFDA00502D46FF00100F8E614F0240FF1
:1025500012D0E0071CD13868DDE90A12031D3B6088
:102560000068C0E9001213E054A0090046A0090069
:102570000A9F0900F1D8FFFF0AA9684635F094FECA
:10258000E00705D13868009A011D396000680260D3
:102590002846D4E670B505460C460A2000E06D1CBE
:1025A00026F012F835B128780028F8D102E0641C32
:1025B00026F00AF814B120780028F8D1BDE8704060
:1025C0000A2026F001B8000010B5012805D000212E
:1025D00003A0FFF7DFFF012010BD09A1F8E700000D
:1025E00053494752544D454D3A204F7574206F66FC
:1025F0002068656170206D656D6F72790000000064
:102600003A2048656170206D656D6F727920636F47
:102610007272757074656400B2F120030AD5C2F15C
:10262000200301FA02F120FA03F341EA030100FA60
:1026300002F0704700FA03F14FF00000704700000D
:102640002DE9FF4F1F464FF03C0987B04FF0004285
:10265000DDE9141001F10108DDF858A002EA40504C
:102660000390002005908346054604460490B9690E
:10267000461E08988847AAF1010A0290BAF1000F95
:102680003BDD02982E2815D01021FFF7E3FA002831
:102690002EDB4FF0010B0599014317D0B9F1000F64
:1026A0000BDB4A46C117FFF7B7FF05430C43A9F1FF
:1026B000040905E0012004900BE008B145F0010594
:1026C00001200590049820B9361D02E0049800B15D
:1026D000361FB969089808F101088847BBF1000F57
:1026E000AAF1010A0290C9D00999C1F80080C5E792
:1026F0000298702808D0502806D0F96908988847B1
:10270000BBF1000F14D04FE0002002900120BBF17C
:10271000000F049009D0B969089808F101088847AA
:10272000AAF10109B9F1000F07DCF9690898884797
:102730006FF001000BB0BDE8F08F2B2804D02D28DE
:102740000CD14FF0FF300490B969089808F10108E6
:102750008847A9F10109B9F1000FE6DD411CE4D079
:102760000A21FFF777FA0028DFDB029908F1010858
:1027700001EB810100EB41000290B969089888479C
:102780000A21FFF767FA099AA9F10109B9F1000FC7
:10279000C2F8008001DD0028E7DAF9690898884767
:1027A0000499029800FB016655EA040004D004F085
:1027B0004041090002D006E0039898E0A40044EAF2
:1027C0009574AD00B61E04F00041080002D16D19E9
:1027D0006441761E159810F0240F03D04FF00B09BA
:1027E0005C4803E04FF028096FF07D0082465645B3
:1027F00007DAAAEB06018944B9F1410F01DD4FF078
:10280000410901200021A9F10102FFF705FF02465D
:1028100028400B462140084301D0012100E000215F
:10282000501E029143F1FF3128402140084301D05E
:10283000012000E000200299834651EA0B014FD0AD
:10284000002108464FF00000039900F4400039B120
:1028500000EB80004FF4400100EBD07001EA600013
:102860008015012802DD4FF0FF3000E013D0401C3E
:1028700036D0029860B3BBF1000F0CD14A4601205C
:102880000021FFF7C9FE28402140084301D0012064
:1028900000E00020E0B101204A460021FFF7BCFE25
:1028A000034640190A4661412D1A8C4111D3B9F1F2
:1028B000400F09DD159810F0240F02D0AAF134065C
:1028C00003E0AAF1170600E0761C00254FF0004453
:1028D00006E05B1E42F1FF3220EA030521EA020412
:1028E000CAF10100B04206DA1B490398084301907F
:1028F000002000900EE0039AC4F3D321E80A0A43B3
:10290000164940EA44500A433146CDE90002684680
:1029100035F07EFD159810F0240F0BD01598C007E8
:1029200015D13868DDE90012031D3B600068C0E97D
:1029300000120CE002A8694635F0B6FC1598C007F5
:1029400005D13868029A011D39600068026040466E
:10295000F0E6000002FCFFFF0000F07F0000F03F07
:102960002DE9FF4F92461D4685B04FF00041DDE94D
:10297000124BDDE914727F1E01EA4B50414940F0D1
:10298000FF4940EA0108002122F020004928049173
:1029900002D04E2828D04CE03BA0012607C88DE885
:1029A0000700A9690698641C88477F1E014606D463
:1029B0001DF8060018B121F0200181420BD0E96911
:1029C00006988847032E34D0082E32D06FF00100CD
:1029D00009B0BDE8F08F761C032E01D0082EE0D19F
:1029E000601CCAF80000DCE7A9690698641C8847E7
:1029F0007F1E2AD420F02000412826D1A9690698FC
:102A0000641C88477F1E20D420F020004E281CD153
:102A1000A9690698641C88477F1E48F4002849F479
:102A20008009CAF8004001D4282806D0E969069830
:102A300088475FEACB7012D022E0A9690698641C2F
:102A400088477F1E01D4002803DAE9690698884781
:102A5000BCE72928F1D1641CCAF80040E9E71BF063
:102A6000240F07D028680499031D2B600068C0E973
:102A7000001805E02868021D2A600068C0F8009070
:102A80002046A5E70000F07F494E46494E4954597B
:102A90000000000000000000B0B50446006842F2EB
:102AA000001140F48070C4F20201884218D142F251
:102AB0000830C4F20200006810F4403F18D006F05D
:102AC00017F861680546B1F5803F05D0B1F5403F84
:102AD0002CD0B1F5003F2AD1080CB5FBF0F526E06B
:102AE00046F20830C5F60200006810F4403FE6D117
:102AF0004FF40020002104F023FF61680546A1F592
:102B000080224FEAB2420A2A11D8DFE802F0070712
:102B10000707070755535951570000BF6FF00100D1
:102B200000EA5140B5FBF0F501E000BFAD0802F04E
:102B30000BF941F2030188420ED8206842F6015198
:102B4000C0F231118D4281682CBF41F4807121F4B3
:102B500080718160B0BD00BF4BF62140C0F2BE0065
:102B6000854205D82068816821F440718160B0BD3C
:102B700047F64100C0F27D10854207D82068012247
:102B8000816862F309218160B0BD00BF20684FF207
:102B90008101C0F2FA218D42816805D8022262F3D8
:102BA00009218160B0BD00BF41F440718160B0BDBA
:102BB000ED09BCE76D09BAE72D09B8E72D0AB6E7BC
:102BC000AD09B4E700000000B0B5016804468A68AA
:102BD0008868C0074FF0000031D012F0020218BF21
:102BE000B0BD886800F00D0001281FD14FF6C072FB
:102BF0008868C7F6FF7210400230886003200860C2
:102C000002F0AAF821688968C90701D10020B0BD87
:102C1000054602E08068C007F8D002F09DF8401B2E
:102C200003282068F6D38168C907F3D0606D40F0AF
:102C300010006065A06D40F00100A0650120B0BDEE
:102C400010B549F6941112A2C0F60301032000F05A
:102C5000ABFD40F2000445F25271C3F60004C4F229
:102C60004C212068884201D000F08EF904202061B8
:102C70000020606120830021BFF35F8F6068013016
:102C80006060BFF35F8F012002F07EF8012010BD6D
:102C900061636B206661756C7400000000000000C9
:102CA00018B340F20001C3F60001BFF35F8F8A8BB7
:102CB0000280CA8B42800A8C82804A6A82608A6A59
:102CC000C2608A8D0282CA8D428291F83020002A29
:102CD00018BF0122027591F83120002A18BF012285
:102CE0004275CA688968C0E90621002818BF01201A
:102CF000704700000000000080B582B000F040F98D
:102D000044F2E040C5F60200016841F00071016044
:102D1000006800F000700190019802B0BDE88040AA
:102D200000F032B90000000070B540F2000544F632
:102D30002066C3F6000545F25272B142C4F24C223D
:102D400038BF0E460029296848BF00269142044634
:102D500001D000F019F9052C20D8DFE804F00311A8
:102D6000090D0513AE870FE0A5F844600CE000BF25
:102D7000A5F8406008E000BFA5F8426004E000BF8D
:102D8000EE8701E0A5F84660BFF35F8F686B013006
:102D90006863BFF35F8F012070BD00BF002070BD6E
:102DA00070B582B048F6B06C48F6B0650346604531
:102DB000B8BF054647F250100C46CFF6FF7049F6F3
:102DC00094118542C0F60301D8BF05469D4203D148
:102DD0001DA20320009403E012A20220CDE9005CB2
:102DE00000F0E2FC40F2000645F25271C3F6000624
:102DF000C4F24C213068884201D000F0C5F80320AD
:102E00003061756100213483BFF35F8F70680130DA
:102E10007060BFF35F8F012001F0B6FF012002B0A8
:102E200070BD00BF737065656420256C6420636CA1
:102E3000616D70656420746F20256C6420286D615D
:102E4000783D256429000000736574207370656502
:102E50006420256C642072706D2C2072616D703D51
:102E60002575206D73000000B0B540F2000545F2F5
:102E70005272C3F60005C4F24C22044629689142FE
:102E800001D000F081F848F6B06047F2501184425A
:102E9000CFF6FF71B8BF20468842D8BF084603214D
:102EA00029616861002028830021BFF35F8F686873
:102EB00001306860BFF35F8F012001F065FF0120E2
:102EC000B0BD00000000000010B549F6941111A239
:102ED000C0F60301032000F067FC40F2000445F255
:102EE0005271C3F60004C4F24C212068884201D01C
:102EF00000F04AF801202061BFF35F8F6068002175
:102F000001306060BFF35F8F012001F03DFF0120C1
:102F100010BD00BF636D6420535441525400000043
:102F200010B549F6941112A2C0F60301032000F077
:102F30003BFC40F2000445F25271C3F60004C4F2B7
:102F40004C212068884201D000F01EF80220206148
:102F50000020606120830021BFF35F8F6068013033
:102F60006060BFF35F8F012001F00EFF012010BDF4
:102F7000636D642053544F500000000000000000B7
:102F8000704700000000000040F2000045F252715E
:102F9000C3F60000C4F24C2102688A4208BF7047A1
:102FA0000160002141608160C16001614161018374
:102FB00041838183C1830184416281628185C185AE
:102FC00080F8301080F83110418641638163818739
:102FD000C187A0F84010A0F84210A0F84410A0F853
:102FE0004610A0F84810704781B04FF60401C2F2B5
:102FF0000341086044F2F441C5F602010A6842F454
:1030000080320A600A6802F480320092009AD1F895
:103010000C2342F48072C1F80C2344F29801C5F6E7
:103020000001086001B0704700F066F826F028FC47
:1030300040F28858441D00259FED158AC2F20448CD
:1030400004E000BFA8070FD001350534204626F064
:10305000CFFBB0EE480A00F03FF9E807F2D1404656
:10306000FFF71EFEEEE700BF00F03EF80646D8F878
:10307000087000F031F8B0EE409A00F00DF8F0EE74
:10308000400AB0EE490A3046394610F071FBDBE7E2
:103090000BD7A33B0000000040F2E820C2F2004042
:1030A00090ED030A70470000002808BF7047B0B5D4
:1030B00040F2E82100F10807C2F2004101F11C05CD
:1030C000D1E905CE3CCD3CC7C0E900CED1E90B210A
:1030D000C0E90621B0BD000040F2E820C2F2004085
:1030E00090ED010A7047000040F2E820C2F2004073
:1030F000806870470000000040F2E8204FF47A61D9
:10310000C2F200400022C4F2A00241620021C0E9E4
:103110000A1101630180C0E90111C1600021C4F2FC
:103120004011C0E904214FF07F5181614FF080418F
:10313000C16141F288310162704700000000000067
:1031400040F2E820C2F20040007870470000000022
:1031500000287AD0B0B540F2E8210469C2F20041FB
:103160004569D0E900ECD0E90232C1E905ECC1E9DA
:103170000945C1E90732B1EE004A9FED341AD0E9A2
:103180000620086391ED050ACA6280FE410A91EDAE
:10319000062A91ED075A82FE442A086A80FE043A04
:1031A0009FED2B0A85FE444AB7EE005A82FE002AA4
:1031B00044F6206281ED053A904281ED062A91EDB8
:1031C0000B6AB8BF024684FE054A91ED0C7A81ED88
:1031D000074A86FE454AB2F5FA6F87FE455AD8BFC0
:1031E0004FF4FA629FED1B6A486A0A6246F2A8121F
:1031F00084FE064A9042B8BF024691F8280085FE38
:10320000065A81ED0B4A032881ED0C5A22EAE2703E
:10321000486202D3002081F8280081EE033A81ED54
:10322000043A33EE441A9FED0C4A31EE451A31EE62
:10323000041AB4EE412AF1EE10FABDE8B040D8BF4E
:10324000704781FE000A81ED060A70470000704257
:103250009A99993E00000000CDCCCCBD0000000042
:1032600010B588B040F2E8240121C2F20044607831
:103270002170002161600028206AC4E9020112D196
:10328000FFF7F2FD6846FFF70BFD40B1BDF8000007
:103290000B2804D1BDF8020008B9FFF7D1FCFFF7F5
:1032A00013FE0120607008B010BD00000000000097
:1032B000B0B540F2E8240025C2F2004461782570E0
:1032C000206A0129C4E9020518BFB0BDFFF7CCFD93
:1032D000FFF726FE6570B0BDB0B52DED028B88B04E
:1032E00040F2E824C2F200442078012840F0038133
:1032F0006078B8B9A068B0EE408AFFF7B5FD6846BF
:10330000FFF7CEFC40B1BDF800000B2804D1BDF89A
:10331000020008B9FFF794FCFFF7D6FDB0EE480AAB
:103320000120607094ED044A94ED0B2AB5EE404AFA
:1033300094ED063AF1EE10FA94ED0C1A5CDCB1EE65
:10334000005A94ED056A9FED6E4A94ED077A86FE69
:10335000446AF7EE000A83FE453A206A87FE457A02
:1033600044F6206186FE056A9FED665A83FE053AA3
:1033700084ED056A884284ED063AB8BF014687FEAF
:10338000207A84ED077A82FE602AB1F5FA6F81FE19
:10339000601AD8BF4FF4FA619FED5B7A606A2162D0
:1033A00046F2A81182FE072A8842B8BF014694F867
:1033B000280081FE071A84ED0B2A032884ED0C1ADD
:1033C00021EAE170606202D3002084F8280084EED4
:1033D000064A9FED4E7A84ED044A34EE426A36EE98
:1033E000416A36EE076AB4EE463AF1EE10FA03DDB2
:1033F00086FE053A84ED063A80EE040A94ED015A01
:1034000083EE043A35EE006AB7EE005A9FED3E0AAD
:10341000BBFE467AB4EE465AF1EE10FA30FE077A59
:1034200036EE476A84ED016AB4EE436AF1EE10FAB3
:103430001ADA86EE030AB5EE403AF1EE10FA9FED85
:10344000321A94F8280030FE010A012842D00228DE
:1034500013D09FED2F1A20EE010AB6EE001A20EECF
:10346000010A34F01BFE35E082EE042A33EE022A14
:10347000B4EE426AF1EE10FA02DAB0EE450A29E043
:1034800081EE041A35EE411AB4EE416AF1EE10FAFB
:1034900020DA31EE423A94F8280036EE421AB5EEC0
:1034A000403A81EE032AB7EE001AF1EE10FA32FE2E
:1034B000012A02280ED0012802D131EE420A09E089
:1034C0009FED130AB6EE001A22EE000A20EE010A62
:1034D00034F0DAFC94ED091A84ED030AB8EEC11A4F
:1034E000256A20EE011AB0EE410A34F075FD284439
:1034F000A060FFF7B9FC08B0BDEC028BB0BD00BF07
:10350000000070429A99993E00000000CDCCCCBDDD
:10351000DB0F494000000000FEE700000000000053
:1035200000207047000000000020704700000000ED
:1035300010B544F6243441F21411C2F20044C2F230
:1035400000410022204611F003F940F614112046F4
:10355000C2F2004111F0ECF8002010BD00000000A4
:10356000B0B5096804460FF0DFF944F6243521466A
:10357000C2F20045284611F0DBF8284611F0B4F8F5
:103580000020B0BD000000000020704700000000D7
:1035900044F62432C2F20042D2F8BC22D2F81422FD
:1035A000002A1CBF0120704710B544F624340A4697
:1035B000C2F200440146204611F0CAF82046BDE898
:1035C000104011F049B900004EF61450CEF2000040
:1035D000416F41F470014167016821F00801016009
:1035E000BFF34F8FBFF36F8F70470000B0B5304A05
:1035F0004CF24025136823F0010313602D4A4FF667
:10360000F07314681C40AC4205D0146823404CF29F
:103610007024A3422BD12B4A126832B12B4A0123CA
:1036200093609368002BFCD11AE0274A13686FF36C
:103630001F33B3F58A6F0DD0136840F283446FF3E4
:103640001F33A34206D0126840F285436FF31F3246
:103650009A42E3D11E4A012393609368002BFCD168
:1036600010601068401AB0FA80F04009B0BD1468CC
:103670004FF6F0734DF220251C40AC4205D0126885
:103680001A404DF230239A42C8D10B4A0B4CD2F863
:10369000F833A3420AD1D2F8FC33094CA34205D136
:1036A000012393609368002BFCD1D9E70020B0BDC3
:1036B000002000E000ED00E0004C02460100170091
:1036C00001DDC5A3002004E00010005C00300240D2
:1036D000004C02580000000040F2885540F2F071A2
:1036E000C2F20445C2F2044105F1200488220123FC
:1036F00020460EF0B5FA40F228064035C2F20046E8
:1037000044F66461C2F200418822F070002328462A
:103710000EF0A6FA307145F24856C2F2004600217A
:10372000304608F0A9FA0421304608F0A5FA40F620
:1037300038004FF6E851C4F20000016008F0D0FEF6
:1037400020460EF0C9FA28460EF0C6FA08F020FF0F
:10375000FA2026F02DF8F3E740F290200021C2F283
:1037600000400AA20161416141608160C1600121A4
:103770000170417040F28C00C2F2044002A1037853
:10378000032000F011B800BF5359530064656275FF
:1037900067206C6F67206F6E6C696E6520286C7691
:1037A0006C3D25752900000081B080B581B0039380
:1037B00003AB009300F080F801B0BDE8804001B099
:1037C00070470000000000002DE9F04F9DB040F26E
:1037D00090270028C2F200477F7818BF002F03D13E
:1037E0001DB0BDE8F08F00BF40F28C07C2F2044765
:1037F0003F78B842F4D8002BF2D0269D002DEFD0B0
:103800000DF1100B99461B780391924602902C46BD
:1038100020A264215846202D0BF1640628BF2024E5
:10382000FCF71AFF012817DB012D1DD00BEB000759
:10383000A4F1010809F1010918A400BF19F8013B1E
:10384000F11B38462246FCF707FF012805DBB8F1DB
:1038500001080744F2D100E05F46212D04D3F11B9B
:1038600010A23846FCF7F8FE49F671305346C0F610
:1038700003000DA1BAF1000F0CA204BF03460146DC
:10388000CDE9001BDDE90201FFF78EFF1DB0BDE8A9
:10389000F08F00BF25303258000000002025303264
:1038A000580000002E2E0000200000002573257314
:1038B00025730000000000002DE9F047AAB040F297
:1038C00090260028C2F20046777818BF002F03D157
:1038D0002AB0BDE8F08700BF40F28C07C2F204476F
:1038E0003F78B842F4D80F4690469946044601F016
:1038F00033FA44F6D351C1F26201A0FB0112611EFA
:10390000C9B293094FF47A7203FB1200032903D85A
:1039100075A252F8215000E03F250DF1080A76A269
:10392000A021CDE900055046FCF796FE9F28CFD890
:1039300005468FB138784B46424678B10AEB050010
:10394000C5F1A00170A23B46FCF786FE05449F2D01
:10395000A8BF9F250028BBD44B4642465AB10AEB6C
:103960000500C5F1A001FCF759FE05449E2DA8BF36
:103970009E250028ACD4691C40F60D202AF80500CD
:10398000A81C032945F62E61EFF3108C72B600F0E7
:10399000030EC2F200414FD20023BEF1000F40D00F
:1039A0003069776901306FF31F30B84207D177690A
:1039B00001376FF31F377761B7680137B7601AF8BF
:1039C00003703569BEF1010F4F55306129D0306960
:1039D000776901306FF31F30B84207D1776901373B
:1039E0006FF31F377761B7680137B7605344BEF193
:1039F000020F5F7835694F55306112D030697269B6
:103A000001306FF31F30904207D1726901326FF3BA
:103A10001F327261B2680132B2609A783369CA5457
:103A20003061BCF1000F00D162B670680130706087
:103A30002AB0BDE8F08700BF20F00305002306E0B0
:103A4000FA78346904339D420A553061A5D0306953
:103A5000776901306FF31F30B84207D177690137BA
:103A60006FF31F377761B7680137B7601AF80370D3
:103A700032698F5430613069726901306FF31F30E1
:103A8000904207D1726901326FF31F327261B268DE
:103A90000132B2600AEB03077A7834690A55306163
:103AA0003069726901306FF31F30904207D172693B
:103AB00001326FF31F327261B2680132B260BA78BC
:103AC00034690A5530613069726901306FF31F3013
:103AD0009042B5D1726901326FF31F327261B268E0
:103AE0000132B260ACE700BF4500000057000000A3
:103AF00049000000440000005B256C752E25303322
:103B00006C755D20256320005B25735D200000003F
:103B10002DE9F04F40F29020C2F20040417881B18F
:103B200044F62431C2F2004191F89C22032A08D1C4
:103B3000D1F8BC1229B1D1F8141229B1C1680131F0
:103B4000C160BDE8F08F00BFEFF3108C72B6D0F803
:103B50001090D0F814A0D14538BF4FF48059A9EB8C
:103B60000A039E46402B28BF4FF0400ED1454DD052
:103B70007546BEF1010F98BF0125042B45F62E6353
:103B800005F00308C2F2004302D200251EE000BF88
:103B900005F07C0B002500BF0AEB050746193946E6
:103BA0007C1C6FF31F31BA1C6FF31F3403376FF3A4
:103BB0001F32595C6FF31F373176195D043571760A
:103BC000995CB176D95DAB45F176E5D1B8F1000FDE
:103BD0001CD005EB0A0647196FF31F36B8F1010F29
:103BE0009E5D3E7612D06E1CB8F1020F06EB0A07FE
:103BF00006446FF31F37DF5D377607D0AC1C04EB4C
:103C00000A0504446FF31F355B5D23760EEB0A0350
:103C1000BCF1000F6FF31F33436100D162B6D14591
:103C200008BFBDE8F08F1FFA8EF11830BDE8F04FE5
:103C3000FFF7AEBC0000000070470000000000006D
:103C4000002808BF704710B530210446FDF792F8F0
:103C500040F20C50C2F20440007888B140F22800D3
:103C6000C2F20040017840F21450C2F204400068F1
:103C700041B1022908D1002818BF012005E000BF8A
:103C8000042002E0022000E00320207040F21850DF
:103C900040F21C51C2F20440C2F2044100680968BB
:103CA000C4E9010140F204000321C2F2044000789B
:103CB000002840F2E85008BF0221C2F204402173FC
:103CC0000078607340F22A00C2F20040017840F2AE
:103CD0005850C2F20440006831B1022906D10028D0
:103CE00018BF012003E000BF022000E00320A07302
:103CF00040F22900C2F20040017840F24C50C2F27A
:103D00000440006831B1022906D1002818BF012003
:103D100003E000BF022000E00320E07340F2A8505F
:103D2000C2F20440D0E90212C4E9042140F2C851B1
:103D3000407FC2F2044120768868E061487F84F8C1
:103D40002000FFF7FDF984F82100FFF7CDF940F2DC
:103D50008851C2F204418968C4E90901FFF7BCF93E
:103D600084ED0B0ABDE81040704700000000000021
:103D700080B5202000F0D8FE4FF48070BDE8804070
:103D800000F0D2BE000000004FF60800EE21C2F2A3
:103D900003400160FEE7000080B582B04FF60403E7
:103DA00044F2F440C2F2034340F2010EC5F60200B1
:103DB000CCF2007E01225A60C3F800E044F2980C75
:103DC0000168C5F6000C41F480310160016801F41E
:103DD000803100910099D0F80C1341F48071C0F843
:103DE0000C13CCF800E09A60D0F8181362F342018B
:103DF0000022CFF6F072C0F81813D0F8101389041F
:103E00000ED46AB1D0F8101389045CBFD0F8101337
:103E10005FEA814104D4D0F8101304328904ECD550
:103E2000022159600EF101011960026842F48032EA
:103E30000260026802F480320192019AD0F80C23E9
:103E400042F48072C0F80C23CCF8001002B080BDA0
:103E50000A68002A02681FD022F4F842D1E9073C20
:103E60001A434B6A42EA0C021A430260426847F660
:103E7000FF739A43D1E9013C1A43CB6842EA0C0232
:103E8000D1F810C01A434B6942EA0C0289691A43FF
:103E9000114341600020704747F6FF739A43D1E910
:103EA000013C1A43CB6842EA0C02D1F810C01A4315
:103EB0004B6942EA0C02D1F818C01A43CB6942EAB6
:103EC0000C02D1F820C01A43496A42EA0C0211439D
:103ED00001600020704700000246406943F6FE730F
:103EE00020EA0303002043EA4101516170470000CA
:103EF00010B5024600696FF315006FF01F04D1E999
:103F000000ECD1E9023140EA0E0004EB431340EA31
:103F10000C000343002043EA4121116110BD000061
:103F20002DE9F041002A826836D040F6FF734FF247
:103F30000006CFF60F73CFF6FF761A40CB684F69B5
:103F40006FF00F0406EB03330026CFF6F0761A432A
:103F500006EB07573A438260C2688E68D1E90037A2
:103F600002F07042013B04EB07176FF0FF040D698C
:103F700004EB062600241A43CFF6FF7489693A43FE
:103F800004EB0545013932432A4342EA0161C1602D
:103F90000020BDE8F08100BF01F1080602F0704C7E
:103FA000D1E900E278CE6FF00F074FF2000807EB7F
:103FB00002126FF0FF0707EB0323AEF1010747EA98
:103FC0000C07CFF6FF7840F2000E3A4308EB0434BA
:103FD000CFF6FF7E00271A4389690EEB0545CFF621
:103FE000F077224307EB065301392A431A4342EA8A
:103FF000016181600020BDE8F08100000000000048
:104000004FF608000C21C2F2034001600BF000FAE9
:1040100009F0CAF8FAE7000070B582B000230193F6
:10402000044690F85000012802D1022002B070BD71
:10403000012084F8500020460E461546FEF7C4FDC8
:10404000616D18B141F010014CE000BF41F2021265
:104050004FF6C0739143C3F6FE7302316165216868
:1040600006F4803605F080458A682E4413404FF2EE
:10407000FF72C2F2C352334403F100438B608B687A
:10408000B3F1FF3F2ADC019B01330193019B934273
:104090001DD88B68B3F1FF3F20DC019B01330193F6
:1040A000019B934213D88B68B3F1FF3F16DC019B51
:1040B00001330193019B934209D88B68B3F1FF3F11
:1040C0000CDC019B01330193019B9342D7D9606DB6
:1040D00040F0100020F00201012003E0616D012298
:1040E00062F301016165002184F8501002B070BDD7
:1040F000F0B581B00022009290F85020012A03D13F
:104100000221084601B0F0BD0768012380F8503055
:10411000BB685B0700F196810C684FF6FF7CB4F139
:10412000FF3FC0F20F0C4FEA94630FDD94FAA4F244
:1041300014EA0C0FB2FA82F208BFA20E012402F0B8
:104140001F0204FA02F2FC692243FA614A681F2640
:1041500003F01F03C2F3012402F01F02964007EB95
:10416000840403FA02F2256B25EA06063243226331
:10417000BA68BB6802F0040203F00803D21840F0EA
:1041800096800A6807258E68C2F34063C2F3045222
:1041900007EB830395405C6906FA02F224EA050501
:1041A0002A435A6141F20002C5F60042126802F049
:1041B0007042B2F1805F33D14A69FB680E2606EA8D
:1041C000530302FA03F30C69042C39D007F160029F
:1041D0000E6806F0F84652F82450334305F00045C7
:1041E0002B4342F824300B694E7E52F82350012EA7
:1041F00025F0004508BF05F1004542F823500A7E2E
:104200000B693E69013A03F01F03B2FA82F226F409
:10421000F0465209D2029A4032433A6147E000BF69
:10422000FA684B69FE68D2064FEA560402D404F0DD
:104230000E0201E004F0080293400C69042CC5D181
:104240003A6E0B6802F0F8429B069A4218D13A6E19
:1042500022F000423A667A6E02F0F8429A4214D096
:10426000BA6E02F0F8429A4218D1BA6E22F00042B9
:10427000BA66FA6E02F0F8429A4214D017E000BF14
:104280007A6E02F0F8429A42EAD17A6E22F0004247
:104290007A66BA6E02F0F8429A42E6D0FA6E02F0FE
:1042A000F8429A4203D1FA6E22F00042FA66BA68E6
:1042B000D20779D1D1F800E00023C968D7F8C0202F
:1042C0000EEA0C04C4F25273A24301F018042CFA53
:1042D00004F603F52D0506EA0E06A94246EA020198
:1042E000C7F8C0105DD142F20011C4F202018F4242
:1042F00026D042F20001C4F202018F423CD11F21BC
:10430000C1F2F0418E4540F3C38040F2FF71C2F626
:1043100030618E4540F3A98040F60001C2F630615D
:104320008E4500F0478141F20001C3F260218E45C5
:1043300000F036810021C4F221318E451DD045E1C7
:104340001F21C1F2F0418E4500F388800721C0F69D
:1043500090418E4500F3AA800221C0F230418E4583
:1043600000F0A1800421C0F660018E4540F02E814E
:104370004023C1F6201300E0002393FAA3F143F693
:10438000C132B1FA81F1C0F20A0213424FF00102C8
:1043900008BF990E01F01F0102FA01F1FA691143F9
:1043A000F961BEF1FF3F01DD002150E042F2000162
:1043B00046F2083CC4F20201C5F6020C01F5807217
:1043C00001F542739742624608BF1A468F4242F295
:1043D000001408BF1A4647F48073C4F20204A342D3
:1043E000136827D18A68D1F808111143C90729D168
:1043F000002103F0E074CCF684318E4508BF13F43D
:10440000000163D00021CCF252718E4540F0A080B3
:104410000021B1EB146F40F09B80ACF542718F42EC
:10442000C2D1DCF8001021F0E071214341F080712D
:10443000A5E000BF4FF60051CFF6FF715CF8011008
:10444000C907D5D0416D41F020014165012100220D
:1044500080F85020084601B0F0BD00BF40F2FF7167
:10446000C2F630618E4500F38F802021C1F2F04109
:104470008E4500F0A58040F20041C2F600218E4535
:1044800040F0A48040F60003C2F6306375E700BF39
:104490000721C0F690418E4508DC0221C0F2304170
:1044A0008E457FF45FAF012367E700BF0821C0F6A8
:1044B00090418E457AD01021C1F2C0018E4540F066
:1044C000858040F20013C2F2801356E7ACF54271CA
:1044D0008F427FF469AFDCF8001042F6635221F09E
:1044E000E071C0F23E52214341F40001CCF80010CB
:1044F00040F20801C2F2044109688909A1FB0212D5
:104500009109022202EB41010091009900293FF438
:104510004BAF009901390091009900293FF444AF55
:10452000009901390091009900293FF43DAF0099AD
:1045300001390091009900293FF436AF0099013903
:104540000091009900294FF00001E2D17FE700BF00
:10455000ACF542718F424FF000017FF478AF00223A
:10456000CCF6B872964508BF13F480027FF46FAFA3
:10457000DCF8001021F0E071214341F48001CCF817
:104580000010002163E700BF40F60001C2F6306171
:104590008E450FD041F20001C3F260218E4515D146
:1045A00042F20003C3F29063E7E600BF8023C1F646
:1045B0005053E2E641F20003C3F26023DDE600BFA0
:1045C00040F20023C2F2B053D7E600BF002100231F
:1045D000C4F684318E4504BF0023C4F6B873CCE61C
:1045E00070B582B0044600284FF0000001902DD035
:1045F000606D30B9204600F01FF90020A06584F8F6
:1046000050002068816889004FF6C071C5F6FF71BF
:1046100002D582680A4082608268D20031D4826802
:1046200001F18051114042F6635241F080518160A6
:1046300040F20801C0F23E52C2F204410968890901
:10464000A1FB0212012101EB921105E00126304687
:1046500002B070BD019901390191019989B10199A7
:1046600001390191019961B10199013901910199D2
:1046700000291FBF019901390191019918BF002933
:10468000E8D18168C90009D4616D012641F01001AB
:104690006165A16D41F00101A16500E0002681681E
:1046A000626D02F0100201F004018918616D40F0A2
:1046B000918021F48171023161658168C90728D137
:1046C00042F2001240F48071C4F20202914242F2BE
:1046D0000001C4F2020140F0A5808A68D1F80831D7
:1046E0001A43D20715D101F5807201F5427346F2E3
:1046F000080C9042C5F6020C1A4618BF0CF5407221
:10470000884208BF1A466068116821F47C1108438A
:10471000106000F019FB41F2030100228842A068FA
:10472000A0F1100188BF0122B1FA81F1237F49096C
:104730001140226B617D154616BF4D034A031C20B4
:10474000012B45EA034141EA020141EA000106D199
:10475000206A0022CFF6FE7202EB40400143606AFD
:1047600020B100F47870A26A1043014320684CF233
:104770000303CFF6F073C2681A401143C160816829
:10478000826801F0040102F00802891836D1217D07
:1047900044F20305E26AC36842EA813123EA050272
:1047A0001143C16094F83810012901691AD14FF6FC
:1047B0001E020125CFF60042CFF6FF751140D4E965
:1047C0000F231943636C05EB02421143A26C19439A
:1047D000114309E041F0100001266065304602B047
:1047E00070BD00BF21F0010101610169626B21F020
:1047F0007041114301612046FEF74EF92068E168DF
:104800000129026B22F00F0102D1A269013A114382
:1048100001630121606D61F301006065304602B003
:1048200070BD00BF46F20802C5F602021268D20748
:104830003FF459AF6DE7000080B586B044F2E04226
:104840000068C5F60202002102F5D953039198428F
:104850000291CDE90411019102D006B080BD00BFE4
:10486000106840F080701060106800F08070009058
:104870000098106840F080001060106800F0800020
:1048800000900098042001900320CDE9020141F638
:10489000004001A9C5F6020000F052F906B080BD43
:1048A000CB0701D10120704710B54FF680734FEA56
:1048B000F204C7F6FF7311EA030C18BF4FF0010CA6
:1048C000032C0AD840F2000EC7F6FF7EDFE804F0A2
:1048D0001602081011EA0E0310D0012010BD00BF0F
:1048E0000EF57F430B401CBF012010BD06E000BF4A
:1048F000BCF1000F02D0012010BD00BF0068416173
:10490000816821F0180111438160002010BD000072
:10491000D0B110B50446407F20B900202077204652
:1049200000F036F802206077207978B1D4E90212DD
:104930002046FFF7B5FF00281CBF012010BD60799D
:1049400088B1206911E000BF01207047206841F65E
:10495000B751C0F2C1414161816821F01801816005
:1049600060790028EDD14FF0FF302168D4E90523AC
:104970000861886820F0600010438860886820F033
:1049800080001843886001206077002010BD00007F
:1049900044F2E0410068C5F6020101F5E46290428C
:1049A00018BF704781B0086840F4002008600868AC
:1049B00000F400200090009801B070470000000053
:1049C000B0B5044600F0C8F940F238010546C2F21D
:1049D0000041621C097818BF0C4400BF00F0BCF90C
:1049E000401BA042FAD3B0BD002908BF70472DE993
:1049F000F04F81B000F1264242F2004302F1FF7213
:104A0000C5F602030A2598424FEAB22440F2040E8A
:104A100008BF0925092CC5F6000E38BF4FEAB2259C
:104A200000F1200C002200270024009529E000BF9F
:104A30000323066803FA02FA6FF0030303EA540340
:104A400046EA0A06066007F01C060F2505FA06F975
:104A50005CF8036026EA09064CF80360C36823EAA1
:104A60000A03C360436823EA08034360836823EAB8
:104A70000A0383600134043731FA04F302F10202BD
:104A80003CD0012303FA04F818EA0109F2D040F2FD
:104A9000084324F00305C5F6000307F00C0BED589E
:104AA0000F2303FA0BFA009B05EA0A0503FA0BF63B
:104AB000B542BDD1DEF87C504FF0B04325EA090580
:104AC000CEF87C50DEF8805025EA0905CEF88050FB
:104AD000DEF8005025EA0905CEF800501E68A5084A
:104AE00026EA09061E6040F20843C5F6000353F8A3
:104AF000256026EA0A0643F8256099E701B0BDE87B
:104B0000F04F704700000000202805D0B0F5807FEE
:104B100018BF704725F0BCB948F2B020C2F200407F
:104B200001680131016070478821C5F600010A68FB
:104B3000024208BF70470860FFF7E6BF00000000B0
:104B40002DE9F04F85B00F680390002F00F0E6804C
:104B5000039842F2004600F126428C4602F1FF72B1
:104B6000C5F602060A21B0424FEAB22600F1200043
:104B700008BF09210090092E38BF4FEAB221002456
:104B800000264FF000080191CDF808C00CE000BFEE
:104B900008F10108DCF8007037FA08F106F10206A6
:104BA00004F1040400F0BA80012000FA08F217EAC8
:104BB0000209EDD0DCF804A003200AF0030B00FA90
:104BC00006F5ABF10107012F12D803988768DCE9DD
:104BD00002C3AF43B3403B438360CAF3001743684B
:104BE00023EA020207FA08F31A43426008E000BF12
:104BF000DCF808C0BBF1030F08BFBCF1010F2DD0DA
:104C000003994FEA480EE8430CFA06F3CA68BBF171
:104C1000020F22EA050242EA0302CA601AD1834661
:104C20006FF0030000EA5802009804F01C050F2101
:104C300050F802C001FA05FA02992CEA0A078C46DC
:104C40000B69AB403B438350D1F804A058460AF0AF
:104C5000030B0BE0DDF808C008E000BF4FF0030BCA
:104C6000B6460BFA06F2DDF808C0D043039B1AF4EF
:104C7000403F1A6802EA00010BFA0EF241EA020113
:104C800019603FF485AF44F2F44040F20845C5F6A0
:104C90000200C5F60005016841F0020101600168EB
:104CA0000F2001F00201049128F00301049A04F09E
:104CB0000C024B5900FA02F70198BB4300FA02F2CA
:104CC0004FF0B0401A434A510168DCF8042041EA31
:104CD0000903D70258BF21EA09039702036040F293
:104CE0000400C5F60000016841EA090358BF21EA43
:104CF000090397030360D0F8801041EA090358BF05
:104D000021EA0903D203C0F88030C16F41EA0903E8
:104D100058BF21EA0903C3673AE700BF05B0BDE801
:104D2000F08F0000000000000069084018BF01205B
:104D30007047000000000000002A08BF09048161DC
:104D4000704700000000000041F20000C5F600407E
:104D50000068000C7047000048F65440C2F204405E
:104D6000006870470000000046F28041C5F602016D
:104D700051F8200040F20031C8F20001401A18BF7B
:104D8000012070470000000046F2004241F44071EB
:104D9000C5F6020242F82010704700000000000033
:104DA00090F84120202A03D190F84020012A01D117
:104DB00002207047242280F841200268136823F003
:104DC00001031360136823F48053136013681943BD
:104DD0001160116841F001011160202180F841103B
:104DE000002180F840100020704700000000000003
:104DF00090F84120202A03D190F84020012A01D1C7
:104E000002207047242280F841200268136823F0B2
:104E100001031360136823F4706343EA01211160F6
:104E2000116841F001011160202180F8411000213A
:104E300080F840100020704710B310B590F8411072
:104E400031B9002180F84010044600F011FA2046E4
:104E5000242180F8411090E81210C3680A68012BE1
:104E600022F001020A6024F070620A618A6822F46A
:104E700000428A6006D14CF400428A600CE000BF18
:104E800001207047022B4CF404428A6004D14A6826
:104E900042F4006203E000BF4A6822F400624A6004
:104EA00000F1100C4A6842F0007242F400424A607D
:104EB000CA6822F40042CA609CE81C101A4342EA05
:104EC0000422CA60026A42EA0C020A600A6842F0DE
:104ED00001020A6000214164202280F84120016320
:104EE00080F84210002010BD2DE9F04F81B004463B
:104EF00090F84100202803D194F84000012803D104
:104F0000022001B0BDE8F08F0D46174698460120FB
:104F100084F84000FFF720FF216806468A691204E2
:104F200027D4222084F84100102084F84200002079
:104F30006064676249F6000CA4F82A8040F2000819
:104F40006063CFF6004C608DC0F2FF18B0F5807F33
:104F500028D32A464B686FF39F2203EA0C031A43B7
:104F6000424402F510524A60FF222AE08869000498
:104F7000D7D519212046324607F0CEFD002871D141
:104F8000FFF7EAFE801B21681A28EFD38869000426
:104F9000ECD5606C40F020006064202084F8410073
:104FA000012070E0628D2B466FF39F234868D7B2D3
:104FB00000EA0C0043EA0743184308F5923318430C
:104FC000486022850A9F608D002845D06FF39F2599
:104FD0004FF0FF0A05F100790CF5806B0DE000BF82
:104FE000608D21682085C0B24A6849EA004002EA23
:104FF0000B0210434860608D70B32046394632463C
:1050000007F0AEFE70BB2068616A406A0870218DAF
:10501000606A01306062481E2085618D01396185BA
:10502000618D0029E7D00004E5D1802100222046CF
:105030003B46009607F020FEA0B9608DB0F5807F5A
:10504000CED32068A4F828A0416801EA0B012943C7
:1050500041EA08014160CEE720463946324607F072
:10506000EBFE18B1012001B0BDE8F08F20682021CF
:105070004EF60003C161CFF6006342681A404260F9
:10508000002084F84110002184F8421084F8401078
:1050900001B0BDE8F08F00002DE9F04F81B004466B
:1050A00090F84100202803D194F84000012803D152
:1050B000022001B0BDE8F08F0D469846174601204A
:1050C00084F84000FFF748FE216806468A6912040A
:1050D0001BD4212084F84100102084F842000020D5
:1050E0006064676249F6000CA4F82A80CFF6004C91
:1050F0006063608DB0F5807F22D3FF2222854FF060
:10510000807324E088690004E3D5192120463246E3
:1051100007F002FD002840F08580FFF71DFE801B90
:1051200021681A28EED388690004EBD5606C40F042
:1051300020006064202084F84100012083E000BF4B
:10514000628D2285002A00F087804FF0007317F8E7
:10515000010B88626762608D01386085501E208572
:10516000D2B228466FF39F2040EA02404A681843B3
:1051700002EA0C02104340F4005048600A9F608D20
:10518000002849D06FF39F2540F2000B05F100780D
:105190004FF0FF090CF5806AC0F2FF1B0DE000BF65
:1051A000608D21682085C0B24A6848EA004002EA62
:1051B0000A0210434860608D70B32046394632467B
:1051C00007F07AFE70BB606A216810F8012B8A62D2
:1051D0006062608D01386085208D01382085618D89
:1051E0000029E8D00004E6D18021002220463B4679
:1051F000009607F041FDA8B9608DB0F5807FCFD350
:105200002068A4F82890416801EA0A01294341EA8C
:105210000B014160CFE700BF20463946324607F018
:105220000BFE18B1012001B0BDE8F08F20682021ED
:105230004EF60003C161CFF6006342681A40426037
:10524000002084F84110002184F8421084F84010B6
:1052500001B0BDE8F08F00BF486808222B4600EA85
:105260000C0062F39F23184340F0007085E70000B4
:10527000B0B5BAB0044602A8C8210025CDE938551A
:10528000CDE936553595FBF775FD45F600012068EB
:10529000C4F20001884235D045F20041C4F2000159
:1052A000884260D10820029002A80024039402F0F2
:1052B0001FFD08B1FEF768FD44F2E04535A9C5F6CB
:1052C0000205286840F002002860286800F002000B
:1052D000019001984FF4C07035901220CDE936044A
:1052E0000420399040F200403894C5F60200FFF7E0
:1052F00027FCA86840F40010A860A86800F400101B
:105300002FE000BF0820029002A8039502F0F0FCF5
:1053100008B1FEF739FD44F2E04440F20041C5F621
:105320000204C5F60201206840F080002060206879
:1053300000F08000019001983020359012203690C6
:105340000020CDE937000420399001F5C05035A97F
:10535000FFF7F6FBA06840F48000A060A06800F4AE
:105360008000019001983AB0B0BD0000000000003C
:1053700040F2380048F65441C2F20040C2F2044103
:1053800000780A68104408607047000000000000C0
:1053900080B5032000F088FB03F032FC44F2184192
:1053A00048F68A13C5F60201C0F603030A68C2F381
:1053B00003229A5C096801F00F0102F01F02595C98
:1053C000D04040F20C02C2F2044201F01F0120FA68
:1053D00001F1116040F20801C2F2044108600020AE
:1053E00000F00AF800281CBF012080BD00F0E8FA98
:1053F000002080BD000000000F2843D8B0B58AB05F
:105400000446192000222146002500F01DFB19202A
:1054100000F006FB40F23C00C2F20040046044F29F
:10542000F040C5F60200016841F00101016000682A
:1054300001A900F001000290029802A803F02CFBE1
:1054400003F0AEFB4DF683614000C4F21B31002235
:10545000A0FB010140F6A010C2F204404FF0FF3360
:10546000C4F20102026003EB9141C0E9011540F270
:10547000E731C0E9031505F0C7FE28B101200AB0E5
:10548000B0BD00BF0120704740F6A010C2F204403A
:1054900005F0EEFE0AB0B0BD90F8A030012B4FF041
:1054A000020331D02DE9F04134244FF0010880F897
:1054B000A08080F8A13002FB0403D1E900CED1E93D
:1054C0000267D1E90445C3E91245C3E91067C3E99E
:1054D0000ECED1E906CED1E90854D1E90A76C3E966
:1054E0001876C3E91654C3E914CE0F6B9F660446C1
:1054F00007F0C6FD20680023C0F8248084F8A1804E
:1055000084F8A030BDE8F041184670470000000064
:10551000704700000000000070B504460068866B0C
:10552000456B710716D515F0040113D0416B21F0BE
:10553000040141630421C163D4F8A40040F00100D8
:10554000C4F8A40084F8A110002084F8A00020462C
:10555000FFF7DEFFB00718D515F0020015D0206860
:10556000416B21F0020141630221C163D4F8A40020
:1055700040F00200C4F8A400042084F8A100002038
:1055800084F8A0002046FFF7C3FFF00718BF15F00E
:10559000010017D1300726D515F0080008BF70BDEF
:1055A0002068416B21F0080141630821C16301209B
:1055B00084F8A100002084F8A0002046BDE87040D7
:1055C00000F06EB92068416B21F0010141630121B7
:1055D000C16384F8A110002084F8A000204600F0E8
:1055E0005FF83007D8D470BD002855D010B590F8BA
:1055F000A11031B9002180F8A010044600F060F835
:105600002046022180F8A110D0E9001CD0E9023424
:105610008A6922F070428A6143EA0C0203692243DC
:105620001A438B691A438A61D0E9052343EA02428F
:105630008A60D0E9072343EA0242CA60D0E909231D
:1056400043EA02420A61D0E90B2343EA02424A617B
:1056500090F8352090F83630CC6A04F07F44CC6264
:105660001B0490F8344043EA0222CB6A22441A43D6
:10567000CA624A6B42F006024A638A6942F001023A
:105680008A610021C0F8A410012280F8A120BDE8A1
:1056900010400846704700BF01207047000000001E
:1056A00080B50068416B41F00101416324F0D4F8FA
:1056B000022818BF80BDBDE8804015F0E9B80000A1
:1056C0002DE9F043B9B0044602A80830C0210025F6
:1056D0003495CDE93755CDE93555FBF74BFB41F214
:1056E00000012068C5F20001884203D039B0BDE84E
:1056F000F08300BF4FF00050029019200C909020D2
:105700000D9002200395CDE90E001020109002A804
:10571000129502F0EDFA08B1FEF736FB002044F2D4
:10572000E044CFF6F070C5F6020454F8E01C89009E
:105730000ED468B154F8E01C89005CBF54F8E01C3A
:105740005FEA810104D454F8E01C04308900ECD5F0
:1057500002204FF00208FFF733F9606842F20005BB
:1057600040F0080060606068C5F6020500F00800BF
:1057700001900198206840F4807020602068002724
:1057800000F4807001900198206840F020002060B3
:105790002068032600F0200001900198206840F066
:1057A0008000206020684FF00E0900F0800001901A
:1057B0000198206840F040002060206800F0400020
:1057C00001900198206840F008002060206800F0F7
:1057D000080001900198206840F0020020602068D5
:1057E00034AC00F002000190019840F27160CDE904
:1057F00034082846214636973796CDF8E090FFF7D3
:105800009FF94FF408402146CDE93408092038902B
:105810002846CDE93676FFF793F94FF480602146AC
:10582000CDE93408A5F54060CDF8E090CDE93676B5
:10583000FFF786F94FF45F402146CDE93408A5F51E
:105840008060CDF8E090CDE93676FFF779F94FF436
:105850004C602146CDE93408A5F50060CDF8E09014
:10586000CDE93676FFF76CF908202146CDE93408FA
:10587000A5F5A050CDF8E090CDE93676FFF760F9B8
:105880004FF400702146CDE93408A5F5E050CDF87D
:10589000E090CDE93676FFF753F939B0BDE8F083F3
:1058A0007047000000000000B0B50446FFF754FA4E
:1058B0000CB3054694F83D0002281FD12068C1684A
:1058C00021F03E01C160C16821F00101C16000BF4B
:1058D0002068C168C90719D0FFF73EFA401B0628A7
:1058E000F6D3A06E40F04000A066002084F83C0093
:1058F000032084F83D000120B0BD00BF8020A066D9
:10590000002084F83C000120B0BD00BF1F21416091
:10591000002084F83C00012184F83D10B0BD000057
:1059200010B54EF6A05E4378CEF2000E90F800C09F
:105930004EF8083CDEF8003023F00103CEF80030CA
:1059400043684EF8043C037BC27A817A447B12069A
:1059500042EA0372837B42EAC141C27B41EA84414D
:10596000447A41EA4341007A41EA024141EA042192
:1059700041EA400040EA0C00CEF8000010BD0000F3
:105980004EF62450CEF20000BFF35F8F016821F481
:1059900080310160002101677047000000000000B5
:1059A0004EF6245140F00100CEF20001086708686D
:1059B00040F480300860BFF34F8FBFF36F8F7047A4
:1059C00081B044F2F4400022C5F60200016841F0C3
:1059D0000201016000680F2100F0020000906FF0EA
:1059E0000100009B01B000F02FB800000000000093
:1059F000002848BF70474EF2801300F01F01C0F32B
:105A00004A10CEF20003012202FA01F143F82010FD
:105A1000BFF34F8FBFF36F8F70470000000000008F
:105A2000002848BF704700F01F01012202FA01F16F
:105A30004EF20012C0F34A10CEF2000242F82010DB
:105A4000704700000000000070B54EF60C5C4FF08F
:105A5000FF36CEF2000C00F1604505F56445DCF838
:105A60000030C3F3022E8EF00703042B28BF04235B
:105A7000BEF1030406FA03F321EA030100F00F0369
:105A800038BF0024043B0028634406FA04F048BFF2
:105A900003F10C05A14022EA000008430001287030
:105AA00070BD0000000000004EF60C514FF6FF03E1
:105AB000CEF200010A681A4060F30A2242F08060C8
:105AC00040F0FD700860704701680122C0F8D824DA
:105AD000002280F8CC24886940F000608861486D1D
