:020000040800F2
:1000000000900020810400083916010809F6000854
:1000100009160108515900080905000800000000F0
:100020000000000000000000000000004143010843
:10003000716000080000000011320108596B0108CE
:10004000C9040008C9040008C9040008C90400085C
:10005000C9040008C9040008C9040008C90400084C
:10006000C9040008C9040008C9040008C90400083C
:10007000C9040008C9040008C9040008C90400082C
:10008000C9040008C9040008C9040008C90400081C
:10009000C9040008C9040008C9040008B1610008C7
:1000A000C904000831700108C9040008C904000827
:1000B000C9040008C9040008C9040008C9040008EC
:1000C000C9040008C9040008C9040008C9040008DC
:1000D000C9040008C9040008C9040008C9040008CC
:1000E000C9040008C904000800000000C904000891
:1000F000C9040008C9040008C9040008C9040008AC
:10010000C9040008C9040008C9040008C90400089B
:10011000C9040008C9040008C9040008C90400088B
:10012000C9040008C9040008C9040008C90400087B
:10013000C9040008C9040008C9040008C90400086B
:10014000C9040008C9040008000000000000000005
:10015000C9040008C9040008C9040008C90400084B
:10016000C9040008C9040008C9040008C90400083B
:10017000C9040008C9040008C90400080000000000
:10018000C9040008C9040008C9040008C90400081B
:10019000C9040008C9040008C9040008C90400080B
:1001A00031060108C9040008C9040008C904000890
:1001B000C9040008C9040008C9040008C9040008EB
:1001C000C9040008C9040008C9040008C9040008DB
:1001D000C904000871260108C9040008C904000800
:1001E000C9040008C9040008C9040008C9040008BB
:1001F000C9040008C9040008C9040008C9040008AB
:10020000C9040008C9040008C9040008C90400089A
:10021000C9040008C9040008C9040008C90400088A
:10022000C9040008C9040008C9040008C90400087A
:10023000C9040008C9040008C9040008C90400086A
:10024000C9040008C9040008C9040008C90400085A
:10025000C9040008C9040008C9040008C90400084A
:10026000C9040008C9040008C9040008C90400083A
:10027000C9040008C9040008C9040008C90400082A
:10028000C9040008C9040008C904000800000000EF
:10029000C9040008C904000800F002F800F0E1F801
:1002A00014A696E8000CB244B344DA4501D100F03C
:1002B000D8F8BAE80F000FA696E83000A5EB0405C1
:1002C00004EB0607AAEB0704A7F101074FEA15158F
:1002D0004FEA3414A4F10104AC4201D300F0C1F898
:1002E00013F0010F18BFFB1A43F0010300F001F8EF
:1002F000DBE71847206B0A00906B0A000A444FF0B6
:10030000000C10F8013B13F0070408BF10F8014B74
:100310001D1108BF10F8015B641E05D010F8016BB9
:10032000641E01F8016BF9D113F0080F1EBF10F81D
:10033000014BAD1C0C1B09D16D1E58BF01F801CB40
:10034000FAD505E014F8016B01F8016B6D1EF9D5C3
:100350009142D6D370470000103A24BF78C878C1C4
:10036000FAD8520724BF30C830C144BF04680C60BB
:10037000704700007047000000230024002500267D
:10038000103A28BF78C1FBD8520728BF30C148BFF8
:100390000B6070476E2900F04582702900F0F382EF
:1003A000662901F05CA6652901F059A6672901F0CC
:1003B00056A6612901F055A603681B0A28BF41F023
:1003C0008001692900F0F281642900F0EF8175292C
:1003D00000F0EC816F2901F0AB84782900F0BF8236
:1003E000E92901F04584E42901F04284F52901F06E
:1003F0003F84EF2901F0A884F82900F0BE82036849
:10040000DB0928BF41F08001632901F00F847329C3
:1004100001F01484E32901F01F84F32901F02484FE
:10042000002070471FB541F0DAFD9DE8030001F0A0
:10043000AFFD01F08DFD04000020002141F04EFDD4
:10044000401C60600020002141F05EFDE06002F091
:100450002BF900F047FF1FBD10B5002002F0F2F8A5
:1004600010BD02F02EF91146FFF7DCFF31F004FA5F
:1004700002F066F903B4FFF7EFFF03BC30F0DCFFD6
:1004800015491648086016494FF0FF0008601548E6
:100490008047154880471548016821F00801016030
:1004A0001348016841F470010160BFF34F8FBFF33F
:1004B0006F8F10480047FEE7FEE7FEE7FEE7FEE726
:1004C000FEE7FEE7FEE7FEE7FEE700000A480B490D
:1004D0000B4A0C4B7047000004F80324FF0000C7D0
:1004E00008F80324996B0008D96C010814ED00E0AA
:1004F00088ED00E099020008000000200090002034
:1005000000100020001000201EF0040F0CBFEFF3BD
:100510000880EFF309802DE9F00F694601F1200012
:100520001EF09AF8BDE8F00F704753EA020C00F095
:1005300069802DE9F04B4FF00006002B1FBFB3FA86
:1005400083F503FA05F424FA05F65E4012BF16435C
:10055000B2FA82F502FA05F4C5F120051EBF22FAAF
:1005600005FC44EA0C04203556EA044C4FEA1444D6
:1005700018BF641C4FF000084FF00009904271EB67
:10058000030C39D3002919BFB1FA81F701FA07F634
:10059000B0FA80F700FA07F6C7F120071EBF20FA6D
:1005A00007FC46EA0C062037B6FBF4FCA7EB050770
:1005B000103F07F01F0BCBF120062CFA06F60CFAC1
:1005C0000BFB44BFB3460026202FA4BF5E464FF06E
:1005D000000B5BEA060C08BF4FF0010B19EB0B098F
:1005E00048EB0608ABFB027C06FB02CC0BFB03CC02
:1005F000C01B71EB0C01C1E70B4602464146484661
:10060000BDE8F08B13B5084318BF4FF0FF3001462B
:10061000AFF30080BDE81C40704753EA020C23D0C2
:1006200010B54C1084EA530404D54042C1F10001D6
:1006300038BF491E1B4204D55242C3F1000338BFE4
:100640005B1EFFF772FF14F0804F04D04042C1F1EF
:10065000000138BF491E14F0004F04D05242C3F1CC
:10066000000338BF5B1E10BD13B540424FF00000C1
:1006700070EB0104B8BF012001F0004100281CBF4D
:100680006FF000414FF0FF30AFF300801CBD000061
:100690007CB51D4616460C00009007D04142A14291
:1006A00002D32044401E01E04FF0FF30064B7B4454
:1006B0002A4669460190304601F093FA002C02D098
:1006C000009A002111707CBD571500000FB41CB5B5
:1006D0000C0007AA009007D04142A14202D3204457
:1006E000401E01E04FF0FF30074B7B44694601900C
:1006F000069801F076FA0021002C01D0009A1170C2
:100700001CBC5DF814FB00001B15000070B504460E
:1007100085690068C10601D5302600E02026C007A3
:1007200007D070BDD4E9012130469047206A401CB3
:1007300020626D1EF6D570BD70B5044685690078DF
:10074000C00707D170BDD4E9012120209047206A5D
:10075000401C20626D1EF6D570BD70B50C46054676
:10076000012A05D02878800600D5EA69002302E036
:10077000012305E05B1C934202D2E05C0028F9D122
:10078000A869E618C01AA861286A18442862284691
:10079000FFF7BCFF04E0D5E9012114F8010B9047F5
:1007A000B442F8D32846FFF7C7FF70BD2DE9F041EA
:1007B0000646002410687529314616A510D000F0B1
:1007C00014FE002802DA404213A507E031688A07C8
:1007D00001D512A502E0490704D511A5012401E0C5
:1007E00000F00CFE00210A2206F1240709E0B0FB0C
:1007F000F2FCB0FBF2F302FB1C00303078541846D8
:10080000491C0028F3D123462A463046BDE8F04172
:1008100000F0FDBD000000002D0000002B000000D6
:100820002000000011680268006A530501D50870B5
:100830000AE0D30501D5088006E0130603D5C217E8
:10084000C1E9000200E00860012070472DE9FF5F68
:1008500015468A460446DFF8AC80F8440027D8E9FC
:1008600000103E46CDE9001010E03AF816106A4636
:1008700002A801F00AFB411C07D02178890603D5A4
:10088000E269391891420DD80744761C2078800619
:1008900002D5E069B84205DDAE42E6DB3AF8160063
:1008A0000028E2D1A069C01BA0612046FFF72EFFFF
:1008B000D8E90010CDE90010002017E03AF8181030
:1008C0006A4602A801F0E1FAB0F1FF3F81460BD081
:1008D00000250DF1080B05E0D4E901211BF8050006
:1008E00090476D1C4D45F7D308F10100B04280469A
:1008F000E4DB206A384420622046FFF71DFFBDE894
:10090000FF9F000006190400F0B40D460188090598
:1009100002D5214C7C4402E01F4C7C440E34002163
:1009200000F1240608E002F00F071209E75D42EA31
:1009300003721B097754491C52EA0307F3D102786A
:100940000023120704D5702D06D009B102231134FB
:100950002246F0BC00F05BBD01231034F8E770B50F
:1009600004460D462146106800F048FD024629461F
:100970002046BDE870400023C6E7D21D22F00703E1
:10098000D3E90023C0E70368126843F02003036043
:100990000823C3610023B7E7541804002DE9F05F72
:1009A000894604464FF0000ADFF874B1FB44C0F8F2
:1009B00020A02046E1688847002874D0252806D06A
:1009C000D4E901219047206A401C2062F1E700260B
:1009D0005F462046E16888472028054607DB312D21
:1009E00005D2781910F8200C08B10643F1E7B007DA
:1009F00001D526F00406C4F81CA00027C4F818A0EE
:100A00002A2D09D0284641F01AFA38B304EB87089A
:100A1000303DC8F8185019E059F8041B204604EB83
:100A200087029161E1688847012F054618D1E06986
:100A3000002820DA26F020061DE0D8F8180000EB88
:100A4000800005EB40003038C8F818002046E16807
:100A50008847054641F0F3F90028EED1012F0AD06E
:100A60002E2D08D12046E16888477F1C0546022FBD
:100A700046F02006C4DBA069002803DA404246F0B5
:100A80000106A061F00701D026F010066C2D0BD0F6
:100A9000682D09D04C2D39D06A2D35D0742D35D024
:100AA0007A2D33D016E038E0E1682F46204688479B
:100AB000B842054609D16C2F26D04FF48060E1681A
:100AC000064320468847054604E06C2F1AD04FF4B1
:100AD000807006430DB3A5F14100192802D82035D6
:100AE00046F400664A462946204626604E46FFF7F1
:100AF00051FC80B101280BD0F61D26F0070000F153
:100B0000080956E74020E4E78020D8E70020D6E730
:100B100006F104094DE7284652E7206ABDE8F09F38
:100B2000E41704000FB400B58DB010A9099000912E
:100B30000B904FF0FF300A9000200C90064878444C
:100B40000690064878446A4607900F9909A801F074
:100B500019F90DB05DF814FB631200007B12000060
:100B60002DE9FF5F1D464FF0FF3B91464FF0000817
:100B70005F46D5E90146A96901987F1C8847296A23
:100B8000824688470028F6D1BAF1FF3F0CD0002EEC
:100B900024F4C06419DD600614D5BAF12B0F09D016
:100BA000BAF12D0F0ED103E0584604B0BDE8F09F16
:100BB00044F48064A96901987F1C8847761E8246A8
:100BC000002E02DDBAF1300F03D0B9F1000F26D0AC
:100BD00032E0A969761E01987F1C44F400748847AE
:100BE000002E824605DDBAF1780F06D0BAF1580F13
:100BF00003D0B9F1000F10D01EE0B9F1000F02D000
:100C0000B9F1100F18D1A969761E01987F1C24F440
:100C1000007488478246102002E0082000E00A2085
:100C2000814609E0A96908FB0908761E01987F1C26
:100C300044F4007488478246002E05DD494650463C
:100C400001F08CF80028EDDAE96901988847A005E1
:100C500002D46FF00100A8E7E00725D1600613D5A4
:100C6000600502D5C8F1000000E0404629680A1D71
:100C70002A600968220501D5087015E0220701D510
:100C8000088011E008600FE02868011D29600068F5
:100C9000210502D580F8008006E0210702D5A0F8E2
:100CA000008001E0C0F8008038467EE72DE9FF5F54
:100CB0004FF000089946144646469169D2E901A7CB
:100CC000DDF838B001988847054659EA0B0005D091
:100CD00009E0A1690198761C88470546216A2846E3
:100CE00088470028F5D1681C03D05FEACA7005D098
:100CF00015E04FF0FF3004B0BDE8F09F2068011D03
:100D00002160D0F800800AE05FEACA7001D108F8DB
:100D1000015BA169761C01987F1E88470546002F5C
:100D20001ADD681C18D0B9F1000F0DD0E81705EBDB
:100D3000D060421120F01F0059F822102A1A012019
:100D400090400142E0D107E0BBF1000FDCD1284622
:100D5000216A88470028D7D0E16901988847BBF10C
:100D6000000F07D1002E05DD5FEACA7002D1002115
:100D700088F80010A068B84203DDBBF1000F03D073
:100D800017B16FF00100B6E73046B4E72DE9F04740
:100D900091460F4680460446002614F8015B2DB1AB
:100DA00000F0B6FA0068405DC007F6D12B2D02D0E6
:100DB0002D2D18D0641E4A463946204601F012F8FF
:100DC00027B13968A14201D1C7F800804FF0020471
:100DD00071050BD54042002803DD00F0A1FA046044
:100DE000A007BDE8F08746F48066E4E70028F8DA5B
:100DF00000F096FA04606FF00040F2E70B460146FF
:100E0000184601F071B800000EB5054614460E46AE
:100E100013A001F08DF8284601F08AF816A001F021
:100E200087F8304601F084F815A001F081F8002120
:100E30008DF80B100A210DF10A008DF80A1008E058
:100E400094FBF1F201FB124294FBF1F4303200F812
:100E5000012D002CF4DC01F06BF801F03AF80000F1
:100E60002A2A2A20617373657274696F6E20666125
:100E7000696C65643A2000002C2066696C6520006E
:100E80002C206C696E65200040EA010310B59B07B9
:100E90000FD1042A0DD310C808C9121F9C42F8D0E4
:100EA00020BA19BA884201D9012010BD4FF0FF3095
:100EB00010BD1AB1D30703D0521C07E0002010BDAB
:100EC00010F8013B11F8014B1B1B07D110F8013B37
:100ED00011F8014B1B1B01D1921EF1D1184610BD18
:100EE00040EA010370B59B072ED14FF00136042A6A
:100EF0002AD308C810C99D1B9D43121F15EAC615A9
:100F000017D0D8B2E1B2401A50EA056110D198B2B8
:100F1000A1B2401A50EA05410AD123F07F4024F0E3
:100F20007F41401A50EA052102D1180EA0EB14604F
:100F300070BDA342DBD018BA21BA884201D9012082
:100F400070BD4FF0FF3070BD0AB9002070BD10F8C1
:100F5000013B11F8014B63B1A3420AD1521E08D0E4
:100F600010F8013B11F8014B1BB1A34201D1521EF5
:100F7000EDD1181B70BD032A40F2308010F0030C35
:100F800000F0158011F8013BBCF1020F624498BFDC
:100F900011F801CB00F8013B38BF11F8013BA2F179
:100FA000040298BF00F801CB38BF00F8013B11F0F4
:100FB000030300F06780083AC0F0088051F8043B52
:100FC000083A51F804CBA0E80810F5E7121D5CBF01
:100FD00051F8043B40F8043BAFF30080D20724BF34
:100FE00011F8013B11F801CB48BF11F8012B24BFC8
:100FF00000F8013B00F801CB48BF00F8012B704717
:10100000431A28BF9A427FF6B6AF10441144032A10
:1010100040F2268010F0030F1EBF11F8013D521E52
:1010200000F8013D10F0030F7FF4F6AF11F0030359
:1010300000F06D80083AC0F00B8051F8043D083A8A
:1010400051F804CD40F8043D40F804CDFFF7F3BF5C
:10105000121D5CBF51F8043D40F8043DAFF3008021
:10106000D20724BF11F8013D11F801CD48BF11F896
:10107000012C24BF00F8013D00F801CD48BF00F865
:10108000012C704710B5203AC0F00B80B1E8185021
:10109000A0E81850B1E81850A0E81850203ABFF462
:1010A000F5AF5FEA027C24BFB1E81850A0E8185001
:1010B00044BF18C918C0BDE810405FEA827C24BF55
:1010C00051F8043B40F8043B08BF7047D20728BFE3
:1010D00031F8023B48BF11F8012B28BF20F8023B32
:1010E00048BF00F8012B7047431A28BF9A427FF689
:1010F000C9AF1044114410F0030F1EBF11F8013D99
:10110000521E00F8013D10F0030F7FF4F6AF103AC5
:10111000C0F00A8010B531E9185020E91850103A93
:10112000BFF4F9AFBDE81040530724BF31E9081000
:1011300020E9081044BF51F8043D40F8043D12F086
:10114000030F08BF7047D20728BF31F8023D48BFE0
:1011500011F8012C28BF20F8023D48BF00F8012CEF
:10116000704702F0FF0343EA032242EA024200F022
:1011700024B84FF000020429C0F0128010F0030CD4
:1011800000F01B80CCF1040CBCF1020F18BF00F87A
:10119000012BA8BF20F8022BA1EB0C0100F00DB829
:1011A0005FEAC17C24BF00F8012B00F8012B48BF87
:1011B00000F8012B70474FF0000200B5134694462B
:1011C0009646203922BFA0E80C50A0E80C50B1F19F
:1011D0002001BFF4F7AF090728BFA0E80C5048BFB3
:1011E0000CC05DF804EB890028BF40F8042B08BF51
:1011F000704748BF20F8022B11F0804F18BF00F84D
:10120000012B704710B5044610F0030F08BF11F012
:10121000030F40F015804FF0013E121FC0F20E8008
:1012200051F8043BA3EB0E0C2CEA030C1CEACE1C79
:1012300008BF40F8043BF0D0A1F1040102F1040220
:10124000521E08DB11F8013B00F8013B002BF7D1DF
:101250001146FFF78EFF204610BD00000000000081
:1012600030B44FF0013C50F8042BCCFA52F451F852
:10127000043BD51A20D1FCB950F8042BCCFA52F417
:1012800051F8043BD51A17D1B4B950F8042BCCFA55
:1012900052F451F8043BD51A0ED16CB950F8042B16
:1012A000CCFA52F451F8043BD51A05D1002CDAD00F
:1012B00030BC4FF00000704729BAB1FA81F111F04B
:1012C0001801D1F120008440F2D1CA40CB4012F085
:1012D000FF0213F0FF0330BCD01A7047704770470D
:1012E0007047000008487CB578440090074878446F
:1012F000009C0546019004E02046016808448047B0
:10130000241DAC42F8D17CBD105D0A00125D0A00BC
:1013100010B500F01DFE001D10BD00BFC10B040084
:1013200000487047E002002470B5064600F00CFE4D
:10133000056806F10B0020F00704B4429CBF0020B2
:1013400070BD2B466A68BAB11068A04210D304F190
:10135000080188423CBF5068586007D35168101993
:1013600041601168091B016058601460101D70BD58
:1013700013465268002AE7D12146284600F0F4FDC2
:101380000028DED170BD70B50446051F00F0DCFDFD
:101390000068002C14BF446870BD002C18BFAC421C
:1013A0003CBF20466468F8D301680A18AA4218BFF7
:1013B000456003D12A680546114401602868411937
:1013C000A1421CBF6C6070BD6168696021680844FF
:1013D000286070BD10B5FFF7A3FF006810BD10B501
:1013E0000446FFF79DFF046010BD09684A0501D55A
:1013F00040B27047C905FCD500B2704709684A057C
:1014000001D5C0B27047C905FCD580B270472DE93F
:10141000F0470D4699469246044600F124080168BB
:10142000880604D5E06921F01001216000E0012068
:10143000A84201DD471B00E00027A1697A1902EBF1
:101440000900081AA0612078C00602D42046FFF7E0
:101450005DF9002608E0D4E901211AF8060090475A
:10146000206A401C761C20624E45F4DB2078C006C2
:101470000AD52046FFF74AF906E0D4E901213020D9
:101480009047206A401C2062381EA7F10107F4DC57
:1014900007E0D4E9012118F805009047206A401CB4
:1014A0002062281EA5F10105F3DC2046FFF744F970
:1014B0002078000602D50220BDE8F0870120FBE776
:1014C0002DE9FF4F0C461E464FF0FF378BB0D2E997
:1014D0000001DDF860800A908A46C1F30A5505B91B
:1014E0003D46002108464FF00000BAF1000F00F41D
:1014F000400005DA00EB80004FF4400101EA5000A3
:101500004FEA9059B9F1010F00DDB9460A9850EA47
:101510004A000ED044F61050A5F2FF3545432F1473
:10152000B8F1000F1ED07542291E1EDDC9F1000260
:101530001CE0B8F1010F4FF0000001D0302103E0B2
:10154000F24305E02154401CB042FBDB3046002250
:10155000002121540B99C1F80880C1E900200FB087
:10156000BDE8F08FBD1B6D1CDEE74A4600DA69421C
:1015700006A800F0E3FF06AB93E8070003AB83E89F
:10158000070050460A993FF069FD8DE80700A0F575
:1015900000501F3800900398002D0ADD42F21F0111
:1015A0004A460844002303A90390684640F014F813
:1015B00009E0A0F500504A461F38002303A9039014
:1015C000684640F033F88DE807000004000C03D0B3
:1015D0004FF0FF30410800E01046B8F1000F03D093
:1015E0000022009215461EE0751E05D400F005FD90
:1015F000303262556D1EF9D5B3460122084302D040
:1016000000227F1C04E02078302801D100227F1EB8
:10161000002A099784D01DE0112D07DA00F0EDFCB7
:10162000303262556D1C50EA0102F5D1084302D0F8
:101630000098C8B10EE00021681E05E0235C625CE2
:1016400063542254401E491C8142F7DBAB46A81B61
:10165000401E0990002004F80B000B98099AC0F86E
:101660000880C0E9002B7AE711264FF0000857E701
:101670002DE9F04F88460446D21D22F0070191B0B3
:10168000D1E90001CDE90A0140F01CF902460B98AE
:10169000C00F01D02D2007E02068810701D52B2045
:1016A00002E0202101EAC000032A099001D0072AA4
:1016B00005DB03464146204600F0EEFC0BE12078B6
:1016C000800601D5E06900E00620B8F1650F81468B
:1016D00006D0B8F1660F18D0B8F1670F70D131E0BD
:1016E0000020B9F1110F009001DB112301E009F195
:1016F00001030AAA01A90CA8FFF7E2FEDDE90C70BC
:10170000002609F10105834647E001204B46009081
:101710004FF000470AAA01A90CA8FFF7D1FEDDE9A6
:101720000DB00C995D46002610B909F101000D18A5
:10173000B9EB050003D4C0F1FF3609F10105A5EBB3
:1017400009002BE0B9F1010F01DA4FF00109002087
:10175000B9F1110F0090484601DD112300E0034666
:101760000AAA01A90CA8FFF7ABFEDDE90C704D46F3
:1017700000268346207800070AD4AB4500DA5D4690
:1017800001A8012D04DD411911F8011C302907D0F1
:101790004F4502DA17F1040F04DA012082460FE008
:1017A0006D1EEEE7002F02DCED1B3E4403E0781CCB
:1017B000A84200DD7D1CB81B00F1010A4FF0004774
:1017C0002078000703D4AA4501DB4FF0FF3A00213F
:1017D000B7F1004F0DF143088DF8431024D00220DB
:1017E0002B23002F01DA7F422D230A21021EA0F1B4
:1017F000010000DC5FB197FBF1FC97FBF1F201FB0C
:101800001C7C17460CF1300C08F801CDEEE7A8F16E
:10181000010003702188090501D5452100E06521FB
:10182000A0F1010800F8011C09980FA9A1EB080715
:10183000FF1D00B10120411901EBEA70A169384494
:10184000081A401EA0612078C00602D42046FEF788
:101850005DFF099828B1D4E901219047206A401C16
:1018600020622078C00622D52046FEF74FFF1EE0FA
:10187000002E04DBB34502DD01A8805D00E03020CE
:10188000D4E901219047206A401C2062761CAAF10D
:1018900001005FEA000A0AD100F05AFBC068016843
:1018A000405CD4E901219047206A401C2062281E38
:1018B000A5F10105DCDC07E0D4E9012118F8010BF2
:1018C0009047206A401C2062381EA7F10107F3DC14
:1018D0002046FEF731FF032011B041E62DE9F04F1D
:1018E00004460D46D21D22F0070089B0D0E90097CA
:1018F000484639463FF0E6FF0246F80F01D02D2357
:1019000007E02068810701D52B2302E0202101EAAE
:10191000C0038DF820300BB1012000E00020032A25
:10192000824601D0072A04DB2946204600F0B4FB9A
:101930003FE12078800601D40D2500E0E569C7F37A
:101940000A560D2D49DA00214FEA175B08464FF081
:101950000000002F00F4400007DA00EB80004FF495
:10196000400100EBD07001EA60008115012901DD22
:101970004FF0FF3100224FEA850CBCF1180F06D35F
:101980001346ACF118004FF08052C24003E04FF410
:10199000801323FA0CF30CF10C0CBCF1200F04D3D0
:1019A000ACF1200C09FA0CF001E007FA0CF0002968
:1019B0004FF0004801DD18B90FE00ED140450CD3BF
:1019C00019EB02095F4121B9404502D19F4329EA41
:1019D0000209BBEB175F00D0761C2088000502D5FA
:1019E0007B48784402E07A487844193808AA3023C2
:1019F00002F80A30037C0AF10101002E0AF1020A02
:101A000053546A4602DC4FF0300101E04FF03101DF
:101A10004FF001088DF8001002D0A6F2FF3603E067
:101A200059EA470100D06B4E002D02DC21780907EE
:101A300004D54FF002082E218DF80110C446002174
:101A40000BE0C7F303433F01C35C491C6D1E02F862
:101A50000830052908F1010801DA002DF1DC002128
:101A60000CE000EB1973491C1B786D1E082902F865
:101A700008304FEA091908F1010801DA002DF0DCFD
:101A800021688B0602D516E0A8F10108E04505DDC6
:101A900002EB080313F8013C302BF5D0B8F1000F2E
:101AA00009DD02EB080313F8013C2E2B03D10907D3
:101AB00001D4A8F10108002D05DD3E2102F808102F
:101AC0006D1E08F10108407C002E02F8080008F1A4
:101AD000010804DA2D20764202F8080002E02B20EB
:101AE00002F808000A214FF47A70864208F10108D2
:101AF0000BDB96FBF0F3303302F8083096FBF0F383
:101B000008F1010800FB136601E0642E0CDB642081
:101B100096FBF0F3303302F8083096FBF0F308F14F
:101B2000010800FB136601E00A2E06DB96FBF1F0CC
:101B3000303002F8080008F1010896FBF1F001FBD3
:101B40001060303002F80800A16908F1010808EBC4
:101B5000050202EB0A00081AA0612078C00602D430
:101B60002046FEF7D3FD216A08AE01EB0A00206291
:101B700004E0D4E9012116F8010B9047BAF1010AFB
:101B8000F7D22078C00602D52046FEF7BFFD6E468C
:101B900009E016F8010B3E280FD0D4E90121904747
:101BA000206A401C2062B8F10108F2D22046FEF7FC
:101BB000C3FD09B00320BDE8F08F206A28442062ED
:101BC00003E0D4E90121302090476D1EEBD3F8E704
:101BD000D207040002FCFFFF01694A1C0261087879
:101BE000704700B58FB0CDE901310021059105495D
:101BF0007944CDE9031011466846FEF7CFFE0FB0D9
:101C000000BD0000E5FFFFFFD1E900239A4202D2A8
:101C1000531C0B601070704710B5436913B1AFF3DC
:101C2000008001E0FEF799FD012010BD127800F15F
:101C300024010A7000224A700122EDE711684FF07A
:101C4000FF32E9E710B5436913B1AFF3008001E05B
:101C5000FEF7FCFD012010BD128800F124018284F2
:101C60000022C2840122EDE711684FF0FF32E9E75C
:101C70002DE9F0418046D21D22F007020025D2E96D
:101C80000002F52915A614D0011E72F1000106DA32
:101C90000023D0EB030063EB020211A608E0D8F8A2
:101CA00000108B0701D50FA602E0490701D50EA64B
:101CB00001251146002408F1240704E000F09DF9F5
:101CC00030323A55641C50EA0102F7D12B463246B5
:101CD00021464046BDE8F041FFF799BB00000000F7
:101CE0002D0000002B0000002000000030B4002177
:101CF00000F1240408E002F00705D208303542EA7A
:101D00004372DB086554491C52EA0305F3D10468A9
:101D1000002310A2250708D504F020040C4304D0AA
:101D2000C46901230CA2641EC46130BCFFF76FBB01
:101D300010B5044621461068FFF760FB02462046B6
:101D4000BDE810400023D1E7D21D22F00701D1E900
:101D50000023CBE700000000300000003A2800D24A
:101D6000303820F02002412A01D3A2F13700884206
:101D700001D34FF0FF3070470268114413780160BF
:101D800018467047D1600549794451610449794446
:101D9000116200211161114600F0BEB9EDFFFFFF95
:101DA000F3020000426842B1016811F8013B23B11F
:101DB000521EC0E90012184670470121C160881EFA
:101DC000704742685AB1C368016843B983688B425F
:101DD00005D0491E521CC0E90012002070474FF088
:101DE000FF3070472DE9F05F824615468B4600278D
:101DF0000AF10104B9460078302801D09DB113E002
:101E000014F8010B0127782803D0582801D045B1D8
:101E10000AE00DB1102D07D1002714F8010B102591
:101E200002E0082500E00A250026B0460EE005FB8A
:101E3000080005FB06F101271FFA80F801EB1046A8
:101E4000B6F5803F00D3B94614F8010B2946FFF7D9
:101E500085FF0028EBDABBF1000F05D00FB1641E3F
:101E600000E05446CBF80040B9F1000F06D0FFF770
:101E700057FA02210160C81EBDE8F09F48EA0640FB
:101E8000FAE70023036000F023BB2DE9F04116467A
:101E90000C460546FFF73CFA036893F80101012858
:101EA00007D0FF2C12D8185D80B101202C70BDE83E
:101EB000F081D3F807013246214603F20713C71811
:101EC0002846BC46BDE8F041002360474FF0FF3094
:101ED000EDE710B5002000F0EDFBFEF7BDFABDE820
:101EE000104001202FF0A8BA2DE9F0410746154611
:101EF0000E461020FFF718FA040013D06760C4E9FB
:101F000002650948AFF3008000F026F801682160FF
:101F100006490460002008600348AFF300800020F9
:101F2000BDE8F0810120FBE700000424000000244C
:101F3000014900F075BB00003C0A042400487047CA
:101F4000E00200240020704700487047E8020024A7
:101F5000004870470003002400487047180300241D
:101F6000704770477047704738B504460A460020EE
:101F70006946AFF30080002808BF38BD02460099CB
:101F8000204600F0C3FB012038BD012000F0FEBB5D
:101F9000F8B5AFF30080054600200C460C2000BFCA
:101FA0000646A819A0420DD9324669460020AFF373
:101FB0000080070008BF00F0E9FB0098A04218BFAE
:101FC0000546C419FFF7C0FF05600746F01D20F065
:101FD00007004619284600F00AF8B44208BFF8BDC9
:101FE000A21B31463868BDE8F84000F08FBB0021E5
:101FF0000160416070470C20704730B5B0F10A02B3
:1020000071F100034FEA900E4EEA817EB0EB0E00B4
:1020100061EB91014FEA101E4EEA017E10EB0E00BB
:1020200041EB11114FEA102E4EEA016E10EB0E003B
:1020300041EB11214FEA104E4EEA014E10EB0E001B
:1020400041EB1141401841F100014FEAD00040EA54
:1020500041704FEAD1014FEA810444EA907410EBD9
:10206000800544EB01046D1944EB0404521BA341A9
:102070004FF0000348BF0A3200D530BD401C41F18B
:10208000000130BD10B50446FFF742F90068005D5D
:1020900000F0010010BD00002DE9F0411F4604468C
:1020A00003260168072A01F4006004DB08B116A5C5
:1020B00005E016A503E008B115A500E015A521F07F
:1020C00010002060A069C01EA0610FB1401EA06179
:1020D0002046FEF71BFB4FB1D4E90121384690475B
:1020E000206A401C2062C01C206206E0206AFAE7D9
:1020F000D4E9012115F8010B9047761EF8D220464D
:10210000FEF71AFBBDE8F0814E414E006E616E0095
:10211000494E4600696E66002DE9F34F4FF0000A04
:102120000C4656468DB001200C9001F10C000B902E
:1021300062690B9801219047051E2DD0252D2CD0CA
:10214000216A8847C0B162690B9801219047216AD2
:1021500088470028F7D16269411E0B98904700E03C
:10216000761CA1690D988847216A88470028F7D115
:10217000E1690D988847DBE7A1690D988847A84277
:10218000074601D1761CD3E7E1690D9888477F1C8B
:1021900002D1BAF1000F6FD06BE162690B98002792
:1021A0003D46394690472A2804D162690B9801219F
:1021B00090470125DFF8D08262690B980121904792
:1021C000A0F130010A290AD24745E5DC07EB870177
:1021D00000EB4107303FDFD445F01005ECE7E9069E
:1021E00001D46FF000476C280AD04C2814D068281E
:1021F00015D06A280DD074281CD07A281AD01DE07A
:1022000062690B98012190476C2802D045F00405C3
:1022100014E045F002050DE045F020050AE0626992
:102220000B9801219047682802D045F0080505E089
:1022300045F4006562690B9801219047C4E9015794
:1022400065283DD019DC58287AD00CDC452837D0D9
:1022500004DC252826D041289ED131E046282FD005
:10226000472899D12CE05B2877D0612828D06328B3
:102270007CD0642823D15AE0F6E06F2848D008DCEF
:1022800066281DD067281BD0692821D06E2816D15A
:1022900027E0702845D0732868D0752847D0782863
:1022A0000DD14DE0A1690D988847252805463FF4DA
:1022B00069AFE1690D9888476D1C3FF46AAFD8E0BB
:1022C0000D9923466A466FF001003FF02CFFC5E0F0
:1022D00045F0400023464FF000026060A80736D466
:1022E0003EE0E8077FF447AF2068011D21600068E9
:1022F000290501D506701BE7290701D5068017E7D8
:10230000A90703D5F117C0E9006111E706600FE7DF
:1023100045F0400023464FF008026060A80716D43D
:102320001EE040F60E0125EA0100606016E045F06F
:10233000400023464FF00A026060A80707D40FE070
:1023400045F040006060A80708D5234610220D998B
:102350006FF00100AFF3008080E007E01022234619
:102360000D996FF00100FEF7FBFB77E04FF00009DD
:1023700063284F46C8464B46CB4602D05B2806D062
:1023800038E0E80601D40120A060012732E062694C
:10239000D4F80CB00B98012190475E2807D14FF07C
:1023A000010949466269D4F80CB00B98904721693D
:1023B00039B900210A4603AB43F82120491C0829FA
:1023C000FADBD8B3216949B308F1010862690B98B7
:1023D000012190475D28F4D1B9F1000F09D0002008
:1023E00003A951F82020D24341F82020401C08289E
:1023F000F7DB03AB2069002820794FEA40701ED03C
:102400005B462246CDF80080CDE901970D99002862
:102410006FF0010020DAAFF300801FE0C11703AABC
:1024200000EBD1614B1121F01F0102EB8302411A35
:1024300013680120884003431360C7E719E00D9932
:10244000224600286FF00100009702DAAFF3008007
:1024500004E0FEF72BFC01E0AFF3008000280ADA6D
:10246000401C06D10C9820B14FF0FF300FB0BDE8F2
:10247000F08F5046FAE7E90701D10AF1010A064454
:1024800000200C9054E60000CCCCCC0C0FB40B0018
:1024900010B54FF000048AB00FA900910E99CC60DE
:1024A000234C7C44234A7A44CDE9064200D00423DD
:1024B0006FF00042CDE901321F4A7A446B46089220
:1024C000024600203FF02FFE0AB010BC5DF814FB5E
:1024D000F0B507464FF0FF301E4615460C463B460A
:1024E00085B06A460091CDE9010131460020049093
:1024F00004A8FFF7CBFF04990346601825B109B182
:10250000024600E022462A6000290ED0002B02DDA0
:102510000099814209D03B466A463146001B00942F
:10252000CDE9010404A8FFF7B1FF05B0F0BD00003C
:10253000FFF8FFFF19F9FFFFC7FBFFFF2DE9F04789
:10254000814616468AB0354878440DC88DE80D009E
:1025500032487844801C03AC0DC884E80D0041F675
:102560009B300844372190FBF1F290FBF1F5A5F187
:10257000800501FB12041B3C02D56442012000E0EF
:102580000020DFF898A080460027FA44AAF1BE0A8E
:102590000EE0E0070AD03246684607EB4701012308
:1025A0000AEB81013FF042F88DE8070064107F1CC0
:1025B000002CEED1194F7F44AE3F19E0E80715D04B
:1025C00007EB04100DF1180A90E80E008AE80E00DF
:1025D000C068F04201D1981908903246012306A93B
:1025E00003A83FF023F803AB83E807006D10641CD9
:1025F000002DE3D14FF0010332466946B8F1000FD8
:1026000003A802D03EF0E8FF01E03FF00FF8C9E96F
:102610000001C9F808200AB0BDE8F0871CFD0300DE
:1026200070B50D46044604E029462FF065F8401CBD
:1026300004D014F8010B0028F6D170BD4FF0FF3024
:1026400070BD00002DE9F84306461548AFF3008041
:10265000FFF782FC134F8146E8464D4616E026B14F
:10266000E068B04201D0254610E0206828600C48A0
:10267000C7F80080AFF30080D4E90101884708481B
:10268000AFF300803968414500D04D462C68002CDE
:10269000E5D1002038600248AFF30080BDE8F88340
:1026A00000000424000000240148FFF74BBC000098
:1026B0000000042410B500F051F8BDE8104000F00F
:1026C00048B87546FFF73AFCAE46050069465346E2
:1026D00020F00700854618B020B5FDF7F7FEBDE8ED
:1026E00020404FF000064FF000074FF000084FF079
:1026F000000BAC46ACE8C009ACE8C009ACE8C009C6
:10270000ACE8C00921F007018D46704703464068D8
:102710008C46002818BF88423CBF03464068F8D367
:1027200018681844884207D00CF1030020F0070015
:10273000001D411A521A0146081D0A60FEF723BE09
:1027400010B50446AFF300802046BDE81040FDF709
:1027500091BE002801D02EF06FBE704710B5002149
:1027600002A000F097FA012010BD00005349474134
:102770004252543A2041626E6F726D616C207465F2
:10278000726D696E6174696F6E00000010B500F0C3
:102790009BFABDE81040FFF7DCBF00002DE9FF4FBA
:1027A00006468BB00878FF2806D0491C2D2805D096
:1027B00000244FF0000908E000200CE00124F8E7B5
:1027C00009EB8903491C00EB43090878FF28F7D17E
:1027D00014B1C9F100008146107800252C46AA46A4
:1027E00029462D2801D02B2804D1521C2D2813D086
:1027F000002082468B461078FF280FD04FF0000C47
:102800000A21521CA5FB017804FB018105FB0C1178
:10281000C5194BEB0104EEE70120EAE70021084669
:102820004FF00000BAF1000F02D000EB800040082A
:10283000C0F38157012F01DD4FF0FF370E9955EAA4
:10284000040009EB01080BD04FF0020918F5FA7FDC
:1028500016DA4FEACA70002F706008DD012007E029
:102860004FEACA70C6E900B00FB0BDE8F08F002093
:102870003060FEF755FDC0F800901821084616E0BC
:10288000B8F5FA7F18DD002F02DAF748784401E046
:10289000F6487844D0E90010C6E9001040EACA7052
:1028A0007060FEF73DFDC0F80090142108460FB09F
:1028B000BDE8F04F3FF0D0BB002108464FF00000CC
:1028C000B8F10001099002DAC7F1000200E03A46CF
:1028D00001DAC8F1000106A8FFF730FE06AB93E865
:1028E000070003AB83E8070044F23E005BEA040103
:1028F0000090584604D144F21E012C465D460091DA
:10290000210C0904014306D10099240444EA15442A
:102910002D041039009104F07F41014306D1009944
:10292000240244EA15642D020839009104F0704134
:10293000014306D10099240144EA15742D01091FB1
:10294000009104F04041014306D10099A40044EAFB
:102950009574AD00891E009104F00041084304D134
:1029600000986D196441401E00904FF001033A46F3
:102970006846B8F1000FCDE9014503A902DD3EF03C
:102980006AFE01E03EF03DFEBAF1000F04460D463E
:1029900001D084F00044002108464FF0000009995E
:1029A00040F2FF77484010F00C0F07D124F00040B0
:1029B000284303D0C4F30A50B84212D1FEF7B0FC4A
:1029C000C0F80090C4F30A50B8420AD1A84878442D
:1029D000D0E90010C6E9001004F00041084370601F
:1029E00042E7C6E900543FE72DE9FF4F1F464FF08D
:1029F000000A4FF0FF38454691B0D7E90146CDF8BF
:102A00003CA0FFF7A5FAC0680168405C1090B96966
:102A100012986D1C8847396A814688470028F6D18C
:102A2000B9F1FF3F0AD0002E24F4D06411DDB9F1D2
:102A30002B0F08D0B9F12D0F0BD102E0404615B095
:102A400013E744F48064B96912986D1C8847761EB8
:102A50008146600504A901D52D2000E02B20002E21
:102A600001F1010B0DF130088DF810003FDDB9F1D7
:102A7000690F08D0B9F1490F05D0B9F16E0F02D036
:102A8000B9F14E0F1CD13B4601A8009580E85002D9
:102A9000DDE912126FF002003FF049FBC11CCED1FC
:102AA0000EE0B96912986D1C884781461398761E0E
:102AB00044F4007405600F98401C002E0F9016DD42
:102AC000B9F1300FEDD0B9F1780F02D0B9F1580F4C
:102AD0000DD10F9801280AD13B46CDE90054DDE91C
:102AE0001212001F02963FF020FBC11CA7D11099C3
:102AF00089453ED144F0800406E01399681CAAF190
:102B0000010A44F400740860B9696D1C1298761EBD
:102B1000884730288146F0D02BE01099894505D1AF
:102B2000200603D4761E44F0800418E048463FF0A7
:102B300086F908B3761E0DF123029345A9F1300002
:102B400044F4007406D20BF8010B200607D5AAF155
:102B5000010003E0200602D40AF101008246A0052C
:102B600002D51399681C0860B96912986D1C8847D2
:102B70008146002ED1DC53E0002E51DDB9F1650F06
:102B800002D0B9F1450F4BD1A00549D5B9696D1CEB
:102B90001298761E24F440748847002E81460CDD7E
:102BA0002B2804D0B9F12D0F07D144F48074B969F2
:102BB00012986D1C8847761E8146E00501D52D21AF
:102BC00000E02B2108F8011BCDF8008021E0761EE3
:102BD0000DF13901884544F400740CD2A9F130009C
:102BE00010F0FF0088F8000002D10099884509D94B
:102BF00008F1010806E0E00501D51E4801E042F2B7
:102C00000F708246B96912986D1C884781461398E7
:102C10000560002E04DD48463FF011F90028D6D1AA
:102C2000F96912988847FF2053468BF8000088F80E
:102C3000000000200A900B9004AA0CA90AA8FFF734
:102C4000ADFDA00502D46FF00100F8E614F0240FEA
:102C500012D0E0071CD13868DDE90A12031D3B6081
:102C60000068C0E9001213E038460A002A460A004C
:102C7000EE440A00F1D8FFFF0AA968463EF0D8FFEB
:102C8000E00705D13868009A011D396000680260CC
:102C90002846D4E670B505460C460A2000E06D1CB7
:102CA0002EF0CEFB35B128780028F8D102E0641C64
:102CB0002EF0C6FB14B120780028F8D1BDE8704092
:102CC0000A202EF0BDBB000010B5012805D0002160
:102CD00003A0FFF7DFFF012010BD09A1F8E7000006
:102CE00053494752544D454D3A204F7574206F66F5
:102CF0002068656170206D656D6F7279000000005D
:102D00003A2048656170206D656D6F727920636F40
:102D10007272757074656400B2F120030AD5C2F155
:102D2000200301FA02F120FA03F341EA030100FA59
:102D300002F0704700FA03F14FF000007047000006
:102D40002DE9FF4F1F464FF03C0987B04FF000427E
:102D5000DDE9141001F10108DDF858A002EA405045
:102D60000390002005908346054604460490B96907
:102D7000461E08988847AAF1010A0290BAF1000F8E
:102D80003BDD02982E2815D01021FEF7E7FF002822
:102D90002EDB4FF0010B0599014317D0B9F1000F5D
:102DA0000BDB4A46C117FFF7B7FF05430C43A9F1F8
:102DB000040905E0012004900BE008B145F001058D
:102DC00001200590049820B9361D02E0049800B156
:102DD000361FB969089808F101088847BBF1000F50
:102DE000AAF1010A0290C9D00999C1F80080C5E78B
:102DF0000298702808D0502806D0F96908988847AA
:102E0000BBF1000F14D04FE0002002900120BBF175
:102E1000000F049009D0B969089808F101088847A3
:102E2000AAF10109B9F1000F07DCF9690898884790
:102E30006FF001000BB0BDE8F08F2B2804D02D28D7
:102E40000CD14FF0FF300490B969089808F10108DF
:102E50008847A9F10109B9F1000FE6DD411CE4D072
:102E60000A21FEF77BFF0028DFDB029908F1010849
:102E700001EB810100EB41000290B9690898884795
:102E80000A21FEF76BFF099AA9F10109B9F1000FB8
:102E9000C2F8008001DD0028E7DAF9690898884760
:102EA0000499029800FB016655EA040004D004F07E
:102EB0004041090002D006E0039898E0A40044EAEB
:102EC0009574AD00B61E04F00041080002D16D19E2
:102ED0006441761E159810F0240F03D04FF00B09B3
:102EE0005C4803E04FF028096FF07D0082465645AC
:102EF00007DAAAEB06018944B9F1410F01DD4FF071
:102F0000410901200021A9F10102FFF705FF024656
:102F100028400B462140084301D0012100E0002158
:102F2000501E029143F1FF3128402140084301D057
:102F3000012000E000200299834651EA0B014FD0A6
:102F4000002108464FF00000039900F4400039B119
:102F500000EB80004FF4400100EBD07001EA60000C
:102F60008015012802DD4FF0FF3000E013D0401C37
:102F700036D0029860B3BBF1000F0CD14A46012055
:102F80000021FFF7C9FE28402140084301D001205D
:102F900000E00020E0B101204A460021FFF7BCFE1E
:102FA000034640190A4661412D1A8C4111D3B9F1EB
:102FB000400F09DD159810F0240F02D0AAF1340655
:102FC00003E0AAF1170600E0761C00254FF000444C
:102FD00006E05B1E42F1FF3220EA030521EA02040B
:102FE000CAF10100B04206DA1B4903980843019078
:102FF000002000900EE0039AC4F3D321E80A0A43AC
:10300000164940EA44500A433146CDE90002684679
:103010003EF0C2FE159810F0240F0BD01598C00793
:1030200015D13868DDE90012031D3B600068C0E976
:1030300000120CE002A869463EF0FAFD1598C007A0
:1030400005D13868029A011D396000680260404667
:10305000F0E6000002FCFFFF0000F07F0000F03F00
:103060002DE9FF4F92461D4685B04FF00041DDE946
:10307000124BDDE914727F1E01EA4B50414940F0CA
:10308000FF4940EA0108002122F02000492804916C
:1030900002D04E2828D04CE03BA0012607C88DE87E
:1030A0000700A9690698641C88477F1E014606D45C
:1030B0001DF8060018B121F0200181420BD0E9690A
:1030C00006988847032E34D0082E32D06FF00100C6
:1030D00009B0BDE8F08F761C032E01D0082EE0D198
:1030E000601CCAF80000DCE7A9690698641C8847E0
:1030F0007F1E2AD420F02000412826D1A9690698F5
:10310000641C88477F1E20D420F020004E281CD14C
:10311000A9690698641C88477F1E48F4002849F472
:103120008009CAF8004001D4282806D0E969069829
:1031300088475FEACB7012D022E0A9690698641C28
:1031400088477F1E01D4002803DAE969069888477A
:10315000BCE72928F1D1641CCAF80040E9E71BF05C
:10316000240F07D028680499031D2B600068C0E96C
:10317000001805E02868021D2A600068C0F8009069
:103180002046A5E70000F07F494E46494E49545974
:103190000000000000000000B0B50446006842F2E4
:1031A000001140F48070C4F20201884218D142F24A
:1031B0000830C4F20200006810F4403F18D008F054
:1031C00077FF61680546B1F5803F05D0B1F5403F16
:1031D0002CD0B1F5003F2AD1080CB5FBF0F526E064
:1031E00046F20830C5F60200006810F4403FE6D110
:1031F0004FF40020002107F083FE61680546A1F529
:1032000080224FEAB2420A2A11D8DFE802F007070B
:103210000707070755535951570000BF6FF00100CA
:1032200000EA5140B5FBF0F501E000BFAD0805F044
:103230006BF841F2030188420ED8206842F6015132
:10324000C0F231118D4281682CBF41F4807121F4AC
:1032500080718160B0BD00BF4BF62140C0F2BE005E
:10326000854205D82068816821F440718160B0BD35
:1032700047F64100C0F27D10854207D82068012240
:10328000816862F309218160B0BD00BF20684FF200
:103290008101C0F2FA218D42816805D8022262F3D1
:1032A00009218160B0BD00BF41F440718160B0BDB3
:1032B000ED09BCE76D09BAE72D09B8E72D0AB6E7B5
:1032C000AD09B4E70000000070B5044600688268EC
:1032D000836802F0040203F00803D2186CD0C268BD
:1032E000920121D5627D012A1ED1227D012A1BD1A6
:1032F0000168490613D44DF60441C0F20C010439AB
:1033000050D0026852065CBF02685FEA426206D48F
:10331000026852065CBF02685FEA4262EFD5402154
:103320000160012106E000BF022903D10221082625
:1033300012E000BF826852070AD58268920707D45C
:103340004FF6C0738268C7F6FF731A40103282606E
:1033500001294FF0040610D0826812070AD582684E
:10336000920707D44FF6C0738268C7F6FF731A40FE
:1033700020328260032908BF0C2604F0CDFF2168AB
:103380008968314218D0054603E000BF80683042AA
:1033900012D004F0C1FF401B06282068F6D38168D4
:1033A0003142F3D0606D40F010006065A06D40F0D8
:1033B0000100A065012070BD002070BD000000006C
:1033C000B0B5016804468A688868C0074FF00000FD
:1033D00031D012F0020218BFB0BD886800F00D00B5
:1033E00001281FD14FF6C0728868C7F6FF721040DF
:1033F000023088600320086004F08EFF216889682D
:10340000C90701D10020B0BD054602E08068C007B1
:10341000F8D004F081FF401B03282068F6D38168B0
:10342000C907F3D0606D40F010006065A06D40F0FA
:103430000100A0650120B0BDF0B581B00446006870
:103440008168C9074AD14FF6C0778168C7F6FF7710
:1034500007F17F0211420BD0606D40F010006065F3
:10346000A06D40F00100A065012001B0F0BD00BFDB
:103470008168394041F00101816004F04DFF42F262
:10348000000246F20836C4F20202216802F5807397
:1034900002F54275C5F60206994208BF2E469142D2
:1034A00008BF2E4699420546306814D110F01F001F
:1034B00014D110E08868C00704D18868384040F013
:1034C0000100886004F028FF401B2168032802D314
:1034D0000868C007C0D00868C007EBD0002001B062
:1034E000F0BD00000000000050B180B501894068C7
:1034F000012204F001FF052004F042FD002080BD00
:103500000120704700000000F0B587B00C4605466A
:1035100000200590CDF80B00F021029001200491CD
:10352000002D18BF002C01D107B0F0BD29896868B3
:103530000022002704F0E0FE286804A902AA07235D
:10354000642600960AF0C8FE44F63C610646C2F2C4
:103550000041087006970698C7281CD800BF069837
:10356000013006900698C72815D800BF069801308C
:1035700006900698C7289FBF00BF069801300690A6
:103580009CBF0698C72806D800BF06980130069051
:103590000698C828E2D329896868012204F0ACFEA5
:1035A0003046002EC0D19DF8090095ED050A9DF822
:1035B0000A1095ED061A9DF80B2031EE401A09020B
:1035C0009FED1A2A41EA00409DF80C1010449DF826
:1035D0000D2003EE100A82EE011A12029FED142A4A
:1035E00042EA01419DF80E20B8EE433A9FED124A9F
:1035F0001144A5224A4333EE022A03EE102AC4E9FD
:10360000010182EE011A9FED0B2AB8EE433A9DF8B4
:1036100008002070002030EE010A03EE024A84ED1B
:10362000030A84ED044A07B0F0BD00BFCCCC4C4B7C
:10363000CDCCCCC900008033000020C200000000C7
:1036400070B584B0044600264FF0AA0002908DF8B1
:103650000660ADF80460DCB321896068002204F0E4
:103660004BFE206802A901AA0323642500950AF0F5
:1036700033FE44F63C610546C2F2004108700396F1
:103680000398C7281CD800BF039801300390039803
:10369000C72815D800BF0398013003900398C728A6
:1036A0009FBF00BF0398013003909CBF0398C728B9
:1036B00006D800BF0398013003900398C828E2D3CE
:1036C00021896068012204F017FE284604B070BD0D
:1036D0000125284604B070BD40F69400C2F20040B7
:1036E00090ED090A7047000040F69400C2F20040D5
:1036F00090ED0A0A7047000040F69400C2F20040C4
:1037000090ED080A7047000040F29000C2F20040BD
:1037100090ED080A7047000040F69400C2F20040A5
:10372000407870470000000040F69401C2F200416A
:103730004878421E032A11D809A0DFE802F01003DE
:10374000050D00BF10A07047C97909A20BA0002980
:1037500018BF1046704700BF03A070470DA0704708
:103760004D6F6E69746F720052616973652050000D
:10377000464F542B5261697365000000464F542038
:1037800070726F62650000004E6F20627265617436
:103790006800000049646C65000000000000000043
:1037A00040F29000C2F2004090ED0C0A7047000019
:1037B00040F290000021C2F20040C4F2201149F60C
:1037C0009A124FF0824301600021C4F2401141601F
:1037D0000021C3F61962C4F2701181604FF07E516E
:1037E000C1600021C3F6E07101614FF08141416188
:1037F0004FF080418161C261002201624CF6CD41EF
:10380000C3F64C5141624DF20A71C3F6A341816285
:103810004FF07D51C16240F69401C2F200410A703E
:103820004A71CA80CA62036300208A60CA700A6251
:103830004A628A620A714A7001F0A6BF0000000065
:1038400040F69400C2F200400079002818BF012021
:10385000704700000000000040F69400C2F20040F3
:10386000C078002818BF0120704700000000000049
:1038700040F69400C2F200404078032802D101F0E3
:1038800063BF00BF00207047B0B540F69404C2F299
:1038900000446079012818BFB0BD0020002501F068
:1038A00073FFE5710120E570A570A5606070B0BD83
:1038B000411E02293CD2B0B5B3EE091AB1EE002A7E
:1038C00040F694040238C2F200444FF00105B0FA09
:1038D00080F080FE410A80FEC11A65714FEA5010E7
:1038E000A07180FE020AB6EE002A08BF257040F2E1
:1038F000900030EE022AC2F2004080ED0D0AB4EED4
:10390000602AF1EE10FA32FE011A81FE001A80EDF3
:103910000E1A80ED0C0A0020A060A070E070E0712B
:1039200004F0FAFCE062002001F02EFF6570B0BDEB
:1039300040F694010020C2F2004100224A714A7010
:1039400001F022BF0000000040F694010020C2F206
:10395000004100224A71CA71CA708A608A704A7036
:1039600001F012BF00000000F0B581B02DED0E8B0C
:1039700040F6940640F29005C2F20046C2F20045BD
:103980000029727908BF022810D001EA020001283C
:1039900005D10020002401F0F7FEF471F47095EDDC
:1039A0000C0ABDEC0E8B01B0F0BD00BF002AECD0BC
:1039B000B5EE400AF1EE10FAF1DD9FEDED1AB4EE2E
:1039C000410AF1EE10FAEADC9FEDEAAAB0EE409A65
:1039D00020EE0A0A3EF004F895ED020A0446B5EE20
:1039E000400AF1EE10FA1BDD95ED020A20EE0A0AFC
:1039F000BCEEC00A10EE107A04F08EFCF16A401A98
:103A0000B8420DD20020002401F0BEFEF471012066
:103A1000F470707095ED0C0ABDEC0E8B01B0F0BD2A
:103A2000B3EE0EBA95ED010AB1EE00CA80FE4B0A64
:103A300080FE0C0A20EE0A0ABCEEC00A10EE100A44
:103A400002F01AFC78B17078032802D0707802284E
:103A500009D10020002701F097FEF7710120F770CF
:103A6000B770B760707070780138032800F22E814B
:103A7000DFE810F004000A012000CC000020002440
:103A800001F082FEF471F47095ED010A80FE4B0A9C
:103A900080FE0C0A20EE0A0ABCEEC00A10EE100AE4
:103AA00002F0EAFB002840F07A8102207070B460D6
:103AB00075E100BFB0EE040A95ED041AB6EE00DA27
:103AC0009FEDC2EA81FE400A95ED031AB4EE41EA89
:103AD000F1EE10FA80FE0D0A81FE400A3EFE000A59
:103AE00001F03EFEB2EE000A95ED051A81FE400A95
:103AF000B0EE001A80FE010A01F04EFE012001F036
:103B000043FE00F091F9B0EE408A03F029FB96EDF8
:103B1000041A9FEDAF3AB4EE418A0020F1EE10FA9C
:103B2000B8BF86ED048A96ED051A0021B4EE418AED
:103B3000F1EE10FAC8BF86ED058A96ED061AB2EED0
:103B4000048AB4EE410AF1EE10FAB8BF86ED060A17
:103B500096ED071AB4EE410AF1EE10FAC8BF86EDF1
:103B6000070A96ED050A96ED041A30EE410A96ED25
:103B7000071A96ED062A95ED074A31EE421A95EDA1
:103B8000085AB4EE431A9FED943A84FE433A85FEF8
:103B9000484A9FED905A80EE012A83FE0E3A84FE39
:103BA0000D4AF1EE10FAB4EE430A32FE052AF1EEA8
:103BB00010FAA8BF0120B4EE441A86ED080AF1EE0F
:103BC00010FA86ED091AB8BF012186ED0A2A0840CD
:103BD0003071F0682044F06095ED010A002480FE09
:103BE0004B0A80FE0C0A20EE0A0ABCEEC00A10EE58
:103BF000100A02F041FB002870D0002001F0C4FD43
:103C0000F471F470B470B4605CE000BF00F00CF9C3
:103C1000B0EE408A03F0A4FA86ED048A002086ED17
:103C2000058A9FED6A2A86ED060A86ED070AB0EE40
:103C3000040AF060F071F070B07095ED041A81FE26
:103C4000400AB6EE001A80FE010A95ED031AB4EEA2
:103C5000412AF1EE10FA81FE400A32FE000A01F01C
:103C60007FFDB2EE000A95ED051A81FE400AB0EE26
:103C7000001A80FE010A01F08FFD012001F084FD91
:103C8000032070708BE000BF0020002701F07CFD56
:103C9000B0682044B06095ED010A80FE4B0A80FEBA
:103CA0000C0A20EE0A0ABCEEC00A10EE100A02F05E
:103CB000E3FA002860D0002001F066FDF771F7708C
:103CC000B770B7600120707069E000BF0020002469
:103CD00001F05AFDF471F47061E000BF95ED060A41
:103CE000F06880FE480A80FE0D0A20EE0A0ABCEE4B
:103CF000C00A10EE101A884206D32DF0FDFBB070FA
:103D0000F071F07030F0C4F9F079012847D13078C3
:103D10002821002808BF2421B0792944012891EDE9
:103D2000000A0BD1B7EE001A95ED0B2A82FE411A5C
:103D3000B5EE002A81FE021A20EE010A9FED271A35
:103D400080FE410A9FED261A80FE010A95ED0C1AAD
:103D5000A0EE091A95ED0E0A85ED0C1A95ED0C1AD8
:103D6000B4EE401AF1EE10FA19DD85ED0C0A16E0FA
:103D7000CDCCCC3D00007A4495ED000AB1EE041A9A
:103D800080FE4B0AB06880FE010A20EE0A0ABCEEF3
:103D9000C00A10EE101A884201D32DF061FB95ED98
:103DA0000C0A95ED0D2A95ED0E1AB4EE402A80FE10
:103DB000411AF1EE10FA32FE010A85ED0C0A95ED7A
:103DC0000C0ABDEC0E8B01B0F0BD00BFCDCC4C3D5C
:103DD0009A99193E00C07944CDCC4C3FCDCC4C3E95
:103DE0000AD7A33B0000000040F29850C2F2004006
:103DF000417849B140F204000021C2F2044000F8C9
:103E0000031B00F8021C0AE040F204010130C2F278
:103E100004410A781AB94978002908BF704700217F
:103E2000017070470000000040F29850C2F200405C
:103E300090ED0E0A7047000040F29850C2F2004028
:103E400090ED1C0AB8EEC00A7047000000000000A8
:103E500040F29850C2F2004090ED0F0A7047000007
:103E600040F23410C2F2044090ED190A704700008D
:103E700040F2341140F2985040F2A062C2F2044184
:103E8000C2F20040C2F20442496E416300218163E4
:103E9000C16341648164C164016541658165C16537
:103EA000016641668166C166016741718171416742
:103EB00001648167C171017241728172A0F80B10B7
:103EC0004173C1810174C2E90011C2E90211C2E962
:103ED0000411C2E90611C2E9081141748162C1628C
:103EE00001F01ABC0000000040F29850C2F20040FD
:103EF0000079002818BF0120704700000000000072
:103F000070B540F29854C2F20044227922B1BDE863
:103F1000704001F0D9BA00BF0D46064601F068FBBB
:103F20003046294601222271BDE8704001F0CCBA2A
:103F300070B540F298560C46C2F200460546002085
:103F4000F07001F055FB2846214601F0BDFA012032
:103F5000307170BD0000000080B501F079FB40F2C7
:103F600098500021C2F20040017180BD00000000A5
:103F700040F29851C2F2004108B1CA7812B1C8703B
:103F8000704700BF40F23412C2F2044292ED191A97
:103F900091ED0E0A0A7881ED0D1ABAB140F2A063D4
:103FA0000022C2F204438A64CA660A67C3E9002297
:103FB0009A60012283ED060AA1F80B2081ED100A18
:103FC00081ED1E0AA1F80720C870704730EE411A33
:103FD000B6EE082A40F2A06C0023C2F2044C002284
:103FE000B0EEC11AB4EE421A9FED1A1AF1EE10FAB1
:103FF000D8BF81ED0D0A8A64B4EE410ACCF80020E6
:104000009FED151ACCF80420F1EE10FACCF8082038
:104010008CED060AC8BF0123CB7281ED100AA1F80E
:10402000072040F2040291ED0D0AC2F2044280FE24
:10403000010A92ED122AB1EEC01A91ED050A12782A
:10404000A2EE010A002A08BF81ED120A81ED1B0AC7
:10405000C87070470AD7233C000000000000000031
:10406000B0B5B3EE091A40F23414C2F2044440F27F
:104070009855C2F2004580FE410AB1EE001A80FE5A
:10408000010A84ED190AE87820B102F075F90028D8
:1040900008BFB0BD606E6863B0BD000000000000E6
:1040A000B3EE091A40F23410C2F2044080FE410A15
:1040B000B1EE001A80FE010A80ED190A40F2985014
:1040C000C2F2004080ED0D0A7047000000000000C1
:1040D000B5EE400AF1EE10FA41F32C812DE9F047DC
:1040E0002DED108B86B0B0EE409A9FEDAA0AB4EE8B
:1040F000409AF1EE10FA01F3188140F2A87040F2F4
:104100009855C2F20040C2F200459FEDA31A40F25A
:10411000A06690ED030AA87A20EE018AC2F2044656
:10412000012815D196ED050A687A38EE400AC0EEEE
:10413000099A88B196ED040A9FED981A20EE010ABB
:104140009FED971AA9EE810AF0EE409A06E000BFB3
:10415000DFED949A04E000BF01206872C6ED049A76
:1041600003F002F885ED0F8AB0EE48BA287828B13E
:1041700085ED0EBA287868B915E000BFF0EE400A68
:10418000B0EE480A16F0DCFFB0EE40BA85ED0EBA8C
:10419000287840B1287B012880F00100287341F085
:1041A000C4809FED819AE87AB7EE00DA40F2341AC3
:1041B000C2F2044AE0B19AED161A28789FED790A06
:1041C00000281EBF40F20400C2F2044090ED0F1A16
:1041D00096ED062A81FE4D1A81FE001A3DEE410A37
:1041E0002BEE000AA1EE020A86ED060A06E000BFE9
:1041F00086ED06BA0120E872B0EE4B0AF3EE098AAA
:1042000085ED100A9AED190AB1EE00AA287880FE11
:10421000680A80FE0A0A00BB95ED0D1A442030EEB4
:10422000412AB5EE402AF1EE10FAC8BF48205044AA
:1042300090ED003A29EE033AB4EE432AF1EE10FA7B
:1042400002DD31EE030A08E0B1EE434AB4EE442A3F
:10425000F1EE10FA01DA31EE430A85ED0D0A02F0B3
:104260008BF8002859D0A878002856D002F090F892
:10427000E97B012908BF002828D0E873E8780028E6
:1042800050D095ED0D0A687901280BD0A0B9B2EE97
:10429000011A0020B4EE410AF1EE10FAC8BF012065
:1042A0004FE000BFB1EE0E1AB4EE410AF1EE10FA83
:1042B0003EDA002045E000BFB2EE0D1A0220B4EE57
:1042C000410AF1EE10FAB8BF01203AE095ED0D0A6F
:1042D0009FED341A80FE010A00207060B06040F249
:1042E0000400B1EEC01AC2F2044090ED122A95ED1E
:1042F000050AA2EE010A687830B12878002804BFC8
:1043000086ED070A85ED0B0A95ED121AB4EE401AF8
:10431000F1EE10FAC8BF85ED120A0020E873E878C4
:104320000028AED1B069A8670120E87100F0FDBF98
:10433000B2EE0F1A0120B4EE410AF1EE10FAC8BF36
:104340000220687140F204042978C2F2044479B171
:1043500094ED0CFA94ED0D0A8DED040A0020D4EDD5
:104360000EAA6871287890B39FED0E0A33E000BF63
:1043700040B102281AD104F12C0004F1280104F103
:10438000240219E004F1140004F1100104F10C02FC
:1043900012E000BFCDCCCC3D0F86823F6666263F43
:1043A0003333B33E000000000AD7233C04F1200061
:1043B00004F11C0104F1180292ED00FA91ED000ADB
:1043C0008DED040AD0ED00AA28780028CCD1B0EEFB
:1043D000490A01F0F1F995ED0D1A96ED06EA2878F3
:1043E00030EE010A8DED050A002879D09DED050A11
:1043F00070EE4EBAC5ED11BA28782FEE2BFAD8BB65
:10440000B2EE0E0A94ED151A81FE400A1FED1B1A3A
:10441000C0FE01CA02F0A4FEB0EE40CA02F098FE4F
:1044200094F9020080FE0C1A80FE4C0A002100283C
:1044300094F902004FF0000221FE000AB1EE6C1A5E
:10444000B4EE6C0AF1EE10FAC8BF0122B4EE410AD4
:10445000F1EE10FAB8BF0121002858BF114601291A
:104460000AD19AED0D0AF4EE40BAF1EE10FA03DD2E
:104470000AF130000DE000BF287870B99AED0F0AFC
:10448000B1EE400AF4EE40BAF1EE10FA05DA0AF1A4
:10449000380090ED000A2FEE00FA95ED1E0AE8793B
:1044A0003EEE400A9AED171A002828785FED43EA9D
:1044B00080EE090A9FED9B2A0EFE800A002818BF95
:1044C00094ED101A287881FE4D1A002881FE021AF8
:1044D0003DEE412A6ED060EE02FA96ED000A6DE0E4
:1044E000607A00283FF482AFB2EE0E0ADAED0ADA03
:1044F000DAED0BCA94ED151A5FED56BA81FE400A4B
:10450000C0FE2BEA02F02CFEB0EE40CA02F020FE04
:1045100094F9020080FE0C1A80FE4C0A002100284B
:1045200094F902004FF0000221FE000AB1EE6E1A6B
:10453000B4EE6E0AF1EE10FAC8BF0122B4EE410AE1
:10454000F1EE10FAB8BF0121002858BF1146012929
:104550007FF44CAF8DFECD1A9DED050A30EE4B0A6F
:1045600081FE2B1AB4EE410AF1EE10FA7FF73EAF4E
:104570009FED6C2AB0EE003A31EE022A30EE410A8D
:104580008CFEC33AB4EE6C2AF1EE10FA32FE032A26
:1045900032EE411A80EE010A80FE4D0A80FE2B0A9F
:1045A0003DEE401A2BEE00EA96ED060AA1EE00EA77
:1045B0001CE700BF96ED003A62EE03FAE1EE00FA66
:1045C000C6ED00FAC5ED13FA01F0D6FE40B1A878A9
:1045D00030B101F0DDFE8046287858B904E000BF14
:1045E0004FF00108287828B9687818B12878002891
:1045F00000F09A80287848B15FED96DAF0EE6D8A87
:104600002878002840F03B847BE300BFF0EE6A8A04
:10461000687B012808D100202882C6E90700706263
:10462000A862E862A5F80D005FEDA2AA2078F0EE7E
:104630006ACA68B11FEDA50A9DED051A81FE000A40
:1046400094ED121AD5ED05CAB1EEC00AE1EE00CA2A
:1046500002F086FDB0EE40CA02F07AFD94F9020045
:1046600080FE0C1A80FE4C0A01210028287A29724B
:1046700021FE001A96ED030A86ED031A00286078E1
:1046800031EE400A80EE090A0AFE800A002818BFAF
:10469000012000EA0800012838D1B2EE0E2A94ED7C
:1046A000153A5FEDC0DA94F90200F0EE68AA83FED5
:1046B000422A002882FE2D2A00F17E80F0EE6C8ACC
:1046C000B4EE421AF1EE10FA05DD31EE421A94ED25
:1046D000132A61EE02DAE078002800F0A38094ED5E
:1046E000191A9FEDA12A81FE421AB2EE042A81FE18
:1046F000021AB4EE410AF1EE10FA40F3938030EE64
:10470000410A94ED181A20EE010A7DE0F0EE68AA45
:10471000B8F1000F5FEDDDDA01D100207060F0EE3E
:104720006C8A90E0CDCC4C3DB2EE0E0A94ED151A99
:104730005FEDE4DA81FE400AC0FE2DCA02F010FDF2
:10474000B0EE40CA02F004FD94F9020080FE0C1A9B
:1047500080FE4C0A4FF0000900284FF0000194F948
:10476000020021FE000AB1EE6C1AB4EE6C0AF1EE02
:1047700010FAC8BF0121B4EE410AF1EE10FAB8BF39
:104780004FF00109A279002858BF89462AB1A87BB9
:1047900069EA0000C00700F08780E079002800F097
:1047A0008780A87B002808BF99F0010040F0808036
:1047B0002EF0DAFD7CE000BFB1EE423AF0EE6C8AFA
:1047C000B4EE431AF1EE10FA3DDA31EE021A94ED2E
:1047D000132AE07861EE42DA20B394ED191A9FEDC6
:1047E000622A81FE421AB2EE042A81FE021AB1EE5A
:1047F000412AB4EE420AF1EE10FA13DA30EE010A61
:1048000094ED181A20EE410A94ED1A1A9FED572ADA
:1048100081FE421A9FED562A81FE021A80FE410A4D
:104820007DEE80DAF5EE40DAF1EE10FA0BDD94ED74
:10483000140A9FED501A80FE410A9FED4D1A80FE2A
:10484000010ACDFEC0DA94ED162A94ED173A96EDE2
:10485000010A3DEEC01AF4EE40DAF1EE10FA05DD81
:104860009FED453A82FE432A04E000BF9FED422AB5
:1048700083FE422A9FED413A82FE032A29EE022A54
:10488000B4EE421AF1EE10FA02DD70EE02DA30E216
:10489000B1EE423AB4EE431AF1EE10FA80F22982F8
:1048A00070EE42DA25E200BF9DED050A2EF034FCE1
:1048B000B8F1000F85F80E900ED06079F0B102F0DB
:1048C00053FCB0EE40CA02F057FC9FED291A8CFE53
:1048D000011A80FE013A20E09DED050A94ED121ABE
:1048E00080FE2D0AD5ED058AB1EEC00AE1EE008A00
:1048F000C6ED078AC5ED0B8AF9E100BF02F030FC76
:10490000B0EE40CA02F024FC94F9020080FE0C1ABA
:1049100080FE4C0A002821FE003A0820B9F1000F61
:1049200018BF0420504490ED000A287CCDED03AA66
:104930008DED003A20B380FE680AB6EE001A96EDBF
:10494000082A80FE010A9FEDCA1A20EE010A29EE0C
:10495000000A30EE0D1A80EE010A3DEE401A61EEBB
:10496000028AE0EE038A0FE00000FA4300007A4575
:10497000000000000000FA4500409C460000C842CC
:1049800001202874F0EE438AC6ED088AC5ED0A8A34
:104990000CF05AFCB0EE40CA0CF022FC80FE0C0A6F
:1049A000B2EE041A5FED0ECAC0FE01AA9DED050A23
:1049B00080FE2CDA16F0FCFBB0EE40CA16F000FCCC
:1049C00020EE2A0A9AED001A9FEDAA2A81FE421AC9
:1049D0002AEE800A8AFEAC2A81FE2C1AACEE2A0A44
:1049E000F0EEE8AA22EE011A85ED080A22EE011A7D
:1049F0003DEE002A85ED091A32EE012A85ED072ADF
:104A000094ED121AB1EEC20A95ED052AA1EE002A24
:104A10008DED022A85ED062A16F0CAFBB0EE40CADB
:104A200016F0CEFB2AEE800A9AED001A9FED912A2D
:104A30008DED01DA81FE421A2AEE800A88FEAC2A48
:104A400081FE2C1AACEE2A0A22EE011A85ED080A24
:104A500022EE011A3DEE002A85ED091A32EE012AF6
:104A600085ED072A94ED121AD5ED058AB1EEC20A3A
:104A7000B1EECD2AE1EE008A94ED120AD5ED05AA39
:104A8000E0EE02AA0CF0E0FBB0EE40CA0CF0A8FB8E
:104A900080FE0C0AB2EE041A80FE01DA16F088FBE2
:104AA000B0EE40CA16F08CFB20EE0D0A9AED001A0B
:104AB0009FED702AB9F1000F81FE421A2DEE000A17
:104AC0008DFE2C2A81FE2C1AACEE0D0A22EE011A64
:104AD00022EE011A9DED012A32EE002A85ED080A28
:104AE00085ED091A32EE012A85ED072A94ED121A96
:104AF000B1EEC20A95ED052AA1EE002A85ED062A3F
:104B000088FE820AC0FE2A8A41D0207AE8B396ED58
:104B1000090A9DED001A31EE400A0020B5EE409AD8
:104B20005FED6DCAF1EE10FAC8BF012080EE090AF0
:104B3000697CC00786ED091A4FF0010068749AED90
:104B4000041A1FED772A0CFE800A002981FE421A02
:104B5000B2EE042A0CFE800A81FE021AB4EE410A6B
:104B6000F1EE10FA11DD9AED032A30EE410A9AEDCA
:104B7000051A9FEDB83A81FE431A20EE020A1FED96
:104B8000842A81FE021AC0FE41CA78EEAC8ADDEDAD
:104B900003AAC5ED0B8A9FEDB00A9DED051A31EE13
:104BA000001A9AED070A1FED8C3A002080FE430A96
:104BB0001FED8E2AB4EE41BAB7EE00DAF1EE10FA2C
:104BC00080FE020AB8BF012029EE000A00EA0900AF
:104BD00001284FF0000007D19AED064A84FE4A4AA8
:104BE00084FE0D4A20EE040A9FED9C4A9DED055A75
:104BF00035EE044A9AED085A85FE433AB4EE44BABB
:104C0000F1EE10FAD8BF012083FE022A40EA090023
:104C1000C00789F001000BD19AED093A9FED904A47
:104C200083FE444AB4EE432AF1EE10FA32FE042A1F
:104C300000219DED024AB4EE41BAF1EE10FAB8BF80
:104C4000012196ED071A0840012817D1B4EE441A45
:104C5000F1EE10FA10DA30EE000A34EE412AB4EE2A
:104C6000402AF1EE10FA40F3978370EE018A3CE09F
:104C7000DB0FC9406F12833AC8FE848AF4EE418A82
:104C8000F1EE10FA0ADD38EEC12AB4EE402AF1EE58
:104C900010FA1ADD70EE018A20E000BF0020F4EE69
:104CA000448AF1EE10FAA8BF0120C00704FE280ACA
:104CB000B9F1000F40FE288A29EE020A38EEC12A17
:104CC000B4EE402AF1EE10FAE4DCB1EE403AB4EE74
:104CD000432AF1EE10FA01DA71EE408AF4EE448ACA
:104CE000F1EE10FA01DAF0EE448AC6ED078A0120EF
:104CF0006873C6ED01DAC5ED18DA2878002840F0AF
:104D0000BE802079002818BF012000EA0800012891
:104D10006ED1B2EE0E0AB0EE68AAF0EE6A8AD4ED59
:104D20001EAA94ED151A5FEDEEEA81FE400AF0EE40
:104D30004DCA80FE2EDA02F013FAB0EE40CA02F03D
:104D400007FA94F9020080FE0C1A80FE4C0A00213A
:104D5000002894F902004FF0000221FE000AB1EE93
:104D60004D1AB4EE4D0AF1EE10FAC8BF0122B4EEAE
:104D7000410AF1EE10FAB8BF0121002858BF1146D0
:104D800001293DD18AFEEC0A9DED051A31EE4B1A40
:104D9000B0EE6CDA80FE2E0AB4EE401AF1EE10FA94
:104DA00030DD94ED1C0A9FEDD61A80FE410AF0EE2C
:104DB00068AAF0EE4A8A80FE0D0AB1EE401AF4EEBF
:104DC000419AF1EE10FA21DA94ED1B1A39EE800ABD
:104DD00094ED1D2A9FEDCB3A82FE432A20EE410A34
:104DE0009FEDC91A82FE011AC0FE41EA0EE000BF23
:104DF000B8F1000FDFEDC4EA08D10020B06005E093
:104E0000B0EE6CDAF0EE68AAF0EE4A8A94ED162A5B
:104E100094ED173A96ED020A3EEEC01AF4EE40EA1F
:104E2000F1EE10FA04DD9FEDB93A82FE432A03E069
:104E30009FEDB62A83FE422A9FEDB53A82FE032AF1
:104E400029EE022AB4EE421AF1EE10FA0ADD70EEF3
:104E500002EA10E000409C450AD723BD0AD7233D53
:104E60000050C346B1EE423AB4EE431AF1EE10FAE6
:104E700001DA70EE42EAC6ED02EAC5ED19EA95EDF7
:104E80000C0AB8EEC0CA9AED140A2878F8EEC09A57
:104E9000A8B19FED9D0A9DED051A81FE000A94EDD3
:104EA000121A95ED052AB1EEC00AA1EE002A94ED82
:104EB000110A22EE000A80FE690AC0FE0C9A9AEDE1
:104EC000190A95ED0D1A2878002748B930EE410AE5
:104ED0009AED181AB4EE410AF1EE10FAC8BF012794
:104EE0006AEEEFAAE07A7DEEAEDADFED87EAB0B3E4
:104EF000AFBB95ED120A38EEAD1A3FEE000A002066
:104F0000002100223AEE800A31EE000A9FED7E1A5F
:104F1000B4EE4C0AF1EE10FAF5EE40BAB8BF01203B
:104F2000F1EE10FAB4EE690AB8BF01219DED040A52
:104F300020EE2B0AF1EE10FAF5EE40BAD8BFC143CD
:104F4000F1EE10FAC8BF012229EE000AD20701FED5
:104F5000002AC00701FE021AC80741FE00EA95EDCB
:104F6000120A68787EEE80CA002850D0287800287F
:104F70004DD1B2EE0E0A94ED151AB0EE68AADFED2F
:104F8000628A81FE400AC0FE28FA02F0E9F8B0EE1B
:104F900040BA02F0DDF894F9020080FE0B1A80FEA0
:104FA0004B0A002200284FF0000021FE000AB1EE5B
:104FB0006F1AB4EE6F0AF1EE10FAD8BF012094F91F
:104FC0000210B4EE410AF1EE10FAA8BF01221FED63
:104FD0005D0A002958BF0246F4EE40BA0020F1EE07
:104FE00010FA4FF00001F5EE40CAC8BF0121F1EE02
:104FF00010FAB8BF0120C907C0070CFEA80A002993
:10500000F0EE4A8A0CFE800A002A4CFE80CA38EE76
:10501000AD0AE07A3FEE001A31EE2C2A3AEE82BA5F
:1050200008B32878F8B99AED102AB5EE402AF1EEC7
:1050300010FA18DD9AED0F2AB1EE422AF4EE42BAC8
:10504000F1EE10FA0FDA9AED102A9FEDDE3A82FEA9
:10505000432A9FEDDB3A82FE032A95ED1B3A09EEC7
:10506000423A8BFE43BAB4EE69BAF1EE10FA04DDAF
:10507000F5EE40EAF1EE10FA09DCB4EE4CBAF1EECE
:1050800010FA21DAF5EE40EAF1EE10FA1CDAD5ED6D
:1050900012CA31EE2C2A3AEE82BAE07A9FEDC69A15
:1050A000002853D09AED192A287898B39AED142A3B
:1050B000B8EEC22AF4EE42CAF1EE10FA39DD31EE52
:1050C000021AF0EE42CA3FE0E07AB0FA80F04009FE
:1050D0003843C007E1D13CEE682A39EEE83A32EEB7
:1050E0006D2A33EE6D3A32EE4F2A33EE4F3A32EEFE
:1050F0006A2A33EE6A3A8CFE822AC2FE43CAC8E7A5
:105100000000A0420000FA450000000000409C465C
:105110000000C842207828B9607818B920790028A2
:1051200000F014819AED152AF4EE42CAF1EE10FA5D
:10513000C5DCB1EE423AF4EE43CAF1EE10FA05DAFC
:1051400031EE421AF0EE43CA3AEE81BAE07A38B94B
:10515000DFED98AAB0EE40BAB0EE6AFAD5ED12CA09
:10516000A07ADFED94BA002864D0207828B960785E
:1051700018B92079002800F0DF802878002859D15C
:1051800001F0FAF8002855D1DFED8ADA9DED050A25
:1051900080FE2DAA94ED121AD5ED05BA6878B1EE0D
:1051A000CA0A0028E1EE00BA42D0287800283FD190
:1051B0000CF04AF8B0EE409A0CF012F880FE090AA2
:1051C000B2EE041AF0EE4DEA80FE01DA15F0F0FFBF
:1051D000B0EE409A15F0F4FF20EE0D0A9AED001A99
:1051E0009FED762A81FE421A2DEE000A8DFE2D2AB1
:1051F00081FE2D1AA9EE0D0AB0EE6EDA22EE011A2A
:1052000085ED080A22EE011A3AEE002A85ED091A08
:1052100032EE012A85ED072A94ED121AB1EEC20A88
:1052200095ED052AA1EE002A85ED062AC2FE2BBACD
:105230009FED619A0020B4EE6BBAF1EE10FAB8BFA0
:105240000120F5EE40BAC5ED12CAC0074FF00000CC
:105250000BFE2B0A85ED14FAF1EE10FAC5ED15CA16
:1052600030FE0B0AC5ED16AAC5ED178A85ED1A0AA0
:1052700080FE691AB4EE40CAF1EE10FA3CFE011A43
:10528000B4EE401AF1EE10FA18BF0120F5EE40BA64
:10529000A8719AED130A95ED1B3A80FE090AF1EE0A
:1052A00010FA80FE4D0A3DEE402A23EE022AA0EEBF
:1052B000012A85ED1B2A08DD95ED1B0AB4EE6B0A69
:1052C000F1EE10FAB8BFC5ED1BBA95ED1B0A80FED2
:1052D000691AB4EE40CAF1EE10FA3CFE010A95EDEF
:1052E0001B1AB4EE410AF1EE10FA03D085ED1B0A49
:1052F0000120A87195ED1B0A3CF072FB2A6BDAF8CD
:1053000050108842B8BF01469042B8BF11460846C7
:10531000296700F03DF985ED1EEA0120E87186ED70
:10532000058AA872686F0130686706B0BDEC108B03
:10533000BDE8F047704700BF687800283FF47AAFB7
:10534000287800287FF476AF17E700BF687818B197
:10535000287800283FF4E6AE9FED163A82FE032A35
:1053600094ED123A95ED054AB1EEC22AA3EE024A37
:10537000B7EE042A9AED153A24EE022AB4EE432A37
:10538000F1EE10FAD8BF9AED152AF4EE42CAF1EE0A
:1053900010FA3FF794AECCE6B1EE403AF0EE448A14
:1053A000B4EE432AF1EE10FABFF69FAC71EE408ADC
:1053B0009BE400BF00000000CDCC4C3D6F12833A4F
:1053C0000000FA4300606A4618B340F20001C3F6D9
:1053D0000001BFF35F8F8A8B0280CA8B42800A8CE8
:1053E00082804A6A82608A6AC2608A8D0282CA8D1D
:1053F000428291F83020002A18BF0122027591F8EC
:105400003120002A18BF01224275CA688968C0E9A4
:105410000621002818BF012070470000000000008E
:1054200080B582B000F044F944F2E040C5F60200D5
:10543000016841F000710160006800F000700190A7
:10544000019802B0BDE8804000F036B900000000CD
:1054500070B540F2000544F62066C3F6000545F23B
:105460005272B142C4F24C2238BF0E46002929685C
:1054700048BF00269142044601D000F01DF9052CDA
:1054800020D8DFE804F00311090D0513AE870FE003
:10549000A5F844600CE000BFA5F8406008E000BF3C
:1054A000A5F8426004E000BFEE8701E0A5F8466081
:1054B000BFF35F8F686B01306863BFF35F8F0120BC
:1054C00070BD00BF002070BD70B582B048F6B06CF2
:1054D00048F6B06503466045B8BF054647F2501030
:1054E0000C46CFF6FF7043F6A0418542C0F604019A
:1054F000D8BF05469D4203D11DA20320009403E0BE
:1055000012A20220CDE9005C00F06AFB40F2000626
:1055100045F25271C3F60006C4F24C21306888424D
:1055200001D000F0C9F80320306175610021348397
:10553000BFF35F8F706801307060BFF35F8F012031
:1055400002F002FF012002B070BD00BF73706565FC
:105550006420256C6420636C616D70656420746FD9
:1055600020256C6420286D61783D256429000000A9
:1055700073657420737065656420256C6420727097
:105580006D2C2072616D703D2575206D73000000DB
:10559000B0B540F2000545F25272C3F60005C4F200
:1055A0004C2204462968914201D000F085F848F663
:1055B000B06047F250118442CFF6FF71B8BF204669
:1055C0008842D8BF084603212961686100202883EA
:1055D0000021BFF35F8F686801306860BFF35F8FA1
:1055E000012002F0B1FE0120B0BD0000000000006B
:1055F00010B543F6A04112A2C0F60401032000F04A
:10560000EFFA40F2000445F25271C3F60004C4F20E
:105610004C212068884201D000F04EF80120206122
:105620000020606120830021BFF35F8F606801303C
:105630006060BFF35F8F012002F086FE012010BD85
:10564000636D642053544152540000000000000078
:1056500010B543F6A04112A2C0F60401032000F0E9
:10566000BFFA40F2000445F25271C3F60004C4F2DE
:105670004C212068884201D000F01EF802202061F1
:105680000020606120830021BFF35F8F60680130DC
:105690006060BFF35F8F012002F056FE012010BD55
:1056A000636D642053544F50000000000000000060
:1056B000704700000000000040F2000045F2527107
:1056C000C3F60000C4F24C2102688A4208BF70474A
:1056D0000160002141608160C1600161416101831D
:1056E00041838183C1830184416281628185C18557
:1056F00080F8301080F831104186416381638187E2
:10570000C187A0F84010A0F84210A0F84410A0F8FB
:105710004610A0F84810704740F2205040F2800236
:10572000C2F20040C2F2044200214FF07E530170E9
:1057300013604FF08143536041608160C1604170EC
:10574000704700000000000040F22050C2F200400C
:105750000078002818BF01207047000000000000FA
:10576000B0EE081A40F28000C2F2044080FE410A06
:105770009FED031A80FE010A80ED000A704700BF0A
:10578000000000000000000040F22051C2F2004181
:105790000870704700000000B3EE041A40F2800069
:1057A000C2F2044080FE410AB6EE001A80FE010AF1
:1057B00080ED010A7047000010B52DED028BB5EEAB
:1057C000400AF1EE10FA13DD9FED4D1AB4EE410AD6
:1057D000F1EE10FA0CDC40F22054C2F200442078C2
:1057E00080B1617871B90021616060700DE000BF27
:1057F00040F22050C2F2004090ED020ABDEC028B54
:1058000010BD00BF0028607072D040F28000B3EE7F
:10581000041AC2F2044090ED012A90ED003A82FE93
:10582000411AB6EE002A81FE022A94ED011AA2EE78
:10583000001AB0EE082AB7EE000A83FE422A9FED56
:10584000313AB4EE401AF1EE10FA31DA82FE038AF0
:1058500002E000BF31EE001AB5EE401AF1EE10FA88
:1058600014DA31EE001AB5EE401AF1EE10FA0DDA44
:1058700031EE001AB5EE401AF1EE10FABEBF31EE6D
:10588000001AB5EE401AF1EE10FAE3DB9FED1E0AA6
:1058900084ED011A21EE000A3CF0C6F828EE000A59
:1058A00084ED020AE0680130E060BDEC028B10BDBF
:1058B000BFEE004A31EE041AB4EE401AF1EE10FACF
:1058C000C4DB31EE041AB4EE401AF1EE10FAA2BFB6
:1058D00031EE041AB4EE401AF1EE10FAB6DB31EEF6
:1058E000041AB4EE401AF1EE10FAE3DAAEE700BFA4
:1058F0000020A0609FED030ABDEC028B10BD00BF2D
:10590000CDCCCC3D00000000DB0FC9400000000002
:1059100081B04FF60401C2F20341086044F2F44141
:10592000C5F602010A6842F480320A600A6802F48D
:1059300080320092009AD1F80C2342F48072C1F8B0
:105940000C2344F29801C5F60001086001B07047CD
:10595000FEE700000000000000207047000000008B
:10596000002070470000000010B544F6406441F28A
:105970003431C2F20044C2F200410022204616F047
:1059800053FB40F634312046C2F2004116F03CFB96
:10599000002010BD00000000B0B50968044611F0F9
:1059A0008FFC44F640652146C2F20045284616F0B9
:1059B0002BFB284616F004FB0020B0BD00000000C1
:1059C000002070470000000044F64062C2F200422E
:1059D000D2F8BC22D2F81422002A1CBF0120704742
:1059E00010B544F640640A46C2F20044014620461F
:1059F00016F01AFB2046BDE8104016F099BB0000D7
:105A00004EF61450CEF20000416F41F47001416730
:105A1000016821F008010160BFF34F8FBFF36F8F62
:105A200070470000B0B5304A4CF24025136823F0AF
:105A3000010313602D4A4FF6F07314681C40AC420A
:105A400005D0146823404CF27024A3422BD12B4A7A
:105A5000126832B12B4A012393609368002BFCD16A
:105A60001AE0274A13686FF31F33B3F58A6F0DD01E
:105A7000136840F283446FF31F33A34206D01268C9
:105A800040F285436FF31F329A42E3D11E4A01234D
:105A900093609368002BFCD110601068401AB0FA34
:105AA00080F04009B0BD14684FF6F0734DF2202528
:105AB0001C40AC4205D012681A404DF230239A4285
:105AC000C8D10B4A0B4CD2F8F833A3420AD1D2F812
:105AD000FC33094CA34205D1012393609368002B4A
