:020000040810E2
:1000000040200010C1031008D9651008A15910083C
:10001000D565100809151008ADAF100800000000E4
:10002000000000000000000000000000459A1008D9
:100030008D16100800000000496A1008499A10083F
:10004000ED031008ED031008ED031008ED03100890
:10005000ED031008ED031008ED031008ED03100880
:10006000ED031008ED031008ED031008ED03100870
:10007000ED031008ED031008ED031008ED03100860
:10008000ED031008ED031008A1081008ED03100897
:10009000ED031008ED031008ED031008ED03100840
:1000A000ED031008ED031008ED031008ED03100830
:1000B000ED031008ED031008ED031008ED03100820
:1000C000ED031008ED031008ED031008ED03100810
:1000D000ED031008ED031008ED031008B9AD10088A
:1000E00091161008ED03100800000000A99A1008EE
:1000F000019B1008ED031008ED031008ED03100834
:10010000ED031008ED031008ED031008ED031008CF
:10011000ED031008ED031008ED031008ED031008BF
:10012000ED031008ED031008ED031008ED031008AF
:10013000ED031008ED031008ED031008ED0310089F
:10014000ED031008ED03100800000000000000009F
:10015000ED031008ED031008ED031008ED0310087F
:10016000ED031008ED031008ED031008ED0310086F
:10017000ED031008ED031008ED0310080000000067
:10018000ED031008ED031008ED031008ED0310084F
:10019000ED031008ED031008ED031008ED0310083F
:1001A000ED031008ED031008ED031008ED0310082F
:1001B000ED031008ED031008ED031008ED0310081F
:1001C000ED031008ED031008ED031008ED0310080F
:1001D000ED031008ED031008ED031008ED031008FF
:1001E000ED031008ED031008ED031008ED031008EF
:1001F000ED031008ED031008ED031008ED031008DF
:10020000ED031008ED031008ED031008ED031008CE
:10021000ED031008ED031008ED031008ED031008BE
:10022000ED031008ED031008ED031008ED031008AE
:10023000ED031008ED031008ED031008ED0310089E
:10024000ED031008ED031008ED031008ED0310088E
:10025000ED031008ED031008ED031008ED0310087E
:10026000ED031008ED031008ED031008ED0310086E
:10027000ED031008ED031008ED031008ED0310085E
:10028000ED031008ED031008ED0310080000000056
:10029000ED031008ED03100800F002F800F080F8FC
:1002A00014A696E8000CB244B344DA4501D100F03C
:1002B00077F8BAE80F000FA696E83000A5EB040522
:1002C00004EB0607AAEB0704A7F101074FEA15158F
:1002D0004FEA3414A4F10104AC4201D300F060F8F9
:1002E00013F0010F18BFFB1A43F0010300F001F8EF
:1002F000DBE7184794BC0000D4BC00000A444FF070
:10030000000C10F8013B13F0070408BF10F8014B74
:100310001D1108BF10F8015B641E05D010F8016BB9
:10032000641E01F8016BF9D113F0080F1EBF10F81D
:10033000014BAD1C0C1B09D16D1E58BF01F801CB40
:10034000FAD505E014F8016B01F8016B6D1EF9D5C3
:100350009142D6D370470000103A24BF78C878C1C4
:10036000FAD8520724BF30C830C144BF04680C60BB
:10037000704700007047000000230024002500267D
:10038000103A28BF78C1FBD8520728BF30C148BFF8
:100390000B6070471FB50BF09DFB1FBD10B510BD66
:1003A00000F0BAF91146FFF7F5FF0AF063FF00F01D
:1003B000D8F903B4FFF7F2FF03BC0AF023FF0000F3
:1003C0000E490F4808600F494FF0FF0008600E48C3
:1003D00080470E4880470E480047FEE7FEE7FEE7ED
:1003E000FEE7FEE7FEE7FEE7FEE7FEE7FEE70000CA
:1003F00008480949094A0A4B70470000047804106C
:10040000FF0000C408780410A91610088D9A10087F
:1004100099021008401A001040200010401C0010E3
:10042000401C001053EA020C00F069802DE9F04BEB
:100430004FF00006002B1FBFB3FA83F503FA05F453
:1004400024FA05F65E4012BF1643B2FA82F502FAAC
:1004500005F4C5F120051EBF22FA05FC44EA0C0490
:10046000203556EA044C4FEA144418BF641C4FF080
:1004700000084FF00009904271EB030C39D30029BA
:1004800019BFB1FA81F701FA07F6B0FA80F700FA5E
:1004900007F6C7F120071EBF20FA07FC46EA0C0644
:1004A0002037B6FBF4FCA7EB0507103F07F01F0B46
:1004B000CBF120062CFA06F60CFA0BFB44BFB34630
:1004C0000026202FA4BF5E464FF0000B5BEA060C0F
:1004D00008BF4FF0010B19EB0B0948EB0608ABFB0B
:1004E000027C06FB02CC0BFB03CCC01B71EB0C01A6
:1004F000C1E70B46024641464846BDE8F08B13B5BE
:10050000084318BF4FF0FF300146AFF30080BDE84D
:100510001C40704753EA020C23D010B54C1084EAFB
:10052000530404D54042C1F1000138BF491E1B42AB
:1005300004D55242C3F1000338BF5B1EFFF772FFC0
:1005400014F0804F04D04042C1F1000138BF491E71
:1005500014F0004F04D05242C3F1000338BF5B1EB9
:1005600010BD13B540424FF0000070EB0104B8BF5E
:10057000012001F0004100281CBF6FF000414FF046
:10058000FF30AFF300801CBD032A40F2308010F032
:10059000030C00F0158011F8013BBCF1020F62441E
:1005A00098BF11F801CB00F8013B38BF11F8013BAF
:1005B000A2F1040298BF00F801CB38BF00F8013B5C
:1005C00011F0030300F02580083AC0F0088051F8CC
:1005D000043B083A51F804CBA0E80810F5E7121DD7
:1005E0005CBF51F8043B40F8043BAFF30080D207F6
:1005F00024BF11F8013B11F801CB48BF11F8012BC2
:1006000024BF00F8013B00F801CB48BF00F8012BE4
:10061000704710B5203AC0F00B80B1E81850A0E840
:100620001850B1E81850A0E81850203ABFF4F5AFC0
:100630005FEA027C24BFB1E81850A0E8185044BF1C
:1006400018C918C0BDE810405FEA827C24BF51F889
:10065000043B40F8043B08BF7047D20728BF31F87D
:10066000023B48BF11F8012B28BF20F8023B48BFCE
:1006700000F8012B70474FF000020429C0F01280EF
:1006800010F0030C00F01B80CCF1040CBCF1020F45
:1006900018BF00F8012BA8BF20F8022BA1EB0C011A
:1006A00000F00DB85FEAC17C24BF00F8012B00F810
:1006B000012B48BF00F8012B70474FF0000200B536
:1006C000134694469646203922BFA0E80C50A0E875
:1006D0000C50B1F12001BFF4F7AF090728BFA0E823
:1006E0000C5048BF0CC05DF804EB890028BF40F8EF
:1006F000042B08BF704748BF20F8022B11F0804F31
:1007000018BF00F8012B7047704770477047000012
:1007100000487047080500107546FFF7F9FFAE4620
:1007200005006946534620F00700854618B020B5FD
:10073000FFF75EFEBDE820404FF000064FF00007D7
:100740004FF000084FF0000BAC46ACE8C009ACE835
:10075000C009ACE8C009ACE8C00921F007018D462A
:10076000704710B50446AFF300802046BDE8104046
:10077000FFF71FBEB0B50446006842F2001140F416
:100780008070C4F20201884218D142F20830C4F2EB
:100790000200006810F4403F18D004F02FF86168A0
:1007A0000546B1F5803F05D0B1F5403F2CD0B1F5FD
:1007B000003F2AD1080CB5FBF0F526E046F20830E0
:1007C000C5F60200006810F4403FE6D14FF4002067
:1007D000002103F095F861680546A1F580224FEAF3
:1007E000B2420A2A11D8DFE802F007070707070715
:1007F00055535951570000BF6FF0010000EA5140B6
:10080000B5FBF0F501E000BFAD0802F05BFD41F281
:10081000030188420ED8206842F601528168C0F276
:10082000311295422CBF41F4807121F480718160B6
:10083000B0BD00BF4BF62140C0F2BE00854205D8D6
:100840002068816821F440718160B0BD47F64100A5
:10085000C0F27D10854207D820680122816862F3CA
:1008600009218160B0BD00BF20684FF2810281681C
:10087000C0F2FA22954205D8022262F30921816072
:10088000B0BD00BF41F440718160B0BDED09BCE76F
:100890006D09BAE72D09B8E72D0AB6E7AD09B4E747
:1008A00042F20000C4F202000168490644BF402140
:1008B000016009F0F3B9000090F86510012947D0F4
:1008C000002918BF7047C1694BF60C3CCAB2C0F68C
:1008D000100C1CF80220C1F307235A401CF8022018
:1008E000C1F307435A401CF8022082EA11621CF847
:1008F0000220002A1EBF042180F86210704701F018
:100900000F02531F022B826625D3092A1EBF012125
:1009100080F862107047C1F30B12A0F85C20D2B1CE
:10092000B0F85E108A4282BF022180F862107047E0
:1009300010B5D0E905C190F86C30D0F854E002EB66
:10094000430204466046F047012084F8650010BD6C
:10095000002180F86510012180F8611070470000C7
:1009600010B5044690F82400032807D194F82E000F
:100970000021022884F8241007D01FE0A16C002277
:100980008A7194F82E1002290AD154F8281F236B7B
:1009900054F8140CA288246298470320A07110BD5B
:1009A00002280BD16069A36D04F120010422A16427
:1009B0009847032084F8240010BD00BF72B6636C12
:1009C000E3B16069D4F858E019689A884FF0030CD5
:1009D000A36483F806C0F04794F83600022803D0D9
:1009E00094F83E0002280DD104F13000616C2044DF
:1009F000401A3830606462B610BD00BF0020A064A9
:100A000062B610BD0020606462B610BD80B50346BA
:100A10004FF0000E4069D3F854C003F11C010422CA
:100A200083F865E0BDE88040604700002DE9F047AD
:100A3000044654F81C2F002594F845300D80012BF6
:100A40007AD190F8643080F86150022B00F0108168
:100A5000012B00F09D80002B40F08F82816E0629D3
:100A600000F09481052940F08882C56990F86CA057
:100A7000EEB24FEAD61CBAEBD61F38BF4FF0000CCF
:100A800090F86D70C5F30522914680F86CC09742CE
:100A900038BFB94690F86E30C5F3863880F86D904F
:100AA000984598BF434690F86F10C5F3465E8E4553
:100AB00080F86E3098BF7146BAEBD61F80F86F1081
:100AC00028BF974204D3984508BF8E4500F0668240
:100AD00090F870204BF60C36120142EACC1242EA32
:100AE000092242EA833242EA41514B1DDFB2C0F68D
:100AF0001006F75DC2F307227A40B25CC1F30747E4
:100B00007A40B25CC1F3036151404BF65452C0F6D7
:100B10001002515C43EA0172014641F8202F72B67F
:100B20008A6A002A00F0C68162B690F82410002973
:100B300040F0228209E200BF90F86210002900F024
:100B4000E6804BF60C3381F00902C0F610039A5C84
:100B500001EB01275140595C4BF65452C0F610028C
:100B6000515C3A0242EA017101F10F02014641F87B
:100B7000202F72B68A6A002A00F0B68062B690F81A
:100B80002410002904BF022180F82410B8E000BF1F
:100B9000816E062900F0BE80052940F0EE81C16912
:100BA00090F86CA0CFB24FEAD71CBAEBD71F38BF72
:100BB0004FF0000C90F86D60C1F30522914680F86B
:100BC0006CC0964238BFB14690F86E30C1F386389B
:100BD00080F86D90984598BF434690F86F50C1F3E8
:100BE000465EAE4580F86E3098BF7546BAEBD71FAB
:100BF00080F86F5028BF964204D3984508BFAE4591
:100C000000F0C48190F87020002180F86410110178
:100C100041EACC1141EA092141EA833141EA4552D6
:100C2000531D4BF60C36DFB2C0F61006F75DC1F36C
:100C300007217940715CC2F307477940715CC2F3C8
:100C4000036251404BF65452C0F61002515C43EA25
:100C50000172014641F8202F72B68A6A002A00F01C
:100C6000138162B690F82410002940F085816CE170
:100C7000836E092B00F0FC80062B00F0BF80052B53
:100C800040F07B81C56990F86CA0EEB24FEAD61CAB
:100C9000BAEBD61F38BF4FF0000C90F86D70C5F35B
:100CA0000522914680F86CC0974238BFB94690F84B
:100CB0006E30C5F3863E80F86D909E4598BF7346B2
:100CC00090F86F10C5F34658884580F86E3098BF8D
:100CD0004146BAEBD61F80F86F1028BF974280F0CC
:100CE000F5804FF0000E00E1032280F8242081649B
:100CF00062B64269836D0446104604229847204636
:100D000041690025026D80F86250084690472846E8
:100D1000BDE8F08790F8601090F8633001F00101B1
:100D200003F00F038F011B02C2F30F3647EA0637A9
:100D300043EAC111394401F136034BF60C35DFB2F9
:100D4000C0F61005EF5DC1F307217940695CC2F37D
:100D500007425140695C4BF6545281EA1631C0F6A5
:100D60001002515C43EA0172014641F8202F72B62D
:100D70008A6A002A00F08E8062B690F8241000295A
:100D800004BF022180F8241090E000BF90F86010AA
:100D900090F8633001F0010103F00F038F011B0293
:100DA000C2F30F3647EA063743EAC11139448B1DB7
:100DB0004BF60C35DFB2C0F61005EF5DC1F307212D
:100DC0007940695CC2F307425140695C4BF654526A
:100DD00081EA1631C0F61002515C43EA0172014605
:100DE00041F8202F72B68A6A002A69D062B690F85C
:100DF0002410002940F0C080A7E000BF90F86010E8
:100E000090F8633001F0010103F00F038F011B0222
:100E1000C2F30F3647EA063743EAC111394401F1FC
:100E200036034BF60C35DFB2C0F61005EF5DC1F3AB
:100E300007217940695CC2F307425140695C4BF677
:100E4000545281EA1631C0F61002515C43EA017235
:100E5000014641F8202F72B68A6A002A00F07A8093
:100E600062B690F82410002940F086806DE000BF43
:100E700090F86020B0F85C30856901320B80012168
:100E800080F86020017478E0032280F824208164D7
:100E900062B66AE0032280F82420816462B6426967
:100EA000836D05461046042298472846022180F8A3
:100EB000641061E0032280F82420816462B654E06B
:100EC000032280F82420816462B64EE09E454FF0F4
:100ED000000E08BF884508D190F87020C5F30217AE
:100EE000BA1AB2FA82F24FEA521E90F870204BF60C
:100EF0000C36120142EACC1242EA092242EA83325B
:100F000042EA41514B1DDFB2C0F61006F75DC2F355
:100F100007227A40B25CC1F307477A40B25CC1F362
:100F2000036151404BF65452C0F61002515C43EA43
:100F30000172014641F8202F81F844E072B68A6AB6
:100F400072B162B690F82410B1B9022180F8241071
:100F500012E000BF032280F82420816462B604E01E
:100F6000032280F82420816462B64269836D0546BD
:100F7000104604229847284600254169436D0846DB
:100F80002146042298472846BDE8F08790F8702053
:100F9000C1F3021191427FF435AE38E690F870202B
:100FA000C5F3021797427FF493AD202202EB43175B
:100FB00002EB491287818F01A0F85E200122C781D0
:100FC00080F8642084E5000070B5D2F800C04BF6CC
:100FD0000C365FFA8CFEC0F6100616F80E40CCF305
:100FE00007256540755DCCF307446540765DCCF31D
:100FF00003656E404BF65455C0F61005AE5D4CEAE5
:101000000676166072B6866CC6B162B651B30A290E
:101010001CD0092922D1D0E910C6DCF80010511AE1
:1010200018BF0321002E08BFC0F844C002208CF86E
:101030000600C8B2ACF8043070BD00BF0A2917D052
:1010400009291BD1016C03268E711CE090F82E102B
:1010500001290AD1022180F82E1083850021C8B20F
:1010600070BD00BF90F82410C1B10321C8B270BD9B
:10107000032600F1280180F82E6004E000F1200131
:10108000032680F82460816462B64169866D084653
:1010900011461A46B0470021C8B270BD022180F83F
:1010A00024100021C8B270BD0A2A0DD190F82E205C
:1010B000012A84BF00207047826A04320A6001223C
:1010C00080F82E201046704790F83620022A0FD361
:1010D00090F83E20012A84BF0020704750F8383F26
:1010E000012282718060181D08601046704700BFA1
:1010F00050F8303F012282710061181D08601046CF
:101100007047000010B590F864C0BCF1020F1CBF1E
:10111000022010BD90F86C4043EA021E8C46012C60
:101120004CF804ED02BF4FF6CA648C5202320A2B0F
:1011300006D1017C01291CBF012010BD00210174D2
:10114000111D1FFA81FE194662467346BDE8104024
:10115000FFF73ABF10B504464069E16C88474FF08D
:10116000000C6069636DA4F864C004F11C010422E2
:1011700084F860C0BDE8104018470000B0B588B0E2
:1011800041F604100024C1F20000132140F2E732BE
:10119000CDE90644CDE90444C0E90114C0E90324C3
:1011A000846104F05FF8002818BF00F079FA60202D
:1011B000CDE901040394059441F60414C1F200043E
:1011C00001A92046002203F0F5FD002818BF00F019
:1011D00067FA204603F08AFD20460021002504F02E
:1011E000BFF82068C16A456340F20000C3F6000002
:1011F000C58580F8305040F26850C1F2000045606B
:10120000057008B0B0BD000080B582B000F02AF9CA
:1012100044F2E040C5F60200016841F0007101604F
:10122000006800F000700190019800F01DF940F294
:10123000000040F20813C3F60000C1F20003416849
:1012400040F2685C9A88C1F2000CCCF808108287E2
:10125000D988C18740F2DC01C1F200018A88A0F878
:101260004020C988A0F8421040F2B001C1F200014C
:101270008A88A0F84420C988A0F84610BFF35F8F81
:10128000416BCCF80C108163BFF35F8F02B0BDE8F7
:101290008040FFF773BF0000F0B581B040F2000559
:1012A00040F26856C3F60005C1F200066F6BF068A5
:1012B000874205D16F68B068874255D101B0F0BD53
:1012C000BFF35F8F40F20814B5F93C00C1F200048F
:1012D000A1880028C8BF014609B2204605F00AFAD5
:1012E000B5F93E00E1880028C8BF014609B2204692
:1012F00005F0E4F940F2DC04B5F94000C1F2000465
:10130000A1880028C8BF014609B2204605F0F2F9BD
:10131000B5F94200E1880028C8BF014609B220465D
:1013200005F0CCF940F2B004B5F94400C1F2000474
:10133000A1880028C8BF014609B2204605F0DAF9A5
:10134000B5F94600E1880028C8BF014609B2204629
:1013500005F0B4F9BFF35F8FF760AF63BFF35F8F42
:101360006F68B0688742A9D0BFF35F8F2A694FF0DA
:10137000FF336869298B53FA82F2032ABFF35F8F28
:1013800036D8DFE802F00327172300BF40F20044FD
:10139000C5F6020420464FF40051012201F080FFFF
:1013A00004F500604FF40061012201F079FF05F0BF
:1013B0009DF81DE04AF6AB22C2F6AA2250FB02F0CD
:1013C00000EBD07000B205F043F811E005F00EF824
:1013D0000EE000BF05F092F841F60410C1F20000E3
:1013E0000068C16A00214163E98585F830103170D9
:1013F000B760AF60BFF35F8F01B0F0BDB0B505F06F
:101400001DF840F20005C3F600050446A88304F069
:10141000F5FFE88305F00AF8288404F0F7FF00EBF5
:1014200040004000686204F0F9FF00EB400040001B
:1014300040F25011A8620020C0F21801152C38BFEC
:101440000120E140084085F83100BFF35F8FE86874
:1014500000210130E8600220BFF35F8FBDE8B0409B
:1014600001F046BF7047000040F20000C3F60000E4
:10147000026845F25271C4F24C218A4208BF70479B
:101480000160002141608160C160016141610183AF
:1014900041838183C1830184416281628185C185E9
:1014A00080F8301080F83110418641638163818774
:1014B000C187A0F84010A0F84210A0F84410A0F88E
:1014C0004610A0F84810704781B047F60401C1F2F9
:1014D0000401086044F2F441C5F602010A6842F4CE
:1014E00080320A600A6802F480320092009AD1F8D1
:1014F0000C2342F48072C1F80C2344F29801C5F623
:101500000001086001B07047FEE70000028811FB8F
:1015100001F3524311FB313393429EBF080CC1EAE1
:1015200000407047B0B545880B140CB211FB31F088
:1015300005FB05F1002B48BF6D42884238BF0146CC
:10154000A2EB010098BF1D4604F098FB0146002C59
:1015500048BF4942A8B2BDE8B040C1EA0040704768
:101560008446006840F20F42C4F20202904211DC4D
:101570006F22C4F20202904222DC3F22C4F2020235
:10158000904239DC1022C4F2020290425AD0282242
:1015900054E000BF40F26F42C4F2020290421BDCF2
:1015A00040F23F42C4F2020290422DDC40F210426F
:1015B000C4F20202904245D040F228423EE000BF11
:1015C0009F22C4F20202904228DC7022C4F202027E
:1015D000904237D0882231E040F29F42C4F20202AA
:1015E000904223DC40F27042C4F20202904229D0C1
:1015F00040F2884222E000BF4022C4F20202904240
:1016000020D058221AE000BF40F24042C4F2020249
:10161000904217D040F2584210E000BFA022C4F21E
:10162000020290420ED0B82208E000BF40F2B84259
:10163000C4F20202904205D040F2A042C4F202027B
:10164000904219D100F0F8024AF6AB23103ACAF6DC
:10165000AA23A2FB0331C1F302110AA3595C5F2A3A
:10166000CCF85C1040F2FF3120EA010088BF043062
:10167000CCF85800704700BF20F0FF00CCF85800AD
:10168000704700BF000610160006101670470000D5
:10169000C820C5F600004FF40051016009F080BB7E
:1016A00072B600BFFEE7000080B582B040F2010EC6
:1016B00047F60402CCF2004E44F2F440C1F20402B8
:1016C0000123C5F602005360C2F800E0016844F24D
:1016D000980C41F4803101600168C5F6000C01F4FA
:1016E000803100910099D0F80C1341F48071C0F85A
:1016F0000C13CCF800E09360D0F8181363F34201A8
:101700000023CFF6F073C0F81813D0F81013890433
:101710000ED46BB1D0F8101389045CBFD0F810134D
:101720005FEA814104D4D0F8101304338904ECD566
:10173000022151600EF101011160026842F4803211
:101740000260026802F480320192019AD0F80C2300
:1017500042F48072C0F80C23CCF8001002B080BDB7
:10176000B0B540F29452014600EB0010C1F2000205
:1017700072B602EB4004A089E58962B694F8202095
:1017800042B940F2F440C1F2000050F8210007F0E5
:1017900033FD608372B6A081E58162B6B0BD000002
:1017A00010B540F2945140F2F04C044600EB0010AA
:1017B000C1F20001C1F2000C002301EB400241F82C
:1017C00010305CF824000021D36093605360C2F8AD
:1017D0001230C2F81630C2F81A3004F065FF40F239
:1017E000EC40C1F2000050F82400002104F05CFF3E
:1017F00041F63820C1F2000050F82400BDE8104046
:1018000005F01EB92DE9F04F85B0804606F042F98B
:1018100006F00CF940F2840A40F2945BC1F2000A2F
:10182000C1F2000B9AF80100DBF8161013280191A1
:101830000CD141F63424C1F20004206806F01CFAF1
:1018400020B9206806F0BCF9ABF80C0040F2F44077
:10185000C1F20000006841F63826C1F20006416975
:101860003068B1F90450026804A99047049804F064
:10187000B3F92946814604F0C9F93168074691F861
:10188000841001291AD140F2F040C1F20000BBF9E6
:101890000C1000683AB2891A04F038FF044640F28E
:1018A000EC40C1F20000BBF90E100068A1EB27412B
:1018B00004F02CFFC4EA004101E000BF002140F227
:1018C0003E00C1F20000FFF721FE2946044604F065
:1018D000C1F93168064691F88420012A08D10846EA
:1018E000314604F0D1FF0138B0FA80F0400900E041
:1018F000002004993A0CCBF81240CBF80010CBF83A
:101900000490ABF80870ABF80A20CBF81660ABF87F
:101910001C5058B140F28400C1F2000001210022A5
:1019200004F0BAF8404605B0BDE8F08F40F2002060
:10193000C1F2000007F0AEFB9AF8011040F210026D
:10194000C1F20002515C044601290BD0002C40F288
:101950008C24C1F2000420D09AF80100132825D16C
:1019600026E000BF40F22C01C1F20001DBF80400C8
:10197000C98840F28C25C1F200050290ADF80C1028
:1019800001A9284607F06AFE284607F0F1FC002C62
:1019900040F28C24C1F20004DED104F134000021B5
:1019A00004F082FE9AF80100132801D00428B9D16E
:1019B000A08804A9ADF8100040F23C40C1F200003C
:1019C00009F046FB404605B0BDE8F08FF0B581B0A8
:1019D00041F6382740F24410C1F20007C1F200007E
:1019E000386005F051FA40F20814C1F200042046B4
:1019F00004F052FE40F28C25C1F20005284607F0A3
:101A00004FFF40F2F446C1F20006306821462A46F4
:101A100007F08CFC31683F6840F2002040F23C4205
:101A200040F27823C1F20000C1F20002C1F20003CB
:101A3000009707F039FB40F2DC00C1F2000004F02F
:101A40002BFE40F2B000C1F2000004F025FE40F28F
:101A5000E840C1F20000006840F22C0140F29454CA
:101A6000C1F20001C1F20004C0E9024141F6342193
:101A700040F2E810C1F20001C1F20000086006F077
:101A8000F3F80020FFF78CFE306807F0DFFB3068CA
:101A9000012184F8201007F03DFC3168E060084621
:101AA00007F038FC010C3068218207F03BFC01464E
:101AB00040F28400C1F20000002201B0BDE8F04015
:101AC00003F0C4BF7047000000688168826801F0BD
:101AD000040102F0080289181CBF01207047C16888
:101AE0004FF6FF72C7F6DF72114001F10041C1608D
:101AF000002070472DE9F04181B00022009290F85B
:101B00005020012A06D14FF0020E704601B0BDE808
:101B1000F08100BFC268012380F8503012B10B6A17
:101B2000012B1BD14A68092A16D10A688B6A4FF427
:101B3000785606EA524223B1CE6A03F07C0333435F
:101B40001A43036844F20005DE6CC0F210452E40D3
:101B50001643DE64C2652AE0036828E0056E1DB105
:101B6000C66D00220AE000BF8E6A5A1E26B1CD6AF9
:101B700006F07C062E43324300261D46D1E9003490
:101B8000013D04F01F04C3F3846303FA04F342EA43
:101B90000302036842EA0602C0E9172507D1DE6C9A
:101BA00044F20005C0F210452E403243DA649A68D0
:101BB0004FF6FF7C1207C0F20F0C25D40A68002AEA
:101BC0000FD492FAA2F6B6FA86F612EA0C0F08BF04
:101BD000960E06F01F020126DD6906FA02F22A437C
:101BE000DA61DA6891F8256091F8265022F4401203
:101BF000002E4FEA455601D0324304E091F82450BC
:101C000042EA05523243DA609A689E6802F00402A2
:101C100006F00806921915D18A6ABAB1CA6AAAB141
:101C200091F82520012A19D1426D4FF0010E42F0A2
:101C30002002426591F830401A69012C19D022F037
:101C4000020224E04FF0000ED8E000BF91F82560BA
:101C5000DA68012E03D142F0007202E0DA6822F065
:101C600000724FF0000EDA6091F830401A69012CD2
:101C7000E5D14FF61D64CFF600442240D1E90D4571
:101C80000226CFF6FF7606EB04442A4322431A616C
:101C90000A688C68C2F3406503EB85056E69C2F380
:101CA000045207279740BE4304FA02F232436A61A6
:101CB00041F20002C5F60042126802F07042B2F131
:101CC000805F23D14A69DC680E2505EA5404A240EE
:101CD0000C69042C29D00D6803F1600656F82470B5
:101CE00005F0F84507F000472A433A4346F8242018
:101CF0000A690C7F56F82250012C25F0004508BFD8
:101D000005F1004546F8225078E000BFDC684A69DA
:101D1000DD68E4064FEA55044CBF04F0080404F003
:101D20000E04A2400C69042CD5D11A6E1C6E0A68F0
:101D3000C4F3846792FAA2F6B6FA86F412EA0C08A3
:101D40002646C2F3846508BF2E46B7420FD11C6EEB
:101D500002F0F84204F0004422441A660A6892FA3B
:101D6000A2F402EA0C08C2F38465B4FA84F45E6E4D
:101D70005E6EB8F1000FC6F38466274608BF2F4693
:101D8000BE420FD15C6E02F0F84204F000442244DF
:101D90005A660A6892FAA2F402EA0C08C2F3846551
:101DA000B4FA84F49E6E9E6EB8F1000FC6F384669A
:101DB000274608BF2F46BE420FD1DC6E02F0F84224
:101DC00004F000442244DA660A6892FAA2F402EAB5
:101DD0000C08C2F38465B4FA84F4DE6EDE6EB8F1EA
:101DE000000FC6F3846608BF2C46A64206D1DC6EFF
:101DF00002F0F84204F000442244DA669A68D207FE
:101E000040F0CB800A68C968D3F8C05002EA0C06DB
:101E10000024B54301F01806C4F252742CFA06F7F8
:101E2000174004F52D062F43B142C3F8C0705DD1B1
:101E300042F20011C4F202018B4227D042F20001AB
:101E4000C4F202018B423DD11F21C1F2F0418A420E
:101E500040F3C48040F2FF71C2F630618A4240F321
:101E6000AA8040F60001C2F630618A4200F0388153
:101E700041F20001C3F260218A4200F02781002173
:101E8000C4F221318A421ED036E100BF1F21C1F2C7
:101E9000F0418A4200F388800721C0F690418A42CF
:101EA00000F3AA800221C0F230418A4200F0A180F2
:101EB0000421C0F660018A4240F01E814024C1F630
:101EC000201400E0002494FAA4F143F6C137B1FADB
:101ED00081F1C0F20A073C4208BFA10E01F01F01C8
:101EE0000127DE6907FA01F13143D961B2F1FF3F01
:101EF00053DC42F2001743F48071C4F2020742F24D
:101F00000006B942C4F2020636D1B168D6F80871AB
:101F10003943C9073BD146F20834C5F6020406F539
:101F20008077214606F54275BB4208BF2946B34279
:101F300008BF29460D680021CCF684318A4205F09D
:101F4000E07608BF15F4000166D00021CCF2527192
:101F50008A4240F099800021B1EB166F40F09480E6
:101F6000A4F542718B4218D1216821F0E071314310
:101F700041F08071216010E04FF6005146F20837C1
:101F8000CFF6FF71C5F602077958C907C3D0416D76
:101F90004FF0010E41F020014165002180F8501002
:101FA000704601B0BDE8F08140F2FF71C2F63061C9
:101FB0008A4200F37F802021C1F2F0418A4200F082
:101FC000958040F20041C2F600218A4240F09480A0
:101FD00040F60004C2F6306475E700BF0721C0F682
:101FE00090418A4208DC0221C0F230418A427FF4EB
:101FF0005FAF012467E700BF0821C0F690418A4225
:102000006AD01021C1F2C0018A4275D140F2001499
:10201000C2F2801457E700BFA4F542718B42BCD1D5
:10202000216842F6635221F0E071314341F400012E
:10203000216040F20801C1F200010968C0F23E527D
:102040008909A1FB02129109022202EB41010091D0
:1020500000990029A1D00099013900910099002927
:102060009BD00099013900910099002995D00099E1
:1020700001390091009900298FD000990139009110
:1020800000990029E7D188E7A4F542718B427FF4DB
:1020900084AF0021CCF6B8718A4208BF15F48001E4
:1020A0007FF47BAF216821F0E071314341F480017E
:1020B000216072E740F60001C2F630618A420FD01B
:1020C00041F20001C3F260218A4215D142F20004BC
:1020D000C3F29064F7E600BF8024C1F65054F2E6E4
:1020E00041F20004C3F26024EDE600BF40F2002498
:1020F000C2F2B054E7E600BF0021C4F684310024E8
:102100008A4204BF0024C4F6B874DCE690F850207C
:10211000012A04BF0220704710B582B0002342F2AA
:10212000083401930093C4F202040368A4F54272D8
:10213000934227D14FF6006ECFF6FF7E54F80E2063
:102140009B681A4352071DD4D1F800C02268BCF125
:10215000000F22F4404323D04A681A4322604FF60E
:102160000052CFF6FF72A25854F80E301A43D2072D
:1021700026D1226840F61F7389689A43114341EAC9
:102180000C011CE0416D41F020014165012100225C
:1021900080F8502002B0BDE810400846704700BFEC
:1021A0004FF600512360CFF6FF71615854F80E20AE
:1021B0001143C90704D1216840F61F729143216081
:1021C0000021E4E7F0B581B00022009290F85020A1
:1021D000012A03D10221084601B0F0BD012307689E
:1021E00080F85030BB685B0700F194810C684FF6B3
:1021F000FF7CC0F20F0CB4F1FF3F4FEA946310DD97
:1022000094FAA4F2B2FA82F214EA0C0F08BFA20EFA
:1022100002F01F024FF0010EFC690EFA02F2224397
:10222000FA614A681F26C2F3012407EB8404256B78
:1022300002F01F02964003F01F0325EA060603FA88
:1022400002F232432263BA68BB6802F0040203F070
:102250000803D21840F093800A688B68C2F3406686
:1022600007EB86067569C2F3045207249440A54320
:1022700003FA02F22A43726141F20002C5F60042FB
:10228000126802F07042B2F1805F33D14A69FB6894
:102290000E2606EA530302FA03F30C69042C38D025
:1022A0000A6807F1600656F8245002F0F84205F07B
:1022B00000451A432A4346F824200A694B7E56F803
:1022C0002250012B25F0004508BF05F1004546F8D6
:1022D00022500A7E0B69013AB2FA82F252093E6933
:1022E000D20203F01F0326F4F0469A4032433A61CB
:1022F00045E000BFFA684B69FE68D2064FEA560413
:102300004CBF04F0080204F00E0293400C69042C48
:10231000C6D13A6E0B6802F0F8429B069A4217D17A
:102320003A6E22F000423A667A6E02F0F8429A4221
:1023300013D0BA6E02F0F8429A4217D1BA6E22F068
:102340000042BA66FA6E02F0F8429A4213D016E0E2
:102350007A6E02F0F8429A42EBD17A6E22F0004295
:102360007A66BA6E02F0F8429A42E7D0FA6E02F04C
:10237000F8429A4203D1FA6E22F00042FA66BA6835
:10238000D20778D1D1F800E0C968D7F8C0200EEAAA
:102390000C04A24301F0180400232CFA04F6C4F242
:1023A000527306EA0E06324303F52D06B142C7F812
:1023B000C0205DD142F20011C4F202018F4227D049
:1023C00042F20001C4F202018F423DD11F21C1F24D
:1023D000F0418E4540F3C48040F2FF71C2F6306197
:1023E0008E4540F3AA8040F60001C2F630618E456A
:1023F00000F0488141F20001C3F260218E4500F0F7
:1024000037810021C4F221318E451ED046E100BF44
:102410001F21C1F2F0418E4500F388800721C0F6EC
:1024200090418E4500F3AA800221C0F230418E45D2
:1024300000F0A1800421C0F660018E4540F02E819D
:102440004023C1F6201300E0002393FAA3F143F6E2
:10245000C132B1FA81F1C0F20A02134208BF990EEB
:1024600001F01F010122FB6902FA01F11943F96130
:10247000BEF1FF3F02DD002151E000BF42F200014A
:1024800046F2083CC4F20201C5F6020C01F5807266
:102490009742624601F5427308BF1A468F4208BF51
:1024A0001A4642F20014136847F48072C4F2020420
:1024B000A24227D18A68D1F808111143C90729D14E
:1024C0000021CCF684318E4503F0E07408BF13F48C
:1024D000000163D00021CCF252718E4540F0A08003
:1024E0000021B1EB146F40F09B80ACF542718F423C
:1024F000C1D1DCF8001021F0E071214341F080717E
:10250000A5E000BF4FF60051CFF6FF715CF8011057
:10251000C907D5D0416D41F020014165012100225C
:1025200080F85020084601B0F0BD00BF40F2FF71B6
:10253000C2F630618E4500F38F802021C1F2F04158
:102540008E4500F0A58040F20041C2F600218E4584
:1025500040F0A48040F60003C2F6306375E700BF88
:102560000721C0F690418E4508DC0221C0F23041BF
:102570008E457FF45FAF012367E700BF0821C0F6F7
:1025800090418E457AD01021C1F2C0018E4540F0B5
:10259000858040F20013C2F2801356E7ACF5427119
:1025A0008F427FF468AFDCF8001042F6635221F0EE
:1025B000E071214341F40001CCF8001040F2080121
:1025C000C1F200010968C0F23E528909A1FB021262
:1025D0009109022202EB41010091009900293FF488
:1025E0004AAF009901390091009900293FF443AFA7
:1025F000009901390091009900293FF43CAF0099FE
:1026000001390091009900293FF435AF0099013953
:102610000091009900294FF00001E2D17FE700BF4F
:10262000ACF542718F424FF000017FF478AF002289
:10263000CCF6B872964508BF13F480027FF46FAFF2
:10264000DCF8001021F0E071214341F48001CCF866
:102650000010002163E700BF40F60001C2F63061C0
:102660008E450FD041F20001C3F260218E4515D195
:1026700042F20003C3F29063E7E600BF8023C1F695
:102680005053E2E641F20003C3F26023DDE600BFEF
:1026900040F20023C2F2B053D7E600BF0021C4F6D7
:1026A000843100238E4504BF0023C4F6B873CCE602
:1026B00070B582B004460020002C019052D0606DAD
:1026C00030B9204600F024F90020A06584F85000BD
:1026D0002068816889004FF6C071C5F6FF7102D588
:1026E00082680A4082608268D2002ED4826801F13A
:1026F0008051114041F08051816040F20801C1F2E7
:102700000001096842F663528909C0F23E52A1FBFA
:102710000212012101EB921101910199A9B100BFAF
:10272000019901390191019979B101990139019119
:10273000019951B1019901390191019929B1019989
:102740000139019101990029EAD18168C9000DD4AC
:10275000616D012641F010016165A16D41F001013B
:10276000A16504E00126304602B070BD00268168F4
:10277000626D01F0040102F010028918616D40F0F1
:10278000958021F48171023161658168C9072AD180
:1027900042F2001240F48071C4F20202914242F20D
:1027A0000001C4F2020140F0A9808A68D1F8083122
:1027B0001A43D20717D101F5807201F5427346F230
:1027C000080E90421A46D4F804C0C5F6020E18BF8F
:1027D0000EF54072884208BF1A46106820F47C103B
:1027E00040EA0C00106000F06DFD41F203018842E8
:1027F000A0684FF00002A0F11001B1FA81F188BF8A
:10280000012249091140226B237F617D154616BFC5
:102810004D034A031C2045EA03411143012B41EAC1
:10282000000106D1206A0022CFF6FE7202EB404082
:102830000143606A20B1A26A00F47870104301433A
:1028400020684CF20303C268CFF6F0731A401143BC
:10285000C1608168826801F0040102F008028918F1
:1028600038D1217DE26A44F2030342EA8131C26831
:102870009A431143C16094F838200169012A1DD19F
:102880004FF61E02CFF6004204F13C0E01EA020CA4
:102890009EE82C400121CFF6FF7101EB024143EA93
:1028A0000C021143294341EA0E0109E041F01000F6
:1028B00001266065304602B070BD00BF21F0010105
:1028C00001610169626B21F0704111430161204691
:1028D000FDF750FF2068E168026B012922F00F012B
:1028E00002D1A269013A11430163606D012161F3D4
:1028F00001006065304602B070BD00BF46F20802BC
:10290000C5F602021268D2073FF455AF6BE700002C
:1029100070B586B0006842F200110024C4F20201D2
:10292000C5F6020488424FF000010591CDE903117C
:10293000CDE9011148D042F20001C4F202018842FF
:1029400040F0818040F2BC51C1F200010A6844F2BB
:10295000E040C5F60200531C0B605AB950F8081C41
:1029600041F0200140F8081C50F8081C01F020013B
:10297000009100990168032541F00101016001689F
:1029800001F0010100910099016841F0040101602A
:10299000016801F0040100910099016841F0020111
:1029A0000160006801A900F002000090009800207A
:1029B00003902046CDE9015500F07CFB1020CDE9C5
:1029C000010504F500602EE040F2BC51C1F20001A7
:1029D0000A6844F2E040C5F60200531C0B605AB985
:1029E00050F8081C41F0200140F8081C50F8081C61
:1029F00001F0200100910099016841F0010101609E
:102A0000016801F0010100910099016841F00201A3
:102A10000160006800F002000090009880200190A2
:102A200003200290204601AD00262946039600F0BF
:102A300041FB022001900320CDE9020604F58060ED
:102A4000294600F037FB06B070BD00002DE9F043C9
:102A500081B0044600F03EFC002C00F0AF8005463B
:102A6000206840F26F48C4F20208404516DC9F21FE
:102A7000C4F2020188422DDC5721C4F202018842CF
:102A800054DC1021C4F20201884200F07E8028212B
:102A9000C4F20201884278D0402171E045F22F4112
:102AA000C5F60201884229DC40F2B741C4F20201B6
:102AB000884247DC40F27041C4F20201884264D08F
:102AC00040F28841C4F2020188425ED040F2A04147
:102AD00056E000BF40F22741C4F20201884241DCC7
:102AE000A021C4F2020188424FD0B821C4F20201F1
:102AF00088424AD040F2104142E000BF45F26B41AB
:102B0000C5F60201884200F3B78045F23041C5F6B0
:102B10000201884200F0C38045F24441C5F602013B
:102B2000884200F0BC8045F25841B3E05821C4F21D
:102B30000201884229D07021C4F20201884224D0C7
:102B400088211DE040F2B841C4F2020188421CD045
:102B500045F20841C5F60201884200F0A08045F226
:102B60001C4197E040F22841C4F2020188420CD097
:102B700040F24041C4F20201884206D040F258417E
:102B8000C4F20201884240F01F81022184F835100E
:102B9000002184F83410016821F00101016000BFB8
:102BA00020680168C9070DD000F094FB401B06287F
:102BB000F6D320206065032084F83500012001B0A1
:102BC000BDE8F083016848F23F02CFF61062D4E915
:102BD000026501EA0209D4E9047246EA09063543AE
:102BE000D4E906C13D43D4E9083E2A4311431943C1
:102BF000BEF1040F41EA0C0303D1D4E90B121143D7
:102C00000B4341F20001C5F600410968B1F1005FD4
:102C10000FD36568A5F129061F2E00F23982012124
:102C20003F22B140CCF2C032114200F0318243F475
:102C3000801303604169BEF1040F21F0070141EAEE
:102C40000E0140F0DD80D4E90A53002B41EA050172
:102C500000F0D680BCF5005F00F0B880BCF1000F3A
:102C600040F0C080022D00F0C080012D00F0B48043
:102C7000002D00F0BA80C3E045F26C41C5F60201B8
:102C800088420CD045F28041C5F60201884206D048
:102C900045F29441C5F60201884240F09580022138
:102CA00084F83510002184F8341004F1080C016810
:102CB0009CE80C10D4E90595D4E9077EA2F18006C2
:102CC000B6FA86F66FF310117609402A45EA070234
:102CD0004FEA863641EAD30142EA090208BF1026CC
:102CE000314342EA0C0241EAD20141EA1E1140F8A6
:102CF0000819C0B2CD2148433C2101EA9020E0658B
:102D00002046FEF72DFCE16D012201F01F0102FAC1
:102D100001F141602068404500F381809F21C4F2A9
:102D20000201884214DC5721C4F20201884227DCE8
:102D30001021C4F20201884200F0C7802821C4F2A9
:102D40000201884200F0C1804021C4F20201B9E0D2
:102D500040F22741C4F20201884221DCA021C4F2E2
:102D60000201884200F0B180B821C4F20201884219
:102D700000F0AB8040F21041C4F20201A2E000BFBB
:102D80005821C4F20201884200F09F807021C4F2F1
:102D90000201884200F099808821C4F2020191E08A
:102DA00040F22841C4F20201884200F08E8040F2D5
:102DB0004041C4F20201884200F0878040F258414D
:102DC000C4F202017EE000BF4020F3E6032D17D8D5
:102DD000DFE805F00E0B0E02A3F1C072B2FA82F228
:102DE000520904E0032D03D30AD1C3F300623AB1C0
:102DF00040206065012084F8350001B0BDE8F08313
:102E000041612046FEF7ACFBE16D3F2201F01F015E
:102E100002FA01F18160206840457FF77FAF45F2FB
:102E20002F41C5F60201884216DC40F2B741C4F2D8
:102E30000201884226DC40F27041C4F2020188425D
:102E400043D040F28841C4F2020188423DD040F2B2
:102E5000A041C4F2020135E045F26B41C5F6020122
:102E600088421FDC45F23041C5F6020188422CD071
:102E700045F24441C5F60201884226D045F2584148
:102E80001EE000BF40F2B841C4F2020188421CD0EB
:102E900045F20841C5F60201884216D045F21C41B0
:102EA0000EE000BF45F26C41C5F6020188420CD02D
:102EB00045F29441C5F60201884206D045F28041B0
:102EC000C5F60201884240F0DB8045F2574CC5F65A
:102ED000020C45F6FC016045C5F602010EDC45F228
:102EE0002F42C5F60202904218DC45F20842C5F6B0
:102EF0000202904228D045F21C4221E045F27F4276
:102F0000C5F60202904213DC45F25842C5F60202B1
:102F1000904219D045F26C4212E000BF45F23042B7
:102F2000C5F6020290420FD045F2444208E000BFCD
:102F300045F29442C5F60202904205D045F2804225
:102F4000C5F60202904247D100F0FC024CF6CD4398
:102F5000083ACCF6CC43A2FB03231D09A1F1FC03E4
:102F6000A1F17C0603EB850205F01F03012707FA98
:102F700003F5A3682266802B6666A56604D100204F
:102F80006060106075601FE0D4F804E05FFA8EF3B3
:102F90001360AEF10102072A756015D85E1E082E77
:102FA00018D2604501F1440238DC45F22F43C5F6E2
:102FB0000203984242DC45F20843C5F602039842F8
:102FC00052D045F21C434BE00020C4E91B0060676F
:102FD00056E000BFE06E4EE000F0F8024AF6AB2388
:102FE000103ACAF6AA23A2FB032740F20F4540F687
:102FF00000033A09C4F20205C4F2020305F1AA066D
:10300000A84215464FF0080E88BF0EEB1715B042C8
:1030100003F1800628BF1546A4E700BF45F27F43B1
:10302000C5F60203984213DC45F25843C5F6020385
:10303000984219D045F26C4312E000BF45F230438C
:10304000C5F6020398420FD045F2444308E000BFA2
:1030500045F28043C5F60203984205D045F29443F9
:10306000C5F6020398421BD101EB8E000121B1404D
:10307000C4E91B02616700210160D4E91C014160C1
:1030800000200121606584F8351001B0BDE8F083AF
:10309000A5F14F01042938BF43F48013C9E500BFEF
:1030A00040F60000C4F2020000F1FC0100F5A0723D
:1030B000DAE700002DE9F04F85B00F680390002F8C
:1030C00000F0E280039842F2004500F120020092F5
:1030D00000F1264202F1FF72C5F602054FEAB22660
:1030E0000A23A84208BF0923092E4FF000044FF01D
:1030F00000064FF0000838BF4FEAB2230193029157
:103100000BE000BF0F6808F1010837FA08F206F17A
:10311000020604F1040400F0B780012000FA08F26E
:1031200017EA0209EED0D1F804A003200AF0030B3D
:10313000ABF10107012F00FA06F511D80398876853
:10314000D1E902E3AF43B3403B438360436823EAE2
:103150000202CAF3001303FA08F31A43426007E0BD
:10316000D1F808E0BBF1030F08BFBEF1010F27D073
:1031700003990EFA06F3CA684FEA480CAA43E843DB
:103180001A43BBF1020FCA6018D16FF00301009F10
:1031900001EA580204F01C050F2157F802E001FA79
:1031A00005FA02992EEA0A0E0B69AB4043EA0E03B8
:1031B000BB50D1F804A00AF0030B09E0029907E024
:1031C0004FF0030B0BFA06F20299D043B44600BF4E
:1031D000039F0BFA0CF33A681AF4403F02EA00022C
:1031E00042EA03023A608DD044F2F443C5F602038A
:1031F0001A6840F2084C42F002021A601A68C5F6DA
:10320000000C02F002020492049A28F0030204F077
:103210000C070F2052F80C3000FA07F50198AB4369
:1032200000FA07F73B4342F80C304FF0B040026819
:103230004B6842EA090740F2040CDD0258BF22EA5B
:1032400009070760C5F6000CDCF800209D0242EA81
:10325000090758BF22EA0907CCF80070DCF8C02043
:103260009D0342EA090758BF22EA0907CCF8C0705B
:10327000DCF8BC20DB0342EA090758BF22EA090751
:10328000CCF8BC703EE700BF05B0BDE8F08F000091
:10329000426902EA0103914341EA034181617047B7
:1032A000002A08BF09048161704700004EF60050F3
:1032B000CEF20000006800F0F0010120702908BF84
:1032C0000320704741F20000C5F600400068000C82
:1032D0007047000041F63C20C1F2000000687047D2
:1032E00046F21051C5F602010A68104308607047A3
:1032F00046F2004241F48071C5F6020242F8201005
:103300007047000040F2000041F63C21C1F200008D
:10331000C1F2000100780A6810440860704700009C
:1033200010B582B044F2D844C5F602042068812268
:1033300040F480402060206800F4804001900198B3
:1033400044F20040C4F20200016862F313210160FC
:10335000016841F001010160032000F0A3F801F0D1
:10336000CDFA54F8C01C4BF61C42C1F30321C0F641
:103370001002515C54F8C03C01F01F0103F00F0330
:10338000D25CC84002F01F01C84040F20C01C1F2FB
:103390000001086040F20801C1F200010860042049
:1033A00000F00AF810B1012002B010BD00F02CF8B6
:1033B000002002B010BD0000B0B540F20005C1F21F
:1033C00000052978F1B1044640F20800C1F200007E
:1033D0004FF47A720068B2FBF1F1B0FBF1F001F04A
:1033E0001FFB01460F2C4FF001000AD8002918BF1F
:1033F000B0BD4FF0FF302146002200F027F800203A
:103400006C60B0BD0120B0BD81B044F2F440C5F69F
:103410000200016841F002010160006800F0020052
:103420000090009801B07047002848BF704700F036
:103430001F01012202FA01F14EF20012C0F34A10FC
:10344000CEF2000242F820107047000010B54EF690
:103450000C5CCEF2000CDCF80030C3F3022E8EF0D0
:103460000704042C28BF0424BEF103034FF0FF3EE1
:103470000EFA04F438BF0023A14399400EFA03F377
:103480009A43114300F00F0200F160430901043A2E
:1034900003F564436244002848BF02F10C0319702D
:1034A00010BD00004EF60C51CEF200010A684FF636
:1034B000FF031A4060F30A2242F0806040F0FD7082
:1034C0000860704707F088FE80B5FFF7EFFE03281D
:1034D00018BF40BF20BF80BD70B544F61006C5F6CA
:1034E00002060C4656F8101C154621F0010108434F
:1034F00046F8100CFFF7DAFE012D0BD015BB0328A0
:1035000028D131684EF6105021F00101CEF20000B2
:1035100031600AE0012818BF70BD71684EF6105086
:1035200021F00201CEF2000071600168012C41F02F
:1035300004010160BFF34F8FBFF36F8F14BF20BF33
:1035400030BF03E0032818BF04363046016821F07D
:103550000401016070BD000080B501F04FF944F234
:103560002041C5F6020109684BF61C42C1F3021165
:10357000C0F61002515C01F01F01C84080BD000080
:1035800080B544F2304EC5F6020E5EF8082C5EF8A7
:10359000081C5EF804CCC1F30513DEF80410CBB1AF
:1035A000C1F3CC0100EE101A9FED3C1AB8EE400AB0
:1035B00002F0030120EE010A9FED391ADFE801F065
:1035C000022210065EF8301C89060DD49FED351AD4
:1035D00018E000BF0021C0E90011816080BD00BF7C
:1035E0009FED311A0EE000BF5EF8301C49F2000278
:1035F000C1F3C101C0F2D03222FA01F101EE101A7A
:10360000B8EE411A02EE103AB8EE422A81EE021AE2
:10361000DEF800109FED253A6FF35F2102EE101ADD
:103620005FEACC7118BFB0EE403ADEF80010B8EE99
:10363000422A33EE020AB7EE002AC1F3462130EEE9
:10364000020A013121EE000A01EE101AB8EE411A09
:1036500080EE011ABCEEC11A80ED001ADEF80010EF
:10366000C1F30641013101EE101AB8EE411A80EEA5
:10367000011ABCEEC11A80ED011ADEF80010C1F388
:103680000661013101EE101AB8EE411A80EE010A0E
:10369000BCEEC00A10EE101A816080BD0000003937
:1036A0000024744A0024744C20BCBE4B000000006F
:1036B00080B544F2384EC5F6020E5EF810CC5EF8C6
:1036C000101C5EF80C3CC1F30532DEF80410CAB1E0
:1036D000C908DB0601EAE3716FF35F3100EE101AEF
:1036E0000CF003019FED381AB8EE400ADFE801F054
:1036F000022210225EF8381C89060DD49FED341A80
:1037000018E000BF0021C0E90011816080BD00BF4A
:103710009FED2E1A0EE000BF5EF8381C49F2000340
:10372000C1F3C101C0F2D03323FA01F101EE101A46
:10373000B8EE411A02EE102AB8EE422A81EE021AC1
:10374000DEF800109FED233A6FF35F2102EE101AAE
:10375000DEF80010B8EE422A20EE030A30EE020A2C
:10376000B7EE002AC1F3462130EE020A013121EE04
:10377000000A01EE101AB8EE411A80EE011ABCEEF2
:10378000C11A80ED001ADEF80010C1F306410131C4
:1037900001EE101AB8EE411A80EE011ABCEEC11A01
:1037A00080ED011ADEF80010C1F30661013101EE6F
:1037B000101AB8EE411A80EE010ABCEEC00A10EEF3
:1037C000101A816080BD00BF0024744A20BCBE4B2B
:1037D0000024744C0000003980B544F2404EC5F618
:1037E000020E5EF818CC5EF8181C5EF8143CC1F3AB
:1037F0000552DEF80410CAB1C908DB0501EAE3711D
:103800006FF35F3100EE101A0CF003019FED381AD0
:10381000B8EE400ADFE801F0022210225EF8401CF8
:1038200089060DD49FED341A18E000BF0021C0E9CD
:103830000011816080BD00BF9FED2E1A0EE000BF19
:103840005EF8401C49F20003C1F3C101C0F2D0335D
:1038500023FA01F101EE101AB8EE411A02EE102A15
:10386000B8EE422A81EE021ADEF800109FED233AEC
:103870006FF35F2102EE101ADEF80010B8EE422A54
:1038800020EE030A30EE020AB7EE002AC1F3462109
:1038900030EE020A013121EE000A01EE101AB8EEF4
:1038A000411A80EE011ABCEEC11A80ED001ADEF852
:1038B0000010C1F30641013101EE101AB8EE411AB1
:1038C00080EE011ABCEEC11A80ED011ADEF800107C
:1038D000C1F30661013101EE101AB8EE411A80EE13
:1038E000010ABCEEC00A10EE101A816080BD00BF54
:1038F0000024744A20BCBE4B0024744C00000039E4
:1039000010B584B0024641F6FF7300209B1A70EB9D
:10391000010329DB40F2FF339B1A70EB010351DAFC
:1039200082F480630B4300F0E58082F400630B4374
:1039300000F00E8182F48052114340F0A98144F2DC
:103940000041C5F60201086DC0F30232042A00F2FC
:10395000988148F20000C0F2BB00DFE812F00D01D0
:103960000F0127019901310147F6FF739B1A70EB94
:10397000010353DA82F400430B4300F0DB8082F44E
:1039800080330B4300F0048182F40022114340F0A5
:103990007F8144F20041C5F60201886DC0F3014207
:1039A0000020DFE812F0EB0005000D01750100BFFB
:1039B0000868800040F1658101A8FFF70DFF0398BA
:1039C00004B010BD82F480730B4353D082F40072B4
:1039D000114340F05D8144F20041C5F60201086DDB
:1039E000C0F38212042A00F24C8148F20000C0F2B7
:1039F000BB00DFE812F0C100C300DB004D01050091
:103A0000CA6C0B6808685B0702F0405202D5002AB6
:103A100000F0DE80C00500F1EF80F7E082F4005393
:103A20000B434FD082F48042114340F0318144F285
:103A30000044C5F60204A06DC0F30270052800F230
:103A40002081DFE810F00700190103010D01F700E4
:103A5000270100BF00F0D2FE216A4BF61C42C1F3E1
:103A60000211C0F61002515C01F01F01C84004B001
:103A700010BD00BF44F20041C5F60201086D00F020
:103A80000702042A00F2FD8048F20000C0F2BB00E9
:103A9000DFE812F0720074008C00FE00060000BF28
:103AA000CA6C0B6808685B0702F0405202D5002A16
:103AB00000F08E80C00540F1A980B2F1805F00F077
:103AC0009E80A3E044F20040C5F60200016DC1F300
:103AD0000241052900F2D580DFE811F00600D00090
:103AE000BA00C800AE00DE0004B0BDE8104000F02F
:103AF000A9BE00BF44F20041C5F60201886DC0F3C3
:103B00004252042A00F2BD8048F20000C0F2BB001D
:103B1000DFE802F032344CBE040000BFCA6C0B6810
:103B200008685B0702F0405240F16480002A4FD0E1
:103B300060E000BF44F20041C5F60201086DC0F329
:103B400001720020DFE802F0021874A40868A4E003
:103B500044F20041C5F60201886DC0F30262042AF6
:103B600000F28F8048F20000C0F2BB00DFE802F0F4
:103B700004061E90280000BF086811E008680001D4
:103B800040F17F8001A8FFF793FD019804B010BDBC
:103B900044F20040C5F60200C16C0068C90321D49C
:103BA00080016ED501A8FFF7EBFC70E0086880008B
:103BB00067D501A8FFF710FE019804B010BD00BF43
:103BC000CA6C0B6808685B0702F0405212D58AB9CC
:103BD00049F20001C0F3C100C0F2D03121FA00F077
:103BE00004B010BD00014CD501A8FFF761FD03989A
:103BF00004B010BDC00509D5B2F1805F06D140F612
:103C00000010C0F23D0004B010BD00BF0868B2F162
:103C1000005F00F400314FF0000004BF47F64000A1
:103C2000C0F27D10002908BF084604B010BD00BFD7
:103C3000086824E0206800E0006840F60011C00534
:103C4000C0F23D0101EAE07004B010BD206800E060
:103C50000068800015D501A8FFF7BEFD17E000BF82
:103C6000206840070DD52068B2E700BF016849070A
:103C700007D50068ACE700BF206800E000680001DD
:103C800002D4002004B010BD01A8FFF711FD029876
:103C900004B010BD206800E0006847F640018003D2
:103CA000C0F27D1101EAE07004B010BD2DE9F047CB
:103CB0000446C07844F22C480007C5F6020828D50F
:103CC000E06E4FEA305103292AD8DFE801F0030BF8
:103CD000131B00BFD8F8001041F40031C8F80010E1
:103CE00010E000BF04F10800022103F08BFD06463E
:103CF00080B906E004F12800022103F00DFE06461B
:103D000040B9E06ED8F8241021F440110843C8F8F7
:103D1000240000266078C00706D135462FE000BF9A
:103D200001266078C007F8D0E06D042858D83546E1
:103D3000DFE800F004140E0B0B0000BFD8F8000001
:103D4000354640F40030C8F800002F46C5B90DE0F4
:103D500004F12800002103F0DFFD04E004F1080075
:103D6000002103F04FFD05462F464DB9D8F8240039
:103D7000E16D20F0070008430025C8F8240037460D
:103D80006078800731D5206E4FEAB01004285FD8E4
:103D9000DFE800F004140E0A0A0000BFD8F80000A3
:103DA00040F40030C8F800002E46FDB90EE000BF18
:103DB00004F12800002103F0AFFD04E004F1080045
:103DC000002103F01FFD05462E467DB9D8F82400DA
:103DD000216E20F4E07008430025C8F8240004E0B8
:103DE0000125012760788007CDD43E4660784007E2
:103DF00033D5D4F8AC004FEA7050042860D8DFE81F
:103E000000F003130D090900D8F8000040F4003059
:103E1000C8F80000A9460DBB0EE000BF04F1280061
:103E2000002103F079FD04E004F10800002103F013
:103E3000E9FC0546A9468DB9D8F82C00D4F8AC1099
:103E400020F4600008430025C8F82C0005E000BFFE
:103E50000125012660784007CBD4B1466078000781
:103E600034D5D4F8B0004FEA306004285ED8DFE8DB
:103E700000F003130D090900D8F8000040F40030E9
:103E8000C8F800002F4615BB0EE000BF04F1280063
:103E9000002103F041FD04E004F10800002103F0DB
:103EA000B1FC05462F4695B9D8F82C00D4F8B010CF
:103EB00020F0E06008430025C8F82C0006E000BFB1
:103EC00001254FF0010960780007CAD44F46E07819
:103ED000800730D5E06C4FEA3010032820D8DFE8A7
:103EE00000F00903150900BFD8F8000040F40030C5
:103EF000C8F800002E46ADB9D8F82000E16C20F0DB
:103F0000300008430025C8F8200014E004F1080040
:103F1000022103F077FC05462E461DB9ECE700BFF1
:103F2000012501266078C00609D434E00125012767
:103F3000E0788007CED43E466078C0062BD5606E10
:103F40004FEA3030042839D8DFE800F004140E0AB4
:103F50000A0000BFD8F8000040F40030C8F80000A4
:103F60002F46CDB90EE000BF04F12800002103F078
:103F7000D3FC04E004F10800002103F043FC0546F3
:103F80002F464DB9D8F82400616E20F4E040084374
:103F90000025C8F8240037466078800635D5A06E25
:103FA0004FEA3040052815D8DFE800F0041A0E0467
:103FB000040400BF2E46DDB91EE000BF0125012725
:103FC00060788006EBD420E004F12800012103F0A2
:103FD000A3FC0AE0012501266078400619D449E0D7
:103FE00004F10800012103F00DFC05462E461DB129
:103FF000607840060DD43DE0D8F82400A16E20F48E
:10400000E02008430025C8F824003E4660784006BA
:1040100030D5D4F8B4004FEA307005280ED8DFE868
:1040200000F00313070303032F46ADB918E000BFE8
:1040300004F12800012103F06FFC0AE001250127AB
:10404000E07840071AD42FE004F10800012103F0C2
:10405000D9FB05462F461DB1E07840070ED423E07A
:10406000D8F82C00D4F8B41020F0E0400843002524
:10407000C8F82C003746E078400715D5206D40B1D0
:10408000B0F5807F26D104F10800012103F0BAFBCE
:1040900005462E464DB9D8F82000216D20F48070D9
:1040A00008430025C8F820003E466078000628D561
:1040B000606F58B1B0F1005F12D0B0F1805F3DD1B8
:1040C000D8F8000040F40030C8F800002F46CDB901
:1040D0000EE000BF0125012660780006E8D410E05C
:1040E00004F10800012103F08DFB05462F464DB970
:1040F000D8F82400616F20F0405008430025C8F82C
:1041000024003746E078C0071DD0A06C032857D89C
:10411000DFE800F008024C08D8F8000040F4003056
:10412000C8F80000A9467DB9D8F82000A16C20F09D
:10413000030008430025C8F8200004E001250127FA
:10414000E078C007E1D1B946A078400602D44F46D6
:1041500018E000BFD8F8D40340F48070C8F8D40346
:10416000FFF7B8F8064600BFD8F8D403C00507D457
:10417000FFF7B0F8801B6428F6D90325032701E078
:104180002F460DB32078C00700F07280D4F880006D
:104190004FEAF00005284FD8DFE800F00454480447
:1041A000040400BF002D2E4654D157E004F108004E
:1041B000022103F027FB0546002DA946C4D1B3E731
:1041C00001254FF00109BFE7D8F84410D4F8B80032
:1041D000414011F4407F11D0D8F84410D8F8442061
:1041E00021F4407142F48032C8F84420D8F84420C9
:1041F00022F48032C8F84420C8F84410B0F5807F1B
:1042000040F0E082FFF766F8064641F2883A03255F
:10421000032700BFD8F84400800700F1D182FFF7E0
:1042200059F8801B5045F5D9ACE700BF04F12800D0
:10423000012103F071FB0AE00125012620788007A7
:104240001AD446E004F10800012103F0DBFA054628
:104250002E461DB1207880070ED43AE0D8F8280009
:10426000D4F8801020F0380008430025C8F8280052
:104270003E46207880072CD5E06F05280ED8DFE871
:1042800000F00313070303032F46ADB918E000BF86
:1042900004F12800012103F03FFB0AE0012501277A
:1042A0002078400719D447E004F10800012103F009
:1042B000A9FA05462F461DB1207840070DD43BE0F2
:1042C000D8F82800E16F20F0070008430025C8F85F
:1042D00028003746207840072ED5D4F898000528C6
:1042E0000ED8DFE800F00313070303032E46ADB931
:1042F00018E000BF04F12800012103F00DFB0AE0E3
:1043000001250126207880061AD44BE004F108002C
:10431000012103F077FA05462E461DB1207880066C
:104320000ED43FE0D8F82C00D4F8981020F0070005
:1043300008430025C8F82C003E462078800631D579
:10434000D4F894004FEA307005280FD8DFE800F069
:1043500004140804040400BF2F46ADB918E000BFE0
:1043600004F12800022103F0D7FA0AE00125012711
:10437000207840061AD44BE004F10800002103F035
:1043800041FA05462F461DB1207840060ED43FE085
:10439000D8F82800D4F8941020F0E0400843002515
:1043A000C8F8280037462078400631D5D4F8A00058
:1043B0004FEAB02005280FD8DFE800F00414080405
:1043C000040400BF2E46ADB918E000BF04F1280078
:1043D000022103F0A1FA0AE0012501262078000657
:1043E0001AD44EE004F10800002103F00BFA054650
:1043F0002E461DB1207800060ED442E0D8F82C00DD
:10440000D4F8A01020F4E05008430025C8F82C0090
:104410003E462078000634D5D4F8A4004FEA703028
:10442000052815D8DFE800F0041A0E04040400BFC4
:104430002F46E5B12068010727D4C1063ED400030A
:1044400055D477E004F12800022103F065FA0AE070
:104450000125012720680107EFD516E004F10800C7
:10446000002103F0CFF90546002D2F46E2D1D8F800
:104470002C00D4F8A41020F4604008430025C8F8AC
:104480002C00374620680107D7D5D4F88800B0F54E
:10449000805F09D104F12800022103F03DFA0028D1
:1044A00018BF0127D4F88800D8F8281021F440510B
:1044B0000843C8F828002068C106C0D5D4F89C007D
:1044C000B0F5807F09D104F12800022103F024FA1D
:1044D000002818BF0127D4F89C00D8F82C1021F42C
:1044E00040710843C8F82C002068000322D5D4F896
:1044F000A800B0F5003F11D0B0F5803F08D00028EB
:1045000044D104F10800002103F07CF905E000BF6C
:1045100004F12800022103F0FFF905462E4655B9A3
:10452000D8F82C00D4F8A81020F440300843002517
:10453000C8F82C003E46A07840072CD5D4F88C0053
:10454000B0F5401F0BD0B0F5001F0BD0B0F5801FA9
:104550002AD1D8F8000040F40030C8F800002F46F7
:10456000D5B907E004F12800012103F0D5F905468B
:104570002F468DB9D8F82800D4F88C1020F44010BC
:1045800008430025C8F8280005E000BF01250126E2
:10459000A0784007D2D43746A078C00709D13E465C
:1045A0002068810015D532E001250127A078C007D9
:1045B000F5D0606DB0F5803F10D018BBD8F8000082
:1045C00040F40030C8F800002E4685B12068810014
:1045D0001DD46168820326D469E000BF04F108009D
:1045E000022103F00FF90546002D2E46EED1D8F832
:1045F0002000616D20F4803008430025C8F82000B9
:10460000CDE700BF0125012620688100E1D504F136
:104610002800022103F080F9002818BF0126D4E900
:104620000001820343D5D4F884206FF0010303EB2B
:104630003223022B0BD34FEA322343B1012B40F03C
:10464000B980D8F8003043F40033C8F800303DB3E7
:10465000C2022FD4C20037D4820240D4420048D4D0
:10466000C20F55D100025DD4C80766D188076FD448
:10467000480779D4080700F18380C80600F18C80D0
:10468000880607D504F12800022103F045F9002827
:1046900018BF0125002D18BF01252846BDE8F08769
:1046A000D8F8283023F440731A43C8F82820354638
:1046B000C202CFD5D8F82420A36F22F000421A43BB
:1046C000C8F82420C200C7D558F81C2CD4F8BC3038
:1046D00022F480421A4348F81C2C8202BED5D8F836
:1046E0002420236F22F080721A43C8F8242042004D
:1046F000B6D558F81C2C22F4004248F81C2CD4F8EB
:10470000C02058F81C3C1A4348F81C2CC20FA9D0F2
:10471000D8F82020A36D22F040521A43C8F8202078
:104720000002A1D5D8F82800D4F8902020F4400049
:104730001043C8F82800C80798D004F108000021E9
:1047400003F060F86168002818BF054688078FD518
:1047500004F10800012103F055F86168002818BF32
:10476000054648077FF586AF04F10800022103F0F3
:1047700049F86168002818BF054608077FF57DAF36
:1047800004F12800002103F0C7F86168002818BF71
:104790000546C8067FF574AF04F12800012103F037
:1047A000BBF86168002818BF054688063FF56AAF68
:1047B00070E700BF0125C2027FF54CAF7AE700BF6A
:1047C000D4F8B80058F81C1C4FF6CF7300F44072B0
:1047D00021F47C51C0F2FF0303EA1013B2F5407FCD
:1047E00008BF194348F81C1CD8F844106FF31F3059
:1047F00008430025C8F84400FFF7A9BC80B500F0C5
:104800007DF844F21841C5F602010A684BF61C43D4
:10481000C2F30322C0F610039A5C096802F01F027B
:1048200001F00F01595CD04001F01F01C84040F277
:104830000C01C1F20001086040F20801C1F2000160
:10484000086080BD80B500F059F844F2184CC5F6F8
:10485000020CDCF800204BF61C43C2F30322C0F626
:1048600010039A5CDCF8001002F01F0201F00F0147
:10487000595CD04001F01F01C84040F20C01C1F268
:104880000001086040F20801C1F200010860DCF894
:104890000410C1F30211595C01F01F01C84080BD32
:1048A00080B500F02BF844F2184CC5F6020CDCF889
:1048B00000204BF61C43C2F30322C0F610039A5C9F
:1048C000DCF8001002F01F0201F00F01595CD0402B
:1048D00001F01F01C84040F20C01C1F20001086064
:1048E00040F20801C1F200010860DCF80410C1F3D5
:1048F0000221595C01F01F01C84080BD44F2004113
:10490000C5F602010869C0F3C20003281CD00228C2
:1049100014D000281EBF40F60010C0F23D007047C2
:104920000868800649F20000C0F2D03058BF7047D6
:104930000968C1F3C101C840704700BF47F6400095
:10494000C0F27D10704700BF8B6A886AD1F82CC016
:10495000C0F30512486B002A04BF00207047C0F363
:10496000CC0000EE100A9FED281AB8EE400A03F0C2
:10497000030320EE010A9FED251ADFE803F0031A76
:10498000091A00BF0868800606D49FED221A10E0BD
:104990009FED1F1A0DE000BF086849F20003C0F345
:1049A000C100C0F2D03323FA00F001EE100AB8EED5
:1049B000411A02EE102AB8EE422A81EE021A086B62
:1049C0009FED153A6FF35F2002EE100A5FEACC709C
:1049D00018BFB0EE403A086BB8EE422A33EE020A36
:1049E000B7EE002AC0F3462030EE020A013021EE75
:1049F000000A01EE100AB8EE411A80EE010ABCEE80
:104A0000C00A10EE100A7047000000390024744AF2
:104A100020BCBE4B0024744C000000007047000016
:104A2000411E0020B0EB116F1CBF012070474EF2F9
:104A30001002CEF2000251604EF62351CEF2000178
:104A4000F0230B700721906011607047FFF7E6BFFD
:104A500090F83C20012A04BF0220704710B5D1E92C
:104A60000232D1E900CE22F47C5223F470531A436F
:104A700048F2FF73CFF6F07303EA0E0342EA030E27
:104A80000A692CF4772343EA0E0322F476221343B7
:104A90004A69D0F800C043EA020E40F200424CF4EA
:104AA0008063C4F2010293428A6A2EF4742E22F4C7
:104AB00070228B6942EA0E0242EA03430FD123F0CF
:104AC0007C72D1E9073E496A0024CFF6F04404EA3B
:104AD0000151114323F00072114341EA0E030021FA
:104AE000CCF8443080F83C10002010BD90F83C30E9
:104AF000012B04BF02207047F0B513685D1E072D1F
:104B000026D827A656F825402DA656F825C034A647
:104B100056F825703AA656F825E0022920D001293A
:104B200036D10168082B0D6E566825EA040506FA91
:104B300007F604EA060404EB050307D0926823EAAB
:104B40000C0302FA0EF202EA0C0213440B661DE09B
:104B500000244FF0000C00274FF0000E0229DED198
:104B60000168082B4D6E566825EA040506FA07F61B
:104B700004EA060404EB050307D0926823EA0C0359
:104B800002FA0EF202EA0C0213444B66002100E026
:104B90000121002280F83C20BDE8F0400846704723
:104BA00001000000020000000000000004000000FE
:104BB00000000000000000000000000000010000F4
:104BC00000020000000400000000000000080000D7
:104BD00000000000000000000000000000000000D5
:104BE00000000000010000000000000002000000C2
:104BF00000000000000000000000000008000000AD
:104C0000090000000A000000000000000B00000086
:104C10000000000000000000000000000000000094
:104C200090F83C20012A4FF002025CD010B580F8C9
:104C30003D20026840F2004C5368D2F808E042F48C
:104C40008064C4F2010C644503D14C6823F4700302
:104C500023430C6823F07003234341F2FF74C4F232
:104C60000004A24253600BDC40F2FF73C4F2000365
:104C70009A4215DCB2F1804F28D040F2004317E091
:104C800040F2FF33C4F201039A4217DC41F60003FD
:104C9000C4F200039A4219D00023C4F2010309E0D0
:104CA00040F60003C4F200039A420FD040F60043DE
:104CB000C4F200039A4209D00DE000BF44F20003A1
:104CC000C4F201039A4201D0624504D189682EF0F2
:104CD0008003194391600121002280F83D1080F883
:104CE0003C20BDE8104010467047000070B586B00B
:104CF000006840F20041C4F2010188424FF0000117
:104D00000591CDE90311CDE901111FD040F2004119
:104D1000C4F2000188424BD144F2E040C5F60200E3
:104D2000016841F002010160006800F0020000909B
:104D30000098102001900220CDE90200CDE9040086
:104D400040F20040C5F602002FE000BF44F2E04010
:104D5000C5F60200016840F2004641F0040101601E
:104D60000168C5F6020601F004010091009901688E
:104D7000022441F4807101600068032500F4807012
:104D800000900098C020019006F5806001A9CDE94F
:104D9000024404940595FEF78DF98020CDE90104C5
:104DA00006F5E050CDE90344059501A9FEF782F927
:104DB00006B070BD90F83C30012B04BF0220704754
:104DC0004FEAB202052A00F21F812DE9F041DFE827
:104DD00012F00700B900570093003100F50000BF42
:104DE000036843F6FF761D6A1A6A25F0020522F071
:104DF00001021A621A46D3F804C052F818EF8F68FD
:104E0000D1F80080C4F20106B34245EA070540F339
:104E10007D8144F20007C4F20107BB4200F08181AA
:104E200044F60007C4F20107BB4200F07A8144F265
:104E3000004772E1036843F6FF77D3F820C01A6A8F
:104E4000C4F2010722F480321A621A465D6852F8F1
:104E5000544FD1F800E08E68BB4240F3DB8044F24F
:104E60000007C4F20107BB4200F0DF8044F60007F0
:104E7000C4F20107BB4200F0D88044F20047D0E002
:104E8000036840F200461C6A1A6A43F4806722F401
:104E900080721A621A46C4F201065D6852F81CEF6D
:104EA000B7428F68D1F800C024F4007444EA0724A4
:104EB00008D11F6A24F4006427F480671F62CF685A
:104EC00044EA072443F6FF77C4F20107BB4240F3EC
:104ED000CD8044F20006C4F20106B34200F0CD805A
:104EE00044F60006C4F20106B34200F0C68044F264
:104EF0000046C4F20106BEE0036843F6FF77D3F82C
:104F000020C01A6AC4F2010722F480521A621A46BB
:104F10005C6852F81C5FD1F800E08E68BB4240F339
:104F2000CB8044F20007C4F20107BB4200F0CF80FF
:104F300044F60007C4F20107BB4200F0C88044F207
:104F40000047C0E0036840F200461C6A1A6A43F456
:104F5000806722F010021A621A46C4F201065D68E8
:104F600052F818EFB7428F68D1F800C024F020043F
:104F700044EA071408D11F6A24F0800427F0400790
:104F80001F62CF6844EA071443F6FF77C4F20107B3
:104F9000BB4240F3DF8044F20006C4F20106B34294
:104FA00000F0DF8044F60006C4F20106B34200F0D0
:104FB000D88044F20046C4F20106D0E0036843F60C
:104FC000FF77D3F820C01A6AC4F2010722F48012D6
:104FD0001A621A465D6852F8544FD1F800E08E68A4
:104FE000BB4240F3078144F20007C4F20107BB4211
:104FF00000F00B8144F60007C4F20107BB4200F049
:10500000048144F20047FCE00121002280F83C20AA
:10501000084670470027C4F20107BB4205D040F2A2
:105020000047C4F20107BB4204D14F6925F4803523
:1050300045EA07252CF4003747EA06474FF68C76F9
:10504000CFF6FE760336264046EA0E065D605E65C4
:105050004E6809699E651F625F6D47F008075F65CE
:105060005F6D27F004075F65F0E000BF0027C4F222
:105070000107BB4201D0B34206D1D1E9056725F44F
:1050800040553E4345EA06154FF68C76CFF6FE7640
:105090000EEA060747EA0C075D60DF614F680969A1
:1050A000DF631C62DF6947F00807DF61DF6927F013
:1050B0000407DF61CAE000BF0027C4F20107BB425A
:1050C00005D040F20047C4F20107BB4204D14F694A
:1050D00024F4804444EA87142CF4005747EA063746
:1050E00048F6FF46CFF6FF662E4046EA0E265C6085
:1050F000DE614E6809691E641F62DF6947F400675C
:10510000DF61DF6927F48067DF619EE00027C4F27A
:105110000107BB4205D040F20047C4F20107BB4281
:1051200007D11F6A25F0080527F004071F62CF6822
:105130003D43B34234DD44F20006C4F20106B342FB
:1051400039D044F60006C4F20106B34233D044F22B
:1051500000462CE00027C4F20107BB4201D0B34255
:1051600006D1D1E9056725F440653E4345EA860549
:1051700048F6FF46CFF6FF660EEA060747EA0C2719
:105180005D609F614F6809699F631C629F6947F476
:1051900000679F619F6927F480679F6155E000BFAA
:1051A0000026C4F20106B34205D040F20046C4F224
:1051B0000106B34206D1D1E905672CF440742643B9
:1051C00046EA070C4FF68C74CFF6FE740EEA04071D
:1051D00047EA0807C3F804C09F614F6809695F6325
:1051E0001D629F6947F008079F619F6927F00407C8
:1051F0009F612BE00027C4F20107BB4205D040F2BB
:105200000047C4F20107BB4204D14F6925F4802551
:1052100045EA87252CF4001747EA065748F6FF466B
:10522000CFF6FF6606F54076264046EA0E265D601C
:105230005E654E680969DE651F625F6D47F4006751
:105240005F655F6D27F480675F6509021368194326
:1052500011600021BDE8F041002280F83C200846A2
:1052600070470000002804BF0120704710B50446B5
:1052700090F83D0028B9002084F83C00204600F05A
:1052800023F8022084F83D002068211D04F046FC2C
:10529000012084F8480084F83E0084F83F0084F838
:1052A000400084F8410084F8420084F8430084F808
:1052B000440084F8450084F8460084F8470084F8E8
:1052C0003D00002010BD000080B586B0006840F2AF
:1052D0000042C4F2010200219042CDE90411CDE95F
:1052E0000211019114D040F20041C4F20001884241
:1052F00033D144F2E040C5F60200816841F002017A
:105300008160806800F002000090009806B080BDC7
:1053100044F2E040C5F60200026942F00202026176
:10532000026902F002020092009A026842F0010251
:105330000260006800F00100009000984020019099
:10534000122002900120CDE90301032005900020E6
:10535000C5F6020001A9FDF7ADFE06B080BD000054
:1053600080B5D9B10B1F4FEAB30E43224FF03F0C6B
:10537000BEF1040F38BF0CEBB302825C012A1CBFE4
:10538000012080BDBEF1030F1ED8DFE80EF0031927
:10539000111500BF022280F83F2018E090F83E204F
:1053A000012A1CBF012080BD022280F83E200EE0B1
:1053B000022280F841200AE0022280F8422006E022
:1053C000022280F8402002E0022280F84320026896
:1053D00001F01F000121136A01FA00F023EA000125
:1053E0001162116A08434FF6FF71C4F200018A424C
:1053F000106219DC40F2FF70C4F20000824231DD1D
:1054000040F60000C4F20000824245D040F6004061
:10541000C4F2000082423FD041F60000C4F2000016
:10542000824239D045E000BF43F6FF70C4F201006C
:10543000824244F2000040F20001C4F20100C4F2D2
:10544000010119DD82421FD044F60003C4F20103BA
:105450009A4219D044F20043C4F201039A4213D095
:1054600027E000BFB2F1804F16D040F20040C4F2F6
:105470000000824210D01CE08A4205D040F2004376
:10548000C4F201039A4214D1536C8A4243F400439C
:10549000536418BF824213D190680721C0F2010102
:1054A000014006294FF0000008D0B1F5803F08BF49
:1054B00080BD106840F001001060002080BD00BF7A
:1054C00040F20040C4F201008242E5D0F1E7000062
:1054D00090F88410012904BF022070472421C0F8ED
:1054E000881001680A680B6822F0005223F001035B
:1054F0000B60002343660A602021C0F8881080F802
:10550000843000207047000090F88420012A04BFF6
:1055100002207047B0B52422C0F888200268D0F875
:1055200064E0D2F800C01368BEF1000F23F001035D
:105530001360936823F0606341EA0301916019D01E
:10554000936891684BF66C5E490FC0F6100E4BF6EF
:1055500074551EF80140C0F61005695CC3F3426340
:105560002401B4FBF1F11EF80340EB5C2501B5FB0F
:10557000F3F301E001210123A0F86A102021A0F833
:105580006830C2F800C0C0F88810002180F884108C
:105590000020B0BD90F88420012A04BF022070478B
:1055A000B0B52422C0F888200268D0F864E0D2F8B0
:1055B00000C01368BEF1000F23F00103136093686D
:1055C00023F0604341EA0301916019D09368916828
:1055D0004BF66C5E490FC0F6100E4BF674551EF874
:1055E0000140C0F61005695CC3F342632401B4FBBB
:1055F000F1F11EF80340EB5C2501B5FBF3F301E08C
:1056000001210123A0F86A102021A0F86830C2F817
:1056100000C0C0F88810002180F884100020B0BDC0
:1056200010B5D0B10446D0F8880028B9002084F81D
:105630008400204600F026F82420C4F88800206862
:10564000A16A026822F00102026011B1204604F052
:1056500081FD204604F0A8FE10B1012010BD00BF5E
:105660002168486820F490404860886820F02A004B
:105670008860086840F0010220460A60BDE81040DA
:1056800004F0DCBD2DE9F041BAB0044602A80025C3
:105690000830C0213995CDE93755CDE93555FBF7AF
:1056A0000CF8206844F60001C4F20001884203D0DF
:1056B0003AB0BDE8F08100BF0395022502A802952B
:1056C000FEF7F4FA002818BFFBF7EAFF44F2E040C7
:1056D000C5F60200816840F2100841F48021816023
:1056E0008168002601F48021019101990168C4F2CA
:1056F000020841F002010160006835A900F00200D3
:10570000019001984FF44060CDE9350507203990AC
:1057100040F20040C5F60200CDE93766FDF7CAFC4D
:1057200041F61405C1F200052D204FF48067C5E94C
:1057300000802846C5E90266C5E90476C5E9066623
:10574000C5E90866FDF782F9002818BFFBF7A8FF36
:10575000C4F88050AC6341F68C0508F11800C1F222
:1057600000052E21402285E8C7002846C5E90566C8
:10577000C5E907666E62FDF769F9002818BFFBF7F7
:105780008FFFE567AC633AB0BDE8F08100F0380008
:10579000082804BF01207047182804BF0420704760
:1057A000102814BF002002207047000000F03802CB
:1057B000102A40F0978020F02F00B0F51D6F19DB04
:1057C000B0F5356F2CDBB0F5456F7BDB00F0D68094
:1057D000B0F5496F00F0A28041F6D042904240F00F
:1057E000818040F23C40C1F20000021D00200A60AE
:1057F000704700BFB0F50D6F26DAB0F5056F45DADA
:10580000B0F5FA6F00F09480B0F5016F6AD140F204
:105810008400C1F20000006A821C00200A60704708
:10582000B0F5256F24DAB0F51D6F63D0B0F5216FA8
:1058300058D140F28400C1F20000006A00F1140265
:1058400000200A60704700BFB0F5156F2CDAB0F584
:105850000D6F75D0B0F5116F44D140F28400C1F2E4
:105860000000006A00F10A0200200A60704700BFD1
:105870004AD0B0F5296F35D140F28400C1F2000062
:10588000006A00F1180200200A60704762D0B0F58B
:10589000096F27D140F28400C1F20000006A821D26
:1058A00000200A60704700BF5ED0B0F5196F19D1B3
:1058B00040F28400C1F20000006A00F10E020020F4
:1058C0000A607047B0F5356F62D0B0F5396F09D115
:1058D00040F28C20C1F2000000F10C0200200A60AE
:1058E000704700BF40F2C0520520C1F200020A60BA
:1058F000704700BF40F28400C1F20000006A00F16E
:10590000120200200A60704740F28400C1F20000D9
:10591000006A00F1160200200A60704740F28C20F5
:10592000C1F2000000F1720200200A60704700BF5F
:1059300040F28400C1F20000026A00200A60704751
:1059400040F28400C1F20000006A00F10802002069
:105950000A60704740F28400C1F20000006A021D34
:1059600000200A60704700BF40F28400C1F20000CE
:10597000006A00F10C0200200A60704740F28C209F
:10598000C1F2000000F1700200200A60704700BF01
:1059900040F28C20C1F20000021D00200A60704716
:1059A00004F06EF9FEE7000010B5D0E9070403F03B
:1059B000B1FCE06010BD00008179012918BF70477B
:1059C000B0B5C179012927D0032919D0022912D1F4
:1059D000D0E90712002304460846042182F820304B
:1059E00003F0BAFCE069B4F91610228B03F03CFC1A
:1059F0000146204651B903248471BDE8B040704788
:105A0000016A012281F82020426ACA60022484715E
:105A1000BDE8B040704700BFD0E90712002305463B
:105A20000846032182F82030032403F095FCE8693E
:105A3000B5F914102A8B03F017FC014628460029FB
:105A400018BF02248471BDE8B0407047818240F2E3
:105A50000111C1800321028301727047C18240F2AB
:105A60000121C180042102830172704710B50446F0
:105A700000F066F80B281CBF002010BD204600F087
:105A80001BF800284FF0000018BF10BDA0800220B6
:105A90002070012010BD000043880B4323EA02025E
:105AA000838842801943818070470000C069406943
:105AB00003F06CBB007A704740887047818840884B
:105AC00041EA004070470000006A0068704700002B
:105AD000006A406870470000C17903290ED002298E
